{
  "_format": "hh-sol-artifact-1",
  "contractName": "Root",
  "sourceName": "contracts/root/Root.sol",
  "abi": [
    {
      "inputs": [
        {
          "internalType": "contract ENS",
          "name": "_ens",
          "type": "address"
        }
      ],
      "stateMutability": "nonpayable",
      "type": "constructor"
    },
    {
      "anonymous": false,
      "inputs": [
        {
          "indexed": true,
          "internalType": "address",
          "name": "controller",
          "type": "address"
        },
        {
          "indexed": false,
          "internalType": "bool",
          "name": "enabled",
          "type": "bool"
        }
      ],
      "name": "ControllerChanged",
      "type": "event"
    },
    {
      "anonymous": false,
      "inputs": [
        {
          "indexed": true,
          "internalType": "address",
          "name": "previousOwner",
          "type": "address"
        },
        {
          "indexed": true,
          "internalType": "address",
          "name": "newOwner",
          "type": "address"
        }
      ],
      "name": "OwnershipTransferred",
      "type": "event"
    },
    {
      "anonymous": false,
      "inputs": [
        {
          "indexed": true,
          "internalType": "bytes32",
          "name": "label",
          "type": "bytes32"
        }
      ],
      "name": "TLDLocked",
      "type": "event"
    },
    {
      "inputs": [
        {
          "internalType": "address",
          "name": "",
          "type": "address"
        }
      ],
      "name": "controllers",
      "outputs": [
        {
          "internalType": "bool",
          "name": "",
          "type": "bool"
        }
      ],
      "stateMutability": "view",
      "type": "function"
    },
    {
      "inputs": [],
      "name": "ens",
      "outputs": [
        {
          "internalType": "contract ENS",
          "name": "",
          "type": "address"
        }
      ],
      "stateMutability": "view",
      "type": "function"
    },
    {
      "inputs": [
        {
          "internalType": "bytes32",
          "name": "label",
          "type": "bytes32"
        }
      ],
      "name": "lock",
      "outputs": [],
      "stateMutability": "nonpayable",
      "type": "function"
    },
    {
      "inputs": [
        {
          "internalType": "bytes32",
          "name": "",
          "type": "bytes32"
        }
      ],
      "name": "locked",
      "outputs": [
        {
          "internalType": "bool",
          "name": "",
          "type": "bool"
        }
      ],
      "stateMutability": "view",
      "type": "function"
    },
    {
      "inputs": [],
      "name": "owner",
      "outputs": [
        {
          "internalType": "address",
          "name": "",
          "type": "address"
        }
      ],
      "stateMutability": "view",
      "type": "function"
    },
    {
      "inputs": [],
      "name": "renounceOwnership",
      "outputs": [],
      "stateMutability": "nonpayable",
      "type": "function"
    },
    {
      "inputs": [
        {
          "internalType": "address",
          "name": "controller",
          "type": "address"
        },
        {
          "internalType": "bool",
          "name": "enabled",
          "type": "bool"
        }
      ],
      "name": "setController",
      "outputs": [],
      "stateMutability": "nonpayable",
      "type": "function"
    },
    {
      "inputs": [
        {
          "internalType": "address",
          "name": "resolver",
          "type": "address"
        }
      ],
      "name": "setResolver",
      "outputs": [],
      "stateMutability": "nonpayable",
      "type": "function"
    },
    {
      "inputs": [
        {
          "internalType": "bytes32",
          "name": "label",
          "type": "bytes32"
        },
        {
          "internalType": "address",
          "name": "owner",
          "type": "address"
        }
      ],
      "name": "setSubnodeOwner",
      "outputs": [],
      "stateMutability": "nonpayable",
      "type": "function"
    },
    {
      "inputs": [
        {
          "internalType": "bytes4",
          "name": "interfaceID",
          "type": "bytes4"
        }
      ],
      "name": "supportsInterface",
      "outputs": [
        {
          "internalType": "bool",
          "name": "",
          "type": "bool"
        }
      ],
      "stateMutability": "pure",
      "type": "function"
    },
    {
      "inputs": [
        {
          "internalType": "address",
          "name": "newOwner",
          "type": "address"
        }
      ],
      "name": "transferOwnership",
      "outputs": [],
      "stateMutability": "nonpayable",
      "type": "function"
    }
  ],
  "bytecode": "0x608060405234801561001057600080fd5b50604051610b2e380380610b2e83398101604081905261002f916100ad565b6100383361005d565b600280546001600160a01b0319166001600160a01b03929092169190911790556100dd565b600080546001600160a01b038381166001600160a01b0319831681178455604051919092169283917f8be0079c531659141344cd1fd0a4f28419497f9722a3daafe3b4186f6b6457e09190a35050565b6000602082840312156100bf57600080fd5b81516001600160a01b03811681146100d657600080fd5b9392505050565b610a42806100ec6000396000f3fe608060405234801561001057600080fd5b50600436106100c95760003560e01c80638cb8ecec11610081578063da8c229e1161005b578063da8c229e14610201578063e0dba60f14610224578063f2fde38b1461023757600080fd5b80638cb8ecec146101ad5780638da5cb5b146101c0578063cbe9e764146101de57600080fd5b80633f15457f116100b25780633f15457f1461014d5780634e543b2614610192578063715018a6146101a557600080fd5b806301670ba9146100ce57806301ffc9a7146100e3575b600080fd5b6100e16100dc3660046108e5565b61024a565b005b6101386100f13660046108fe565b7fffffffff00000000000000000000000000000000000000000000000000000000167f01ffc9a7000000000000000000000000000000000000000000000000000000001490565b60405190151581526020015b60405180910390f35b60025461016d9073ffffffffffffffffffffffffffffffffffffffff1681565b60405173ffffffffffffffffffffffffffffffffffffffff9091168152602001610144565b6100e16101a0366004610970565b610334565b6100e1610444565b6100e16101bb36600461098b565b6104d1565b60005473ffffffffffffffffffffffffffffffffffffffff1661016d565b6101386101ec3660046108e5565b60036020526000908152604090205460ff1681565b61013861020f366004610970565b60016020526000908152604090205460ff1681565b6100e16102323660046109b7565b610635565b6100e1610245366004610970565b610740565b60005473ffffffffffffffffffffffffffffffffffffffff1633146102d0576040517f08c379a000000000000000000000000000000000000000000000000000000000815260206004820181905260248201527f4f776e61626c653a2063616c6c6572206973206e6f7420746865206f776e657260448201526064015b60405180910390fd5b60405181907f1764176cfa565853ba1ded547a830a9f9bff95231ef6fd228b3ddd617577756990600090a2600090815260036020526040902080547fffffffffffffffffffffffffffffffffffffffffffffffffffffffffffffff00166001179055565b60005473ffffffffffffffffffffffffffffffffffffffff1633146103b5576040517f08c379a000000000000000000000000000000000000000000000000000000000815260206004820181905260248201527f4f776e61626c653a2063616c6c6572206973206e6f7420746865206f776e657260448201526064016102c7565b6002546040517f1896f70a0000000000000000000000000000000000000000000000000000000081526000600482015273ffffffffffffffffffffffffffffffffffffffff838116602483015290911690631896f70a90604401600060405180830381600087803b15801561042957600080fd5b505af115801561043d573d6000803e3d6000fd5b5050505050565b60005473ffffffffffffffffffffffffffffffffffffffff1633146104c5576040517f08c379a000000000000000000000000000000000000000000000000000000000815260206004820181905260248201527f4f776e61626c653a2063616c6c6572206973206e6f7420746865206f776e657260448201526064016102c7565b6104cf6000610870565b565b3360009081526001602052604090205460ff16610570576040517f08c379a000000000000000000000000000000000000000000000000000000000815260206004820152602860248201527f436f6e74726f6c6c61626c653a2043616c6c6572206973206e6f74206120636f60448201527f6e74726f6c6c657200000000000000000000000000000000000000000000000060648201526084016102c7565b60008281526003602052604090205460ff161561058c57600080fd5b6002546040517f06ab5923000000000000000000000000000000000000000000000000000000008152600060048201526024810184905273ffffffffffffffffffffffffffffffffffffffff8381166044830152909116906306ab5923906064016020604051808303816000875af115801561060c573d6000803e3d6000fd5b505050506040513d601f19601f8201168201806040525081019061063091906109f3565b505050565b60005473ffffffffffffffffffffffffffffffffffffffff1633146106b6576040517f08c379a000000000000000000000000000000000000000000000000000000000815260206004820181905260248201527f4f776e61626c653a2063616c6c6572206973206e6f7420746865206f776e657260448201526064016102c7565b73ffffffffffffffffffffffffffffffffffffffff821660008181526001602090815260409182902080547fffffffffffffffffffffffffffffffffffffffffffffffffffffffffffffff001685151590811790915591519182527f4c97694570a07277810af7e5669ffd5f6a2d6b74b6e9a274b8b870fd5114cf87910160405180910390a25050565b60005473ffffffffffffffffffffffffffffffffffffffff1633146107c1576040517f08c379a000000000000000000000000000000000000000000000000000000000815260206004820181905260248201527f4f776e61626c653a2063616c6c6572206973206e6f7420746865206f776e657260448201526064016102c7565b73ffffffffffffffffffffffffffffffffffffffff8116610864576040517f08c379a000000000000000000000000000000000000000000000000000000000815260206004820152602660248201527f4f776e61626c653a206e6577206f776e657220697320746865207a65726f206160448201527f646472657373000000000000000000000000000000000000000000000000000060648201526084016102c7565b61086d81610870565b50565b6000805473ffffffffffffffffffffffffffffffffffffffff8381167fffffffffffffffffffffffff0000000000000000000000000000000000000000831681178455604051919092169283917f8be0079c531659141344cd1fd0a4f28419497f9722a3daafe3b4186f6b6457e09190a35050565b6000602082840312156108f757600080fd5b5035919050565b60006020828403121561091057600080fd5b81357fffffffff000000000000000000000000000000000000000000000000000000008116811461094057600080fd5b9392505050565b803573ffffffffffffffffffffffffffffffffffffffff8116811461096b57600080fd5b919050565b60006020828403121561098257600080fd5b61094082610947565b6000806040838503121561099e57600080fd5b823591506109ae60208401610947565b90509250929050565b600080604083850312156109ca57600080fd5b6109d383610947565b9150602083013580151581146109e857600080fd5b809150509250929050565b600060208284031215610a0557600080fd5b505191905056fea2646970667358221220ad7c94c5c408f40a2b5dab8d76404742873dac48943e2b0479b8a717e78b459a64736f6c63430008110033",
  "linkReferences": {},
  "deployedLinkReferences": {}
}