{
  "_format": "hh-sol-artifact-1",
  "contractName": "NameWrapper",
  "sourceName": "contracts/wrapper/NameWrapper.sol",
  "abi": [
    {
      "inputs": [
        {
          "internalType": "contract ENS",
          "name": "_ens",
          "type": "address"
        },
        {
          "internalType": "contract IBaseRegistrar",
          "name": "_registrar",
          "type": "address"
        },
        {
          "internalType": "contract IMetadataService",
          "name": "_metadataService",
          "type": "address"
        }
      ],
      "stateMutability": "nonpayable",
      "type": "constructor"
    },
    {
      "inputs": [],
      "name": "CannotUpgrade",
      "type": "error"
    },
    {
      "inputs": [],
      "name": "IncompatibleParent",
      "type": "error"
    },
    {
      "inputs": [
        {
          "internalType": "address",
          "name": "owner",
          "type": "address"
        }
      ],
      "name": "IncorrectTargetOwner",
      "type": "error"
    },
    {
      "inputs": [],
      "name": "IncorrectTokenType",
      "type": "error"
    },
    {
      "inputs": [
        {
          "internalType": "bytes32",
          "name": "labelHash",
          "type": "bytes32"
        },
        {
          "internalType": "bytes32",
          "name": "expectedLabelhash",
          "type": "bytes32"
        }
      ],
      "name": "LabelMismatch",
      "type": "error"
    },
    {
      "inputs": [
        {
          "internalType": "string",
          "name": "label",
          "type": "string"
        }
      ],
      "name": "LabelTooLong",
      "type": "error"
    },
    {
      "inputs": [],
      "name": "LabelTooShort",
      "type": "error"
    },
    {
      "inputs": [
        {
          "internalType": "bytes32",
          "name": "node",
          "type": "bytes32"
        }
      ],
      "name": "OperationProhibited",
      "type": "error"
    },
    {
      "inputs": [
        {
          "internalType": "bytes32",
          "name": "node",
          "type": "bytes32"
        },
        {
          "internalType": "address",
          "name": "addr",
          "type": "address"
        }
      ],
      "name": "Unauthorised",
      "type": "error"
    },
    {
      "anonymous": false,
      "inputs": [
        {
          "indexed": true,
          "internalType": "address",
          "name": "account",
          "type": "address"
        },
        {
          "indexed": true,
          "internalType": "address",
          "name": "operator",
          "type": "address"
        },
        {
          "indexed": false,
          "internalType": "bool",
          "name": "approved",
          "type": "bool"
        }
      ],
      "name": "ApprovalForAll",
      "type": "event"
    },
    {
      "anonymous": false,
      "inputs": [
        {
          "indexed": true,
          "internalType": "address",
          "name": "controller",
          "type": "address"
        },
        {
          "indexed": false,
          "internalType": "bool",
          "name": "active",
          "type": "bool"
        }
      ],
      "name": "ControllerChanged",
      "type": "event"
    },
    {
      "anonymous": false,
      "inputs": [
        {
          "indexed": true,
          "internalType": "bytes32",
          "name": "node",
          "type": "bytes32"
        },
        {
          "indexed": false,
          "internalType": "uint32",
          "name": "fuses",
          "type": "uint32"
        },
        {
          "indexed": false,
          "internalType": "uint64",
          "name": "expiry",
          "type": "uint64"
        }
      ],
      "name": "FusesSet",
      "type": "event"
    },
    {
      "anonymous": false,
      "inputs": [
        {
          "indexed": true,
          "internalType": "bytes32",
          "name": "node",
          "type": "bytes32"
        },
        {
          "indexed": false,
          "internalType": "address",
          "name": "owner",
          "type": "address"
        }
      ],
      "name": "NameUnwrapped",
      "type": "event"
    },
    {
      "anonymous": false,
      "inputs": [
        {
          "indexed": true,
          "internalType": "bytes32",
          "name": "node",
          "type": "bytes32"
        },
        {
          "indexed": false,
          "internalType": "bytes",
          "name": "name",
          "type": "bytes"
        },
        {
          "indexed": false,
          "internalType": "address",
          "name": "owner",
          "type": "address"
        },
        {
          "indexed": false,
          "internalType": "uint32",
          "name": "fuses",
          "type": "uint32"
        },
        {
          "indexed": false,
          "internalType": "uint64",
          "name": "expiry",
          "type": "uint64"
        }
      ],
      "name": "NameWrapped",
      "type": "event"
    },
    {
      "anonymous": false,
      "inputs": [
        {
          "indexed": true,
          "internalType": "address",
          "name": "previousOwner",
          "type": "address"
        },
        {
          "indexed": true,
          "internalType": "address",
          "name": "newOwner",
          "type": "address"
        }
      ],
      "name": "OwnershipTransferred",
      "type": "event"
    },
    {
      "anonymous": false,
      "inputs": [
        {
          "indexed": true,
          "internalType": "address",
          "name": "operator",
          "type": "address"
        },
        {
          "indexed": true,
          "internalType": "address",
          "name": "from",
          "type": "address"
        },
        {
          "indexed": true,
          "internalType": "address",
          "name": "to",
          "type": "address"
        },
        {
          "indexed": false,
          "internalType": "uint256[]",
          "name": "ids",
          "type": "uint256[]"
        },
        {
          "indexed": false,
          "internalType": "uint256[]",
          "name": "values",
          "type": "uint256[]"
        }
      ],
      "name": "TransferBatch",
      "type": "event"
    },
    {
      "anonymous": false,
      "inputs": [
        {
          "indexed": true,
          "internalType": "address",
          "name": "operator",
          "type": "address"
        },
        {
          "indexed": true,
          "internalType": "address",
          "name": "from",
          "type": "address"
        },
        {
          "indexed": true,
          "internalType": "address",
          "name": "to",
          "type": "address"
        },
        {
          "indexed": false,
          "internalType": "uint256",
          "name": "id",
          "type": "uint256"
        },
        {
          "indexed": false,
          "internalType": "uint256",
          "name": "value",
          "type": "uint256"
        }
      ],
      "name": "TransferSingle",
      "type": "event"
    },
    {
      "anonymous": false,
      "inputs": [
        {
          "indexed": false,
          "internalType": "string",
          "name": "value",
          "type": "string"
        },
        {
          "indexed": true,
          "internalType": "uint256",
          "name": "id",
          "type": "uint256"
        }
      ],
      "name": "URI",
      "type": "event"
    },
    {
      "inputs": [
        {
          "internalType": "uint256",
          "name": "",
          "type": "uint256"
        }
      ],
      "name": "_tokens",
      "outputs": [
        {
          "internalType": "uint256",
          "name": "",
          "type": "uint256"
        }
      ],
      "stateMutability": "view",
      "type": "function"
    },
    {
      "inputs": [
        {
          "internalType": "bytes32",
          "name": "node",
          "type": "bytes32"
        },
        {
          "internalType": "uint32",
          "name": "fuseMask",
          "type": "uint32"
        }
      ],
      "name": "allFusesBurned",
      "outputs": [
        {
          "internalType": "bool",
          "name": "",
          "type": "bool"
        }
      ],
      "stateMutability": "view",
      "type": "function"
    },
    {
      "inputs": [
        {
          "internalType": "address",
          "name": "account",
          "type": "address"
        },
        {
          "internalType": "uint256",
          "name": "id",
          "type": "uint256"
        }
      ],
      "name": "balanceOf",
      "outputs": [
        {
          "internalType": "uint256",
          "name": "",
          "type": "uint256"
        }
      ],
      "stateMutability": "view",
      "type": "function"
    },
    {
      "inputs": [
        {
          "internalType": "address[]",
          "name": "accounts",
          "type": "address[]"
        },
        {
          "internalType": "uint256[]",
          "name": "ids",
          "type": "uint256[]"
        }
      ],
      "name": "balanceOfBatch",
      "outputs": [
        {
          "internalType": "uint256[]",
          "name": "",
          "type": "uint256[]"
        }
      ],
      "stateMutability": "view",
      "type": "function"
    },
    {
      "inputs": [
        {
          "internalType": "address",
          "name": "",
          "type": "address"
        }
      ],
      "name": "controllers",
      "outputs": [
        {
          "internalType": "bool",
          "name": "",
          "type": "bool"
        }
      ],
      "stateMutability": "view",
      "type": "function"
    },
    {
      "inputs": [],
      "name": "ens",
      "outputs": [
        {
          "internalType": "contract ENS",
          "name": "",
          "type": "address"
        }
      ],
      "stateMutability": "view",
      "type": "function"
    },
    {
      "inputs": [
        {
          "internalType": "uint256",
          "name": "id",
          "type": "uint256"
        }
      ],
      "name": "getData",
      "outputs": [
        {
          "internalType": "address",
          "name": "",
          "type": "address"
        },
        {
          "internalType": "uint32",
          "name": "",
          "type": "uint32"
        },
        {
          "internalType": "uint64",
          "name": "",
          "type": "uint64"
        }
      ],
      "stateMutability": "view",
      "type": "function"
    },
    {
      "inputs": [
        {
          "internalType": "address",
          "name": "account",
          "type": "address"
        },
        {
          "internalType": "address",
          "name": "operator",
          "type": "address"
        }
      ],
      "name": "isApprovedForAll",
      "outputs": [
        {
          "internalType": "bool",
          "name": "",
          "type": "bool"
        }
      ],
      "stateMutability": "view",
      "type": "function"
    },
    {
      "inputs": [
        {
          "internalType": "bytes32",
          "name": "node",
          "type": "bytes32"
        },
        {
          "internalType": "address",
          "name": "addr",
          "type": "address"
        }
      ],
      "name": "isTokenOwnerOrApproved",
      "outputs": [
        {
          "internalType": "bool",
          "name": "",
          "type": "bool"
        }
      ],
      "stateMutability": "view",
      "type": "function"
    },
    {
      "inputs": [
        {
          "internalType": "bytes32",
          "name": "node",
          "type": "bytes32"
        }
      ],
      "name": "isWrapped",
      "outputs": [
        {
          "internalType": "bool",
          "name": "",
          "type": "bool"
        }
      ],
      "stateMutability": "view",
      "type": "function"
    },
    {
      "inputs": [],
      "name": "metadataService",
      "outputs": [
        {
          "internalType": "contract IMetadataService",
          "name": "",
          "type": "address"
        }
      ],
      "stateMutability": "view",
      "type": "function"
    },
    {
      "inputs": [],
      "name": "name",
      "outputs": [
        {
          "internalType": "string",
          "name": "",
          "type": "string"
        }
      ],
      "stateMutability": "view",
      "type": "function"
    },
    {
      "inputs": [
        {
          "internalType": "bytes32",
          "name": "",
          "type": "bytes32"
        }
      ],
      "name": "names",
      "outputs": [
        {
          "internalType": "bytes",
          "name": "",
          "type": "bytes"
        }
      ],
      "stateMutability": "view",
      "type": "function"
    },
    {
      "inputs": [
        {
          "internalType": "address",
          "name": "to",
          "type": "address"
        },
        {
          "internalType": "address",
          "name": "",
          "type": "address"
        },
        {
          "internalType": "uint256",
          "name": "tokenId",
          "type": "uint256"
        },
        {
          "internalType": "bytes",
          "name": "data",
          "type": "bytes"
        }
      ],
      "name": "onERC721Received",
      "outputs": [
        {
          "internalType": "bytes4",
          "name": "",
          "type": "bytes4"
        }
      ],
      "stateMutability": "nonpayable",
      "type": "function"
    },
    {
      "inputs": [],
      "name": "owner",
      "outputs": [
        {
          "internalType": "address",
          "name": "",
          "type": "address"
        }
      ],
      "stateMutability": "view",
      "type": "function"
    },
    {
      "inputs": [
        {
          "internalType": "uint256",
          "name": "id",
          "type": "uint256"
        }
      ],
      "name": "ownerOf",
      "outputs": [
        {
          "internalType": "address",
          "name": "owner",
          "type": "address"
        }
      ],
      "stateMutability": "view",
      "type": "function"
    },
    {
      "inputs": [
        {
          "internalType": "address",
          "name": "_token",
          "type": "address"
        },
        {
          "internalType": "address",
          "name": "_to",
          "type": "address"
        },
        {
          "internalType": "uint256",
          "name": "_amount",
          "type": "uint256"
        }
      ],
      "name": "recoverFunds",
      "outputs": [],
      "stateMutability": "nonpayable",
      "type": "function"
    },
    {
      "inputs": [
        {
          "internalType": "string",
          "name": "label",
          "type": "string"
        },
        {
          "internalType": "address",
          "name": "wrappedOwner",
          "type": "address"
        },
        {
          "internalType": "uint256",
          "name": "duration",
          "type": "uint256"
        },
        {
          "internalType": "address",
          "name": "resolver",
          "type": "address"
        },
        {
          "internalType": "uint32",
          "name": "fuses",
          "type": "uint32"
        },
        {
          "internalType": "uint64",
          "name": "expiry",
          "type": "uint64"
        }
      ],
      "name": "registerAndWrapETH2LD",
      "outputs": [
        {
          "internalType": "uint256",
          "name": "registrarExpiry",
          "type": "uint256"
        }
      ],
      "stateMutability": "nonpayable",
      "type": "function"
    },
    {
      "inputs": [],
      "name": "registrar",
      "outputs": [
        {
          "internalType": "contract IBaseRegistrar",
          "name": "",
          "type": "address"
        }
      ],
      "stateMutability": "view",
      "type": "function"
    },
    {
      "inputs": [
        {
          "internalType": "uint256",
          "name": "tokenId",
          "type": "uint256"
        },
        {
          "internalType": "uint256",
          "name": "duration",
          "type": "uint256"
        },
        {
          "internalType": "uint32",
          "name": "fuses",
          "type": "uint32"
        },
        {
          "internalType": "uint64",
          "name": "expiry",
          "type": "uint64"
        }
      ],
      "name": "renew",
      "outputs": [
        {
          "internalType": "uint256",
          "name": "expires",
          "type": "uint256"
        }
      ],
      "stateMutability": "nonpayable",
      "type": "function"
    },
    {
      "inputs": [],
      "name": "renounceOwnership",
      "outputs": [],
      "stateMutability": "nonpayable",
      "type": "function"
    },
    {
      "inputs": [
        {
          "internalType": "address",
          "name": "from",
          "type": "address"
        },
        {
          "internalType": "address",
          "name": "to",
          "type": "address"
        },
        {
          "internalType": "uint256[]",
          "name": "ids",
          "type": "uint256[]"
        },
        {
          "internalType": "uint256[]",
          "name": "amounts",
          "type": "uint256[]"
        },
        {
          "internalType": "bytes",
          "name": "data",
          "type": "bytes"
        }
      ],
      "name": "safeBatchTransferFrom",
      "outputs": [],
      "stateMutability": "nonpayable",
      "type": "function"
    },
    {
      "inputs": [
        {
          "internalType": "address",
          "name": "from",
          "type": "address"
        },
        {
          "internalType": "address",
          "name": "to",
          "type": "address"
        },
        {
          "internalType": "uint256",
          "name": "id",
          "type": "uint256"
        },
        {
          "internalType": "uint256",
          "name": "amount",
          "type": "uint256"
        },
        {
          "internalType": "bytes",
          "name": "data",
          "type": "bytes"
        }
      ],
      "name": "safeTransferFrom",
      "outputs": [],
      "stateMutability": "nonpayable",
      "type": "function"
    },
    {
      "inputs": [
        {
          "internalType": "address",
          "name": "operator",
          "type": "address"
        },
        {
          "internalType": "bool",
          "name": "approved",
          "type": "bool"
        }
      ],
      "name": "setApprovalForAll",
      "outputs": [],
      "stateMutability": "nonpayable",
      "type": "function"
    },
    {
      "inputs": [
        {
          "internalType": "bytes32",
          "name": "parentNode",
          "type": "bytes32"
        },
        {
          "internalType": "bytes32",
          "name": "labelhash",
          "type": "bytes32"
        },
        {
          "internalType": "uint32",
          "name": "fuses",
          "type": "uint32"
        },
        {
          "internalType": "uint64",
          "name": "expiry",
          "type": "uint64"
        }
      ],
      "name": "setChildFuses",
      "outputs": [],
      "stateMutability": "nonpayable",
      "type": "function"
    },
    {
      "inputs": [
        {
          "internalType": "address",
          "name": "controller",
          "type": "address"
        },
        {
          "internalType": "bool",
          "name": "active",
          "type": "bool"
        }
      ],
      "name": "setController",
      "outputs": [],
      "stateMutability": "nonpayable",
      "type": "function"
    },
    {
      "inputs": [
        {
          "internalType": "bytes32",
          "name": "node",
          "type": "bytes32"
        },
        {
          "internalType": "uint32",
          "name": "fuses",
          "type": "uint32"
        }
      ],
      "name": "setFuses",
      "outputs": [
        {
          "internalType": "uint32",
          "name": "",
          "type": "uint32"
        }
      ],
      "stateMutability": "nonpayable",
      "type": "function"
    },
    {
      "inputs": [
        {
          "internalType": "contract IMetadataService",
          "name": "_metadataService",
          "type": "address"
        }
      ],
      "name": "setMetadataService",
      "outputs": [],
      "stateMutability": "nonpayable",
      "type": "function"
    },
    {
      "inputs": [
        {
          "internalType": "bytes32",
          "name": "node",
          "type": "bytes32"
        },
        {
          "internalType": "address",
          "name": "owner",
          "type": "address"
        },
        {
          "internalType": "address",
          "name": "resolver",
          "type": "address"
        },
        {
          "internalType": "uint64",
          "name": "ttl",
          "type": "uint64"
        }
      ],
      "name": "setRecord",
      "outputs": [],
      "stateMutability": "nonpayable",
      "type": "function"
    },
    {
      "inputs": [
        {
          "internalType": "bytes32",
          "name": "node",
          "type": "bytes32"
        },
        {
          "internalType": "address",
          "name": "resolver",
          "type": "address"
        }
      ],
      "name": "setResolver",
      "outputs": [],
      "stateMutability": "nonpayable",
      "type": "function"
    },
    {
      "inputs": [
        {
          "internalType": "bytes32",
          "name": "parentNode",
          "type": "bytes32"
        },
        {
          "internalType": "string",
          "name": "label",
          "type": "string"
        },
        {
          "internalType": "address",
          "name": "owner",
          "type": "address"
        },
        {
          "internalType": "uint32",
          "name": "fuses",
          "type": "uint32"
        },
        {
          "internalType": "uint64",
          "name": "expiry",
          "type": "uint64"
        }
      ],
      "name": "setSubnodeOwner",
      "outputs": [
        {
          "internalType": "bytes32",
          "name": "node",
          "type": "bytes32"
        }
      ],
      "stateMutability": "nonpayable",
      "type": "function"
    },
    {
      "inputs": [
        {
          "internalType": "bytes32",
          "name": "parentNode",
          "type": "bytes32"
        },
        {
          "internalType": "string",
          "name": "label",
          "type": "string"
        },
        {
          "internalType": "address",
          "name": "owner",
          "type": "address"
        },
        {
          "internalType": "address",
          "name": "resolver",
          "type": "address"
        },
        {
          "internalType": "uint64",
          "name": "ttl",
          "type": "uint64"
        },
        {
          "internalType": "uint32",
          "name": "fuses",
          "type": "uint32"
        },
        {
          "internalType": "uint64",
          "name": "expiry",
          "type": "uint64"
        }
      ],
      "name": "setSubnodeRecord",
      "outputs": [
        {
          "internalType": "bytes32",
          "name": "node",
          "type": "bytes32"
        }
      ],
      "stateMutability": "nonpayable",
      "type": "function"
    },
    {
      "inputs": [
        {
          "internalType": "bytes32",
          "name": "node",
          "type": "bytes32"
        },
        {
          "internalType": "uint64",
          "name": "ttl",
          "type": "uint64"
        }
      ],
      "name": "setTTL",
      "outputs": [],
      "stateMutability": "nonpayable",
      "type": "function"
    },
    {
      "inputs": [
        {
          "internalType": "contract INameWrapperUpgrade",
          "name": "_upgradeAddress",
          "type": "address"
        }
      ],
      "name": "setUpgradeContract",
      "outputs": [],
      "stateMutability": "nonpayable",
      "type": "function"
    },
    {
      "inputs": [
        {
          "internalType": "bytes4",
          "name": "interfaceId",
          "type": "bytes4"
        }
      ],
      "name": "supportsInterface",
      "outputs": [
        {
          "internalType": "bool",
          "name": "",
          "type": "bool"
        }
      ],
      "stateMutability": "view",
      "type": "function"
    },
    {
      "inputs": [
        {
          "internalType": "address",
          "name": "newOwner",
          "type": "address"
        }
      ],
      "name": "transferOwnership",
      "outputs": [],
      "stateMutability": "nonpayable",
      "type": "function"
    },
    {
      "inputs": [
        {
          "internalType": "bytes32",
          "name": "parentNode",
          "type": "bytes32"
        },
        {
          "internalType": "bytes32",
          "name": "labelhash",
          "type": "bytes32"
        },
        {
          "internalType": "address",
          "name": "controller",
          "type": "address"
        }
      ],
      "name": "unwrap",
      "outputs": [],
      "stateMutability": "nonpayable",
      "type": "function"
    },
    {
      "inputs": [
        {
          "internalType": "bytes32",
          "name": "labelhash",
          "type": "bytes32"
        },
        {
          "internalType": "address",
          "name": "registrant",
          "type": "address"
        },
        {
          "internalType": "address",
          "name": "controller",
          "type": "address"
        }
      ],
      "name": "unwrapETH2LD",
      "outputs": [],
      "stateMutability": "nonpayable",
      "type": "function"
    },
    {
      "inputs": [
        {
          "internalType": "bytes32",
          "name": "parentNode",
          "type": "bytes32"
        },
        {
          "internalType": "string",
          "name": "label",
          "type": "string"
        },
        {
          "internalType": "address",
          "name": "wrappedOwner",
          "type": "address"
        },
        {
          "internalType": "address",
          "name": "resolver",
          "type": "address"
        }
      ],
      "name": "upgrade",
      "outputs": [],
      "stateMutability": "nonpayable",
      "type": "function"
    },
    {
      "inputs": [],
      "name": "upgradeContract",
      "outputs": [
        {
          "internalType": "contract INameWrapperUpgrade",
          "name": "",
          "type": "address"
        }
      ],
      "stateMutability": "view",
      "type": "function"
    },
    {
      "inputs": [
        {
          "internalType": "string",
          "name": "label",
          "type": "string"
        },
        {
          "internalType": "address",
          "name": "wrappedOwner",
          "type": "address"
        },
        {
          "internalType": "address",
          "name": "resolver",
          "type": "address"
        }
      ],
      "name": "upgradeETH2LD",
      "outputs": [],
      "stateMutability": "nonpayable",
      "type": "function"
    },
    {
      "inputs": [
        {
          "internalType": "uint256",
          "name": "tokenId",
          "type": "uint256"
        }
      ],
      "name": "uri",
      "outputs": [
        {
          "internalType": "string",
          "name": "",
          "type": "string"
        }
      ],
      "stateMutability": "view",
      "type": "function"
    },
    {
      "inputs": [
        {
          "internalType": "bytes",
          "name": "name",
          "type": "bytes"
        },
        {
          "internalType": "address",
          "name": "wrappedOwner",
          "type": "address"
        },
        {
          "internalType": "address",
          "name": "resolver",
          "type": "address"
        }
      ],
      "name": "wrap",
      "outputs": [],
      "stateMutability": "nonpayable",
      "type": "function"
    },
    {
      "inputs": [
        {
          "internalType": "string",
          "name": "label",
          "type": "string"
        },
        {
          "internalType": "address",
          "name": "wrappedOwner",
          "type": "address"
        },
        {
          "internalType": "uint32",
          "name": "fuses",
          "type": "uint32"
        },
        {
          "internalType": "uint64",
          "name": "expiry",
          "type": "uint64"
        },
        {
          "internalType": "address",
          "name": "resolver",
          "type": "address"
        }
      ],
      "name": "wrapETH2LD",
      "outputs": [
        {
          "internalType": "uint64",
          "name": "",
          "type": "uint64"
        }
      ],
      "stateMutability": "nonpayable",
      "type": "function"
    }
  ],
  "bytecode": "0x60c06040523480156200001157600080fd5b506040516200629b3803806200629b8339810160408190526200003491620001ef565b6200003f3362000186565b6001600160a01b0383811660805282811660a052600480546001600160a01b031916918316919091179055600163ffffffbf60a01b03197fafa26c20e8b3d9a2853d642cfe1021dae26242ffedfac91c97aab212c1a4b93b8190557fa6eef7e35abe7026729641147f7915573c7e97b47efa546f5f6e3230263bcb4955604080518082019091526001815260006020808301829052908052600590527f05b8ccbb9d4d8fb16ea74ce3c29a41f1b461fbdaff4714a0d9a8eb05499746bc90620001099082620002e8565b50604080518082019091526005808252626cae8d60e31b6020808401919091527f93cdeb708b7545dc668eb9280176169d1c33cfd8ed6f04690a0bcc88a93fc4ae600052527fd99130487705d6970718a0cee91984b61956f8a1db3482bba7e6bf0131adb01f906200017c9082620002e8565b50505050620003b4565b600080546001600160a01b038381166001600160a01b0319831681178455604051919092169283917f8be0079c531659141344cd1fd0a4f28419497f9722a3daafe3b4186f6b6457e09190a35050565b6001600160a01b0381168114620001ec57600080fd5b50565b6000806000606084860312156200020557600080fd5b83516200021281620001d6565b60208501519093506200022581620001d6565b60408501519092506200023881620001d6565b809150509250925092565b634e487b7160e01b600052604160045260246000fd5b600181811c908216806200026e57607f821691505b6020821081036200028f57634e487b7160e01b600052602260045260246000fd5b50919050565b601f821115620002e357600081815260208120601f850160051c81016020861015620002be5750805b601f850160051c820191505b81811015620002df57828155600101620002ca565b5050505b505050565b81516001600160401b0381111562000304576200030462000243565b6200031c8162000315845462000259565b8462000295565b602080601f8311600181146200035457600084156200033b5750858301515b600019600386901b1c1916600185901b178555620002df565b600085815260208120601f198616915b82811015620003855788860151825594840194600190910190840162000364565b5085821015620003a45787850151600019600388901b60f8161c191681555b5050505050600190811b01905550565b60805160a051615def620004ac600039600081816104b901528181610ae101528181610bd801528181611686015281816118b501528181611d2701528181611e640152818161210701528181612283015281816133a70152818161346e015281816135900152818161361f015261459601526000818161050601528181610a6701528181610dbc01528181610f31015281816110cd01528181611198015281816121a501528181612321015281816124e7015281816126800152818161286901528181612d1301528181612dda01528181612ebc01528181612f4e0152818161372e015281816139b301526140650152615def6000f3fe608060405234801561001057600080fd5b50600436106102f35760003560e01c80638b4dfa7511610191578063e0dba60f116100e3578063ee7eba7811610097578063f44779b911610071578063f44779b91461075e578063f9547a9e14610771578063fd0cd0d91461079d57600080fd5b8063ee7eba7814610725578063f242432a14610738578063f2fde38b1461074b57600080fd5b8063e985e9c5116100c8578063e985e9c5146106b6578063eb8ae530146106f2578063ed70554d1461070557600080fd5b8063e0dba60f14610690578063e72bf00f146106a357600080fd5b8063b6bcad2611610145578063cf4088231161011f578063cf40882314610647578063d8c9921a1461065a578063da8c229e1461066d57600080fd5b8063b6bcad26146105f9578063c20a2eb01461060c578063c658e0861461063457600080fd5b80639f56dac6116101765780639f56dac6146105c0578063a22cb465146105d3578063adf4960a146105e657600080fd5b80638b4dfa751461059c5780638da5cb5b146105af57600080fd5b806324c1af441161024a57806347d2e9fe116101fe5780635d3590d5116101d85780635d3590d51461056e5780636352211e14610581578063715018a61461059457600080fd5b806347d2e9fe146105285780634e1273f41461053b578063530954671461055b57600080fd5b80632eb2c2d61161022f5780632eb2c2d6146104db57806333c69ea9146104ee5780633f15457f1461050157600080fd5b806324c1af44146104a15780632b20e397146104b457600080fd5b806314ab9038116102ac5780631896f70a116102865780631896f70a146104505780631f4e15041461046357806320c38e2b1461048e57600080fd5b806314ab9038146103e4578063150b7a02146103f95780631534e1771461043d57600080fd5b806301ffc9a7116102dd57806301ffc9a71461036557806306fdde03146103885780630e89341c146103d157600080fd5b8062fdd58e146102f85780630178fe3f1461031e575b600080fd5b61030b610306366004614c14565b6107b0565b6040519081526020015b60405180910390f35b61033161032c366004614c40565b610871565b604080516001600160a01b03909416845263ffffffff909216602084015267ffffffffffffffff1690820152606001610315565b610378610373366004614c87565b61088c565b6040519015158152602001610315565b6103c46040518060400160405280600b81526020017f4e616d655772617070657200000000000000000000000000000000000000000081525081565b6040516103159190614cfb565b6103c46103df366004614c40565b61092e565b6103f76103f2366004614d2b565b6109bb565b005b61040c610407366004614da0565b610ad4565b6040517fffffffff000000000000000000000000000000000000000000000000000000009091168152602001610315565b6103f761044b366004614e13565b610c7c565b6103f761045e366004614e30565b610d10565b600654610476906001600160a01b031681565b6040516001600160a01b039091168152602001610315565b6103c461049c366004614c40565b610deb565b61030b6104af366004614f54565b610e85565b6104767f000000000000000000000000000000000000000000000000000000000000000081565b6103f76104e9366004615087565b611213565b6103f76104fc366004615135565b6115b1565b6104767f000000000000000000000000000000000000000000000000000000000000000081565b61030b610536366004615135565b6117aa565b61054e61054936600461517b565b611978565b6040516103159190615279565b600454610476906001600160a01b031681565b6103f761057c36600461528c565b611ab6565b61047661058f366004614c40565b611ba2565b6103f7611bad565b6103f76105aa3660046152cd565b611c13565b6000546001600160a01b0316610476565b61030b6105ce36600461530f565b611d89565b6103f76105e13660046153a2565b611f2d565b6103786105f43660046153d0565b612035565b6103f7610607366004614e13565b61205a565b61061f61061a3660046153d0565b612380565b60405163ffffffff9091168152602001610315565b61030b6106423660046153f3565b61242b565b6103f7610655366004615472565b6127a7565b6103f76106683660046154aa565b612902565b61037861067b366004614e13565b60036020526000908152604090205460ff1681565b6103f761069e3660046153a2565b6129e4565b6103f76106b13660046154d8565b612abc565b6103786106c4366004615540565b6001600160a01b03918216600090815260026020908152604080832093909416825291909152205460ff1690565b6103f76107003660046154d8565b612bcd565b61030b610713366004614c40565b60016020526000908152604090205481565b6103f761073336600461556e565b612ff5565b6103f76107463660046155e2565b6130eb565b6103f7610759366004614e13565b613220565b61037861076c366004614e30565b6132ff565b61078461077f36600461564b565b61335a565b60405167ffffffffffffffff9091168152602001610315565b6103786107ab366004614c40565b6136d7565b60006001600160a01b0383166108335760405162461bcd60e51b815260206004820152602b60248201527f455243313135353a2062616c616e636520717565727920666f7220746865207a60448201527f65726f206164647265737300000000000000000000000000000000000000000060648201526084015b60405180910390fd5b600061083e83610871565b50509050836001600160a01b0316816001600160a01b03160361086557600191505061086b565b60009150505b92915050565b600080600061087f846137a9565b9250925092509193909250565b60007fffffffff0000000000000000000000000000000000000000000000000000000082167fe89c48dc00000000000000000000000000000000000000000000000000000000148061091f57507fffffffff0000000000000000000000000000000000000000000000000000000082167f150b7a0200000000000000000000000000000000000000000000000000000000145b8061086b575061086b826137e0565b600480546040517f0e89341c0000000000000000000000000000000000000000000000000000000081529182018390526060916001600160a01b0390911690630e89341c90602401600060405180830381865afa158015610993573d6000803e3d6000fd5b505050506040513d6000823e601f3d908101601f1916820160405261086b91908101906156d5565b816109c681336132ff565b6109ec5760405163168ab55d60e31b81526004810182905233602482015260440161082a565b82601060006109fa83610871565b5091505063ffffffff8282161615610a285760405163a2a7201360e01b81526004810184905260240161082a565b6040517f14ab90380000000000000000000000000000000000000000000000000000000081526004810187905267ffffffffffffffff861660248201527f00000000000000000000000000000000000000000000000000000000000000006001600160a01b0316906314ab9038906044015b600060405180830381600087803b158015610ab457600080fd5b505af1158015610ac8573d6000803e3d6000fd5b50505050505050505050565b6000336001600160a01b037f00000000000000000000000000000000000000000000000000000000000000001614610b38576040517f1931a53800000000000000000000000000000000000000000000000000000000815260040160405180910390fd5b600080808080610b4a87890189615757565b84516020860120949950929750909550935091508990808214610ba3576040517fc65c3ccc000000000000000000000000000000000000000000000000000000008152600481018290526024810183905260440161082a565b6040517f28ed4f6c000000000000000000000000000000000000000000000000000000008152600481018390523060248201527f00000000000000000000000000000000000000000000000000000000000000006001600160a01b0316906328ed4f6c90604401600060405180830381600087803b158015610c2457600080fd5b505af1158015610c38573d6000803e3d6000fd5b50505050610c4987878787876138c3565b507f150b7a02000000000000000000000000000000000000000000000000000000009d9c50505050505050505050505050565b6000546001600160a01b03163314610cd65760405162461bcd60e51b815260206004820181905260248201527f4f776e61626c653a2063616c6c6572206973206e6f7420746865206f776e6572604482015260640161082a565b600480547fffffffffffffffffffffffff0000000000000000000000000000000000000000166001600160a01b0392909216919091179055565b81610d1b81336132ff565b610d415760405163168ab55d60e31b81526004810182905233602482015260440161082a565b8260086000610d4f83610871565b5091505063ffffffff8282161615610d7d5760405163a2a7201360e01b81526004810184905260240161082a565b6040517f1896f70a000000000000000000000000000000000000000000000000000000008152600481018790526001600160a01b0386811660248301527f00000000000000000000000000000000000000000000000000000000000000001690631896f70a90604401610a9a565b60056020526000908152604090208054610e04906157cf565b80601f0160208091040260200160405190810160405280929190818152602001828054610e30906157cf565b8015610e7d5780601f10610e5257610100808354040283529160200191610e7d565b820191906000526020600020905b815481529060010190602001808311610e6057829003601f168201915b505050505081565b600087610e9281336132ff565b610eb85760405163168ab55d60e31b81526004810182905233602482015260440161082a565b8888805190602001206000610ef48383604080516020808201949094528082019290925280518083038201815260609092019052805191012090565b6040517f02571be3000000000000000000000000000000000000000000000000000000008152600481018290529091506000906001600160a01b037f000000000000000000000000000000000000000000000000000000000000000016906302571be390602401602060405180830381865afa158015610f78573d6000803e3d6000fd5b505050506040513d601f19601f82011682018060405250810190610f9c9190615822565b90506001600160a01b038116610fe6576000610fb785610871565b509150506020811615610fe05760405163a2a7201360e01b81526004810184905260240161082a565b5061101c565b6000610ff183610871565b50915050604081161561101a5760405163a2a7201360e01b81526004810184905260240161082a565b505b8b5160208d01206110548e82604080516020808201949094528082019290925280518083038201815260609092019052805191012090565b96506110628e888b8b613a1d565b975061106d876136d7565b61113c576040517f5ef2c7f0000000000000000000000000000000000000000000000000000000008152600481018f9052602481018290523060448201526001600160a01b038c8116606483015267ffffffffffffffff8c1660848301527f00000000000000000000000000000000000000000000000000000000000000001690635ef2c7f09060a401600060405180830381600087803b15801561111157600080fd5b505af1158015611125573d6000803e3d6000fd5b505050506111378e888f8f8d8d613a63565b611202565b6040517f5ef2c7f0000000000000000000000000000000000000000000000000000000008152600481018f9052602481018290523060448201526001600160a01b038c8116606483015267ffffffffffffffff8c1660848301527f00000000000000000000000000000000000000000000000000000000000000001690635ef2c7f09060a401600060405180830381600087803b1580156111dc57600080fd5b505af11580156111f0573d6000803e3d6000fd5b505050506112028e888f8f8d8d613b1d565b505050505050979650505050505050565b815183511461128a5760405162461bcd60e51b815260206004820152602860248201527f455243313135353a2069647320616e6420616d6f756e7473206c656e6774682060448201527f6d69736d61746368000000000000000000000000000000000000000000000000606482015260840161082a565b6001600160a01b0384166113065760405162461bcd60e51b815260206004820152602560248201527f455243313135353a207472616e7366657220746f20746865207a65726f20616460448201527f6472657373000000000000000000000000000000000000000000000000000000606482015260840161082a565b6001600160a01b03851633148061134057506001600160a01b038516600090815260026020908152604080832033845290915290205460ff165b6113b25760405162461bcd60e51b815260206004820152603260248201527f455243313135353a207472616e736665722063616c6c6572206973206e6f742060448201527f6f776e6572206e6f7220617070726f7665640000000000000000000000000000606482015260840161082a565b60005b83518110156115445760008482815181106113d2576113d261583f565b6020026020010151905060008483815181106113f0576113f061583f565b60200260200101519050600080600061140885610871565b925092509250611419826004161590565b6114395760405163a2a7201360e01b81526004810186905260240161082a565b83600114801561145a57508a6001600160a01b0316836001600160a01b0316145b6114cc5760405162461bcd60e51b815260206004820152602a60248201527f455243313135353a20696e73756666696369656e742062616c616e636520666f60448201527f72207472616e7366657200000000000000000000000000000000000000000000606482015260840161082a565b60008581526001602052604090206001600160a01b038b1677ffffffff000000000000000000000000000000000000000060a085901b16177fffffffffffffffff00000000000000000000000000000000000000000000000060c084901b1617905550505050508061153d9061589d565b90506113b5565b50836001600160a01b0316856001600160a01b0316336001600160a01b03167f4a39dc06d4c0dbc64b70af90fd698a233a518aa5d07e595d983b8c0526c8f7fb86866040516115949291906158d5565b60405180910390a46115aa338686868686613bba565b5050505050565b60408051602080820187905281830186905282518083038401815260609092019092528051910120600080806115e684610871565b91945092509050600080806115fa8b610871565b9093509150507f6c32148f748aba23997146d7fe89e962e3cc30271290fb96f5f4337756c03b528b016117005761163187336132ff565b6116575760405163168ab55d60e31b81526004810188905233602482015260440161082a565b6040517fd6e4fa86000000000000000000000000000000000000000000000000000000008152600481018b90527f00000000000000000000000000000000000000000000000000000000000000006001600160a01b03169063d6e4fa8690602401602060405180830381865afa1580156116d5573d6000803e3d6000fd5b505050506040513d601f19601f820116820180604052508101906116f99190615903565b9250611734565b61170a8b336132ff565b6117305760405163168ab55d60e31b81526004810188905233602482015260440161082a565b8092505b61173f878a84613dc6565b61174a888585613dfc565b9750604085161580159061176c57508463ffffffff1689861763ffffffff1614155b1561178d5760405163a2a7201360e01b81526004810188905260240161082a565b9784179761179d87878b8b613e46565b5050505050505050505050565b3360009081526003602052604081205460ff1661182f5760405162461bcd60e51b815260206004820152602860248201527f436f6e74726f6c6c61626c653a2043616c6c6572206973206e6f74206120636f60448201527f6e74726f6c6c6572000000000000000000000000000000000000000000000000606482015260840161082a565b604080517f93cdeb708b7545dc668eb9280176169d1c33cfd8ed6f04690a0bcc88a93fc4ae602080830191909152818301889052825180830384018152606090920190925280519101206000906040517fc475abff00000000000000000000000000000000000000000000000000000000815260048101889052602481018790529091507f00000000000000000000000000000000000000000000000000000000000000006001600160a01b03169063c475abff906044016020604051808303816000875af1158015611906573d6000803e3d6000fd5b505050506040513d601f19601f8201168201806040525081019061192a9190615903565b9150611935816136d7565b1561196f576000808061194784610871565b925092509250611958868287613dfc565b955061196b848460408a86171789613ea2565b5050505b50949350505050565b606081518351146119f15760405162461bcd60e51b815260206004820152602960248201527f455243313135353a206163636f756e747320616e6420696473206c656e67746860448201527f206d69736d617463680000000000000000000000000000000000000000000000606482015260840161082a565b6000835167ffffffffffffffff811115611a0d57611a0d614e60565b604051908082528060200260200182016040528015611a36578160200160208202803683370190505b50905060005b8451811015611aae57611a81858281518110611a5a57611a5a61583f565b6020026020010151858381518110611a7457611a7461583f565b60200260200101516107b0565b828281518110611a9357611a9361583f565b6020908102919091010152611aa78161589d565b9050611a3c565b509392505050565b6000546001600160a01b03163314611b105760405162461bcd60e51b815260206004820181905260248201527f4f776e61626c653a2063616c6c6572206973206e6f7420746865206f776e6572604482015260640161082a565b6040517fa9059cbb0000000000000000000000000000000000000000000000000000000081526001600160a01b0383811660048301526024820183905284169063a9059cbb906044016020604051808303816000875af1158015611b78573d6000803e3d6000fd5b505050506040513d601f19601f82011682018060405250810190611b9c919061591c565b50505050565b600061086b82613f13565b6000546001600160a01b03163314611c075760405162461bcd60e51b815260206004820181905260248201527f4f776e61626c653a2063616c6c6572206973206e6f7420746865206f776e6572604482015260640161082a565b611c116000613f29565b565b604080517f93cdeb708b7545dc668eb9280176169d1c33cfd8ed6f04690a0bcc88a93fc4ae60208083019190915281830186905282518083038401815260609092019092528051910120611c6781336132ff565b611c8d5760405163168ab55d60e31b81526004810182905233602482015260440161082a565b604080517f93cdeb708b7545dc668eb9280176169d1c33cfd8ed6f04690a0bcc88a93fc4ae60208083019190915281830187905282518083038401815260609092019092528051910120611ce2905b83613f91565b6040517f42842e0e0000000000000000000000000000000000000000000000000000000081523060048201526001600160a01b038481166024830152604482018690527f000000000000000000000000000000000000000000000000000000000000000016906342842e0e90606401600060405180830381600087803b158015611d6b57600080fd5b505af1158015611d7f573d6000803e3d6000fd5b5050505050505050565b3360009081526003602052604081205460ff16611e0e5760405162461bcd60e51b815260206004820152602860248201527f436f6e74726f6c6c61626c653a2043616c6c6572206973206e6f74206120636f60448201527f6e74726f6c6c6572000000000000000000000000000000000000000000000000606482015260840161082a565b60008888604051611e20929190615939565b6040519081900381207ffca247ac000000000000000000000000000000000000000000000000000000008252600482018190523060248301526044820188905291507f00000000000000000000000000000000000000000000000000000000000000006001600160a01b03169063fca247ac906064016020604051808303816000875af1158015611eb5573d6000803e3d6000fd5b505050506040513d601f19601f82011682018060405250810190611ed99190615903565b9150611f2089898080601f0160208091040260200160405190810160405280939291908181526020018383808284376000920191909152508b9250889150879050896138c3565b5050979650505050505050565b6001600160a01b0382163303611fab5760405162461bcd60e51b815260206004820152602960248201527f455243313135353a2073657474696e6720617070726f76616c2073746174757360448201527f20666f722073656c660000000000000000000000000000000000000000000000606482015260840161082a565b3360008181526002602090815260408083206001600160a01b0387168085529083529281902080547fffffffffffffffffffffffffffffffffffffffffffffffffffffffffffffff001686151590811790915590519081529192917f17307eab39ab6107e8899845ad3d59bd9653f200f220920489ca2b5937696c31910160405180910390a35050565b60008061204184610871565b50841663ffffffff908116908516149250505092915050565b6000546001600160a01b031633146120b45760405162461bcd60e51b815260206004820181905260248201527f4f776e61626c653a2063616c6c6572206973206e6f7420746865206f776e6572604482015260640161082a565b6006546001600160a01b031615612206576006546040517fa22cb4650000000000000000000000000000000000000000000000000000000081526001600160a01b039182166004820152600060248201527f00000000000000000000000000000000000000000000000000000000000000009091169063a22cb46590604401600060405180830381600087803b15801561214d57600080fd5b505af1158015612161573d6000803e3d6000fd5b50506006546040517fa22cb4650000000000000000000000000000000000000000000000000000000081526001600160a01b039182166004820152600060248201527f0000000000000000000000000000000000000000000000000000000000000000909116925063a22cb4659150604401600060405180830381600087803b1580156121ed57600080fd5b505af1158015612201573d6000803e3d6000fd5b505050505b600680547fffffffffffffffffffffffff0000000000000000000000000000000000000000166001600160a01b0383169081179091551561237d576006546040517fa22cb4650000000000000000000000000000000000000000000000000000000081526001600160a01b039182166004820152600160248201527f00000000000000000000000000000000000000000000000000000000000000009091169063a22cb46590604401600060405180830381600087803b1580156122c957600080fd5b505af11580156122dd573d6000803e3d6000fd5b50506006546040517fa22cb4650000000000000000000000000000000000000000000000000000000081526001600160a01b039182166004820152600160248201527f0000000000000000000000000000000000000000000000000000000000000000909116925063a22cb4659150604401600060405180830381600087803b15801561236957600080fd5b505af11580156115aa573d6000803e3d6000fd5b50565b60008261238d81336132ff565b6123b35760405163168ab55d60e31b81526004810182905233602482015260440161082a565b83600260006123c183610871565b5091505063ffffffff82821616156123ef5760405163a2a7201360e01b81526004810184905260240161082a565b6123f987876140fc565b600080806124068a610871565b925092509250818917985061241d8a848b84613e46565b509698975050505050505050565b60008661243881336132ff565b61245e5760405163168ab55d60e31b81526004810182905233602482015260440161082a565b87878760405161246f929190615939565b604051809103902060006124aa8383604080516020808201949094528082019290925280518083038201815260609092019052805191012090565b6040517f02571be3000000000000000000000000000000000000000000000000000000008152600481018290529091506000906001600160a01b037f000000000000000000000000000000000000000000000000000000000000000016906302571be390602401602060405180830381865afa15801561252e573d6000803e3d6000fd5b505050506040513d601f19601f820116820180604052508101906125529190615822565b90506001600160a01b03811661259c57600061256d85610871565b5091505060208116156125965760405163a2a7201360e01b81526004810184905260240161082a565b506125d2565b60006125a783610871565b5091505060408116156125d05760405163a2a7201360e01b81526004810184905260240161082a565b505b60008b8b6040516125e4929190615939565b6040518091039020905061261f8d82604080516020808201949094528082019290925280518083038201815260609092019052805191012090565b965061262d8d888b8b613a1d565b9750612638876136d7565b612745576040517f06ab5923000000000000000000000000000000000000000000000000000000008152600481018e9052602481018290523060448201526001600160a01b037f000000000000000000000000000000000000000000000000000000000000000016906306ab5923906064016020604051808303816000875af11580156126c9573d6000803e3d6000fd5b505050506040513d601f19601f820116820180604052508101906126ed9190615903565b506127408d888e8e8080601f016020809104026020016040519081016040528093929190818152602001838380828437600081840152601f19601f820116905080830192505050505050508d8d8d613a63565b612797565b6127978d888e8e8080601f016020809104026020016040519081016040528093929190818152602001838380828437600081840152601f19601f820116905080830192505050505050508d8d8d613b1d565b5050505050509695505050505050565b836127b281336132ff565b6127d85760405163168ab55d60e31b81526004810182905233602482015260440161082a565b84601c60006127e683610871565b5091505063ffffffff82821616156128145760405163a2a7201360e01b81526004810184905260240161082a565b6040517fcf408823000000000000000000000000000000000000000000000000000000008152600481018990523060248201526001600160a01b03878116604483015267ffffffffffffffff871660648301527f0000000000000000000000000000000000000000000000000000000000000000169063cf40882390608401600060405180830381600087803b1580156128ad57600080fd5b505af11580156128c1573d6000803e3d6000fd5b5050505060006128d38960001c610871565b505090506128f781898b60001c60016040518060200160405280600081525061412b565b505050505050505050565b6040805160208082018690528183018590528251808303840181526060909201909252805191012061293481336132ff565b61295a5760405163168ab55d60e31b81526004810182905233602482015260440161082a565b7f6c32148f748aba23997146d7fe89e962e3cc30271290fb96f5f4337756c03b5284016129b3576040517f615a470300000000000000000000000000000000000000000000000000000000815260040160405180910390fd5b60408051602080820187905281830186905282518083038401815260609092019092528051910120611b9c90611cdc565b6000546001600160a01b03163314612a3e5760405162461bcd60e51b815260206004820181905260248201527f4f776e61626c653a2063616c6c6572206973206e6f7420746865206f776e6572604482015260640161082a565b6001600160a01b03821660008181526003602090815260409182902080547fffffffffffffffffffffffffffffffffffffffffffffffffffffffffffffff001685151590811790915591519182527f4c97694570a07277810af7e5669ffd5f6a2d6b74b6e9a274b8b870fd5114cf8791015b60405180910390a25050565b60008484604051612ace929190615939565b60405190819003902090506000612b2c7f93cdeb708b7545dc668eb9280176169d1c33cfd8ed6f04690a0bcc88a93fc4ae83604080516020808201949094528082019290925280518083038201815260609092019052805191012090565b9050600080612b3a836142d9565b6006546040517ff9547a9e0000000000000000000000000000000000000000000000000000000081529294509092506001600160a01b03169063f9547a9e90612b91908b908b908b90889088908d90600401615974565b600060405180830381600087803b158015612bab57600080fd5b505af1158015612bbf573d6000803e3d6000fd5b505050505050505050505050565b600080612c14600087878080601f016020809104026020016040519081016040528093929190818152602001838380828437600092019190915250929392505061436e9050565b915091506000612c5d8288888080601f01602080910402602001604051908101604052809392919081815260200183838082843760009201919091525092939250506144259050565b604080516020808201849052818301879052825180830384018152606090920190925280519101209091507f6c32148f748aba23997146d7fe89e962e3cc30271290fb96f5f4337756c03b528201612ce1576040517f615a470300000000000000000000000000000000000000000000000000000000815260040160405180910390fd5b6040517f02571be3000000000000000000000000000000000000000000000000000000008152600481018290526000907f00000000000000000000000000000000000000000000000000000000000000006001600160a01b0316906302571be390602401602060405180830381865afa158015612d62573d6000803e3d6000fd5b505050506040513d601f19601f82011682018060405250810190612d869190615822565b90506001600160a01b0381163314801590612e4757506040517fe985e9c50000000000000000000000000000000000000000000000000000000081526001600160a01b0382811660048301523360248301527f0000000000000000000000000000000000000000000000000000000000000000169063e985e9c590604401602060405180830381865afa158015612e21573d6000803e3d6000fd5b505050506040513d601f19601f82011682018060405250810190612e45919061591c565b155b15612e6e5760405163168ab55d60e31b81526004810183905233602482015260440161082a565b6001600160a01b03861615612f19576040517f1896f70a000000000000000000000000000000000000000000000000000000008152600481018390526001600160a01b0387811660248301527f00000000000000000000000000000000000000000000000000000000000000001690631896f70a90604401600060405180830381600087803b158015612f0057600080fd5b505af1158015612f14573d6000803e3d6000fd5b505050505b6040517f5b0fc9c3000000000000000000000000000000000000000000000000000000008152600481018390523060248201527f00000000000000000000000000000000000000000000000000000000000000006001600160a01b031690635b0fc9c390604401600060405180830381600087803b158015612f9a57600080fd5b505af1158015612fae573d6000803e3d6000fd5b505050506128f7828a8a8080601f01602080910402602001604051908101604052809392919081815260200183838082843760009201829052508d935091508190506144e4565b60008484604051613007929190615939565b6040518091039020905060006130448783604080516020808201949094528082019290925280518083038201815260609092019052805191012090565b9050600080613052836142d9565b6006546040517f24c1af440000000000000000000000000000000000000000000000000000000081529294509092506001600160a01b0316906324c1af44906130ae908c908c908c908c908c906000908b908b906004016159ca565b600060405180830381600087803b1580156130c857600080fd5b505af11580156130dc573d6000803e3d6000fd5b50505050505050505050505050565b6001600160a01b0384166131675760405162461bcd60e51b815260206004820152602560248201527f455243313135353a207472616e7366657220746f20746865207a65726f20616460448201527f6472657373000000000000000000000000000000000000000000000000000000606482015260840161082a565b6001600160a01b0385163314806131a157506001600160a01b038516600090815260026020908152604080832033845290915290205460ff165b6132135760405162461bcd60e51b815260206004820152602960248201527f455243313135353a2063616c6c6572206973206e6f74206f776e6572206e6f7260448201527f20617070726f7665640000000000000000000000000000000000000000000000606482015260840161082a565b6115aa858585858561412b565b6000546001600160a01b0316331461327a5760405162461bcd60e51b815260206004820181905260248201527f4f776e61626c653a2063616c6c6572206973206e6f7420746865206f776e6572604482015260640161082a565b6001600160a01b0381166132f65760405162461bcd60e51b815260206004820152602660248201527f4f776e61626c653a206e6577206f776e657220697320746865207a65726f206160448201527f6464726573730000000000000000000000000000000000000000000000000000606482015260840161082a565b61237d81613f29565b60008061330b84611ba2565b9050826001600160a01b0316816001600160a01b0316148061335257506001600160a01b0380821660009081526002602090815260408083209387168352929052205460ff165b949350505050565b600080878760405161336d929190615939565b6040519081900381207f6352211e0000000000000000000000000000000000000000000000000000000082526004820181905291506000907f00000000000000000000000000000000000000000000000000000000000000006001600160a01b031690636352211e90602401602060405180830381865afa1580156133f6573d6000803e3d6000fd5b505050506040513d601f19601f8201168201806040525081019061341a9190615822565b90506001600160a01b03811633148015906134db57506040517fe985e9c50000000000000000000000000000000000000000000000000000000081526001600160a01b0382811660048301523360248301527f0000000000000000000000000000000000000000000000000000000000000000169063e985e9c590604401602060405180830381865afa1580156134b5573d6000803e3d6000fd5b505050506040513d601f19601f820116820180604052508101906134d9919061591c565b155b1561354b57604080517f93cdeb708b7545dc668eb9280176169d1c33cfd8ed6f04690a0bcc88a93fc4ae6020808301919091528183018590528251808303840181526060830193849052805191012063168ab55d60e31b909252606481019190915233608482015260a40161082a565b6040517f23b872dd0000000000000000000000000000000000000000000000000000000081526001600160a01b038281166004830152306024830152604482018490527f000000000000000000000000000000000000000000000000000000000000000016906323b872dd90606401600060405180830381600087803b1580156135d457600080fd5b505af11580156135e8573d6000803e3d6000fd5b50506040517f28ed4f6c000000000000000000000000000000000000000000000000000000008152600481018590523060248201527f00000000000000000000000000000000000000000000000000000000000000006001600160a01b031692506328ed4f6c9150604401600060405180830381600087803b15801561366d57600080fd5b505af1158015613681573d6000803e3d6000fd5b505050506136ca89898080601f0160208091040260200160405190810160405280939291908181526020018383808284376000920191909152508b92508a9150899050886138c3565b9998505050505050505050565b6000806136e383611ba2565b6001600160a01b03161415801561086b57506040517f02571be30000000000000000000000000000000000000000000000000000000081526004810183905230906001600160a01b037f000000000000000000000000000000000000000000000000000000000000000016906302571be390602401602060405180830381865afa158015613775573d6000803e3d6000fd5b505050506040513d601f19601f820116820180604052508101906137999190615822565b6001600160a01b03161492915050565b6000818152600160205260408120549060c082901c82428210156137d057600092506137d8565b60a081901c92505b509193909250565b60007fffffffff0000000000000000000000000000000000000000000000000000000082167fd9b67a2600000000000000000000000000000000000000000000000000000000148061387357507fffffffff0000000000000000000000000000000000000000000000000000000082167f0e89341c00000000000000000000000000000000000000000000000000000000145b8061086b57507f01ffc9a7000000000000000000000000000000000000000000000000000000007fffffffff0000000000000000000000000000000000000000000000000000000083161461086b565b845160208601206000908161391f7f93cdeb708b7545dc668eb9280176169d1c33cfd8ed6f04690a0bcc88a93fc4ae83604080516020808201949094528082019290925280518083038201815260609092019052805191012090565b9050600061392e82848861454e565b9750915061396590507f93cdeb708b7545dc668eb9280176169d1c33cfd8ed6f04690a0bcc88a93fc4ae838b8b60408c178b613a63565b6001600160a01b03851615613a10576040517f1896f70a000000000000000000000000000000000000000000000000000000008152600481018390526001600160a01b0386811660248301527f00000000000000000000000000000000000000000000000000000000000000001690631896f70a90604401600060405180830381600087803b1580156139f757600080fd5b505af1158015613a0b573d6000803e3d6000fd5b505050505b5093979650505050505050565b600080613a2985610871565b92505050600080613a3c8860001c610871565b9250925050613a4c878784613dc6565b613a57858483613dfc565b98975050505050505050565b60008681526005602052604081208054613b05918791613a82906157cf565b80601f0160208091040260200160405190810160405280929190818152602001828054613aae906157cf565b8015613afb5780601f10613ad057610100808354040283529160200191613afb565b820191906000526020600020905b815481529060010190602001808311613ade57829003601f168201915b5050505050614626565b9050613b1486828686866144e4565b50505050505050565b6000613b2886611ba2565b90506000613b4e86600560008b81526020019081526020016000208054613a82906157cf565b6000888152600560205260409020805491925090613b6b906157cf565b9050600003613b8e576000878152600560205260409020613b8c8282615a78565b505b613b9a87838686613e46565b611d7f82868960001c60016040518060200160405280600081525061412b565b6001600160a01b0384163b15613dbe576040517fbc197c810000000000000000000000000000000000000000000000000000000081526001600160a01b0385169063bc197c8190613c179089908990889088908890600401615b74565b6020604051808303816000875af1925050508015613c52575060408051601f3d908101601f19168201909252613c4f91810190615bc6565b60015b613d0757613c5e615be3565b806308c379a003613c975750613c72615bff565b80613c7d5750613c99565b8060405162461bcd60e51b815260040161082a9190614cfb565b505b60405162461bcd60e51b815260206004820152603460248201527f455243313135353a207472616e7366657220746f206e6f6e204552433131353560448201527f526563656976657220696d706c656d656e746572000000000000000000000000606482015260840161082a565b7fffffffff0000000000000000000000000000000000000000000000000000000081167fbc197c810000000000000000000000000000000000000000000000000000000014613b145760405162461bcd60e51b815260206004820152602860248201527f455243313135353a204552433131353552656365697665722072656a6563746560448201527f6420746f6b656e73000000000000000000000000000000000000000000000000606482015260840161082a565b505050505050565b6040828116146001821615818015613ddb5750805b156115aa5760405163a2a7201360e01b81526004810186905260240161082a565b60008167ffffffffffffffff168467ffffffffffffffff161115613e1e578193505b8267ffffffffffffffff168467ffffffffffffffff161015613e3e578293505b509192915050565b613e5284848484613ea2565b6040805163ffffffff8416815267ffffffffffffffff8316602082015285917f936318e296f824e203b086d97bb155a0200cec4847efea1fb4b9b7f924157355910160405180910390a250505050565b613eac84836146cf565b60008481526001602052604090206001600160a01b03841677ffffffff000000000000000000000000000000000000000060a085901b16177fffffffffffffffff00000000000000000000000000000000000000000000000060c084901b16179055611b9c565b600080613f1f83610871565b5090949350505050565b600080546001600160a01b038381167fffffffffffffffffffffffff0000000000000000000000000000000000000000831681178455604051919092169283917f8be0079c531659141344cd1fd0a4f28419497f9722a3daafe3b4186f6b6457e09190a35050565b6001600160a01b0381161580613faf57506001600160a01b03811630145b15613ff1576040517f5949361a0000000000000000000000000000000000000000000000000000000081526001600160a01b038216600482015260240161082a565b613ffc826001612035565b1561401d5760405163a2a7201360e01b81526004810183905260240161082a565b61402682614708565b6040517f5b0fc9c3000000000000000000000000000000000000000000000000000000008152600481018390526001600160a01b0382811660248301527f00000000000000000000000000000000000000000000000000000000000000001690635b0fc9c390604401600060405180830381600087803b1580156140a957600080fd5b505af11580156140bd573d6000803e3d6000fd5b50506040516001600160a01b03841681528492507fee2ba1195c65bcf218a83d874335c6bf9d9067b4c672f3c3bf16cf40de7586c49150602001612ab0565b60408116156141275760405163168ab55d60e31b81526004810183905233602482015260440161082a565b5050565b600080600061413986610871565b92509250925061414a826004161590565b61416a5760405163a2a7201360e01b81526004810187905260240161082a565b84600114801561418b5750876001600160a01b0316836001600160a01b0316145b6141fd5760405162461bcd60e51b815260206004820152602a60248201527f455243313135353a20696e73756666696369656e742062616c616e636520666f60448201527f72207472616e7366657200000000000000000000000000000000000000000000606482015260840161082a565b866001600160a01b0316836001600160a01b03160361421e575050506115aa565b60008681526001602052604090206001600160a01b03881677ffffffff000000000000000000000000000000000000000060a085901b16177fffffffffffffffff00000000000000000000000000000000000000000000000060c084901b1617905560408051878152602081018790526001600160a01b03808a1692908b169133917fc3d58168c5ae7397731d063d5bbf3d657854427343f4c083240f7aacaa2d0f62910160405180910390a4611d7f3389898989896147c3565b60065460009081906001600160a01b0316614320576040517f24c1d6d400000000000000000000000000000000000000000000000000000000815260040160405180910390fd5b61432a83336132ff565b6143505760405163168ab55d60e31b81526004810184905233602482015260440161082a565b61435983610871565b9093509150614369905083614708565b915091565b600080835183106143c15760405162461bcd60e51b815260206004820152601e60248201527f726561644c6162656c3a20496e646578206f7574206f6620626f756e64730000604482015260640161082a565b60008484815181106143d5576143d561583f565b016020015160f81c90508015614401576143fa856143f4866001615ca7565b8361491e565b9250614406565b600092505b6144108185615ca7565b61441b906001615ca7565b9150509250929050565b6000806000614434858561436e565b9092509050816144a6576001855161444c9190615cba565b841461449a5760405162461bcd60e51b815260206004820152601d60248201527f6e616d65686173683a204a756e6b20617420656e64206f66206e616d65000000604482015260640161082a565b506000915061086b9050565b6144b08582614425565b6040805160208101929092528101839052606001604051602081830303815290604052805190602001209250505092915050565b60008581526005602052604090206144fc8582615a78565b5061450985848484614942565b847f8ce7013e8abebc55c3890a68f5a27c67c3f7efa64e584de5fb22363c606fd3408585858560405161453f9493929190615ccd565b60405180910390a25050505050565b600080808061455c87610871565b6040517fd6e4fa86000000000000000000000000000000000000000000000000000000008152600481018a905292965090945091506000907f00000000000000000000000000000000000000000000000000000000000000006001600160a01b03169063d6e4fa8690602401602060405180830381865afa1580156145e5573d6000803e3d6000fd5b505050506040513d601f19601f820116820180604052508101906146099190615903565b9050614616868383613dfc565b9550859250505093509350939050565b6060600183511015614664576040517f280dacb600000000000000000000000000000000000000000000000000000000815260040160405180910390fd5b60ff835111156146a257826040517fe3ba295f00000000000000000000000000000000000000000000000000000000815260040161082a9190614cfb565b825183836040516020016146b893929190615d15565b604051602081830303815290604052905092915050565b63ffffffbf8116158015906146e75750604181811614155b156141275760405163a2a7201360e01b81526004810183905260240161082a565b600080600061471684610871565b600087815260016020526040902077ffffffff000000000000000000000000000000000000000060a084901b167fffffffffffffffff00000000000000000000000000000000000000000000000060c084901b161790559194509250905060408051858152600160208201526000916001600160a01b0386169133917fc3d58168c5ae7397731d063d5bbf3d657854427343f4c083240f7aacaa2d0f62910160405180910390a450505050565b6001600160a01b0384163b15613dbe576040517ff23a6e610000000000000000000000000000000000000000000000000000000081526001600160a01b0385169063f23a6e61906148209089908990889088908890600401615d76565b6020604051808303816000875af192505050801561485b575060408051601f3d908101601f1916820190925261485891810190615bc6565b60015b61486757613c5e615be3565b7fffffffff0000000000000000000000000000000000000000000000000000000081167ff23a6e610000000000000000000000000000000000000000000000000000000014613b145760405162461bcd60e51b815260206004820152602860248201527f455243313135353a204552433131353552656365697665722072656a6563746560448201527f6420746f6b656e73000000000000000000000000000000000000000000000000606482015260840161082a565b825160009061492d8385615ca7565b111561493857600080fd5b5091016020012090565b61494c84836146cf565b600061495785611ba2565b90506001600160a01b038116156149a85761497185614708565b6040516000815285907fee2ba1195c65bcf218a83d874335c6bf9d9067b4c672f3c3bf16cf40de7586c49060200160405180910390a25b6115aa8585858583600080806149bd84610871565b9250925092508467ffffffffffffffff168167ffffffffffffffff1611156149e3578094505b6001600160a01b03831615614a3a5760405162461bcd60e51b815260206004820152601f60248201527f455243313135353a206d696e74206f66206578697374696e6720746f6b656e00604482015260640161082a565b6001600160a01b038716614ab65760405162461bcd60e51b815260206004820152602160248201527f455243313135353a206d696e7420746f20746865207a65726f2061646472657360448201527f7300000000000000000000000000000000000000000000000000000000000000606482015260840161082a565b306001600160a01b03881603614b345760405162461bcd60e51b815260206004820152603460248201527f455243313135353a206e65774f776e65722063616e6e6f74206265207468652060448201527f4e616d655772617070657220636f6e7472616374000000000000000000000000606482015260840161082a565b60008481526001602052604090206001600160a01b03881677ffffffff000000000000000000000000000000000000000088851760a01b16177fffffffffffffffff00000000000000000000000000000000000000000000000060c088901b1617905560408051858152600160208201526001600160a01b0389169160009133917fc3d58168c5ae7397731d063d5bbf3d657854427343f4c083240f7aacaa2d0f62910160405180910390a4611d7f33600089876001604051806020016040528060008152506147c3565b6001600160a01b038116811461237d57600080fd5b60008060408385031215614c2757600080fd5b8235614c3281614bff565b946020939093013593505050565b600060208284031215614c5257600080fd5b5035919050565b7fffffffff000000000000000000000000000000000000000000000000000000008116811461237d57600080fd5b600060208284031215614c9957600080fd5b8135614ca481614c59565b9392505050565b60005b83811015614cc6578181015183820152602001614cae565b50506000910152565b60008151808452614ce7816020860160208601614cab565b601f01601f19169290920160200192915050565b602081526000614ca46020830184614ccf565b803567ffffffffffffffff81168114614d2657600080fd5b919050565b60008060408385031215614d3e57600080fd5b82359150614d4e60208401614d0e565b90509250929050565b60008083601f840112614d6957600080fd5b50813567ffffffffffffffff811115614d8157600080fd5b602083019150836020828501011115614d9957600080fd5b9250929050565b600080600080600060808688031215614db857600080fd5b8535614dc381614bff565b94506020860135614dd381614bff565b935060408601359250606086013567ffffffffffffffff811115614df657600080fd5b614e0288828901614d57565b969995985093965092949392505050565b600060208284031215614e2557600080fd5b8135614ca481614bff565b60008060408385031215614e4357600080fd5b823591506020830135614e5581614bff565b809150509250929050565b7f4e487b7100000000000000000000000000000000000000000000000000000000600052604160045260246000fd5b601f19601f830116810181811067ffffffffffffffff82111715614eb557614eb5614e60565b6040525050565b600067ffffffffffffffff821115614ed657614ed6614e60565b50601f01601f191660200190565b600082601f830112614ef557600080fd5b8135614f0081614ebc565b604051614f0d8282614e8f565b828152856020848701011115614f2257600080fd5b82602086016020830137600092810160200192909252509392505050565b803563ffffffff81168114614d2657600080fd5b600080600080600080600060e0888a031215614f6f57600080fd5b87359650602088013567ffffffffffffffff811115614f8d57600080fd5b614f998a828b01614ee4565b9650506040880135614faa81614bff565b94506060880135614fba81614bff565b9350614fc860808901614d0e565b9250614fd660a08901614f40565b9150614fe460c08901614d0e565b905092959891949750929550565b600067ffffffffffffffff82111561500c5761500c614e60565b5060051b60200190565b600082601f83011261502757600080fd5b8135602061503482614ff2565b6040516150418282614e8f565b83815260059390931b850182019282810191508684111561506157600080fd5b8286015b8481101561507c5780358352918301918301615065565b509695505050505050565b600080600080600060a0868803121561509f57600080fd5b85356150aa81614bff565b945060208601356150ba81614bff565b9350604086013567ffffffffffffffff808211156150d757600080fd5b6150e389838a01615016565b945060608801359150808211156150f957600080fd5b61510589838a01615016565b9350608088013591508082111561511b57600080fd5b5061512888828901614ee4565b9150509295509295909350565b6000806000806080858703121561514b57600080fd5b843593506020850135925061516260408601614f40565b915061517060608601614d0e565b905092959194509250565b6000806040838503121561518e57600080fd5b823567ffffffffffffffff808211156151a657600080fd5b818501915085601f8301126151ba57600080fd5b813560206151c782614ff2565b6040516151d48282614e8f565b83815260059390931b85018201928281019150898411156151f457600080fd5b948201945b8386101561521b57853561520c81614bff565b825294820194908201906151f9565b9650508601359250508082111561523157600080fd5b5061441b85828601615016565b600081518084526020808501945080840160005b8381101561526e57815187529582019590820190600101615252565b509495945050505050565b602081526000614ca4602083018461523e565b6000806000606084860312156152a157600080fd5b83356152ac81614bff565b925060208401356152bc81614bff565b929592945050506040919091013590565b6000806000606084860312156152e257600080fd5b8335925060208401356152f481614bff565b9150604084013561530481614bff565b809150509250925092565b600080600080600080600060c0888a03121561532a57600080fd5b873567ffffffffffffffff81111561534157600080fd5b61534d8a828b01614d57565b909850965050602088013561536181614bff565b945060408801359350606088013561537881614bff565b925061538660808901614f40565b9150614fe460a08901614d0e565b801515811461237d57600080fd5b600080604083850312156153b557600080fd5b82356153c081614bff565b91506020830135614e5581615394565b600080604083850312156153e357600080fd5b82359150614d4e60208401614f40565b60008060008060008060a0878903121561540c57600080fd5b86359550602087013567ffffffffffffffff81111561542a57600080fd5b61543689828a01614d57565b909650945050604087013561544a81614bff565b925061545860608801614f40565b915061546660808801614d0e565b90509295509295509295565b6000806000806080858703121561548857600080fd5b84359350602085013561549a81614bff565b9250604085013561516281614bff565b6000806000606084860312156154bf57600080fd5b8335925060208401359150604084013561530481614bff565b600080600080606085870312156154ee57600080fd5b843567ffffffffffffffff81111561550557600080fd5b61551187828801614d57565b909550935050602085013561552581614bff565b9150604085013561553581614bff565b939692955090935050565b6000806040838503121561555357600080fd5b823561555e81614bff565b91506020830135614e5581614bff565b60008060008060006080868803121561558657600080fd5b85359450602086013567ffffffffffffffff8111156155a457600080fd5b6155b088828901614d57565b90955093505060408601356155c481614bff565b915060608601356155d481614bff565b809150509295509295909350565b600080600080600060a086880312156155fa57600080fd5b853561560581614bff565b9450602086013561561581614bff565b93506040860135925060608601359150608086013567ffffffffffffffff81111561563f57600080fd5b61512888828901614ee4565b60008060008060008060a0878903121561566457600080fd5b863567ffffffffffffffff81111561567b57600080fd5b61568789828a01614d57565b909750955050602087013561569b81614bff565b93506156a960408801614f40565b92506156b760608801614d0e565b915060808701356156c781614bff565b809150509295509295509295565b6000602082840312156156e757600080fd5b815167ffffffffffffffff8111156156fe57600080fd5b8201601f8101841361570f57600080fd5b805161571a81614ebc565b6040516157278282614e8f565b82815286602084860101111561573c57600080fd5b61574d836020830160208701614cab565b9695505050505050565b600080600080600060a0868803121561576f57600080fd5b853567ffffffffffffffff81111561578657600080fd5b61579288828901614ee4565b95505060208601356157a381614bff565b93506157b160408701614f40565b92506157bf60608701614d0e565b915060808601356155d481614bff565b600181811c908216806157e357607f821691505b60208210810361581c577f4e487b7100000000000000000000000000000000000000000000000000000000600052602260045260246000fd5b50919050565b60006020828403121561583457600080fd5b8151614ca481614bff565b7f4e487b7100000000000000000000000000000000000000000000000000000000600052603260045260246000fd5b7f4e487b7100000000000000000000000000000000000000000000000000000000600052601160045260246000fd5b60007fffffffffffffffffffffffffffffffffffffffffffffffffffffffffffffffff82036158ce576158ce61586e565b5060010190565b6040815260006158e8604083018561523e565b82810360208401526158fa818561523e565b95945050505050565b60006020828403121561591557600080fd5b5051919050565b60006020828403121561592e57600080fd5b8151614ca481615394565b8183823760009101908152919050565b818352818160208501375060006020828401015260006020601f19601f840116840101905092915050565b60a08152600061598860a08301888a615949565b90506001600160a01b03808716602084015263ffffffff8616604084015267ffffffffffffffff85166060840152808416608084015250979650505050505050565b88815260e0602082015260006159e460e08301898b615949565b6001600160a01b03978816604084015295909616606082015267ffffffffffffffff938416608082015263ffffffff9290921660a083015290911660c090910152949350505050565b601f821115615a7357600081815260208120601f850160051c81016020861015615a545750805b601f850160051c820191505b81811015613dbe57828155600101615a60565b505050565b815167ffffffffffffffff811115615a9257615a92614e60565b615aa681615aa084546157cf565b84615a2d565b602080601f831160018114615af95760008415615ac35750858301515b7fffffffffffffffffffffffffffffffffffffffffffffffffffffffffffffffff600386901b1c1916600185901b178555613dbe565b600085815260208120601f198616915b82811015615b2857888601518255948401946001909101908401615b09565b5085821015615b6457878501517fffffffffffffffffffffffffffffffffffffffffffffffffffffffffffffffff600388901b60f8161c191681555b5050505050600190811b01905550565b60006001600160a01b03808816835280871660208401525060a06040830152615ba060a083018661523e565b8281036060840152615bb2818661523e565b90508281036080840152613a578185614ccf565b600060208284031215615bd857600080fd5b8151614ca481614c59565b600060033d1115615bfc5760046000803e5060005160e01c5b90565b600060443d1015615c0d5790565b6040517ffffffffffffffffffffffffffffffffffffffffffffffffffffffffffffffffc803d016004833e81513d67ffffffffffffffff8160248401118184111715615c5b57505050505090565b8285019150815181811115615c735750505050505090565b843d8701016020828501011115615c8d5750505050505090565b615c9c60208286010187614e8f565b509095945050505050565b8082018082111561086b5761086b61586e565b8181038181111561086b5761086b61586e565b608081526000615ce06080830187614ccf565b6001600160a01b039590951660208301525063ffffffff92909216604083015267ffffffffffffffff16606090910152919050565b7fff000000000000000000000000000000000000000000000000000000000000008460f81b16815260008351615d52816001850160208801614cab565b835190830190615d69816001840160208801614cab565b0160010195945050505050565b60006001600160a01b03808816835280871660208401525084604083015283606083015260a06080830152615dae60a0830184614ccf565b97965050505050505056fea2646970667358221220ef26fe1616d344a0f56866639259ddedce53da5bde31376cd2c86b5ad6f2bfd764736f6c63430008110033",
  "linkReferences": {},
  "deployedLinkReferences": {}
}