{
  "_format": "hh-sol-artifact-1",
  "contractName": "NameWrapper",
  "sourceName": "contracts/wrapper/NameWrapper.sol",
  "abi": [
    {
      "inputs": [
        {
          "internalType": "contract ENS",
          "name": "_ens",
          "type": "address"
        },
        {
          "internalType": "contract IBaseRegistrar",
          "name": "_registrar",
          "type": "address"
        },
        {
          "internalType": "contract IMetadataService",
          "name": "_metadataService",
          "type": "address"
        }
      ],
      "stateMutability": "nonpayable",
      "type": "constructor"
    },
    {
      "inputs": [],
      "name": "CannotUpgrade",
      "type": "error"
    },
    {
      "inputs": [],
      "name": "IncompatibleParent",
      "type": "error"
    },
    {
      "inputs": [
        {
          "internalType": "address",
          "name": "owner",
          "type": "address"
        }
      ],
      "name": "IncorrectTargetOwner",
      "type": "error"
    },
    {
      "inputs": [],
      "name": "IncorrectTokenType",
      "type": "error"
    },
    {
      "inputs": [
        {
          "internalType": "bytes32",
          "name": "labelHash",
          "type": "bytes32"
        },
        {
          "internalType": "bytes32",
          "name": "expectedLabelhash",
          "type": "bytes32"
        }
      ],
      "name": "LabelMismatch",
      "type": "error"
    },
    {
      "inputs": [
        {
          "internalType": "string",
          "name": "label",
          "type": "string"
        }
      ],
      "name": "LabelTooLong",
      "type": "error"
    },
    {
      "inputs": [],
      "name": "LabelTooShort",
      "type": "error"
    },
    {
      "inputs": [
        {
          "internalType": "bytes32",
          "name": "node",
          "type": "bytes32"
        }
      ],
      "name": "OperationProhibited",
      "type": "error"
    },
    {
      "inputs": [
        {
          "internalType": "bytes32",
          "name": "node",
          "type": "bytes32"
        },
        {
          "internalType": "address",
          "name": "addr",
          "type": "address"
        }
      ],
      "name": "Unauthorised",
      "type": "error"
    },
    {
      "anonymous": false,
      "inputs": [
        {
          "indexed": true,
          "internalType": "address",
          "name": "account",
          "type": "address"
        },
        {
          "indexed": true,
          "internalType": "address",
          "name": "operator",
          "type": "address"
        },
        {
          "indexed": false,
          "internalType": "bool",
          "name": "approved",
          "type": "bool"
        }
      ],
      "name": "ApprovalForAll",
      "type": "event"
    },
    {
      "anonymous": false,
      "inputs": [
        {
          "indexed": true,
          "internalType": "address",
          "name": "controller",
          "type": "address"
        },
        {
          "indexed": false,
          "internalType": "bool",
          "name": "active",
          "type": "bool"
        }
      ],
      "name": "ControllerChanged",
      "type": "event"
    },
    {
      "anonymous": false,
      "inputs": [
        {
          "indexed": true,
          "internalType": "bytes32",
          "name": "node",
          "type": "bytes32"
        },
        {
          "indexed": false,
          "internalType": "uint32",
          "name": "fuses",
          "type": "uint32"
        },
        {
          "indexed": false,
          "internalType": "uint64",
          "name": "expiry",
          "type": "uint64"
        }
      ],
      "name": "FusesSet",
      "type": "event"
    },
    {
      "anonymous": false,
      "inputs": [
        {
          "indexed": true,
          "internalType": "bytes32",
          "name": "node",
          "type": "bytes32"
        },
        {
          "indexed": false,
          "internalType": "address",
          "name": "owner",
          "type": "address"
        }
      ],
      "name": "NameUnwrapped",
      "type": "event"
    },
    {
      "anonymous": false,
      "inputs": [
        {
          "indexed": true,
          "internalType": "bytes32",
          "name": "node",
          "type": "bytes32"
        },
        {
          "indexed": false,
          "internalType": "bytes",
          "name": "name",
          "type": "bytes"
        },
        {
          "indexed": false,
          "internalType": "address",
          "name": "owner",
          "type": "address"
        },
        {
          "indexed": false,
          "internalType": "uint32",
          "name": "fuses",
          "type": "uint32"
        },
        {
          "indexed": false,
          "internalType": "uint64",
          "name": "expiry",
          "type": "uint64"
        }
      ],
      "name": "NameWrapped",
      "type": "event"
    },
    {
      "anonymous": false,
      "inputs": [
        {
          "indexed": true,
          "internalType": "address",
          "name": "previousOwner",
          "type": "address"
        },
        {
          "indexed": true,
          "internalType": "address",
          "name": "newOwner",
          "type": "address"
        }
      ],
      "name": "OwnershipTransferred",
      "type": "event"
    },
    {
      "anonymous": false,
      "inputs": [
        {
          "indexed": true,
          "internalType": "address",
          "name": "operator",
          "type": "address"
        },
        {
          "indexed": true,
          "internalType": "address",
          "name": "from",
          "type": "address"
        },
        {
          "indexed": true,
          "internalType": "address",
          "name": "to",
          "type": "address"
        },
        {
          "indexed": false,
          "internalType": "uint256[]",
          "name": "ids",
          "type": "uint256[]"
        },
        {
          "indexed": false,
          "internalType": "uint256[]",
          "name": "values",
          "type": "uint256[]"
        }
      ],
      "name": "TransferBatch",
      "type": "event"
    },
    {
      "anonymous": false,
      "inputs": [
        {
          "indexed": true,
          "internalType": "address",
          "name": "operator",
          "type": "address"
        },
        {
          "indexed": true,
          "internalType": "address",
          "name": "from",
          "type": "address"
        },
        {
          "indexed": true,
          "internalType": "address",
          "name": "to",
          "type": "address"
        },
        {
          "indexed": false,
          "internalType": "uint256",
          "name": "id",
          "type": "uint256"
        },
        {
          "indexed": false,
          "internalType": "uint256",
          "name": "value",
          "type": "uint256"
        }
      ],
      "name": "TransferSingle",
      "type": "event"
    },
    {
      "anonymous": false,
      "inputs": [
        {
          "indexed": false,
          "internalType": "string",
          "name": "value",
          "type": "string"
        },
        {
          "indexed": true,
          "internalType": "uint256",
          "name": "id",
          "type": "uint256"
        }
      ],
      "name": "URI",
      "type": "event"
    },
    {
      "inputs": [
        {
          "internalType": "uint256",
          "name": "",
          "type": "uint256"
        }
      ],
      "name": "_tokens",
      "outputs": [
        {
          "internalType": "uint256",
          "name": "",
          "type": "uint256"
        }
      ],
      "stateMutability": "view",
      "type": "function"
    },
    {
      "inputs": [
        {
          "internalType": "bytes32",
          "name": "node",
          "type": "bytes32"
        },
        {
          "internalType": "uint32",
          "name": "fuseMask",
          "type": "uint32"
        }
      ],
      "name": "allFusesBurned",
      "outputs": [
        {
          "internalType": "bool",
          "name": "",
          "type": "bool"
        }
      ],
      "stateMutability": "view",
      "type": "function"
    },
    {
      "inputs": [
        {
          "internalType": "address",
          "name": "account",
          "type": "address"
        },
        {
          "internalType": "uint256",
          "name": "id",
          "type": "uint256"
        }
      ],
      "name": "balanceOf",
      "outputs": [
        {
          "internalType": "uint256",
          "name": "",
          "type": "uint256"
        }
      ],
      "stateMutability": "view",
      "type": "function"
    },
    {
      "inputs": [
        {
          "internalType": "address[]",
          "name": "accounts",
          "type": "address[]"
        },
        {
          "internalType": "uint256[]",
          "name": "ids",
          "type": "uint256[]"
        }
      ],
      "name": "balanceOfBatch",
      "outputs": [
        {
          "internalType": "uint256[]",
          "name": "",
          "type": "uint256[]"
        }
      ],
      "stateMutability": "view",
      "type": "function"
    },
    {
      "inputs": [
        {
          "internalType": "address",
          "name": "",
          "type": "address"
        }
      ],
      "name": "controllers",
      "outputs": [
        {
          "internalType": "bool",
          "name": "",
          "type": "bool"
        }
      ],
      "stateMutability": "view",
      "type": "function"
    },
    {
      "inputs": [],
      "name": "ens",
      "outputs": [
        {
          "internalType": "contract ENS",
          "name": "",
          "type": "address"
        }
      ],
      "stateMutability": "view",
      "type": "function"
    },
    {
      "inputs": [
        {
          "internalType": "uint256",
          "name": "tokenId",
          "type": "uint256"
        }
      ],
      "name": "getData",
      "outputs": [
        {
          "internalType": "address",
          "name": "owner",
          "type": "address"
        },
        {
          "internalType": "uint32",
          "name": "fuses",
          "type": "uint32"
        },
        {
          "internalType": "uint64",
          "name": "expiry",
          "type": "uint64"
        }
      ],
      "stateMutability": "view",
      "type": "function"
    },
    {
      "inputs": [
        {
          "internalType": "address",
          "name": "account",
          "type": "address"
        },
        {
          "internalType": "address",
          "name": "operator",
          "type": "address"
        }
      ],
      "name": "isApprovedForAll",
      "outputs": [
        {
          "internalType": "bool",
          "name": "",
          "type": "bool"
        }
      ],
      "stateMutability": "view",
      "type": "function"
    },
    {
      "inputs": [
        {
          "internalType": "bytes32",
          "name": "node",
          "type": "bytes32"
        },
        {
          "internalType": "address",
          "name": "addr",
          "type": "address"
        }
      ],
      "name": "isTokenOwnerOrApproved",
      "outputs": [
        {
          "internalType": "bool",
          "name": "",
          "type": "bool"
        }
      ],
      "stateMutability": "view",
      "type": "function"
    },
    {
      "inputs": [],
      "name": "metadataService",
      "outputs": [
        {
          "internalType": "contract IMetadataService",
          "name": "",
          "type": "address"
        }
      ],
      "stateMutability": "view",
      "type": "function"
    },
    {
      "inputs": [
        {
          "internalType": "bytes32",
          "name": "",
          "type": "bytes32"
        }
      ],
      "name": "names",
      "outputs": [
        {
          "internalType": "bytes",
          "name": "",
          "type": "bytes"
        }
      ],
      "stateMutability": "view",
      "type": "function"
    },
    {
      "inputs": [
        {
          "internalType": "address",
          "name": "to",
          "type": "address"
        },
        {
          "internalType": "address",
          "name": "",
          "type": "address"
        },
        {
          "internalType": "uint256",
          "name": "tokenId",
          "type": "uint256"
        },
        {
          "internalType": "bytes",
          "name": "data",
          "type": "bytes"
        }
      ],
      "name": "onERC721Received",
      "outputs": [
        {
          "internalType": "bytes4",
          "name": "",
          "type": "bytes4"
        }
      ],
      "stateMutability": "nonpayable",
      "type": "function"
    },
    {
      "inputs": [],
      "name": "owner",
      "outputs": [
        {
          "internalType": "address",
          "name": "",
          "type": "address"
        }
      ],
      "stateMutability": "view",
      "type": "function"
    },
    {
      "inputs": [
        {
          "internalType": "uint256",
          "name": "id",
          "type": "uint256"
        }
      ],
      "name": "ownerOf",
      "outputs": [
        {
          "internalType": "address",
          "name": "owner",
          "type": "address"
        }
      ],
      "stateMutability": "view",
      "type": "function"
    },
    {
      "inputs": [
        {
          "internalType": "string",
          "name": "label",
          "type": "string"
        },
        {
          "internalType": "address",
          "name": "wrappedOwner",
          "type": "address"
        },
        {
          "internalType": "uint256",
          "name": "duration",
          "type": "uint256"
        },
        {
          "internalType": "address",
          "name": "resolver",
          "type": "address"
        },
        {
          "internalType": "uint32",
          "name": "fuses",
          "type": "uint32"
        },
        {
          "internalType": "uint64",
          "name": "expiry",
          "type": "uint64"
        }
      ],
      "name": "registerAndWrapETH2LD",
      "outputs": [
        {
          "internalType": "uint256",
          "name": "registrarExpiry",
          "type": "uint256"
        }
      ],
      "stateMutability": "nonpayable",
      "type": "function"
    },
    {
      "inputs": [],
      "name": "registrar",
      "outputs": [
        {
          "internalType": "contract IBaseRegistrar",
          "name": "",
          "type": "address"
        }
      ],
      "stateMutability": "view",
      "type": "function"
    },
    {
      "inputs": [
        {
          "internalType": "uint256",
          "name": "tokenId",
          "type": "uint256"
        },
        {
          "internalType": "uint256",
          "name": "duration",
          "type": "uint256"
        },
        {
          "internalType": "uint64",
          "name": "expiry",
          "type": "uint64"
        }
      ],
      "name": "renew",
      "outputs": [
        {
          "internalType": "uint256",
          "name": "expires",
          "type": "uint256"
        }
      ],
      "stateMutability": "nonpayable",
      "type": "function"
    },
    {
      "inputs": [],
      "name": "renounceOwnership",
      "outputs": [],
      "stateMutability": "nonpayable",
      "type": "function"
    },
    {
      "inputs": [
        {
          "internalType": "address",
          "name": "from",
          "type": "address"
        },
        {
          "internalType": "address",
          "name": "to",
          "type": "address"
        },
        {
          "internalType": "uint256[]",
          "name": "ids",
          "type": "uint256[]"
        },
        {
          "internalType": "uint256[]",
          "name": "amounts",
          "type": "uint256[]"
        },
        {
          "internalType": "bytes",
          "name": "data",
          "type": "bytes"
        }
      ],
      "name": "safeBatchTransferFrom",
      "outputs": [],
      "stateMutability": "nonpayable",
      "type": "function"
    },
    {
      "inputs": [
        {
          "internalType": "address",
          "name": "from",
          "type": "address"
        },
        {
          "internalType": "address",
          "name": "to",
          "type": "address"
        },
        {
          "internalType": "uint256",
          "name": "id",
          "type": "uint256"
        },
        {
          "internalType": "uint256",
          "name": "amount",
          "type": "uint256"
        },
        {
          "internalType": "bytes",
          "name": "data",
          "type": "bytes"
        }
      ],
      "name": "safeTransferFrom",
      "outputs": [],
      "stateMutability": "nonpayable",
      "type": "function"
    },
    {
      "inputs": [
        {
          "internalType": "address",
          "name": "operator",
          "type": "address"
        },
        {
          "internalType": "bool",
          "name": "approved",
          "type": "bool"
        }
      ],
      "name": "setApprovalForAll",
      "outputs": [],
      "stateMutability": "nonpayable",
      "type": "function"
    },
    {
      "inputs": [
        {
          "internalType": "bytes32",
          "name": "parentNode",
          "type": "bytes32"
        },
        {
          "internalType": "bytes32",
          "name": "labelhash",
          "type": "bytes32"
        },
        {
          "internalType": "uint32",
          "name": "fuses",
          "type": "uint32"
        },
        {
          "internalType": "uint64",
          "name": "expiry",
          "type": "uint64"
        }
      ],
      "name": "setChildFuses",
      "outputs": [],
      "stateMutability": "nonpayable",
      "type": "function"
    },
    {
      "inputs": [
        {
          "internalType": "address",
          "name": "controller",
          "type": "address"
        },
        {
          "internalType": "bool",
          "name": "active",
          "type": "bool"
        }
      ],
      "name": "setController",
      "outputs": [],
      "stateMutability": "nonpayable",
      "type": "function"
    },
    {
      "inputs": [
        {
          "internalType": "bytes32",
          "name": "node",
          "type": "bytes32"
        },
        {
          "internalType": "uint32",
          "name": "fuses",
          "type": "uint32"
        }
      ],
      "name": "setFuses",
      "outputs": [
        {
          "internalType": "uint32",
          "name": "",
          "type": "uint32"
        }
      ],
      "stateMutability": "nonpayable",
      "type": "function"
    },
    {
      "inputs": [
        {
          "internalType": "contract IMetadataService",
          "name": "_newMetadataService",
          "type": "address"
        }
      ],
      "name": "setMetadataService",
      "outputs": [],
      "stateMutability": "nonpayable",
      "type": "function"
    },
    {
      "inputs": [
        {
          "internalType": "bytes32",
          "name": "node",
          "type": "bytes32"
        },
        {
          "internalType": "address",
          "name": "owner",
          "type": "address"
        },
        {
          "internalType": "address",
          "name": "resolver",
          "type": "address"
        },
        {
          "internalType": "uint64",
          "name": "ttl",
          "type": "uint64"
        }
      ],
      "name": "setRecord",
      "outputs": [],
      "stateMutability": "nonpayable",
      "type": "function"
    },
    {
      "inputs": [
        {
          "internalType": "bytes32",
          "name": "node",
          "type": "bytes32"
        },
        {
          "internalType": "address",
          "name": "resolver",
          "type": "address"
        }
      ],
      "name": "setResolver",
      "outputs": [],
      "stateMutability": "nonpayable",
      "type": "function"
    },
    {
      "inputs": [
        {
          "internalType": "bytes32",
          "name": "parentNode",
          "type": "bytes32"
        },
        {
          "internalType": "string",
          "name": "label",
          "type": "string"
        },
        {
          "internalType": "address",
          "name": "newOwner",
          "type": "address"
        },
        {
          "internalType": "uint32",
          "name": "fuses",
          "type": "uint32"
        },
        {
          "internalType": "uint64",
          "name": "expiry",
          "type": "uint64"
        }
      ],
      "name": "setSubnodeOwner",
      "outputs": [
        {
          "internalType": "bytes32",
          "name": "node",
          "type": "bytes32"
        }
      ],
      "stateMutability": "nonpayable",
      "type": "function"
    },
    {
      "inputs": [
        {
          "internalType": "bytes32",
          "name": "parentNode",
          "type": "bytes32"
        },
        {
          "internalType": "string",
          "name": "label",
          "type": "string"
        },
        {
          "internalType": "address",
          "name": "newOwner",
          "type": "address"
        },
        {
          "internalType": "address",
          "name": "resolver",
          "type": "address"
        },
        {
          "internalType": "uint64",
          "name": "ttl",
          "type": "uint64"
        },
        {
          "internalType": "uint32",
          "name": "fuses",
          "type": "uint32"
        },
        {
          "internalType": "uint64",
          "name": "expiry",
          "type": "uint64"
        }
      ],
      "name": "setSubnodeRecord",
      "outputs": [],
      "stateMutability": "nonpayable",
      "type": "function"
    },
    {
      "inputs": [
        {
          "internalType": "bytes32",
          "name": "node",
          "type": "bytes32"
        },
        {
          "internalType": "uint64",
          "name": "ttl",
          "type": "uint64"
        }
      ],
      "name": "setTTL",
      "outputs": [],
      "stateMutability": "nonpayable",
      "type": "function"
    },
    {
      "inputs": [
        {
          "internalType": "contract INameWrapperUpgrade",
          "name": "_upgradeAddress",
          "type": "address"
        }
      ],
      "name": "setUpgradeContract",
      "outputs": [],
      "stateMutability": "nonpayable",
      "type": "function"
    },
    {
      "inputs": [
        {
          "internalType": "bytes4",
          "name": "interfaceId",
          "type": "bytes4"
        }
      ],
      "name": "supportsInterface",
      "outputs": [
        {
          "internalType": "bool",
          "name": "",
          "type": "bool"
        }
      ],
      "stateMutability": "view",
      "type": "function"
    },
    {
      "inputs": [
        {
          "internalType": "address",
          "name": "newOwner",
          "type": "address"
        }
      ],
      "name": "transferOwnership",
      "outputs": [],
      "stateMutability": "nonpayable",
      "type": "function"
    },
    {
      "inputs": [
        {
          "internalType": "bytes32",
          "name": "parentNode",
          "type": "bytes32"
        },
        {
          "internalType": "bytes32",
          "name": "labelhash",
          "type": "bytes32"
        },
        {
          "internalType": "address",
          "name": "newController",
          "type": "address"
        }
      ],
      "name": "unwrap",
      "outputs": [],
      "stateMutability": "nonpayable",
      "type": "function"
    },
    {
      "inputs": [
        {
          "internalType": "bytes32",
          "name": "labelhash",
          "type": "bytes32"
        },
        {
          "internalType": "address",
          "name": "newRegistrant",
          "type": "address"
        },
        {
          "internalType": "address",
          "name": "newController",
          "type": "address"
        }
      ],
      "name": "unwrapETH2LD",
      "outputs": [],
      "stateMutability": "nonpayable",
      "type": "function"
    },
    {
      "inputs": [
        {
          "internalType": "bytes32",
          "name": "parentNode",
          "type": "bytes32"
        },
        {
          "internalType": "string",
          "name": "label",
          "type": "string"
        },
        {
          "internalType": "address",
          "name": "wrappedOwner",
          "type": "address"
        },
        {
          "internalType": "address",
          "name": "resolver",
          "type": "address"
        }
      ],
      "name": "upgrade",
      "outputs": [],
      "stateMutability": "nonpayable",
      "type": "function"
    },
    {
      "inputs": [],
      "name": "upgradeContract",
      "outputs": [
        {
          "internalType": "contract INameWrapperUpgrade",
          "name": "",
          "type": "address"
        }
      ],
      "stateMutability": "view",
      "type": "function"
    },
    {
      "inputs": [
        {
          "internalType": "string",
          "name": "label",
          "type": "string"
        },
        {
          "internalType": "address",
          "name": "wrappedOwner",
          "type": "address"
        },
        {
          "internalType": "address",
          "name": "resolver",
          "type": "address"
        }
      ],
      "name": "upgradeETH2LD",
      "outputs": [],
      "stateMutability": "nonpayable",
      "type": "function"
    },
    {
      "inputs": [
        {
          "internalType": "uint256",
          "name": "tokenId",
          "type": "uint256"
        }
      ],
      "name": "uri",
      "outputs": [
        {
          "internalType": "string",
          "name": "",
          "type": "string"
        }
      ],
      "stateMutability": "view",
      "type": "function"
    },
    {
      "inputs": [
        {
          "internalType": "bytes",
          "name": "name",
          "type": "bytes"
        },
        {
          "internalType": "address",
          "name": "wrappedOwner",
          "type": "address"
        },
        {
          "internalType": "address",
          "name": "resolver",
          "type": "address"
        }
      ],
      "name": "wrap",
      "outputs": [],
      "stateMutability": "nonpayable",
      "type": "function"
    },
    {
      "inputs": [
        {
          "internalType": "string",
          "name": "label",
          "type": "string"
        },
        {
          "internalType": "address",
          "name": "wrappedOwner",
          "type": "address"
        },
        {
          "internalType": "uint32",
          "name": "fuses",
          "type": "uint32"
        },
        {
          "internalType": "uint64",
          "name": "expiry",
          "type": "uint64"
        },
        {
          "internalType": "address",
          "name": "resolver",
          "type": "address"
        }
      ],
      "name": "wrapETH2LD",
      "outputs": [
        {
          "internalType": "uint64",
          "name": "",
          "type": "uint64"
        }
      ],
      "stateMutability": "nonpayable",
      "type": "function"
    }
  ],
  "bytecode": "0x60c06040523480156200001157600080fd5b5060405162005f2138038062005f21833981016040819052620000349162000299565b6200003f336200018a565b6001600160a01b0383811660805282811660a052600480546001600160a01b031916918316919091179055600163ffffffbf60a01b03197fafa26c20e8b3d9a2853d642cfe1021dae26242ffedfac91c97aab212c1a4b93b8190557fa6eef7e35abe7026729641147f7915573c7e97b47efa546f5f6e3230263bcb49556040805180820190915260018152600060208083018281529180526005905290516200010a917f05b8ccbb9d4d8fb16ea74ce3c29a41f1b461fbdaff4714a0d9a8eb05499746bc91620001da565b50604080518082019091526005808252626cae8d60e31b60208084019182527f93cdeb708b7545dc668eb9280176169d1c33cfd8ed6f04690a0bcc88a93fc4ae60005291909152905162000180917fd99130487705d6970718a0cee91984b61956f8a1db3482bba7e6bf0131adb01f91620001da565b5050505062000329565b600080546001600160a01b038381166001600160a01b0319831681178455604051919092169283917f8be0079c531659141344cd1fd0a4f28419497f9722a3daafe3b4186f6b6457e09190a35050565b828054620001e890620002ed565b90600052602060002090601f0160209004810192826200020c576000855562000257565b82601f106200022757805160ff191683800117855562000257565b8280016001018555821562000257579182015b82811115620002575782518255916020019190600101906200023a565b506200026592915062000269565b5090565b5b808211156200026557600081556001016200026a565b6001600160a01b03811681146200029657600080fd5b50565b600080600060608486031215620002af57600080fd5b8351620002bc8162000280565b6020850151909350620002cf8162000280565b6040850151909250620002e28162000280565b809150509250925092565b600181811c908216806200030257607f821691505b6020821081036200032357634e487b7160e01b600052602260045260246000fd5b50919050565b60805160a051615af9620004286000396000818161045c01528181610a7a01528181610b71015281816116b201528181611a2701528181611c4f01528181611d8c0152818161202f015281816121ab0152818161337c01528181613473015281816135950152818161362401526143c20152600081816104a901528181610a0001528181610d5501528181610ec8015281816110370152818161110d015281816111d8015281816120cd0152818161224901528181612430015281816125b2015281816126700152818161281301528181612cb801528181612daf01528181612e9101528181612f23015281816138ad0152613ebf0152615af96000f3fe608060405234801561001057600080fd5b50600436106102d25760003560e01c80638b4dfa7511610186578063da8c229e116100e3578063ed70554d11610097578063f2fde38b11610071578063f2fde38b146106db578063f44779b9146106ee578063f9547a9e1461070157600080fd5b8063ed70554d14610695578063ee7eba78146106b5578063f242432a146106c857600080fd5b8063e72bf00f116100c8578063e72bf00f14610633578063e985e9c514610646578063eb8ae5301461068257600080fd5b8063da8c229e146105fd578063e0dba60f1461062057600080fd5b8063b6bcad261161013a578063c658e0861161011f578063c658e086146105c4578063cf408823146105d7578063d8c9921a146105ea57600080fd5b8063b6bcad2614610589578063c20a2eb01461059c57600080fd5b80639f56dac61161016b5780639f56dac614610550578063a22cb46514610563578063adf4960a1461057657600080fd5b80638b4dfa751461052c5780638da5cb5b1461053f57600080fd5b806324c1af44116102345780634e1273f4116101e85780636352211e116101cd5780636352211e146104fe5780636846f2f714610511578063715018a61461052457600080fd5b80634e1273f4146104cb57806353095467146104eb57600080fd5b80632eb2c2d6116102195780632eb2c2d61461047e57806333c69ea9146104915780633f15457f146104a457600080fd5b806324c1af44146104445780632b20e3971461045757600080fd5b8063150b7a021161028b5780631896f70a116102705780631896f70a146103f35780631f4e15041461040657806320c38e2b1461043157600080fd5b8063150b7a021461039c5780631534e177146103e057600080fd5b806301ffc9a7116102bc57806301ffc9a7146103445780630e89341c1461036757806314ab90381461038757600080fd5b8062fdd58e146102d75780630178fe3f146102fd575b600080fd5b6102ea6102e5366004614a54565b61072d565b6040519081526020015b60405180910390f35b61031061030b366004614a80565b6107ee565b604080516001600160a01b03909416845263ffffffff909216602084015267ffffffffffffffff16908201526060016102f4565b610357610352366004614ac7565b610825565b60405190151581526020016102f4565b61037a610375366004614a80565b6108c7565b6040516102f49190614b43565b61039a610395366004614b73565b610954565b005b6103af6103aa366004614be8565b610a6d565b6040517fffffffff0000000000000000000000000000000000000000000000000000000090911681526020016102f4565b61039a6103ee366004614c5b565b610c15565b61039a610401366004614c78565b610ca9565b600654610419906001600160a01b031681565b6040516001600160a01b0390911681526020016102f4565b61037a61043f366004614a80565b610d84565b61039a610452366004614d9c565b610e1e565b6104197f000000000000000000000000000000000000000000000000000000000000000081565b61039a61048c366004614ecf565b611250565b61039a61049f366004614f7d565b6115ee565b6104197f000000000000000000000000000000000000000000000000000000000000000081565b6104de6104d9366004614fc3565b6117d3565b6040516102f491906150c1565b600454610419906001600160a01b031681565b61041961050c366004614a80565b611911565b6102ea61051f3660046150d4565b61191c565b61039a611ad5565b61039a61053a366004615109565b611b3b565b6000546001600160a01b0316610419565b6102ea61055e36600461514b565b611cb1565b61039a6105713660046151de565b611e55565b61035761058436600461520c565b611f5d565b61039a610597366004614c5b565b611f82565b6105af6105aa36600461520c565b6122a8565b60405163ffffffff90911681526020016102f4565b6102ea6105d236600461522f565b612374565b61039a6105e53660046152ae565b612751565b61039a6105f83660046152e6565b6128a1565b61035761060b366004614c5b565b60036020526000908152604090205460ff1681565b61039a61062e3660046151de565b612989565b61039a610641366004615314565b612a61565b61035761065436600461537c565b6001600160a01b03918216600090815260026020908152604080832093909416825291909152205460ff1690565b61039a610690366004615314565b612b72565b6102ea6106a3366004614a80565b60016020526000908152604090205481565b61039a6106c33660046153aa565b612fca565b61039a6106d636600461541e565b6130c0565b61039a6106e9366004614c5b565b6131f5565b6103576106fc366004614c78565b6132d4565b61071461070f366004615487565b61332f565b60405167ffffffffffffffff90911681526020016102f4565b60006001600160a01b0383166107b05760405162461bcd60e51b815260206004820152602b60248201527f455243313135353a2062616c616e636520717565727920666f7220746865207a60448201527f65726f206164647265737300000000000000000000000000000000000000000060648201526084015b60405180910390fd5b60006107bb836107ee565b50509050836001600160a01b0316816001600160a01b0316036107e25760019150506107e8565b60009150505b92915050565b6000818152600160205260408120549060c082901c8242821015610815576000925061081d565b60a081901c92505b509193909250565b60007fffffffff0000000000000000000000000000000000000000000000000000000082167f3b7c7d330000000000000000000000000000000000000000000000000000000014806108b857507fffffffff0000000000000000000000000000000000000000000000000000000082167f150b7a0200000000000000000000000000000000000000000000000000000000145b806107e857506107e8826136dc565b600480546040517f0e89341c0000000000000000000000000000000000000000000000000000000081529182018390526060916001600160a01b0390911690630e89341c90602401600060405180830381865afa15801561092c573d6000803e3d6000fd5b505050506040513d6000823e601f3d908101601f191682016040526107e89190810190615511565b8161095f81336132d4565b6109855760405163168ab55d60e31b8152600481018290523360248201526044016107a7565b8260106000610993836107ee565b5091505063ffffffff82821616156109c15760405163a2a7201360e01b8152600481018490526024016107a7565b6040517f14ab90380000000000000000000000000000000000000000000000000000000081526004810187905267ffffffffffffffff861660248201527f00000000000000000000000000000000000000000000000000000000000000006001600160a01b0316906314ab9038906044015b600060405180830381600087803b158015610a4d57600080fd5b505af1158015610a61573d6000803e3d6000fd5b50505050505050505050565b6000336001600160a01b037f00000000000000000000000000000000000000000000000000000000000000001614610ad1576040517f1931a53800000000000000000000000000000000000000000000000000000000815260040160405180910390fd5b600080808080610ae387890189615593565b84516020860120949950929750909550935091508990808214610b3c576040517fc65c3ccc00000000000000000000000000000000000000000000000000000000815260048101829052602481018390526044016107a7565b6040517f28ed4f6c000000000000000000000000000000000000000000000000000000008152600481018390523060248201527f00000000000000000000000000000000000000000000000000000000000000006001600160a01b0316906328ed4f6c90604401600060405180830381600087803b158015610bbd57600080fd5b505af1158015610bd1573d6000803e3d6000fd5b50505050610be287878787876137bf565b507f150b7a02000000000000000000000000000000000000000000000000000000009d9c50505050505050505050505050565b6000546001600160a01b03163314610c6f5760405162461bcd60e51b815260206004820181905260248201527f4f776e61626c653a2063616c6c6572206973206e6f7420746865206f776e657260448201526064016107a7565b600480547fffffffffffffffffffffffff0000000000000000000000000000000000000000166001600160a01b0392909216919091179055565b81610cb481336132d4565b610cda5760405163168ab55d60e31b8152600481018290523360248201526044016107a7565b8260086000610ce8836107ee565b5091505063ffffffff8282161615610d165760405163a2a7201360e01b8152600481018490526024016107a7565b6040517f1896f70a000000000000000000000000000000000000000000000000000000008152600481018790526001600160a01b0386811660248301527f00000000000000000000000000000000000000000000000000000000000000001690631896f70a90604401610a33565b60056020526000908152604090208054610d9d9061560b565b80601f0160208091040260200160405190810160405280929190818152602001828054610dc99061560b565b8015610e165780601f10610deb57610100808354040283529160200191610e16565b820191906000526020600020905b815481529060010190602001808311610df957829003601f168201915b505050505081565b86610e2981336132d4565b610e4f5760405163168ab55d60e31b8152600481018290523360248201526044016107a7565b8787805190602001206000610e8b8383604080516020808201949094528082019290925280518083038201815260609092019052805191012090565b6040517f02571be3000000000000000000000000000000000000000000000000000000008152600481018290529091506000906001600160a01b037f000000000000000000000000000000000000000000000000000000000000000016906302571be390602401602060405180830381865afa158015610f0f573d6000803e3d6000fd5b505050506040513d601f19601f82011682018060405250810190610f33919061565e565b90506001600160a01b038116610f7d576000610f4e856107ee565b509150506020811615610f775760405163a2a7201360e01b8152600481018690526024016107a7565b50610fb3565b6000610f88836107ee565b509150506040811615610fb15760405163a2a7201360e01b8152600481018690526024016107a7565b505b8a5160208c01206000610fed8e83604080516020808201949094528082019290925280518083038201815260609092019052805191012090565b9050610ffa8e828a613916565b6040517f02571be300000000000000000000000000000000000000000000000000000000815260048101859052909a503092506001600160a01b037f00000000000000000000000000000000000000000000000000000000000000001691506302571be390602401602060405180830381865afa15801561107f573d6000803e3d6000fd5b505050506040513d601f19601f820116820180604052508101906110a3919061565e565b6001600160a01b03161461117c576040517f5ef2c7f0000000000000000000000000000000000000000000000000000000008152600481018f9052602481018390523060448201526001600160a01b038c8116606483015267ffffffffffffffff8c1660848301527f00000000000000000000000000000000000000000000000000000000000000001690635ef2c7f09060a401600060405180830381600087803b15801561115157600080fd5b505af1158015611165573d6000803e3d6000fd5b505050506111778e828f8f8d8d613955565b611240565b6040517f5ef2c7f0000000000000000000000000000000000000000000000000000000008152600481018f9052602481018390523060448201526001600160a01b038c8116606483015267ffffffffffffffff8c1660848301527f00000000000000000000000000000000000000000000000000000000000000001690635ef2c7f09060a401600060405180830381600087803b15801561121c57600080fd5b505af1158015611230573d6000803e3d6000fd5b50505050611240818d8b8b613a0f565b5050505050505050505050505050565b81518351146112c75760405162461bcd60e51b815260206004820152602860248201527f455243313135353a2069647320616e6420616d6f756e7473206c656e6774682060448201527f6d69736d6174636800000000000000000000000000000000000000000000000060648201526084016107a7565b6001600160a01b0384166113435760405162461bcd60e51b815260206004820152602560248201527f455243313135353a207472616e7366657220746f20746865207a65726f20616460448201527f647265737300000000000000000000000000000000000000000000000000000060648201526084016107a7565b6001600160a01b03851633148061137d57506001600160a01b038516600090815260026020908152604080832033845290915290205460ff165b6113ef5760405162461bcd60e51b815260206004820152603260248201527f455243313135353a207472616e736665722063616c6c6572206973206e6f742060448201527f6f776e6572206e6f7220617070726f766564000000000000000000000000000060648201526084016107a7565b60005b835181101561158157600084828151811061140f5761140f61567b565b60200260200101519050600084838151811061142d5761142d61567b565b602002602001015190506000806000611445856107ee565b925092509250611456826004161590565b6114765760405163a2a7201360e01b8152600481018690526024016107a7565b83600114801561149757508a6001600160a01b0316836001600160a01b0316145b6115095760405162461bcd60e51b815260206004820152602a60248201527f455243313135353a20696e73756666696369656e742062616c616e636520666f60448201527f72207472616e736665720000000000000000000000000000000000000000000060648201526084016107a7565b60008581526001602052604090206001600160a01b038b1677ffffffff000000000000000000000000000000000000000060a085901b16177fffffffffffffffff00000000000000000000000000000000000000000000000060c084901b1617905550505050508061157a906156d9565b90506113f2565b50836001600160a01b0316856001600160a01b0316336001600160a01b03167f4a39dc06d4c0dbc64b70af90fd698a233a518aa5d07e595d983b8c0526c8f7fb86866040516115d1929190615711565b60405180910390a46115e7338686868686613a4a565b5050505050565b6040805160208082018790528183018690528251808303840181526060909201909252805191012060008080611623846107ee565b9194509250905060007f6c32148f748aba23997146d7fe89e962e3cc30271290fb96f5f4337756c03b52890161172c5761165d85336132d4565b6116835760405163168ab55d60e31b8152600481018690523360248201526044016107a7565b6040517fd6e4fa86000000000000000000000000000000000000000000000000000000008152600481018990527f00000000000000000000000000000000000000000000000000000000000000006001600160a01b03169063d6e4fa8690602401602060405180830381865afa158015611701573d6000803e3d6000fd5b505050506040513d601f19601f82011682018060405250810190611725919061573f565b905061176a565b61173689336132d4565b61175c5760405163168ab55d60e31b8152600481018690523360248201526044016107a7565b611765896107ee565b925050505b611775868383613c56565b9550604083161580159061179757508263ffffffff1687841763ffffffff1614155b156117b85760405163a2a7201360e01b8152600481018690526024016107a7565b958217956117c885858989613ca0565b505050505050505050565b6060815183511461184c5760405162461bcd60e51b815260206004820152602960248201527f455243313135353a206163636f756e747320616e6420696473206c656e67746860448201527f206d69736d61746368000000000000000000000000000000000000000000000060648201526084016107a7565b6000835167ffffffffffffffff81111561186857611868614ca8565b604051908082528060200260200182016040528015611891578160200160208202803683370190505b50905060005b8451811015611909576118dc8582815181106118b5576118b561567b565b60200260200101518583815181106118cf576118cf61567b565b602002602001015161072d565b8282815181106118ee576118ee61567b565b6020908102919091010152611902816156d9565b9050611897565b509392505050565b60006107e882613cfc565b3360009081526003602052604081205460ff166119a15760405162461bcd60e51b815260206004820152602860248201527f436f6e74726f6c6c61626c653a2043616c6c6572206973206e6f74206120636f60448201527f6e74726f6c6c657200000000000000000000000000000000000000000000000060648201526084016107a7565b604080517f93cdeb708b7545dc668eb9280176169d1c33cfd8ed6f04690a0bcc88a93fc4ae602080830191909152818301879052825180830384018152606090920190925280519101206000906040517fc475abff00000000000000000000000000000000000000000000000000000000815260048101879052602481018690529091507f00000000000000000000000000000000000000000000000000000000000000006001600160a01b03169063c475abff906044016020604051808303816000875af1158015611a78573d6000803e3d6000fd5b505050506040513d601f19601f82011682018060405250810190611a9c919061573f565b915060008080611aab846107ee565b925092509250611abc868287613c56565b9550611aca84848489613d12565b505050509392505050565b6000546001600160a01b03163314611b2f5760405162461bcd60e51b815260206004820181905260248201527f4f776e61626c653a2063616c6c6572206973206e6f7420746865206f776e657260448201526064016107a7565b611b396000613d83565b565b604080517f93cdeb708b7545dc668eb9280176169d1c33cfd8ed6f04690a0bcc88a93fc4ae60208083019190915281830186905282518083038401815260609092019092528051910120611b8f81336132d4565b611bb55760405163168ab55d60e31b8152600481018290523360248201526044016107a7565b604080517f93cdeb708b7545dc668eb9280176169d1c33cfd8ed6f04690a0bcc88a93fc4ae60208083019190915281830187905282518083038401815260609092019092528051910120611c0a905b83613deb565b6040517f23b872dd0000000000000000000000000000000000000000000000000000000081523060048201526001600160a01b038481166024830152604482018690527f000000000000000000000000000000000000000000000000000000000000000016906323b872dd90606401600060405180830381600087803b158015611c9357600080fd5b505af1158015611ca7573d6000803e3d6000fd5b5050505050505050565b3360009081526003602052604081205460ff16611d365760405162461bcd60e51b815260206004820152602860248201527f436f6e74726f6c6c61626c653a2043616c6c6572206973206e6f74206120636f60448201527f6e74726f6c6c657200000000000000000000000000000000000000000000000060648201526084016107a7565b60008888604051611d48929190615758565b6040519081900381207ffca247ac000000000000000000000000000000000000000000000000000000008252600482018190523060248301526044820188905291507f00000000000000000000000000000000000000000000000000000000000000006001600160a01b03169063fca247ac906064016020604051808303816000875af1158015611ddd573d6000803e3d6000fd5b505050506040513d601f19601f82011682018060405250810190611e01919061573f565b9150611e4889898080601f0160208091040260200160405190810160405280939291908181526020018383808284376000920191909152508b9250889150879050896137bf565b5050979650505050505050565b6001600160a01b0382163303611ed35760405162461bcd60e51b815260206004820152602960248201527f455243313135353a2073657474696e6720617070726f76616c2073746174757360448201527f20666f722073656c66000000000000000000000000000000000000000000000060648201526084016107a7565b3360008181526002602090815260408083206001600160a01b0387168085529083529281902080547fffffffffffffffffffffffffffffffffffffffffffffffffffffffffffffff001686151590811790915590519081529192917f17307eab39ab6107e8899845ad3d59bd9653f200f220920489ca2b5937696c31910160405180910390a35050565b600080611f69846107ee565b50841663ffffffff908116908516149250505092915050565b6000546001600160a01b03163314611fdc5760405162461bcd60e51b815260206004820181905260248201527f4f776e61626c653a2063616c6c6572206973206e6f7420746865206f776e657260448201526064016107a7565b6006546001600160a01b03161561212e576006546040517fa22cb4650000000000000000000000000000000000000000000000000000000081526001600160a01b039182166004820152600060248201527f00000000000000000000000000000000000000000000000000000000000000009091169063a22cb46590604401600060405180830381600087803b15801561207557600080fd5b505af1158015612089573d6000803e3d6000fd5b50506006546040517fa22cb4650000000000000000000000000000000000000000000000000000000081526001600160a01b039182166004820152600060248201527f0000000000000000000000000000000000000000000000000000000000000000909116925063a22cb4659150604401600060405180830381600087803b15801561211557600080fd5b505af1158015612129573d6000803e3d6000fd5b505050505b600680547fffffffffffffffffffffffff0000000000000000000000000000000000000000166001600160a01b038316908117909155156122a5576006546040517fa22cb4650000000000000000000000000000000000000000000000000000000081526001600160a01b039182166004820152600160248201527f00000000000000000000000000000000000000000000000000000000000000009091169063a22cb46590604401600060405180830381600087803b1580156121f157600080fd5b505af1158015612205573d6000803e3d6000fd5b50506006546040517fa22cb4650000000000000000000000000000000000000000000000000000000081526001600160a01b039182166004820152600160248201527f0000000000000000000000000000000000000000000000000000000000000000909116925063a22cb4659150604401600060405180830381600087803b15801561229157600080fd5b505af11580156115e7573d6000803e3d6000fd5b50565b6000826122b581336132d4565b6122db5760405163168ab55d60e31b8152600481018290523360248201526044016107a7565b83600260006122e9836107ee565b5091505063ffffffff82821616156123175760405163a2a7201360e01b8152600481018490526024016107a7565b60408616156123425760405163168ab55d60e31b8152600481018890523360248201526044016107a7565b6000808061234f8a6107ee565b92509250925081891798506123668a848b84613ca0565b509698975050505050505050565b60008661238181336132d4565b6123a75760405163168ab55d60e31b8152600481018290523360248201526044016107a7565b8787876040516123b8929190615758565b604051809103902060006123f38383604080516020808201949094528082019290925280518083038201815260609092019052805191012090565b6040517f02571be3000000000000000000000000000000000000000000000000000000008152600481018290529091506000906001600160a01b037f000000000000000000000000000000000000000000000000000000000000000016906302571be390602401602060405180830381865afa158015612477573d6000803e3d6000fd5b505050506040513d601f19601f8201168201806040525081019061249b919061565e565b90506001600160a01b0381166124e55760006124b6856107ee565b5091505060208116156124df5760405163a2a7201360e01b8152600481018690526024016107a7565b5061251b565b60006124f0836107ee565b5091505060408116156125195760405163a2a7201360e01b8152600481018690526024016107a7565b505b60008b8b60405161252d929190615758565b604051809103902090506125688d82604080516020808201949094528082019290925280518083038201815260609092019052805191012090565b96506125758d888a613916565b6040517f02571be3000000000000000000000000000000000000000000000000000000008152600481018b9052909a503092506001600160a01b037f00000000000000000000000000000000000000000000000000000000000000001691506302571be390602401602060405180830381865afa1580156125fa573d6000803e3d6000fd5b505050506040513d601f19601f8201168201806040525081019061261e919061565e565b6001600160a01b031614612735576040517f06ab5923000000000000000000000000000000000000000000000000000000008152600481018e9052602481018290523060448201526001600160a01b037f000000000000000000000000000000000000000000000000000000000000000016906306ab5923906064016020604051808303816000875af11580156126b9573d6000803e3d6000fd5b505050506040513d601f19601f820116820180604052508101906126dd919061573f565b506127308d888e8e8080601f016020809104026020016040519081016040528093929190818152602001838380828437600081840152601f19601f820116905080830192505050505050508d8d8d613955565b612741565b612741878b8b8b613a0f565b5050505050509695505050505050565b8361275c81336132d4565b6127825760405163168ab55d60e31b8152600481018290523360248201526044016107a7565b84601c6000612790836107ee565b5091505063ffffffff82821616156127be5760405163a2a7201360e01b8152600481018490526024016107a7565b6040517fcf408823000000000000000000000000000000000000000000000000000000008152600481018990523060248201526001600160a01b03878116604483015267ffffffffffffffff871660648301527f0000000000000000000000000000000000000000000000000000000000000000169063cf40882390608401600060405180830381600087803b15801561285757600080fd5b505af115801561286b573d6000803e3d6000fd5b50505050600061287d8960001c6107ee565b505090506117c881898b60001c600160405180602001604052806000815250613f56565b604080516020808201869052818301859052825180830384018152606090920190925280519101206128d381336132d4565b6128f95760405163168ab55d60e31b8152600481018290523360248201526044016107a7565b7f6c32148f748aba23997146d7fe89e962e3cc30271290fb96f5f4337756c03b528401612952576040517f615a470300000000000000000000000000000000000000000000000000000000815260040160405180910390fd5b6040805160208082018790528183018690528251808303840181526060909201909252805191012061298390611c04565b50505050565b6000546001600160a01b031633146129e35760405162461bcd60e51b815260206004820181905260248201527f4f776e61626c653a2063616c6c6572206973206e6f7420746865206f776e657260448201526064016107a7565b6001600160a01b03821660008181526003602090815260409182902080547fffffffffffffffffffffffffffffffffffffffffffffffffffffffffffffff001685151590811790915591519182527f4c97694570a07277810af7e5669ffd5f6a2d6b74b6e9a274b8b870fd5114cf8791015b60405180910390a25050565b60008484604051612a73929190615758565b60405190819003902090506000612ad17f93cdeb708b7545dc668eb9280176169d1c33cfd8ed6f04690a0bcc88a93fc4ae83604080516020808201949094528082019290925280518083038201815260609092019052805191012090565b9050600080612adf836140fe565b6006546040517ff9547a9e0000000000000000000000000000000000000000000000000000000081529294509092506001600160a01b03169063f9547a9e90612b36908b908b908b90889088908d90600401615793565b600060405180830381600087803b158015612b5057600080fd5b505af1158015612b64573d6000803e3d6000fd5b505050505050505050505050565b600080612bb9600087878080601f01602080910402602001604051908101604052809392919081815260200183838082843760009201919091525092939250506141939050565b915091506000612c028288888080601f016020809104026020016040519081016040528093929190818152602001838380828437600092019190915250929392505061424a9050565b604080516020808201849052818301879052825180830384018152606090920190925280519101209091507f6c32148f748aba23997146d7fe89e962e3cc30271290fb96f5f4337756c03b528201612c86576040517f615a470300000000000000000000000000000000000000000000000000000000815260040160405180910390fd5b6040517f02571be3000000000000000000000000000000000000000000000000000000008152600481018290526000907f00000000000000000000000000000000000000000000000000000000000000006001600160a01b0316906302571be390602401602060405180830381865afa158015612d07573d6000803e3d6000fd5b505050506040513d601f19601f82011682018060405250810190612d2b919061565e565b90506001600160a01b0381163314801590612d6a57506001600160a01b038116600090815260026020908152604080832033845290915290205460ff16155b8015612e1c57506040517fe985e9c50000000000000000000000000000000000000000000000000000000081526001600160a01b0382811660048301523360248301527f0000000000000000000000000000000000000000000000000000000000000000169063e985e9c590604401602060405180830381865afa158015612df6573d6000803e3d6000fd5b505050506040513d601f19601f82011682018060405250810190612e1a91906157e9565b155b15612e435760405163168ab55d60e31b8152600481018390523360248201526044016107a7565b6001600160a01b03861615612eee576040517f1896f70a000000000000000000000000000000000000000000000000000000008152600481018390526001600160a01b0387811660248301527f00000000000000000000000000000000000000000000000000000000000000001690631896f70a90604401600060405180830381600087803b158015612ed557600080fd5b505af1158015612ee9573d6000803e3d6000fd5b505050505b6040517f5b0fc9c3000000000000000000000000000000000000000000000000000000008152600481018390523060248201527f00000000000000000000000000000000000000000000000000000000000000006001600160a01b031690635b0fc9c390604401600060405180830381600087803b158015612f6f57600080fd5b505af1158015612f83573d6000803e3d6000fd5b505050506117c8828a8a8080601f01602080910402602001604051908101604052809392919081815260200183838082843760009201829052508d93509150819050614309565b60008484604051612fdc929190615758565b6040518091039020905060006130198783604080516020808201949094528082019290925280518083038201815260609092019052805191012090565b9050600080613027836140fe565b6006546040517f24c1af440000000000000000000000000000000000000000000000000000000081529294509092506001600160a01b0316906324c1af4490613083908c908c908c908c908c906000908b908b90600401615806565b600060405180830381600087803b15801561309d57600080fd5b505af11580156130b1573d6000803e3d6000fd5b50505050505050505050505050565b6001600160a01b03841661313c5760405162461bcd60e51b815260206004820152602560248201527f455243313135353a207472616e7366657220746f20746865207a65726f20616460448201527f647265737300000000000000000000000000000000000000000000000000000060648201526084016107a7565b6001600160a01b03851633148061317657506001600160a01b038516600090815260026020908152604080832033845290915290205460ff165b6131e85760405162461bcd60e51b815260206004820152602960248201527f455243313135353a2063616c6c6572206973206e6f74206f776e6572206e6f7260448201527f20617070726f766564000000000000000000000000000000000000000000000060648201526084016107a7565b6115e78585858585613f56565b6000546001600160a01b0316331461324f5760405162461bcd60e51b815260206004820181905260248201527f4f776e61626c653a2063616c6c6572206973206e6f7420746865206f776e657260448201526064016107a7565b6001600160a01b0381166132cb5760405162461bcd60e51b815260206004820152602660248201527f4f776e61626c653a206e6577206f776e657220697320746865207a65726f206160448201527f646472657373000000000000000000000000000000000000000000000000000060648201526084016107a7565b6122a581613d83565b6000806132e084611911565b9050826001600160a01b0316816001600160a01b0316148061332757506001600160a01b0380821660009081526002602090815260408083209387168352929052205460ff165b949350505050565b6000808787604051613342929190615758565b6040519081900381207f6352211e0000000000000000000000000000000000000000000000000000000082526004820181905291506000907f00000000000000000000000000000000000000000000000000000000000000006001600160a01b031690636352211e90602401602060405180830381865afa1580156133cb573d6000803e3d6000fd5b505050506040513d601f19601f820116820180604052508101906133ef919061565e565b90506001600160a01b038116331480159061342e57506001600160a01b038116600090815260026020908152604080832033845290915290205460ff16155b80156134e057506040517fe985e9c50000000000000000000000000000000000000000000000000000000081526001600160a01b0382811660048301523360248301527f0000000000000000000000000000000000000000000000000000000000000000169063e985e9c590604401602060405180830381865afa1580156134ba573d6000803e3d6000fd5b505050506040513d601f19601f820116820180604052508101906134de91906157e9565b155b1561355057604080517f93cdeb708b7545dc668eb9280176169d1c33cfd8ed6f04690a0bcc88a93fc4ae6020808301919091528183018590528251808303840181526060830193849052805191012063168ab55d60e31b909252606481019190915233608482015260a4016107a7565b6040517f23b872dd0000000000000000000000000000000000000000000000000000000081526001600160a01b038281166004830152306024830152604482018490527f000000000000000000000000000000000000000000000000000000000000000016906323b872dd90606401600060405180830381600087803b1580156135d957600080fd5b505af11580156135ed573d6000803e3d6000fd5b50506040517f28ed4f6c000000000000000000000000000000000000000000000000000000008152600481018590523060248201527f00000000000000000000000000000000000000000000000000000000000000006001600160a01b031692506328ed4f6c9150604401600060405180830381600087803b15801561367257600080fd5b505af1158015613686573d6000803e3d6000fd5b505050506136cf89898080601f0160208091040260200160405190810160405280939291908181526020018383808284376000920191909152508b92508a9150899050886137bf565b9998505050505050505050565b60007fffffffff0000000000000000000000000000000000000000000000000000000082167fd9b67a2600000000000000000000000000000000000000000000000000000000148061376f57507fffffffff0000000000000000000000000000000000000000000000000000000082167f0e89341c00000000000000000000000000000000000000000000000000000000145b806107e857507f01ffc9a7000000000000000000000000000000000000000000000000000000007fffffffff000000000000000000000000000000000000000000000000000000008316146107e8565b845160208601206000908161381b7f93cdeb708b7545dc668eb9280176169d1c33cfd8ed6f04690a0bcc88a93fc4ae83604080516020808201949094528082019290925280518083038201815260609092019052805191012090565b905061382881838761437a565b965061385f91507f93cdeb708b7545dc668eb9280176169d1c33cfd8ed6f04690a0bcc88a93fc4ae9050828a8a60408b178a613955565b6001600160a01b0384161561390a576040517f1896f70a000000000000000000000000000000000000000000000000000000008152600481018290526001600160a01b0385811660248301527f00000000000000000000000000000000000000000000000000000000000000001690631896f70a90604401600060405180830381600087803b1580156138f157600080fd5b505af1158015613905573d6000803e3d6000fd5b505050505b50929695505050505050565b6000808080613924866107ee565b919550935090506000613936886107ee565b92505050613945868383613c56565b9550859250505093509350939050565b600086815260056020526040812080546139f79187916139749061560b565b80601f01602080910402602001604051908101604052809291908181526020018280546139a09061560b565b80156139ed5780601f106139c2576101008083540402835291602001916139ed565b820191906000526020600020905b8154815290600101906020018083116139d057829003601f168201915b5050505050614442565b9050613a068682868686614309565b50505050505050565b6000613a1a856107ee565b50509050613a3e81858760001c600160405180602001604052806000815250613f56565b6115e785858585613ca0565b6001600160a01b0384163b15613c4e576040517fbc197c810000000000000000000000000000000000000000000000000000000081526001600160a01b0385169063bc197c8190613aa79089908990889088908890600401615869565b6020604051808303816000875af1925050508015613ae2575060408051601f3d908101601f19168201909252613adf918101906158c7565b60015b613b9757613aee6158e4565b806308c379a003613b275750613b02615900565b80613b0d5750613b29565b8060405162461bcd60e51b81526004016107a79190614b43565b505b60405162461bcd60e51b815260206004820152603460248201527f455243313135353a207472616e7366657220746f206e6f6e204552433131353560448201527f526563656976657220696d706c656d656e74657200000000000000000000000060648201526084016107a7565b7fffffffff0000000000000000000000000000000000000000000000000000000081167fbc197c810000000000000000000000000000000000000000000000000000000014613a065760405162461bcd60e51b815260206004820152602860248201527f455243313135353a204552433131353552656365697665722072656a6563746560448201527f6420746f6b656e7300000000000000000000000000000000000000000000000060648201526084016107a7565b505050505050565b60008167ffffffffffffffff168467ffffffffffffffff161115613c78578193505b8267ffffffffffffffff168467ffffffffffffffff161015613c98578293505b509192915050565b613cac84848484613d12565b6040805163ffffffff8416815267ffffffffffffffff8316602082015285917f936318e296f824e203b086d97bb155a0200cec4847efea1fb4b9b7f924157355910160405180910390a250505050565b600080613d08836107ee565b5090949350505050565b613d1c84836144eb565b60008481526001602052604090206001600160a01b03841677ffffffff000000000000000000000000000000000000000060a085901b16177fffffffffffffffff00000000000000000000000000000000000000000000000060c084901b16179055612983565b600080546001600160a01b038381167fffffffffffffffffffffffff0000000000000000000000000000000000000000831681178455604051919092169283917f8be0079c531659141344cd1fd0a4f28419497f9722a3daafe3b4186f6b6457e09190a35050565b6001600160a01b0381161580613e0957506001600160a01b03811630145b15613e4b576040517f5949361a0000000000000000000000000000000000000000000000000000000081526001600160a01b03821660048201526024016107a7565b613e56826001611f5d565b15613e775760405163a2a7201360e01b8152600481018390526024016107a7565b613e8082614528565b6040517f5b0fc9c3000000000000000000000000000000000000000000000000000000008152600481018390526001600160a01b0382811660248301527f00000000000000000000000000000000000000000000000000000000000000001690635b0fc9c390604401600060405180830381600087803b158015613f0357600080fd5b505af1158015613f17573d6000803e3d6000fd5b50506040516001600160a01b03841681528492507fee2ba1195c65bcf218a83d874335c6bf9d9067b4c672f3c3bf16cf40de7586c49150602001612a55565b6000806000613f64866107ee565b925092509250866001600160a01b0316836001600160a01b031603613f8b575050506115e7565b6004821615613fb05760405163a2a7201360e01b8152600481018790526024016107a7565b846001148015613fd15750876001600160a01b0316836001600160a01b0316145b6140435760405162461bcd60e51b815260206004820152602a60248201527f455243313135353a20696e73756666696369656e742062616c616e636520666f60448201527f72207472616e736665720000000000000000000000000000000000000000000060648201526084016107a7565b60008681526001602052604090206001600160a01b03881677ffffffff000000000000000000000000000000000000000060a085901b16177fffffffffffffffff00000000000000000000000000000000000000000000000060c084901b1617905560408051878152602081018790526001600160a01b03808a1692908b169133917fc3d58168c5ae7397731d063d5bbf3d657854427343f4c083240f7aacaa2d0f62910160405180910390a4611ca7338989898989614591565b60065460009081906001600160a01b0316614145576040517f24c1d6d400000000000000000000000000000000000000000000000000000000815260040160405180910390fd5b61414f83336132d4565b6141755760405163168ab55d60e31b8152600481018490523360248201526044016107a7565b61417e836107ee565b909350915061418e905083614528565b915091565b600080835183106141e65760405162461bcd60e51b815260206004820152601e60248201527f726561644c6162656c3a20496e646578206f7574206f6620626f756e6473000060448201526064016107a7565b60008484815181106141fa576141fa61567b565b016020015160f81c905080156142265761421f856142198660016159a8565b836146ec565b925061422b565b600092505b61423581856159a8565b6142409060016159a8565b9150509250929050565b60008060006142598585614193565b9092509050816142cb576001855161427191906159c0565b84146142bf5760405162461bcd60e51b815260206004820152601d60248201527f6e616d65686173683a204a756e6b20617420656e64206f66206e616d6500000060448201526064016107a7565b50600091506107e89050565b6142d5858261424a565b6040805160208101929092528101839052606001604051602081830303815290604052805190602001209250505092915050565b60008581526005602090815260409091208551614328928701906149a6565b5061433585848484614710565b847f8ce7013e8abebc55c3890a68f5a27c67c3f7efa64e584de5fb22363c606fd3408585858560405161436b94939291906159d7565b60405180910390a25050505050565b6000808080614388876107ee565b6040517fd6e4fa86000000000000000000000000000000000000000000000000000000008152600481018a905292965090945091506000907f00000000000000000000000000000000000000000000000000000000000000006001600160a01b03169063d6e4fa8690602401602060405180830381865afa158015614411573d6000803e3d6000fd5b505050506040513d601f19601f82011682018060405250810190614435919061573f565b9050613945868383613c56565b6060600183511015614480576040517f280dacb600000000000000000000000000000000000000000000000000000000815260040160405180910390fd5b60ff835111156144be57826040517fe3ba295f0000000000000000000000000000000000000000000000000000000081526004016107a79190614b43565b825183836040516020016144d493929190615a1f565b604051602081830303815290604052905092915050565b63ffffffbf8116158015906145035750604181811614155b156145245760405163a2a7201360e01b8152600481018390526024016107a7565b5050565b600061453382611911565b600083815260016020526040812055905060408051838152600160208201526000916001600160a01b0384169133917fc3d58168c5ae7397731d063d5bbf3d657854427343f4c083240f7aacaa2d0f62910160405180910390a45050565b6001600160a01b0384163b15613c4e576040517ff23a6e610000000000000000000000000000000000000000000000000000000081526001600160a01b0385169063f23a6e61906145ee9089908990889088908890600401615a80565b6020604051808303816000875af1925050508015614629575060408051601f3d908101601f19168201909252614626918101906158c7565b60015b61463557613aee6158e4565b7fffffffff0000000000000000000000000000000000000000000000000000000081167ff23a6e610000000000000000000000000000000000000000000000000000000014613a065760405162461bcd60e51b815260206004820152602860248201527f455243313135353a204552433131353552656365697665722072656a6563746560448201527f6420746f6b656e7300000000000000000000000000000000000000000000000060648201526084016107a7565b82516000906146fb83856159a8565b111561470657600080fd5b5091016020012090565b600061471b85611911565b905061472785846144eb565b6001600160a01b038116156147765761473f85614528565b6040516000815285907fee2ba1195c65bcf218a83d874335c6bf9d9067b4c672f3c3bf16cf40de7586c49060200160405180910390a25b6115e78585858583600061478982611911565b90506001600160a01b038116156147e25760405162461bcd60e51b815260206004820152601f60248201527f455243313135353a206d696e74206f66206578697374696e6720746f6b656e0060448201526064016107a7565b6001600160a01b03851661485e5760405162461bcd60e51b815260206004820152602160248201527f455243313135353a206d696e7420746f20746865207a65726f2061646472657360448201527f730000000000000000000000000000000000000000000000000000000000000060648201526084016107a7565b306001600160a01b038616036148dc5760405162461bcd60e51b815260206004820152603460248201527f455243313135353a206e65774f776e65722063616e6e6f74206265207468652060448201527f4e616d655772617070657220636f6e747261637400000000000000000000000060648201526084016107a7565b60008281526001602052604090206001600160a01b03861677ffffffff000000000000000000000000000000000000000060a087901b16177fffffffffffffffff00000000000000000000000000000000000000000000000060c086901b1617905560408051838152600160208201526001600160a01b0387169160009133917fc3d58168c5ae7397731d063d5bbf3d657854427343f4c083240f7aacaa2d0f62910160405180910390a4613c4e3360008785600160405180602001604052806000815250614591565b8280546149b29061560b565b90600052602060002090601f0160209004810192826149d45760008555614a1a565b82601f106149ed57805160ff1916838001178555614a1a565b82800160010185558215614a1a579182015b82811115614a1a5782518255916020019190600101906149ff565b50614a26929150614a2a565b5090565b5b80821115614a265760008155600101614a2b565b6001600160a01b03811681146122a557600080fd5b60008060408385031215614a6757600080fd5b8235614a7281614a3f565b946020939093013593505050565b600060208284031215614a9257600080fd5b5035919050565b7fffffffff00000000000000000000000000000000000000000000000000000000811681146122a557600080fd5b600060208284031215614ad957600080fd5b8135614ae481614a99565b9392505050565b60005b83811015614b06578181015183820152602001614aee565b838111156129835750506000910152565b60008151808452614b2f816020860160208601614aeb565b601f01601f19169290920160200192915050565b602081526000614ae46020830184614b17565b803567ffffffffffffffff81168114614b6e57600080fd5b919050565b60008060408385031215614b8657600080fd5b82359150614b9660208401614b56565b90509250929050565b60008083601f840112614bb157600080fd5b50813567ffffffffffffffff811115614bc957600080fd5b602083019150836020828501011115614be157600080fd5b9250929050565b600080600080600060808688031215614c0057600080fd5b8535614c0b81614a3f565b94506020860135614c1b81614a3f565b935060408601359250606086013567ffffffffffffffff811115614c3e57600080fd5b614c4a88828901614b9f565b969995985093965092949392505050565b600060208284031215614c6d57600080fd5b8135614ae481614a3f565b60008060408385031215614c8b57600080fd5b823591506020830135614c9d81614a3f565b809150509250929050565b7f4e487b7100000000000000000000000000000000000000000000000000000000600052604160045260246000fd5b601f19601f830116810181811067ffffffffffffffff82111715614cfd57614cfd614ca8565b6040525050565b600067ffffffffffffffff821115614d1e57614d1e614ca8565b50601f01601f191660200190565b600082601f830112614d3d57600080fd5b8135614d4881614d04565b604051614d558282614cd7565b828152856020848701011115614d6a57600080fd5b82602086016020830137600092810160200192909252509392505050565b803563ffffffff81168114614b6e57600080fd5b600080600080600080600060e0888a031215614db757600080fd5b87359650602088013567ffffffffffffffff811115614dd557600080fd5b614de18a828b01614d2c565b9650506040880135614df281614a3f565b94506060880135614e0281614a3f565b9350614e1060808901614b56565b9250614e1e60a08901614d88565b9150614e2c60c08901614b56565b905092959891949750929550565b600067ffffffffffffffff821115614e5457614e54614ca8565b5060051b60200190565b600082601f830112614e6f57600080fd5b81356020614e7c82614e3a565b604051614e898282614cd7565b83815260059390931b8501820192828101915086841115614ea957600080fd5b8286015b84811015614ec45780358352918301918301614ead565b509695505050505050565b600080600080600060a08688031215614ee757600080fd5b8535614ef281614a3f565b94506020860135614f0281614a3f565b9350604086013567ffffffffffffffff80821115614f1f57600080fd5b614f2b89838a01614e5e565b94506060880135915080821115614f4157600080fd5b614f4d89838a01614e5e565b93506080880135915080821115614f6357600080fd5b50614f7088828901614d2c565b9150509295509295909350565b60008060008060808587031215614f9357600080fd5b8435935060208501359250614faa60408601614d88565b9150614fb860608601614b56565b905092959194509250565b60008060408385031215614fd657600080fd5b823567ffffffffffffffff80821115614fee57600080fd5b818501915085601f83011261500257600080fd5b8135602061500f82614e3a565b60405161501c8282614cd7565b83815260059390931b850182019282810191508984111561503c57600080fd5b948201945b8386101561506357853561505481614a3f565b82529482019490820190615041565b9650508601359250508082111561507957600080fd5b5061424085828601614e5e565b600081518084526020808501945080840160005b838110156150b65781518752958201959082019060010161509a565b509495945050505050565b602081526000614ae46020830184615086565b6000806000606084860312156150e957600080fd5b833592506020840135915061510060408501614b56565b90509250925092565b60008060006060848603121561511e57600080fd5b83359250602084013561513081614a3f565b9150604084013561514081614a3f565b809150509250925092565b600080600080600080600060c0888a03121561516657600080fd5b873567ffffffffffffffff81111561517d57600080fd5b6151898a828b01614b9f565b909850965050602088013561519d81614a3f565b94506040880135935060608801356151b481614a3f565b92506151c260808901614d88565b9150614e2c60a08901614b56565b80151581146122a557600080fd5b600080604083850312156151f157600080fd5b82356151fc81614a3f565b91506020830135614c9d816151d0565b6000806040838503121561521f57600080fd5b82359150614b9660208401614d88565b60008060008060008060a0878903121561524857600080fd5b86359550602087013567ffffffffffffffff81111561526657600080fd5b61527289828a01614b9f565b909650945050604087013561528681614a3f565b925061529460608801614d88565b91506152a260808801614b56565b90509295509295509295565b600080600080608085870312156152c457600080fd5b8435935060208501356152d681614a3f565b92506040850135614faa81614a3f565b6000806000606084860312156152fb57600080fd5b8335925060208401359150604084013561514081614a3f565b6000806000806060858703121561532a57600080fd5b843567ffffffffffffffff81111561534157600080fd5b61534d87828801614b9f565b909550935050602085013561536181614a3f565b9150604085013561537181614a3f565b939692955090935050565b6000806040838503121561538f57600080fd5b823561539a81614a3f565b91506020830135614c9d81614a3f565b6000806000806000608086880312156153c257600080fd5b85359450602086013567ffffffffffffffff8111156153e057600080fd5b6153ec88828901614b9f565b909550935050604086013561540081614a3f565b9150606086013561541081614a3f565b809150509295509295909350565b600080600080600060a0868803121561543657600080fd5b853561544181614a3f565b9450602086013561545181614a3f565b93506040860135925060608601359150608086013567ffffffffffffffff81111561547b57600080fd5b614f7088828901614d2c565b60008060008060008060a087890312156154a057600080fd5b863567ffffffffffffffff8111156154b757600080fd5b6154c389828a01614b9f565b90975095505060208701356154d781614a3f565b93506154e560408801614d88565b92506154f360608801614b56565b9150608087013561550381614a3f565b809150509295509295509295565b60006020828403121561552357600080fd5b815167ffffffffffffffff81111561553a57600080fd5b8201601f8101841361554b57600080fd5b805161555681614d04565b6040516155638282614cd7565b82815286602084860101111561557857600080fd5b615589836020830160208701614aeb565b9695505050505050565b600080600080600060a086880312156155ab57600080fd5b853567ffffffffffffffff8111156155c257600080fd5b6155ce88828901614d2c565b95505060208601356155df81614a3f565b93506155ed60408701614d88565b92506155fb60608701614b56565b9150608086013561541081614a3f565b600181811c9082168061561f57607f821691505b602082108103615658577f4e487b7100000000000000000000000000000000000000000000000000000000600052602260045260246000fd5b50919050565b60006020828403121561567057600080fd5b8151614ae481614a3f565b7f4e487b7100000000000000000000000000000000000000000000000000000000600052603260045260246000fd5b7f4e487b7100000000000000000000000000000000000000000000000000000000600052601160045260246000fd5b60007fffffffffffffffffffffffffffffffffffffffffffffffffffffffffffffffff820361570a5761570a6156aa565b5060010190565b6040815260006157246040830185615086565b82810360208401526157368185615086565b95945050505050565b60006020828403121561575157600080fd5b5051919050565b8183823760009101908152919050565b818352818160208501375060006020828401015260006020601f19601f840116840101905092915050565b60a0815260006157a760a08301888a615768565b90506001600160a01b03808716602084015263ffffffff8616604084015267ffffffffffffffff85166060840152808416608084015250979650505050505050565b6000602082840312156157fb57600080fd5b8151614ae4816151d0565b88815260e06020820152600061582060e08301898b615768565b6001600160a01b03978816604084015295909616606082015267ffffffffffffffff938416608082015263ffffffff9290921660a083015290911660c090910152949350505050565b60006001600160a01b03808816835280871660208401525060a0604083015261589560a0830186615086565b82810360608401526158a78186615086565b905082810360808401526158bb8185614b17565b98975050505050505050565b6000602082840312156158d957600080fd5b8151614ae481614a99565b600060033d11156158fd5760046000803e5060005160e01c5b90565b600060443d101561590e5790565b6040517ffffffffffffffffffffffffffffffffffffffffffffffffffffffffffffffffc803d016004833e81513d67ffffffffffffffff816024840111818411171561595c57505050505090565b82850191508151818111156159745750505050505090565b843d870101602082850101111561598e5750505050505090565b61599d60208286010187614cd7565b509095945050505050565b600082198211156159bb576159bb6156aa565b500190565b6000828210156159d2576159d26156aa565b500390565b6080815260006159ea6080830187614b17565b6001600160a01b039590951660208301525063ffffffff92909216604083015267ffffffffffffffff16606090910152919050565b7fff000000000000000000000000000000000000000000000000000000000000008460f81b16815260008351615a5c816001850160208801614aeb565b835190830190615a73816001840160208801614aeb565b0160010195945050505050565b60006001600160a01b03808816835280871660208401525084604083015283606083015260a06080830152615ab860a0830184614b17565b97965050505050505056fea264697066735822122020dc427c8b0e9a6c02741806bb23f349623f85a1c252ee4b8fba74ccec8585ac64736f6c634300080d0033",
  "linkReferences": {},
  "deployedLinkReferences": {}
}