{
  "_format": "hh-sol-artifact-1",
  "contractName": "NameWrapper",
  "sourceName": "contracts/wrapper/NameWrapper.sol",
  "abi": [
    {
      "inputs": [
        {
          "internalType": "contract ENS",
          "name": "_ens",
          "type": "address"
        },
        {
          "internalType": "contract IBaseRegistrar",
          "name": "_registrar",
          "type": "address"
        },
        {
          "internalType": "contract IMetadataService",
          "name": "_metadataService",
          "type": "address"
        }
      ],
      "stateMutability": "nonpayable",
      "type": "constructor"
    },
    {
      "inputs": [],
      "name": "IncompatibleParent",
      "type": "error"
    },
    {
      "inputs": [
        {
          "internalType": "address",
          "name": "owner",
          "type": "address"
        }
      ],
      "name": "IncorrectTargetOwner",
      "type": "error"
    },
    {
      "inputs": [],
      "name": "IncorrectTokenType",
      "type": "error"
    },
    {
      "inputs": [
        {
          "internalType": "bytes32",
          "name": "labelHash",
          "type": "bytes32"
        },
        {
          "internalType": "bytes32",
          "name": "expectedLabelhash",
          "type": "bytes32"
        }
      ],
      "name": "LabelMismatch",
      "type": "error"
    },
    {
      "inputs": [
        {
          "internalType": "string",
          "name": "label",
          "type": "string"
        }
      ],
      "name": "LabelTooLong",
      "type": "error"
    },
    {
      "inputs": [],
      "name": "LabelTooShort",
      "type": "error"
    },
    {
      "inputs": [],
      "name": "NameNotFound",
      "type": "error"
    },
    {
      "inputs": [
        {
          "internalType": "bytes32",
          "name": "node",
          "type": "bytes32"
        }
      ],
      "name": "OperationProhibited",
      "type": "error"
    },
    {
      "inputs": [
        {
          "internalType": "bytes32",
          "name": "node",
          "type": "bytes32"
        },
        {
          "internalType": "address",
          "name": "addr",
          "type": "address"
        }
      ],
      "name": "Unauthorised",
      "type": "error"
    },
    {
      "anonymous": false,
      "inputs": [
        {
          "indexed": true,
          "internalType": "address",
          "name": "account",
          "type": "address"
        },
        {
          "indexed": true,
          "internalType": "address",
          "name": "operator",
          "type": "address"
        },
        {
          "indexed": false,
          "internalType": "bool",
          "name": "approved",
          "type": "bool"
        }
      ],
      "name": "ApprovalForAll",
      "type": "event"
    },
    {
      "anonymous": false,
      "inputs": [
        {
          "indexed": true,
          "internalType": "address",
          "name": "controller",
          "type": "address"
        },
        {
          "indexed": false,
          "internalType": "bool",
          "name": "active",
          "type": "bool"
        }
      ],
      "name": "ControllerChanged",
      "type": "event"
    },
    {
      "anonymous": false,
      "inputs": [
        {
          "indexed": true,
          "internalType": "bytes32",
          "name": "node",
          "type": "bytes32"
        },
        {
          "indexed": false,
          "internalType": "uint96",
          "name": "fuses",
          "type": "uint96"
        }
      ],
      "name": "FusesBurned",
      "type": "event"
    },
    {
      "anonymous": false,
      "inputs": [
        {
          "indexed": true,
          "internalType": "bytes32",
          "name": "node",
          "type": "bytes32"
        },
        {
          "indexed": false,
          "internalType": "address",
          "name": "owner",
          "type": "address"
        }
      ],
      "name": "NameUnwrapped",
      "type": "event"
    },
    {
      "anonymous": false,
      "inputs": [
        {
          "indexed": true,
          "internalType": "bytes32",
          "name": "node",
          "type": "bytes32"
        },
        {
          "indexed": false,
          "internalType": "bytes",
          "name": "name",
          "type": "bytes"
        },
        {
          "indexed": false,
          "internalType": "address",
          "name": "owner",
          "type": "address"
        },
        {
          "indexed": false,
          "internalType": "uint96",
          "name": "fuses",
          "type": "uint96"
        }
      ],
      "name": "NameWrapped",
      "type": "event"
    },
    {
      "anonymous": false,
      "inputs": [
        {
          "indexed": true,
          "internalType": "address",
          "name": "previousOwner",
          "type": "address"
        },
        {
          "indexed": true,
          "internalType": "address",
          "name": "newOwner",
          "type": "address"
        }
      ],
      "name": "OwnershipTransferred",
      "type": "event"
    },
    {
      "anonymous": false,
      "inputs": [
        {
          "indexed": true,
          "internalType": "address",
          "name": "operator",
          "type": "address"
        },
        {
          "indexed": true,
          "internalType": "address",
          "name": "from",
          "type": "address"
        },
        {
          "indexed": true,
          "internalType": "address",
          "name": "to",
          "type": "address"
        },
        {
          "indexed": false,
          "internalType": "uint256[]",
          "name": "ids",
          "type": "uint256[]"
        },
        {
          "indexed": false,
          "internalType": "uint256[]",
          "name": "values",
          "type": "uint256[]"
        }
      ],
      "name": "TransferBatch",
      "type": "event"
    },
    {
      "anonymous": false,
      "inputs": [
        {
          "indexed": true,
          "internalType": "address",
          "name": "operator",
          "type": "address"
        },
        {
          "indexed": true,
          "internalType": "address",
          "name": "from",
          "type": "address"
        },
        {
          "indexed": true,
          "internalType": "address",
          "name": "to",
          "type": "address"
        },
        {
          "indexed": false,
          "internalType": "uint256",
          "name": "id",
          "type": "uint256"
        },
        {
          "indexed": false,
          "internalType": "uint256",
          "name": "value",
          "type": "uint256"
        }
      ],
      "name": "TransferSingle",
      "type": "event"
    },
    {
      "anonymous": false,
      "inputs": [
        {
          "indexed": false,
          "internalType": "string",
          "name": "value",
          "type": "string"
        },
        {
          "indexed": true,
          "internalType": "uint256",
          "name": "id",
          "type": "uint256"
        }
      ],
      "name": "URI",
      "type": "event"
    },
    {
      "inputs": [
        {
          "internalType": "uint256",
          "name": "",
          "type": "uint256"
        }
      ],
      "name": "_tokens",
      "outputs": [
        {
          "internalType": "uint256",
          "name": "",
          "type": "uint256"
        }
      ],
      "stateMutability": "view",
      "type": "function"
    },
    {
      "inputs": [
        {
          "internalType": "bytes32",
          "name": "node",
          "type": "bytes32"
        },
        {
          "internalType": "uint96",
          "name": "fuseMask",
          "type": "uint96"
        }
      ],
      "name": "allFusesBurned",
      "outputs": [
        {
          "internalType": "bool",
          "name": "",
          "type": "bool"
        }
      ],
      "stateMutability": "view",
      "type": "function"
    },
    {
      "inputs": [
        {
          "internalType": "address",
          "name": "account",
          "type": "address"
        },
        {
          "internalType": "uint256",
          "name": "id",
          "type": "uint256"
        }
      ],
      "name": "balanceOf",
      "outputs": [
        {
          "internalType": "uint256",
          "name": "",
          "type": "uint256"
        }
      ],
      "stateMutability": "view",
      "type": "function"
    },
    {
      "inputs": [
        {
          "internalType": "address[]",
          "name": "accounts",
          "type": "address[]"
        },
        {
          "internalType": "uint256[]",
          "name": "ids",
          "type": "uint256[]"
        }
      ],
      "name": "balanceOfBatch",
      "outputs": [
        {
          "internalType": "uint256[]",
          "name": "",
          "type": "uint256[]"
        }
      ],
      "stateMutability": "view",
      "type": "function"
    },
    {
      "inputs": [
        {
          "internalType": "bytes32",
          "name": "parentNode",
          "type": "bytes32"
        },
        {
          "internalType": "bytes32",
          "name": "labelhash",
          "type": "bytes32"
        },
        {
          "internalType": "uint96",
          "name": "_fuses",
          "type": "uint96"
        }
      ],
      "name": "burnChildFuses",
      "outputs": [],
      "stateMutability": "nonpayable",
      "type": "function"
    },
    {
      "inputs": [
        {
          "internalType": "bytes32",
          "name": "node",
          "type": "bytes32"
        },
        {
          "internalType": "uint96",
          "name": "_fuses",
          "type": "uint96"
        }
      ],
      "name": "burnFuses",
      "outputs": [],
      "stateMutability": "nonpayable",
      "type": "function"
    },
    {
      "inputs": [
        {
          "internalType": "address",
          "name": "",
          "type": "address"
        }
      ],
      "name": "controllers",
      "outputs": [
        {
          "internalType": "bool",
          "name": "",
          "type": "bool"
        }
      ],
      "stateMutability": "view",
      "type": "function"
    },
    {
      "inputs": [],
      "name": "ens",
      "outputs": [
        {
          "internalType": "contract ENS",
          "name": "",
          "type": "address"
        }
      ],
      "stateMutability": "view",
      "type": "function"
    },
    {
      "inputs": [
        {
          "internalType": "uint256",
          "name": "tokenId",
          "type": "uint256"
        }
      ],
      "name": "getData",
      "outputs": [
        {
          "internalType": "address",
          "name": "owner",
          "type": "address"
        },
        {
          "internalType": "uint96",
          "name": "fuses",
          "type": "uint96"
        }
      ],
      "stateMutability": "view",
      "type": "function"
    },
    {
      "inputs": [
        {
          "internalType": "bytes32",
          "name": "node",
          "type": "bytes32"
        }
      ],
      "name": "getFuses",
      "outputs": [
        {
          "internalType": "uint96",
          "name": "fuses",
          "type": "uint96"
        },
        {
          "internalType": "enum INameWrapper.NameSafety",
          "name": "vulnerability",
          "type": "uint8"
        },
        {
          "internalType": "bytes32",
          "name": "vulnerableNode",
          "type": "bytes32"
        }
      ],
      "stateMutability": "view",
      "type": "function"
    },
    {
      "inputs": [
        {
          "internalType": "address",
          "name": "account",
          "type": "address"
        },
        {
          "internalType": "address",
          "name": "operator",
          "type": "address"
        }
      ],
      "name": "isApprovedForAll",
      "outputs": [
        {
          "internalType": "bool",
          "name": "",
          "type": "bool"
        }
      ],
      "stateMutability": "view",
      "type": "function"
    },
    {
      "inputs": [
        {
          "internalType": "bytes32",
          "name": "node",
          "type": "bytes32"
        },
        {
          "internalType": "address",
          "name": "addr",
          "type": "address"
        }
      ],
      "name": "isTokenOwnerOrApproved",
      "outputs": [
        {
          "internalType": "bool",
          "name": "",
          "type": "bool"
        }
      ],
      "stateMutability": "view",
      "type": "function"
    },
    {
      "inputs": [],
      "name": "metadataService",
      "outputs": [
        {
          "internalType": "contract IMetadataService",
          "name": "",
          "type": "address"
        }
      ],
      "stateMutability": "view",
      "type": "function"
    },
    {
      "inputs": [
        {
          "internalType": "bytes32",
          "name": "",
          "type": "bytes32"
        }
      ],
      "name": "names",
      "outputs": [
        {
          "internalType": "bytes",
          "name": "",
          "type": "bytes"
        }
      ],
      "stateMutability": "view",
      "type": "function"
    },
    {
      "inputs": [
        {
          "internalType": "address",
          "name": "to",
          "type": "address"
        },
        {
          "internalType": "address",
          "name": "",
          "type": "address"
        },
        {
          "internalType": "uint256",
          "name": "tokenId",
          "type": "uint256"
        },
        {
          "internalType": "bytes",
          "name": "data",
          "type": "bytes"
        }
      ],
      "name": "onERC721Received",
      "outputs": [
        {
          "internalType": "bytes4",
          "name": "",
          "type": "bytes4"
        }
      ],
      "stateMutability": "nonpayable",
      "type": "function"
    },
    {
      "inputs": [],
      "name": "owner",
      "outputs": [
        {
          "internalType": "address",
          "name": "",
          "type": "address"
        }
      ],
      "stateMutability": "view",
      "type": "function"
    },
    {
      "inputs": [
        {
          "internalType": "uint256",
          "name": "id",
          "type": "uint256"
        }
      ],
      "name": "ownerOf",
      "outputs": [
        {
          "internalType": "address",
          "name": "owner",
          "type": "address"
        }
      ],
      "stateMutability": "view",
      "type": "function"
    },
    {
      "inputs": [
        {
          "internalType": "string",
          "name": "label",
          "type": "string"
        },
        {
          "internalType": "address",
          "name": "wrappedOwner",
          "type": "address"
        },
        {
          "internalType": "uint256",
          "name": "duration",
          "type": "uint256"
        },
        {
          "internalType": "address",
          "name": "resolver",
          "type": "address"
        },
        {
          "internalType": "uint96",
          "name": "_fuses",
          "type": "uint96"
        }
      ],
      "name": "registerAndWrapETH2LD",
      "outputs": [
        {
          "internalType": "uint256",
          "name": "expires",
          "type": "uint256"
        }
      ],
      "stateMutability": "nonpayable",
      "type": "function"
    },
    {
      "inputs": [],
      "name": "registrar",
      "outputs": [
        {
          "internalType": "contract IBaseRegistrar",
          "name": "",
          "type": "address"
        }
      ],
      "stateMutability": "view",
      "type": "function"
    },
    {
      "inputs": [
        {
          "internalType": "uint256",
          "name": "tokenId",
          "type": "uint256"
        },
        {
          "internalType": "uint256",
          "name": "duration",
          "type": "uint256"
        }
      ],
      "name": "renew",
      "outputs": [
        {
          "internalType": "uint256",
          "name": "expires",
          "type": "uint256"
        }
      ],
      "stateMutability": "nonpayable",
      "type": "function"
    },
    {
      "inputs": [],
      "name": "renounceOwnership",
      "outputs": [],
      "stateMutability": "nonpayable",
      "type": "function"
    },
    {
      "inputs": [
        {
          "internalType": "address",
          "name": "from",
          "type": "address"
        },
        {
          "internalType": "address",
          "name": "to",
          "type": "address"
        },
        {
          "internalType": "uint256[]",
          "name": "ids",
          "type": "uint256[]"
        },
        {
          "internalType": "uint256[]",
          "name": "amounts",
          "type": "uint256[]"
        },
        {
          "internalType": "bytes",
          "name": "data",
          "type": "bytes"
        }
      ],
      "name": "safeBatchTransferFrom",
      "outputs": [],
      "stateMutability": "nonpayable",
      "type": "function"
    },
    {
      "inputs": [
        {
          "internalType": "address",
          "name": "from",
          "type": "address"
        },
        {
          "internalType": "address",
          "name": "to",
          "type": "address"
        },
        {
          "internalType": "uint256",
          "name": "id",
          "type": "uint256"
        },
        {
          "internalType": "uint256",
          "name": "amount",
          "type": "uint256"
        },
        {
          "internalType": "bytes",
          "name": "data",
          "type": "bytes"
        }
      ],
      "name": "safeTransferFrom",
      "outputs": [],
      "stateMutability": "nonpayable",
      "type": "function"
    },
    {
      "inputs": [
        {
          "internalType": "address",
          "name": "operator",
          "type": "address"
        },
        {
          "internalType": "bool",
          "name": "approved",
          "type": "bool"
        }
      ],
      "name": "setApprovalForAll",
      "outputs": [],
      "stateMutability": "nonpayable",
      "type": "function"
    },
    {
      "inputs": [
        {
          "internalType": "address",
          "name": "controller",
          "type": "address"
        },
        {
          "internalType": "bool",
          "name": "active",
          "type": "bool"
        }
      ],
      "name": "setController",
      "outputs": [],
      "stateMutability": "nonpayable",
      "type": "function"
    },
    {
      "inputs": [
        {
          "internalType": "contract IMetadataService",
          "name": "_newMetadataService",
          "type": "address"
        }
      ],
      "name": "setMetadataService",
      "outputs": [],
      "stateMutability": "nonpayable",
      "type": "function"
    },
    {
      "inputs": [
        {
          "internalType": "bytes32",
          "name": "node",
          "type": "bytes32"
        },
        {
          "internalType": "address",
          "name": "owner",
          "type": "address"
        },
        {
          "internalType": "address",
          "name": "resolver",
          "type": "address"
        },
        {
          "internalType": "uint64",
          "name": "ttl",
          "type": "uint64"
        }
      ],
      "name": "setRecord",
      "outputs": [],
      "stateMutability": "nonpayable",
      "type": "function"
    },
    {
      "inputs": [
        {
          "internalType": "bytes32",
          "name": "node",
          "type": "bytes32"
        },
        {
          "internalType": "address",
          "name": "resolver",
          "type": "address"
        }
      ],
      "name": "setResolver",
      "outputs": [],
      "stateMutability": "nonpayable",
      "type": "function"
    },
    {
      "inputs": [
        {
          "internalType": "bytes32",
          "name": "parentNode",
          "type": "bytes32"
        },
        {
          "internalType": "string",
          "name": "label",
          "type": "string"
        },
        {
          "internalType": "address",
          "name": "newOwner",
          "type": "address"
        },
        {
          "internalType": "uint96",
          "name": "_fuses",
          "type": "uint96"
        }
      ],
      "name": "setSubnodeOwner",
      "outputs": [
        {
          "internalType": "bytes32",
          "name": "node",
          "type": "bytes32"
        }
      ],
      "stateMutability": "nonpayable",
      "type": "function"
    },
    {
      "inputs": [
        {
          "internalType": "bytes32",
          "name": "parentNode",
          "type": "bytes32"
        },
        {
          "internalType": "string",
          "name": "label",
          "type": "string"
        },
        {
          "internalType": "address",
          "name": "newOwner",
          "type": "address"
        },
        {
          "internalType": "address",
          "name": "resolver",
          "type": "address"
        },
        {
          "internalType": "uint64",
          "name": "ttl",
          "type": "uint64"
        },
        {
          "internalType": "uint96",
          "name": "_fuses",
          "type": "uint96"
        }
      ],
      "name": "setSubnodeRecord",
      "outputs": [],
      "stateMutability": "nonpayable",
      "type": "function"
    },
    {
      "inputs": [
        {
          "internalType": "bytes32",
          "name": "node",
          "type": "bytes32"
        },
        {
          "internalType": "uint64",
          "name": "ttl",
          "type": "uint64"
        }
      ],
      "name": "setTTL",
      "outputs": [],
      "stateMutability": "nonpayable",
      "type": "function"
    },
    {
      "inputs": [
        {
          "internalType": "bytes4",
          "name": "interfaceId",
          "type": "bytes4"
        }
      ],
      "name": "supportsInterface",
      "outputs": [
        {
          "internalType": "bool",
          "name": "",
          "type": "bool"
        }
      ],
      "stateMutability": "view",
      "type": "function"
    },
    {
      "inputs": [
        {
          "internalType": "address",
          "name": "newOwner",
          "type": "address"
        }
      ],
      "name": "transferOwnership",
      "outputs": [],
      "stateMutability": "nonpayable",
      "type": "function"
    },
    {
      "inputs": [
        {
          "internalType": "bytes32",
          "name": "parentNode",
          "type": "bytes32"
        },
        {
          "internalType": "bytes32",
          "name": "labelhash",
          "type": "bytes32"
        },
        {
          "internalType": "address",
          "name": "newController",
          "type": "address"
        }
      ],
      "name": "unwrap",
      "outputs": [],
      "stateMutability": "nonpayable",
      "type": "function"
    },
    {
      "inputs": [
        {
          "internalType": "bytes32",
          "name": "labelhash",
          "type": "bytes32"
        },
        {
          "internalType": "address",
          "name": "newRegistrant",
          "type": "address"
        },
        {
          "internalType": "address",
          "name": "newController",
          "type": "address"
        }
      ],
      "name": "unwrapETH2LD",
      "outputs": [],
      "stateMutability": "nonpayable",
      "type": "function"
    },
    {
      "inputs": [
        {
          "internalType": "uint256",
          "name": "tokenId",
          "type": "uint256"
        }
      ],
      "name": "uri",
      "outputs": [
        {
          "internalType": "string",
          "name": "",
          "type": "string"
        }
      ],
      "stateMutability": "view",
      "type": "function"
    },
    {
      "inputs": [
        {
          "internalType": "bytes",
          "name": "name",
          "type": "bytes"
        },
        {
          "internalType": "address",
          "name": "wrappedOwner",
          "type": "address"
        },
        {
          "internalType": "uint96",
          "name": "_fuses",
          "type": "uint96"
        },
        {
          "internalType": "address",
          "name": "resolver",
          "type": "address"
        }
      ],
      "name": "wrap",
      "outputs": [],
      "stateMutability": "nonpayable",
      "type": "function"
    },
    {
      "inputs": [
        {
          "internalType": "string",
          "name": "label",
          "type": "string"
        },
        {
          "internalType": "address",
          "name": "wrappedOwner",
          "type": "address"
        },
        {
          "internalType": "uint96",
          "name": "_fuses",
          "type": "uint96"
        },
        {
          "internalType": "address",
          "name": "resolver",
          "type": "address"
        }
      ],
      "name": "wrapETH2LD",
      "outputs": [],
      "stateMutability": "nonpayable",
      "type": "function"
    }
  ],
  "bytecode": "0x60c06040523480156200001157600080fd5b5060405162005881380380620058818339810160408190526200003491620002f5565b6200003f3362000154565b6001600160a01b0383811660805282811660a052600480546001600160a01b031916918316919091179055620000886000805160206200586183398151915260006041620001a4565b620000976000806041620001a4565b604080518082019091526001815260006020808301828152918052600590529051620000e5917f05b8ccbb9d4d8fb16ea74ce3c29a41f1b461fbdaff4714a0d9a8eb05499746bc9162000236565b50604080518082019091526005808252626cae8d60e31b6020808401918252600080516020620058618339815191526000529190915290516200014a917fd99130487705d6970718a0cee91984b61956f8a1db3482bba7e6bf0131adb01f9162000236565b5050505062000385565b600080546001600160a01b038381166001600160a01b0319831681178455604051919092169283917f8be0079c531659141344cd1fd0a4f28419497f9722a3daafe3b4186f6b6457e09190a35050565b6041600160601b03811615801590620001be575060018116155b15620001e45760405163a2a7201360e01b81526004810184905260240160405180910390fd5b620001fc8383836200020160201b620031001760201c565b505050565b60a0816001600160601b0316901b826001600160a01b0316176001600085815260200190815260200160002081905550505050565b828054620002449062000349565b90600052602060002090601f016020900481019282620002685760008555620002b3565b82601f106200028357805160ff1916838001178555620002b3565b82800160010185558215620002b3579182015b82811115620002b357825182559160200191906001019062000296565b50620002c1929150620002c5565b5090565b5b80821115620002c15760008155600101620002c6565b6001600160a01b0381168114620002f257600080fd5b50565b6000806000606084860312156200030b57600080fd5b83516200031881620002dc565b60208501519093506200032b81620002dc565b60408501519092506200033e81620002dc565b809150509250925092565b600181811c908216806200035e57607f821691505b6020821081036200037f57634e487b7160e01b600052602260045260246000fd5b50919050565b60805160a0516153f962000468600039600081816103fb015281816109a001528181610a9301528181611e08015281816123ad015281816125c8015281816126bf015281816127fa0152818161288901528181612ac90152613e7d01526000818161044d0152818161092601528181610c8d01528181610e2b01528181610fa80152818161105d0152818161190201528181611a8101528181611b5601528181611c6401528181611fa60152818161209d015281816121980152818161222a01528181612c1f015281816132f7015281816139b70152613f4f01526153f96000f3fe608060405234801561001057600080fd5b50600436106102915760003560e01c806372465aa811610160578063c475abff116100d8578063e985e9c51161008c578063f242432a11610071578063f242432a1461068c578063f2fde38b1461069f578063f44779b9146106b257600080fd5b8063e985e9c514610630578063ed70554d1461066c57600080fd5b8063d8c9921a116100bd578063d8c9921a146105e7578063da8c229e146105fa578063e0dba60f1461061d57600080fd5b8063c475abff146105c1578063cf408823146105d457600080fd5b8063a0a5a7381161012f578063a382150d11610114578063a382150d14610562578063a456f7d814610575578063c1cbf66f146105ae57600080fd5b8063a0a5a7381461053c578063a22cb4651461054f57600080fd5b806372465aa8146104f25780638b4dfa75146105055780638da5cb5b146105185780639c50a2e91461052957600080fd5b80632531c7401161020e5780634ac07f41116101c257806353095467116101a757806353095467146104c45780636352211e146104d7578063715018a6146104ea57600080fd5b80634ac07f41146104825780634e1273f4146104a457600080fd5b80632eb2c2d6116101f35780632eb2c2d6146104355780633f15457f14610448578063431eed6b1461046f57600080fd5b80632531c740146103e35780632b20e397146103f657600080fd5b806314ab9038116102655780631534e1771161024a5780631534e177146103aa5780631896f70a146103bd57806320c38e2b146103d057600080fd5b806314ab903814610351578063150b7a021461036657600080fd5b8062fdd58e146102965780630178fe3f146102bc57806301ffc9a71461030e5780630e89341c14610331575b600080fd5b6102a96102a43660046144ae565b6106c5565b6040519081526020015b60405180910390f35b6102e26102ca3660046144da565b6000908152600160205260409020549060a082901c90565b604080516001600160a01b0390931683526bffffffffffffffffffffffff9091166020830152016102b3565b61032161031c366004614521565b610780565b60405190151581526020016102b3565b61034461033f3660046144da565b6107d5565b6040516102b39190614596565b61036461035f3660046145c6565b610862565b005b61037961037436600461463b565b610993565b6040517fffffffff0000000000000000000000000000000000000000000000000000000090911681526020016102b3565b6103646103b83660046146ae565b610b35565b6103646103cb3660046146cb565b610bc9565b6103446103de3660046144da565b610cbc565b6102a96103f1366004614717565b610d56565b61041d7f000000000000000000000000000000000000000000000000000000000000000081565b6040516001600160a01b0390911681526020016102b3565b610364610443366004614906565b611137565b61041d7f000000000000000000000000000000000000000000000000000000000000000081565b61036461047d3660046149b4565b61148c565b6104956104903660046144da565b611572565b6040516102b393929190614a18565b6104b76104b2366004614a75565b611677565b6040516102b39190614b73565b60045461041d906001600160a01b031681565b61041d6104e53660046144da565b6117b5565b6103646117c9565b610364610500366004614b86565b61182f565b610364610513366004614c19565b611cdb565b6000546001600160a01b031661041d565b610364610537366004614c5b565b611e60565b6102a961054a366004614cd6565b6122d2565b61036461055d366004614d65565b612474565b610364610570366004614c5b565b61257c565b610321610583366004614d93565b6000918252600160205260409091205460a01c81166bffffffffffffffffffffffff90811691161490565b6103646105bc366004614d93565b612933565b6102a96105cf366004614db6565b612a0e565b6103646105e2366004614dd8565b612b45565b6103646105f5366004614e29565b612cb5565b6103216106083660046146ae565b60036020526000908152604090205460ff1681565b61036461062b366004614d65565b612db6565b61032161063e366004614e57565b6001600160a01b03918216600090815260026020908152604080832093909416825291909152205460ff1690565b6102a961067a3660046144da565b60016020526000908152604090205481565b61036461069a366004614e85565b612e8e565b6103646106ad3660046146ae565b612fc3565b6103216106c03660046146cb565b6130a5565b60006001600160a01b0383166107485760405162461bcd60e51b815260206004820152602b60248201527f455243313135353a2062616c616e636520717565727920666f7220746865207a60448201527f65726f206164647265737300000000000000000000000000000000000000000060648201526084015b60405180910390fd5b6000828152600160205260409020546001600160a01b038085169082160361077457600191505061077a565b60009150505b92915050565b60007fffffffff0000000000000000000000000000000000000000000000000000000082167e25162b00000000000000000000000000000000000000000000000000000000148061077a575061077a8261313a565b600480546040517f0e89341c0000000000000000000000000000000000000000000000000000000081529182018390526060916001600160a01b0390911690630e89341c90602401600060405180830381865afa15801561083a573d6000803e3d6000fd5b505050506040513d6000823e601f3d908101601f1916820160405261077a9190810190614eee565b8161086d81336130a5565b6108ac576040517fb455aae80000000000000000000000000000000000000000000000000000000081526004810182905233602482015260440161073f565b600083815260016020526040902054839060109060a01c808216156108e75760405163a2a7201360e01b81526004810184905260240161073f565b6040517f14ab90380000000000000000000000000000000000000000000000000000000081526004810187905267ffffffffffffffff861660248201527f00000000000000000000000000000000000000000000000000000000000000006001600160a01b0316906314ab9038906044015b600060405180830381600087803b15801561097357600080fd5b505af1158015610987573d6000803e3d6000fd5b50505050505050505050565b6000336001600160a01b037f000000000000000000000000000000000000000000000000000000000000000016146109f7576040517f1931a53800000000000000000000000000000000000000000000000000000000815260040160405180910390fd5b6000808080610a0886880188614f70565b83516020850120939750919550935091508890808214610a5e576040517fc65c3ccc000000000000000000000000000000000000000000000000000000008152600481018290526024810183905260440161073f565b6040517f28ed4f6c000000000000000000000000000000000000000000000000000000008152600481018390523060248201527f00000000000000000000000000000000000000000000000000000000000000006001600160a01b0316906328ed4f6c90604401600060405180830381600087803b158015610adf57600080fd5b505af1158015610af3573d6000803e3d6000fd5b50505050610b038686868661321d565b507f150b7a02000000000000000000000000000000000000000000000000000000009c9b505050505050505050505050565b6000546001600160a01b03163314610b8f5760405162461bcd60e51b815260206004820181905260248201527f4f776e61626c653a2063616c6c6572206973206e6f7420746865206f776e6572604482015260640161073f565b600480547fffffffffffffffffffffffff0000000000000000000000000000000000000000166001600160a01b0392909216919091179055565b81610bd481336130a5565b610c13576040517fb455aae80000000000000000000000000000000000000000000000000000000081526004810182905233602482015260440161073f565b600083815260016020526040902054839060089060a01c80821615610c4e5760405163a2a7201360e01b81526004810184905260240161073f565b6040517f1896f70a000000000000000000000000000000000000000000000000000000008152600481018790526001600160a01b0386811660248301527f00000000000000000000000000000000000000000000000000000000000000001690631896f70a90604401610959565b60056020526000908152604090208054610cd590614ff7565b80601f0160208091040260200160405190810160405280929190818152602001828054610d0190614ff7565b8015610d4e5780601f10610d2357610100808354040283529160200191610d4e565b820191906000526020600020905b815481529060010190602001808311610d3157829003601f168201915b505050505081565b600085610d6381336130a5565b610da2576040517fb455aae80000000000000000000000000000000000000000000000000000000081526004810182905233602482015260440161073f565b868686604051610db392919061504a565b60405180910390206000610dee8383604080516020808201949094528082019290925280518083038201815260609092019052805191012090565b6040517f02571be3000000000000000000000000000000000000000000000000000000008152600481018290529091506000906001600160a01b037f000000000000000000000000000000000000000000000000000000000000000016906302571be390602401602060405180830381865afa158015610e72573d6000803e3d6000fd5b505050506040513d601f19601f82011682018060405250810190610e96919061505a565b90506001600160a01b038116610ee55760008481526001602090815260409091205460a01c90811615610edf5760405163a2a7201360e01b81526004810186905260240161073f565b50610f1f565b600082815260016020526040908190205460a01c90811615610f1d5760405163a2a7201360e01b81526004810186905260240161073f565b505b60008a8a604051610f3192919061504a565b60405180910390209050610f6c8c82604080516020808201949094528082019290925280518083038201815260609092019052805191012090565b6040517f02571be30000000000000000000000000000000000000000000000000000000081526004810182905290975030906001600160a01b037f000000000000000000000000000000000000000000000000000000000000000016906302571be390602401602060405180830381865afa158015610fef573d6000803e3d6000fd5b505050506040513d601f19601f82011682018060405250810190611013919061505a565b6001600160a01b03161461111d576040517f06ab5923000000000000000000000000000000000000000000000000000000008152600481018d9052602481018290523060448201527f00000000000000000000000000000000000000000000000000000000000000006001600160a01b0316906306ab5923906064016020604051808303816000875af11580156110ae573d6000803e3d6000fd5b505050506040513d601f19601f820116820180604052508101906110d29190615077565b506111188c888d8d8080601f0160208091040260200160405190810160405280939291908181526020018383808284376000920191909152508f92508e915061335d9050565b611128565b611128878a8a61340d565b50505050505095945050505050565b81518351146111ae5760405162461bcd60e51b815260206004820152602860248201527f455243313135353a2069647320616e6420616d6f756e7473206c656e6774682060448201527f6d69736d61746368000000000000000000000000000000000000000000000000606482015260840161073f565b6001600160a01b03841661122a5760405162461bcd60e51b815260206004820152602560248201527f455243313135353a207472616e7366657220746f20746865207a65726f20616460448201527f6472657373000000000000000000000000000000000000000000000000000000606482015260840161073f565b6001600160a01b03851633148061126457506001600160a01b038516600090815260026020908152604080832033845290915290205460ff165b6112d65760405162461bcd60e51b815260206004820152603260248201527f455243313135353a207472616e736665722063616c6c6572206973206e6f742060448201527f6f776e6572206e6f7220617070726f7665640000000000000000000000000000606482015260840161073f565b60005b835181101561141f5760008482815181106112f6576112f6615090565b60200260200101519050600084838151811061131457611314615090565b6020026020010151905060008061133d846000908152600160205260409020549060a082901c90565b9150915061134c816004161590565b61136c5760405163a2a7201360e01b81526004810185905260240161073f565b82600114801561138d5750896001600160a01b0316826001600160a01b0316145b6113ff5760405162461bcd60e51b815260206004820152602a60248201527f455243313135353a20696e73756666696369656e742062616c616e636520666f60448201527f72207472616e7366657200000000000000000000000000000000000000000000606482015260840161073f565b61140a848a83613443565b5050505080611418906150ee565b90506112d9565b50836001600160a01b0316856001600160a01b0316336001600160a01b03167f4a39dc06d4c0dbc64b70af90fd698a233a518aa5d07e595d983b8c0526c8f7fb868660405161146f929190615126565b60405180910390a46114853386868686866134c9565b5050505050565b8261149781336130a5565b6114d6576040517fb455aae80000000000000000000000000000000000000000000000000000000081526004810182905233602482015260440161073f565b60408051602080820187905281830186905282518083038401815260609092019092528051910120600081815260016020526040908190205460a01c808216156115365760405163a2a7201360e01b81526004810184905260240161073f565b6040805160208082018a90528183018990528251808303840181526060909201909252805191012061156881876136d6565b5050505050505050565b600081815260056020526040812080548291829182919061159290614ff7565b80601f01602080910402602001604051908101604052809291908181526020018280546115be90614ff7565b801561160b5780601f106115e05761010080835404028352916020019161160b565b820191906000526020600020905b8154815290600101906020018083116115ee57829003601f168201915b50505050509050805160000361164d576040517f3b4d540000000000000000000000000000000000000000000000000000000000815260040160405180910390fd5b611658816000613742565b6000978852600160205260409097205460a01c97909695509350505050565b606081518351146116f05760405162461bcd60e51b815260206004820152602960248201527f455243313135353a206163636f756e747320616e6420696473206c656e67746860448201527f206d69736d617463680000000000000000000000000000000000000000000000606482015260840161073f565b6000835167ffffffffffffffff81111561170c5761170c614787565b604051908082528060200260200182016040528015611735578160200160208202803683370190505b50905060005b84518110156117ad5761178085828151811061175957611759615090565b602002602001015185838151811061177357611773615090565b60200260200101516106c5565b82828151811061179257611792615090565b60209081029190910101526117a6816150ee565b905061173b565b509392505050565b60008181526001602052604081205461077a565b6000546001600160a01b031633146118235760405162461bcd60e51b815260206004820181905260248201527f4f776e61626c653a2063616c6c6572206973206e6f7420746865206f776e6572604482015260640161073f565b61182d600061386f565b565b8661183a81336130a5565b611879576040517fb455aae80000000000000000000000000000000000000000000000000000000081526004810182905233602482015260440161073f565b87878760405161188a92919061504a565b604051809103902060006118c58383604080516020808201949094528082019290925280518083038201815260609092019052805191012090565b6040517f02571be3000000000000000000000000000000000000000000000000000000008152600481018290529091506000906001600160a01b037f000000000000000000000000000000000000000000000000000000000000000016906302571be390602401602060405180830381865afa158015611949573d6000803e3d6000fd5b505050506040513d601f19601f8201168201806040525081019061196d919061505a565b90506001600160a01b0381166119bc5760008481526001602090815260409091205460a01c908116156119b65760405163a2a7201360e01b81526004810186905260240161073f565b506119f6565b600082815260016020526040908190205460a01c908116156119f45760405163a2a7201360e01b81526004810186905260240161073f565b505b60008b8b604051611a0892919061504a565b604051809103902090506000611a458e83604080516020808201949094528082019290925280518083038201815260609092019052805191012090565b6040517f02571be30000000000000000000000000000000000000000000000000000000081526004810182905290915030906001600160a01b037f000000000000000000000000000000000000000000000000000000000000000016906302571be390602401602060405180830381865afa158015611ac8573d6000803e3d6000fd5b505050506040513d601f19601f82011682018060405250810190611aec919061505a565b6001600160a01b031614611c08576040517f5ef2c7f0000000000000000000000000000000000000000000000000000000008152600481018f9052602481018390523060448201526001600160a01b038b8116606483015267ffffffffffffffff8b1660848301527f00000000000000000000000000000000000000000000000000000000000000001690635ef2c7f09060a401600060405180830381600087803b158015611b9a57600080fd5b505af1158015611bae573d6000803e3d6000fd5b50505050611c038e828f8f8080601f016020809104026020016040519081016040528093929190818152602001838380828437600081840152601f19601f820116905080830192505050505050508e8c61335d565b611ccb565b6040517f5ef2c7f0000000000000000000000000000000000000000000000000000000008152600481018f9052602481018390523060448201526001600160a01b038b8116606483015267ffffffffffffffff8b1660848301527f00000000000000000000000000000000000000000000000000000000000000001690635ef2c7f09060a401600060405180830381600087803b158015611ca857600080fd5b505af1158015611cbc573d6000803e3d6000fd5b50505050611ccb818c8a61340d565b5050505050505050505050505050565b604080517f93cdeb708b7545dc668eb9280176169d1c33cfd8ed6f04690a0bcc88a93fc4ae60208083019190915281830186905282518083038401815260609092019092528051910120611d2f81336130a5565b611d6e576040517fb455aae80000000000000000000000000000000000000000000000000000000081526004810182905233602482015260440161073f565b604080517f93cdeb708b7545dc668eb9280176169d1c33cfd8ed6f04690a0bcc88a93fc4ae60208083019190915281830187905282518083038401815260609092019092528051910120611dc3905b836138d7565b6040517f23b872dd0000000000000000000000000000000000000000000000000000000081523060048201526001600160a01b038481166024830152604482018690527f000000000000000000000000000000000000000000000000000000000000000016906323b872dd90606401600060405180830381600087803b158015611e4c57600080fd5b505af1158015611568573d6000803e3d6000fd5b600080611ea7600088888080601f0160208091040260200160405190810160405280939291908181526020018383808284376000920191909152509293925050613a4e9050565b915091506000611ef08289898080601f0160208091040260200160405190810160405280939291908181526020018383808284376000920191909152509293925050613b059050565b604080516020808201849052818301879052825180830384018152606090920190925280519101209091507f6c32148f748aba23997146d7fe89e962e3cc30271290fb96f5f4337756c03b528201611f74576040517f615a470300000000000000000000000000000000000000000000000000000000815260040160405180910390fd5b6040517f02571be3000000000000000000000000000000000000000000000000000000008152600481018290526000907f00000000000000000000000000000000000000000000000000000000000000006001600160a01b0316906302571be390602401602060405180830381865afa158015611ff5573d6000803e3d6000fd5b505050506040513d601f19601f82011682018060405250810190612019919061505a565b90506001600160a01b038116331480159061205857506001600160a01b038116600090815260026020908152604080832033845290915290205460ff16155b801561210a57506040517fe985e9c50000000000000000000000000000000000000000000000000000000081526001600160a01b0382811660048301523360248301527f0000000000000000000000000000000000000000000000000000000000000000169063e985e9c590604401602060405180830381865afa1580156120e4573d6000803e3d6000fd5b505050506040513d601f19601f820116820180604052508101906121089190615154565b155b1561214a576040517fb455aae80000000000000000000000000000000000000000000000000000000081526004810183905233602482015260440161073f565b6001600160a01b038616156121f5576040517f1896f70a000000000000000000000000000000000000000000000000000000008152600481018390526001600160a01b0387811660248301527f00000000000000000000000000000000000000000000000000000000000000001690631896f70a90604401600060405180830381600087803b1580156121dc57600080fd5b505af11580156121f0573d6000803e3d6000fd5b505050505b6040517f5b0fc9c3000000000000000000000000000000000000000000000000000000008152600481018390523060248201527f00000000000000000000000000000000000000000000000000000000000000006001600160a01b031690635b0fc9c390604401600060405180830381600087803b15801561227657600080fd5b505af115801561228a573d6000803e3d6000fd5b50505050610987828b8b8080601f0160208091040260200160405190810160405280939291908181526020018383808284376000920191909152508d92508c9150613bc49050565b3360009081526003602052604081205460ff166123575760405162461bcd60e51b815260206004820152602860248201527f436f6e74726f6c6c61626c653a2043616c6c6572206973206e6f74206120636f60448201527f6e74726f6c6c6572000000000000000000000000000000000000000000000000606482015260840161073f565b6000878760405161236992919061504a565b6040519081900381207ffca247ac000000000000000000000000000000000000000000000000000000008252600482018190523060248301526044820187905291507f00000000000000000000000000000000000000000000000000000000000000006001600160a01b03169063fca247ac906064016020604051808303816000875af11580156123fe573d6000803e3d6000fd5b505050506040513d601f19601f820116820180604052508101906124229190615077565b915061246888888080601f0160208091040260200160405190810160405280939291908181526020018383808284376000920191909152508a925087915088905061321d565b50509695505050505050565b6001600160a01b03821633036124f25760405162461bcd60e51b815260206004820152602960248201527f455243313135353a2073657474696e6720617070726f76616c2073746174757360448201527f20666f722073656c660000000000000000000000000000000000000000000000606482015260840161073f565b3360008181526002602090815260408083206001600160a01b0387168085529083529281902080547fffffffffffffffffffffffffffffffffffffffffffffffffffffffffffffff001686151590811790915590519081529192917f17307eab39ab6107e8899845ad3d59bd9653f200f220920489ca2b5937696c31910160405180910390a35050565b6000858560405161258e92919061504a565b6040519081900381207f6352211e0000000000000000000000000000000000000000000000000000000082526004820181905291506000907f00000000000000000000000000000000000000000000000000000000000000006001600160a01b031690636352211e90602401602060405180830381865afa158015612617573d6000803e3d6000fd5b505050506040513d601f19601f8201168201806040525081019061263b919061505a565b90506001600160a01b038116331480159061267a57506001600160a01b038116600090815260026020908152604080832033845290915290205460ff16155b801561272c57506040517fe985e9c50000000000000000000000000000000000000000000000000000000081526001600160a01b0382811660048301523360248301527f0000000000000000000000000000000000000000000000000000000000000000169063e985e9c590604401602060405180830381865afa158015612706573d6000803e3d6000fd5b505050506040513d601f19601f8201168201806040525081019061272a9190615154565b155b156127b557604080517f93cdeb708b7545dc668eb9280176169d1c33cfd8ed6f04690a0bcc88a93fc4ae602080830191909152818301859052825180830384018152606083019384905280519101207fb455aae800000000000000000000000000000000000000000000000000000000909252606481019190915233608482015260a40161073f565b6040517f23b872dd0000000000000000000000000000000000000000000000000000000081526001600160a01b038281166004830152306024830152604482018490527f000000000000000000000000000000000000000000000000000000000000000016906323b872dd90606401600060405180830381600087803b15801561283e57600080fd5b505af1158015612852573d6000803e3d6000fd5b50506040517f28ed4f6c000000000000000000000000000000000000000000000000000000008152600481018590523060248201527f00000000000000000000000000000000000000000000000000000000000000006001600160a01b031692506328ed4f6c9150604401600060405180830381600087803b1580156128d757600080fd5b505af11580156128eb573d6000803e3d6000fd5b5050505061156887878080601f01602080910402602001604051908101604052809392919081815260200183838082843760009201919091525089925088915087905061321d565b8161293e81336130a5565b61297d576040517fb455aae80000000000000000000000000000000000000000000000000000000081526004810182905233602482015260440161073f565b600083815260016020526040902054839060029060a01c808216156129b85760405163a2a7201360e01b81526004810184905260240161073f565b60408516156129fc576040517fb455aae80000000000000000000000000000000000000000000000000000000081526004810187905233602482015260440161073f565b612a0686866136d6565b505050505050565b3360009081526003602052604081205460ff16612a935760405162461bcd60e51b815260206004820152602860248201527f436f6e74726f6c6c61626c653a2043616c6c6572206973206e6f74206120636f60448201527f6e74726f6c6c6572000000000000000000000000000000000000000000000000606482015260840161073f565b6040517fc475abff00000000000000000000000000000000000000000000000000000000815260048101849052602481018390527f00000000000000000000000000000000000000000000000000000000000000006001600160a01b03169063c475abff906044016020604051808303816000875af1158015612b1a573d6000803e3d6000fd5b505050506040513d601f19601f82011682018060405250810190612b3e9190615077565b9392505050565b83612b5081336130a5565b612b8f576040517fb455aae80000000000000000000000000000000000000000000000000000000081526004810182905233602482015260440161073f565b6000858152600160205260409020548590601c9060a01c80821615612bca5760405163a2a7201360e01b81526004810184905260240161073f565b6040517fcf408823000000000000000000000000000000000000000000000000000000008152600481018990523060248201526001600160a01b03878116604483015267ffffffffffffffff871660648301527f0000000000000000000000000000000000000000000000000000000000000000169063cf40882390608401600060405180830381600087803b158015612c6357600080fd5b505af1158015612c77573d6000803e3d6000fd5b5050506000898152600160208181526040808420548151928301909152928152919250612caa9183918b918d9190613c31565b505050505050505050565b60408051602080820186905281830185905282518083038401815260609092019092528051910120612ce781336130a5565b612d26576040517fb455aae80000000000000000000000000000000000000000000000000000000081526004810182905233602482015260440161073f565b7f6c32148f748aba23997146d7fe89e962e3cc30271290fb96f5f4337756c03b528401612d7f576040517f615a470300000000000000000000000000000000000000000000000000000000815260040160405180910390fd5b60408051602080820187905281830186905282518083038401815260609092019092528051910120612db090611dbd565b50505050565b6000546001600160a01b03163314612e105760405162461bcd60e51b815260206004820181905260248201527f4f776e61626c653a2063616c6c6572206973206e6f7420746865206f776e6572604482015260640161073f565b6001600160a01b03821660008181526003602090815260409182902080547fffffffffffffffffffffffffffffffffffffffffffffffffffffffffffffff001685151590811790915591519182527f4c97694570a07277810af7e5669ffd5f6a2d6b74b6e9a274b8b870fd5114cf8791015b60405180910390a25050565b6001600160a01b038416612f0a5760405162461bcd60e51b815260206004820152602560248201527f455243313135353a207472616e7366657220746f20746865207a65726f20616460448201527f6472657373000000000000000000000000000000000000000000000000000000606482015260840161073f565b6001600160a01b038516331480612f4457506001600160a01b038516600090815260026020908152604080832033845290915290205460ff165b612fb65760405162461bcd60e51b815260206004820152602960248201527f455243313135353a2063616c6c6572206973206e6f74206f776e6572206e6f7260448201527f20617070726f7665640000000000000000000000000000000000000000000000606482015260840161073f565b6114858585858585613c31565b6000546001600160a01b0316331461301d5760405162461bcd60e51b815260206004820181905260248201527f4f776e61626c653a2063616c6c6572206973206e6f7420746865206f776e6572604482015260640161073f565b6001600160a01b0381166130995760405162461bcd60e51b815260206004820152602660248201527f4f776e61626c653a206e6577206f776e657220697320746865207a65726f206160448201527f6464726573730000000000000000000000000000000000000000000000000000606482015260840161073f565b6130a28161386f565b50565b6000806130b1846117b5565b9050826001600160a01b0316816001600160a01b031614806130f857506001600160a01b0380821660009081526002602090815260408083209387168352929052205460ff165b949350505050565b60a0816bffffffffffffffffffffffff16901b826001600160a01b0316176001600085815260200190815260200160002081905550505050565b60007fffffffff0000000000000000000000000000000000000000000000000000000082167fd9b67a260000000000000000000000000000000000000000000000000000000014806131cd57507fffffffff0000000000000000000000000000000000000000000000000000000082167f0e89341c00000000000000000000000000000000000000000000000000000000145b8061077a57507f01ffc9a7000000000000000000000000000000000000000000000000000000007fffffffff0000000000000000000000000000000000000000000000000000000083161461077a565b8351602085012060006132777f93cdeb708b7545dc668eb9280176169d1c33cfd8ed6f04690a0bcc88a93fc4ae83604080516020808201949094528082019290925280518083038201815260609092019052805191012090565b90506132a97f93cdeb708b7545dc668eb9280176169d1c33cfd8ed6f04690a0bcc88a93fc4ae8288886040891761335d565b6001600160a01b03831615613354576040517f1896f70a000000000000000000000000000000000000000000000000000000008152600481018290526001600160a01b0384811660248301527f00000000000000000000000000000000000000000000000000000000000000001690631896f70a90604401600060405180830381600087803b15801561333b57600080fd5b505af115801561334f573d6000803e3d6000fd5b505050505b50949350505050565b600085815260056020526040812080546133ff91869161337c90614ff7565b80601f01602080910402602001604051908101604052809291908181526020018280546133a890614ff7565b80156133f55780601f106133ca576101008083540402835291602001916133f5565b820191906000526020600020905b8154815290600101906020018083116133d857829003601f168201915b5050505050613d7b565b9050612a0685828585613bc4565b600083815260016020818152604080842054815192830190915292815261343991839186918891613c31565b612db084836136d6565b6bffffffffffffffffffffffbf811615801590613461575060018116155b156134825760405163a2a7201360e01b81526004810184905260240161073f565b60008381526001602052604090206001600160a01b0383167fffffffffffffffffffffffff000000000000000000000000000000000000000060a084901b16179055505050565b6001600160a01b0384163b15612a06576040517fbc197c810000000000000000000000000000000000000000000000000000000081526001600160a01b0385169063bc197c81906135269089908990889088908890600401615171565b6020604051808303816000875af1925050508015613561575060408051601f3d908101601f1916820190925261355e918101906151cf565b60015b6136165761356d6151ec565b806308c379a0036135a65750613581615208565b8061358c57506135a8565b8060405162461bcd60e51b815260040161073f9190614596565b505b60405162461bcd60e51b815260206004820152603460248201527f455243313135353a207472616e7366657220746f206e6f6e204552433131353560448201527f526563656976657220696d706c656d656e746572000000000000000000000000606482015260840161073f565b7fffffffff0000000000000000000000000000000000000000000000000000000081167fbc197c8100000000000000000000000000000000000000000000000000000000146136cd5760405162461bcd60e51b815260206004820152602860248201527f455243313135353a204552433131353552656365697665722072656a6563746560448201527f6420746f6b656e73000000000000000000000000000000000000000000000000606482015260840161073f565b50505050505050565b60008281526001602052604090205460a081901c8281176136f8858483613443565b6040516bffffffffffffffffffffffff8216815285907fdba54097f6f5ef606cfe6bd170d2a04c0601dff6d94274d5f3879349978b9f449060200160405180910390a25050505050565b6000808080806137528787613a4e565b90925090508161376e5750600093508392508291506138689050565b600061377a8883613742565b6040805160208082018690528183018990528251808303840181526060909201909252805191012098509096509450905060008560048111156137bf576137bf6149e9565b146137cc57505050613868565b806137e1575060009350839250613868915050565b6137ec838783613e24565b90955093506000856004811115613805576138056149e9565b1461381257505050613868565b600086815260016020526040908190205460a01c811614158061384a575060008181526001602081905260409091205460a01c811614155b1561385d57600394509250613868915050565b506000935083925050505b9250925092565b600080546001600160a01b038381167fffffffffffffffffffffffff0000000000000000000000000000000000000000831681178455604051919092169283917f8be0079c531659141344cd1fd0a4f28419497f9722a3daafe3b4186f6b6457e09190a35050565b6001600160a01b03811615806138f557506001600160a01b03811630145b15613937576040517f5949361a0000000000000000000000000000000000000000000000000000000081526001600160a01b038216600482015260240161073f565b60008281526001602081905260409091205460a01c81160361396f5760405163a2a7201360e01b81526004810183905260240161073f565b61397882613fe2565b6040517f5b0fc9c3000000000000000000000000000000000000000000000000000000008152600481018390526001600160a01b0382811660248301527f00000000000000000000000000000000000000000000000000000000000000001690635b0fc9c390604401600060405180830381600087803b1580156139fb57600080fd5b505af1158015613a0f573d6000803e3d6000fd5b50506040516001600160a01b03841681528492507fee2ba1195c65bcf218a83d874335c6bf9d9067b4c672f3c3bf16cf40de7586c49150602001612e82565b60008083518310613aa15760405162461bcd60e51b815260206004820152601e60248201527f726561644c6162656c3a20496e646578206f7574206f6620626f756e64730000604482015260640161073f565b6000848481518110613ab557613ab5615090565b016020015160f81c90508015613ae157613ada85613ad48660016152b0565b83614048565b9250613ae6565b600092505b613af081856152b0565b613afb9060016152b0565b9150509250929050565b6000806000613b148585613a4e565b909250905081613b865760018551613b2c91906152c8565b8414613b7a5760405162461bcd60e51b815260206004820152601d60248201527f6e616d65686173683a204a756e6b20617420656e64206f66206e616d65000000604482015260640161073f565b506000915061077a9050565b613b908582613b05565b6040805160208101929092528101839052606001604051602081830303815290604052805190602001209250505092915050565b60008481526005602090815260409091208451613be392860190614400565b50613bef84838361406c565b837fe4119808efe03fb44c25cc9ce9a945dfe95dc48b05cdf4a351b586630c1e6b6a848484604051613c23939291906152df565b60405180910390a250505050565b60008381526001602052604090205460a081901c6001600160a01b0380871690831603613c5f575050611485565b6004811615613c845760405163a2a7201360e01b81526004810186905260240161073f565b836001148015613ca55750866001600160a01b0316826001600160a01b0316145b613d175760405162461bcd60e51b815260206004820152602a60248201527f455243313135353a20696e73756666696369656e742062616c616e636520666f60448201527f72207472616e7366657200000000000000000000000000000000000000000000606482015260840161073f565b613d22858783613443565b60408051868152602081018690526001600160a01b0380891692908a169133917fc3d58168c5ae7397731d063d5bbf3d657854427343f4c083240f7aacaa2d0f62910160405180910390a46136cd3388888888886140d3565b6060600183511015613db9576040517f280dacb600000000000000000000000000000000000000000000000000000000815260040160405180910390fd5b60ff83511115613df757826040517fe3ba295f00000000000000000000000000000000000000000000000000000000815260040161073f9190614596565b82518383604051602001613e0d9392919061531f565b604051602081830303815290604052905092915050565b6000807f6c32148f748aba23997146d7fe89e962e3cc30271290fb96f5f4337756c03b528301613f16576040517f6352211e000000000000000000000000000000000000000000000000000000008152600481018690527f00000000000000000000000000000000000000000000000000000000000000006001600160a01b031690636352211e90602401602060405180830381865afa925050508015613ee8575060408051601f3d908101601f19168201909252613ee59181019061505a565b60015b613ef757506004905082613fda565b6001600160a01b0381163014613f14576001859250925050613fda565b505b6040517f02571be30000000000000000000000000000000000000000000000000000000081526004810185905230906001600160a01b037f000000000000000000000000000000000000000000000000000000000000000016906302571be390602401602060405180830381865afa158015613f96573d6000803e3d6000fd5b505050506040513d601f19601f82011682018060405250810190613fba919061505a565b6001600160a01b031614613fd357506002905082613fda565b5060009050805b935093915050565b6000613fed826117b5565b9050613ffb82600080613443565b60408051838152600160208201526000916001600160a01b0384169133917fc3d58168c5ae7397731d063d5bbf3d657854427343f4c083240f7aacaa2d0f62910160405180910390a45050565b825160009061405783856152b0565b111561406257600080fd5b5091016020012090565b6000614077846117b5565b90506001600160a01b038116156140c85761409184613fe2565b6040516000815284907fee2ba1195c65bcf218a83d874335c6bf9d9067b4c672f3c3bf16cf40de7586c49060200160405180910390a25b612db084848461422e565b6001600160a01b0384163b15612a06576040517ff23a6e610000000000000000000000000000000000000000000000000000000081526001600160a01b0385169063f23a6e61906141309089908990889088908890600401615380565b6020604051808303816000875af192505050801561416b575060408051601f3d908101601f19168201909252614168918101906151cf565b60015b6141775761356d6151ec565b7fffffffff0000000000000000000000000000000000000000000000000000000081167ff23a6e6100000000000000000000000000000000000000000000000000000000146136cd5760405162461bcd60e51b815260206004820152602860248201527f455243313135353a204552433131353552656365697665722072656a6563746560448201527f6420746f6b656e73000000000000000000000000000000000000000000000000606482015260840161073f565b82600061423a826117b5565b90506001600160a01b038116156142935760405162461bcd60e51b815260206004820152601f60248201527f455243313135353a206d696e74206f66206578697374696e6720746f6b656e00604482015260640161073f565b6001600160a01b03841661430f5760405162461bcd60e51b815260206004820152602160248201527f455243313135353a206d696e7420746f20746865207a65726f2061646472657360448201527f7300000000000000000000000000000000000000000000000000000000000000606482015260840161073f565b306001600160a01b0385160361438d5760405162461bcd60e51b815260206004820152603460248201527f455243313135353a206e65774f776e65722063616e6e6f74206265207468652060448201527f4e616d655772617070657220636f6e7472616374000000000000000000000000606482015260840161073f565b614398828585613443565b60408051838152600160208201526001600160a01b0386169160009133917fc3d58168c5ae7397731d063d5bbf3d657854427343f4c083240f7aacaa2d0f62910160405180910390a461148533600086856001604051806020016040528060008152506140d3565b82805461440c90614ff7565b90600052602060002090601f01602090048101928261442e5760008555614474565b82601f1061444757805160ff1916838001178555614474565b82800160010185558215614474579182015b82811115614474578251825591602001919060010190614459565b50614480929150614484565b5090565b5b808211156144805760008155600101614485565b6001600160a01b03811681146130a257600080fd5b600080604083850312156144c157600080fd5b82356144cc81614499565b946020939093013593505050565b6000602082840312156144ec57600080fd5b5035919050565b7fffffffff00000000000000000000000000000000000000000000000000000000811681146130a257600080fd5b60006020828403121561453357600080fd5b8135612b3e816144f3565b60005b83811015614559578181015183820152602001614541565b83811115612db05750506000910152565b6000815180845261458281602086016020860161453e565b601f01601f19169290920160200192915050565b602081526000612b3e602083018461456a565b803567ffffffffffffffff811681146145c157600080fd5b919050565b600080604083850312156145d957600080fd5b823591506145e9602084016145a9565b90509250929050565b60008083601f84011261460457600080fd5b50813567ffffffffffffffff81111561461c57600080fd5b60208301915083602082850101111561463457600080fd5b9250929050565b60008060008060006080868803121561465357600080fd5b853561465e81614499565b9450602086013561466e81614499565b935060408601359250606086013567ffffffffffffffff81111561469157600080fd5b61469d888289016145f2565b969995985093965092949392505050565b6000602082840312156146c057600080fd5b8135612b3e81614499565b600080604083850312156146de57600080fd5b8235915060208301356146f081614499565b809150509250929050565b80356bffffffffffffffffffffffff811681146145c157600080fd5b60008060008060006080868803121561472f57600080fd5b85359450602086013567ffffffffffffffff81111561474d57600080fd5b614759888289016145f2565b909550935050604086013561476d81614499565b915061477b606087016146fb565b90509295509295909350565b7f4e487b7100000000000000000000000000000000000000000000000000000000600052604160045260246000fd5b601f19601f830116810181811067ffffffffffffffff821117156147dc576147dc614787565b6040525050565b600067ffffffffffffffff8211156147fd576147fd614787565b5060051b60200190565b600082601f83011261481857600080fd5b81356020614825826147e3565b60405161483282826147b6565b83815260059390931b850182019282810191508684111561485257600080fd5b8286015b8481101561486d5780358352918301918301614856565b509695505050505050565b600067ffffffffffffffff82111561489257614892614787565b50601f01601f191660200190565b60006148ab83614878565b6040516148b882826147b6565b8092508481528585850111156148cd57600080fd5b8484602083013760006020868301015250509392505050565b600082601f8301126148f757600080fd5b612b3e838335602085016148a0565b600080600080600060a0868803121561491e57600080fd5b853561492981614499565b9450602086013561493981614499565b9350604086013567ffffffffffffffff8082111561495657600080fd5b61496289838a01614807565b9450606088013591508082111561497857600080fd5b61498489838a01614807565b9350608088013591508082111561499a57600080fd5b506149a7888289016148e6565b9150509295509295909350565b6000806000606084860312156149c957600080fd5b83359250602084013591506149e0604085016146fb565b90509250925092565b7f4e487b7100000000000000000000000000000000000000000000000000000000600052602160045260246000fd5b6bffffffffffffffffffffffff841681526060810160058410614a64577f4e487b7100000000000000000000000000000000000000000000000000000000600052602160045260246000fd5b602082019390935260400152919050565b60008060408385031215614a8857600080fd5b823567ffffffffffffffff80821115614aa057600080fd5b818501915085601f830112614ab457600080fd5b81356020614ac1826147e3565b604051614ace82826147b6565b83815260059390931b8501820192828101915089841115614aee57600080fd5b948201945b83861015614b15578535614b0681614499565b82529482019490820190614af3565b96505086013592505080821115614b2b57600080fd5b50613afb85828601614807565b600081518084526020808501945080840160005b83811015614b6857815187529582019590820190600101614b4c565b509495945050505050565b602081526000612b3e6020830184614b38565b600080600080600080600060c0888a031215614ba157600080fd5b87359650602088013567ffffffffffffffff811115614bbf57600080fd5b614bcb8a828b016145f2565b9097509550506040880135614bdf81614499565b93506060880135614bef81614499565b9250614bfd608089016145a9565b9150614c0b60a089016146fb565b905092959891949750929550565b600080600060608486031215614c2e57600080fd5b833592506020840135614c4081614499565b91506040840135614c5081614499565b809150509250925092565b600080600080600060808688031215614c7357600080fd5b853567ffffffffffffffff811115614c8a57600080fd5b614c96888289016145f2565b9096509450506020860135614caa81614499565b9250614cb8604087016146fb565b91506060860135614cc881614499565b809150509295509295909350565b60008060008060008060a08789031215614cef57600080fd5b863567ffffffffffffffff811115614d0657600080fd5b614d1289828a016145f2565b9097509550506020870135614d2681614499565b9350604087013592506060870135614d3d81614499565b9150614d4b608088016146fb565b90509295509295509295565b80151581146130a257600080fd5b60008060408385031215614d7857600080fd5b8235614d8381614499565b915060208301356146f081614d57565b60008060408385031215614da657600080fd5b823591506145e9602084016146fb565b60008060408385031215614dc957600080fd5b50508035926020909101359150565b60008060008060808587031215614dee57600080fd5b843593506020850135614e0081614499565b92506040850135614e1081614499565b9150614e1e606086016145a9565b905092959194509250565b600080600060608486031215614e3e57600080fd5b83359250602084013591506040840135614c5081614499565b60008060408385031215614e6a57600080fd5b8235614e7581614499565b915060208301356146f081614499565b600080600080600060a08688031215614e9d57600080fd5b8535614ea881614499565b94506020860135614eb881614499565b93506040860135925060608601359150608086013567ffffffffffffffff811115614ee257600080fd5b6149a7888289016148e6565b600060208284031215614f0057600080fd5b815167ffffffffffffffff811115614f1757600080fd5b8201601f81018413614f2857600080fd5b8051614f3381614878565b604051614f4082826147b6565b828152866020848601011115614f5557600080fd5b614f6683602083016020870161453e565b9695505050505050565b60008060008060808587031215614f8657600080fd5b843567ffffffffffffffff811115614f9d57600080fd5b8501601f81018713614fae57600080fd5b614fbd878235602084016148a0565b9450506020850135614fce81614499565b9250614fdc604086016146fb565b91506060850135614fec81614499565b939692955090935050565b600181811c9082168061500b57607f821691505b602082108103615044577f4e487b7100000000000000000000000000000000000000000000000000000000600052602260045260246000fd5b50919050565b8183823760009101908152919050565b60006020828403121561506c57600080fd5b8151612b3e81614499565b60006020828403121561508957600080fd5b5051919050565b7f4e487b7100000000000000000000000000000000000000000000000000000000600052603260045260246000fd5b7f4e487b7100000000000000000000000000000000000000000000000000000000600052601160045260246000fd5b60007fffffffffffffffffffffffffffffffffffffffffffffffffffffffffffffffff820361511f5761511f6150bf565b5060010190565b6040815260006151396040830185614b38565b828103602084015261514b8185614b38565b95945050505050565b60006020828403121561516657600080fd5b8151612b3e81614d57565b60006001600160a01b03808816835280871660208401525060a0604083015261519d60a0830186614b38565b82810360608401526151af8186614b38565b905082810360808401526151c3818561456a565b98975050505050505050565b6000602082840312156151e157600080fd5b8151612b3e816144f3565b600060033d11156152055760046000803e5060005160e01c5b90565b600060443d10156152165790565b6040517ffffffffffffffffffffffffffffffffffffffffffffffffffffffffffffffffc803d016004833e81513d67ffffffffffffffff816024840111818411171561526457505050505090565b828501915081518181111561527c5750505050505090565b843d87010160208285010111156152965750505050505090565b6152a5602082860101876147b6565b509095945050505050565b600082198211156152c3576152c36150bf565b500190565b6000828210156152da576152da6150bf565b500390565b6060815260006152f2606083018661456a565b90506001600160a01b03841660208301526bffffffffffffffffffffffff83166040830152949350505050565b7fff000000000000000000000000000000000000000000000000000000000000008460f81b1681526000835161535c81600185016020880161453e565b83519083019061537381600184016020880161453e565b0160010195945050505050565b60006001600160a01b03808816835280871660208401525084604083015283606083015260a060808301526153b860a083018461456a565b97965050505050505056fea2646970667358221220ab8aeadab4a7b264ab7a76bdc20bc99fa58b3d51045bbc16700182b28bd4b00e64736f6c634300080d003393cdeb708b7545dc668eb9280176169d1c33cfd8ed6f04690a0bcc88a93fc4ae",
  "linkReferences": {},
  "deployedLinkReferences": {}
}