{
  "_format": "hh-sol-artifact-1",
  "contractName": "DNSRegistrar",
  "sourceName": "contracts/dnsregistrar/DNSRegistrar.sol",
  "abi": [
    {
      "inputs": [
        {
          "internalType": "contract DNSSEC",
          "name": "_dnssec",
          "type": "address"
        },
        {
          "internalType": "contract PublicSuffixList",
          "name": "_suffixes",
          "type": "address"
        },
        {
          "internalType": "contract ENS",
          "name": "_ens",
          "type": "address"
        }
      ],
      "stateMutability": "nonpayable",
      "type": "constructor"
    },
    {
      "anonymous": false,
      "inputs": [
        {
          "indexed": true,
          "internalType": "bytes32",
          "name": "node",
          "type": "bytes32"
        },
        {
          "indexed": true,
          "internalType": "address",
          "name": "owner",
          "type": "address"
        },
        {
          "indexed": false,
          "internalType": "bytes",
          "name": "dnsname",
          "type": "bytes"
        }
      ],
      "name": "Claim",
      "type": "event"
    },
    {
      "anonymous": false,
      "inputs": [
        {
          "indexed": false,
          "internalType": "address",
          "name": "oracle",
          "type": "address"
        }
      ],
      "name": "NewOracle",
      "type": "event"
    },
    {
      "anonymous": false,
      "inputs": [
        {
          "indexed": false,
          "internalType": "address",
          "name": "suffixes",
          "type": "address"
        }
      ],
      "name": "NewPublicSuffixList",
      "type": "event"
    },
    {
      "inputs": [
        {
          "internalType": "bytes",
          "name": "name",
          "type": "bytes"
        },
        {
          "internalType": "bytes",
          "name": "proof",
          "type": "bytes"
        }
      ],
      "name": "claim",
      "outputs": [],
      "stateMutability": "nonpayable",
      "type": "function"
    },
    {
      "inputs": [],
      "name": "ens",
      "outputs": [
        {
          "internalType": "contract ENS",
          "name": "",
          "type": "address"
        }
      ],
      "stateMutability": "view",
      "type": "function"
    },
    {
      "inputs": [],
      "name": "oracle",
      "outputs": [
        {
          "internalType": "contract DNSSEC",
          "name": "",
          "type": "address"
        }
      ],
      "stateMutability": "view",
      "type": "function"
    },
    {
      "inputs": [
        {
          "internalType": "bytes",
          "name": "name",
          "type": "bytes"
        },
        {
          "components": [
            {
              "internalType": "bytes",
              "name": "rrset",
              "type": "bytes"
            },
            {
              "internalType": "bytes",
              "name": "sig",
              "type": "bytes"
            }
          ],
          "internalType": "struct DNSSEC.RRSetWithSignature[]",
          "name": "input",
          "type": "tuple[]"
        },
        {
          "internalType": "bytes",
          "name": "proof",
          "type": "bytes"
        }
      ],
      "name": "proveAndClaim",
      "outputs": [],
      "stateMutability": "nonpayable",
      "type": "function"
    },
    {
      "inputs": [
        {
          "internalType": "bytes",
          "name": "name",
          "type": "bytes"
        },
        {
          "components": [
            {
              "internalType": "bytes",
              "name": "rrset",
              "type": "bytes"
            },
            {
              "internalType": "bytes",
              "name": "sig",
              "type": "bytes"
            }
          ],
          "internalType": "struct DNSSEC.RRSetWithSignature[]",
          "name": "input",
          "type": "tuple[]"
        },
        {
          "internalType": "bytes",
          "name": "proof",
          "type": "bytes"
        },
        {
          "internalType": "address",
          "name": "resolver",
          "type": "address"
        },
        {
          "internalType": "address",
          "name": "addr",
          "type": "address"
        }
      ],
      "name": "proveAndClaimWithResolver",
      "outputs": [],
      "stateMutability": "nonpayable",
      "type": "function"
    },
    {
      "inputs": [
        {
          "internalType": "contract DNSSEC",
          "name": "_dnssec",
          "type": "address"
        }
      ],
      "name": "setOracle",
      "outputs": [],
      "stateMutability": "nonpayable",
      "type": "function"
    },
    {
      "inputs": [
        {
          "internalType": "contract PublicSuffixList",
          "name": "_suffixes",
          "type": "address"
        }
      ],
      "name": "setPublicSuffixList",
      "outputs": [],
      "stateMutability": "nonpayable",
      "type": "function"
    },
    {
      "inputs": [],
      "name": "suffixes",
      "outputs": [
        {
          "internalType": "contract PublicSuffixList",
          "name": "",
          "type": "address"
        }
      ],
      "stateMutability": "view",
      "type": "function"
    },
    {
      "inputs": [
        {
          "internalType": "bytes4",
          "name": "interfaceID",
          "type": "bytes4"
        }
      ],
      "name": "supportsInterface",
      "outputs": [
        {
          "internalType": "bool",
          "name": "",
          "type": "bool"
        }
      ],
      "stateMutability": "pure",
      "type": "function"
    }
  ],
  "bytecode": "0x60806040523480156200001157600080fd5b50604051620021b2380380620021b2833981016040819052620000349162000118565b600080546001600160a01b0319166001600160a01b0385169081179091556040519081527fb3eacd0e351fafdfefdec84e1cd19679b38dbcd63ea7c2c24da17fd2bc3b3c0e9060200160405180910390a1600280546001600160a01b0319166001600160a01b0384169081179091556040519081527f9176b7f47e4504df5e5516c99d90d82ac7cbd49cc77e7f22ba2ac2f2e3a3eba89060200160405180910390a1600180546001600160a01b0319166001600160a01b0392909216919091179055506200016c9050565b6001600160a01b03811681146200011557600080fd5b50565b6000806000606084860312156200012e57600080fd5b83516200013b81620000ff565b60208501519093506200014e81620000ff565b60408501519092506200016181620000ff565b809150509250925092565b612036806200017c6000396000f3fe608060405234801561001057600080fd5b50600436106100a35760003560e01c80633f15457f116100765780637dc0d1d01161005b5780637dc0d1d0146101705780638bbedf7514610190578063be27b22c146101a357600080fd5b80633f15457f1461013d5780637adbf9731461015d57600080fd5b806301ffc9a7146100a85780631ecfc411146100d0578063224199c2146100e557806330349ebe146100f8575b600080fd5b6100bb6100b6366004611753565b6101b6565b60405190151581526020015b60405180910390f35b6100e36100de3660046117ba565b61024f565b005b6100e36100f33660046119d8565b6103f6565b6002546101189073ffffffffffffffffffffffffffffffffffffffff1681565b60405173ffffffffffffffffffffffffffffffffffffffff90911681526020016100c7565b6001546101189073ffffffffffffffffffffffffffffffffffffffff1681565b6100e361016b3660046117ba565b6104b3565b6000546101189073ffffffffffffffffffffffffffffffffffffffff1681565b6100e361019e366004611a88565b610651565b6100e36101b1366004611b10565b6106f6565b60007fffffffff0000000000000000000000000000000000000000000000000000000082167f01ffc9a700000000000000000000000000000000000000000000000000000000148061024957507fffffffff0000000000000000000000000000000000000000000000000000000082167f17d8f49b00000000000000000000000000000000000000000000000000000000145b92915050565b6001546040517f02571be30000000000000000000000000000000000000000000000000000000081526000600482018190529173ffffffffffffffffffffffffffffffffffffffff16906302571be390602401602060405180830381865afa1580156102bf573d6000803e3d6000fd5b505050506040513d601f19601f820116820180604052508101906102e39190611b74565b905060008173ffffffffffffffffffffffffffffffffffffffff16638da5cb5b6040518163ffffffff1660e01b8152600401602060405180830381865afa158015610332573d6000803e3d6000fd5b505050506040513d601f19601f820116820180604052508101906103569190611b74565b90503373ffffffffffffffffffffffffffffffffffffffff82161461037a57600080fd5b600280547fffffffffffffffffffffffff00000000000000000000000000000000000000001673ffffffffffffffffffffffffffffffffffffffff85169081179091556040519081527f9176b7f47e4504df5e5516c99d90d82ac7cbd49cc77e7f22ba2ac2f2e3a3eba8906020015b60405180910390a1505050565b6000546040517f435cc16200000000000000000000000000000000000000000000000000000000815273ffffffffffffffffffffffffffffffffffffffff9091169063435cc1629061044e9087908790600401611be9565b6000604051808303816000875af115801561046d573d6000803e3d6000fd5b505050506040513d6000823e601f3d908101601f191682016040526104959190810190611ca0565b925060008060006104a688876107bb565b5050505050505050505050565b6001546040517f02571be30000000000000000000000000000000000000000000000000000000081526000600482018190529173ffffffffffffffffffffffffffffffffffffffff16906302571be390602401602060405180830381865afa158015610523573d6000803e3d6000fd5b505050506040513d601f19601f820116820180604052508101906105479190611b74565b905060008173ffffffffffffffffffffffffffffffffffffffff16638da5cb5b6040518163ffffffff1660e01b8152600401602060405180830381865afa158015610596573d6000803e3d6000fd5b505050506040513d601f19601f820116820180604052508101906105ba9190611b74565b90503373ffffffffffffffffffffffffffffffffffffffff8216146105de57600080fd5b600080547fffffffffffffffffffffffff00000000000000000000000000000000000000001673ffffffffffffffffffffffffffffffffffffffff85169081179091556040519081527fb3eacd0e351fafdfefdec84e1cd19679b38dbcd63ea7c2c24da17fd2bc3b3c0e906020016103e9565b6000546040517f435cc16200000000000000000000000000000000000000000000000000000000815273ffffffffffffffffffffffffffffffffffffffff9091169063435cc162906106a99085908590600401611be9565b6000604051808303816000875af11580156106c8573d6000803e3d6000fd5b505050506040513d6000823e601f3d908101601f191682016040526106f09190810190611ca0565b50505050565b600080600061070585856107bb565b6001546040517f06ab5923000000000000000000000000000000000000000000000000000000008152600481018590526024810184905273ffffffffffffffffffffffffffffffffffffffff808416604483015294975092955090935091909116906306ab5923906064016020604051808303816000875af115801561078f573d6000803e3d6000fd5b505050506040513d601f19601f820116820180604052508101906107b39190611d17565b505050505050565b60008080806107ca86826109ef565b60ff1690506107db86600183610a13565b9250600061080e6107ed836001611d5f565b6001848a516107fc9190611d77565b6108069190611d77565b899190610a37565b6002546040517f4f89059e00000000000000000000000000000000000000000000000000000000815291925073ffffffffffffffffffffffffffffffffffffffff1690634f89059e90610865908490600401611d8e565b602060405180830381865afa158015610882573d6000803e3d6000fd5b505050506040513d601f19601f820116820180604052508101906108a69190611da1565b610937576040517f08c379a000000000000000000000000000000000000000000000000000000000815260206004820152602360248201527f506172656e74206e616d65206d7573742062652061207075626c69632073756660448201527f666978000000000000000000000000000000000000000000000000000000000060648201526084015b60405180910390fd5b610942816000610ab9565b6000549095506109699073ffffffffffffffffffffffffffffffffffffffff168888610e96565b50604080516020810188905290810186905290935073ffffffffffffffffffffffffffffffffffffffff841690606001604051602081830303815290604052805190602001207fa2e66ce20e6fb2c4f61339c364ad79f15160cf5307230c8bc4d628adbca2ba39896040516109de9190611d8e565b60405180910390a350509250925092565b6000828281518110610a0357610a03611dc3565b016020015160f81c905092915050565b8251600090610a228385611d5f565b1115610a2d57600080fd5b5091016020012090565b8251606090610a468385611d5f565b1115610a5157600080fd5b60008267ffffffffffffffff811115610a6c57610a6c6117d7565b6040519080825280601f01601f191660200182016040528015610a96576020820181803683370190505b50905060208082019086860101610aae828287611146565b509095945050505050565b600080610ac684846109ef565b60ff16905080600003610add575060009050610249565b6000610afd85610aed8487611d5f565b610af8906001611d5f565b610ab9565b90506000610b17610b0f866001611d5f565b879085610a13565b604080516020810185905290810182905290915060600160408051808303601f190181529082905280516020909101206001547f02571be30000000000000000000000000000000000000000000000000000000083526004830182905290955060009173ffffffffffffffffffffffffffffffffffffffff909116906302571be390602401602060405180830381865afa158015610bb9573d6000803e3d6000fd5b505050506040513d601f19601f82011682018060405250810190610bdd9190611b74565b905073ffffffffffffffffffffffffffffffffffffffff81161580610c17575073ffffffffffffffffffffffffffffffffffffffff811630145b610ca3576040517f08c379a000000000000000000000000000000000000000000000000000000000815260206004820152602a60248201527f43616e6e6f7420656e61626c652061206e616d65206f776e656420627920736f60448201527f6d656f6e6520656c736500000000000000000000000000000000000000000000606482015260840161092e565b73ffffffffffffffffffffffffffffffffffffffff81163014610e8c5782610de8576001546040517f02571be30000000000000000000000000000000000000000000000000000000081526000600482018190529173ffffffffffffffffffffffffffffffffffffffff16906302571be390602401602060405180830381865afa158015610d35573d6000803e3d6000fd5b505050506040513d601f19601f82011682018060405250810190610d599190611b74565b6040517f8cb8ecec0000000000000000000000000000000000000000000000000000000081526004810185905230602482015290915073ffffffffffffffffffffffffffffffffffffffff821690638cb8ecec90604401600060405180830381600087803b158015610dca57600080fd5b505af1158015610dde573d6000803e3d6000fd5b5050505050610e8c565b6001546040517f06ab5923000000000000000000000000000000000000000000000000000000008152600481018590526024810184905230604482015273ffffffffffffffffffffffffffffffffffffffff909116906306ab5923906064016020604051808303816000875af1158015610e66573d6000803e3d6000fd5b505050506040513d601f19601f82011682018060405250810190610e8a9190611d17565b505b5050505092915050565b600080610eb6604051806040016040528060608152602001600081525090565b610ece85516005610ec79190611d5f565b82906111ba565b5060408051808201909152600581527f045f656e730000000000000000000000000000000000000000000000000000006020820152610f0e90829061121f565b50610f19818661121f565b5080516040517f087991bc000000000000000000000000000000000000000000000000000000008152600091829173ffffffffffffffffffffffffffffffffffffffff8a169163087991bc91610f7491601091600401611df2565b606060405180830381865afa158015610f91573d6000803e3d6000fd5b505050506040513d601f19601f82011682018060405250810190610fb59190611e28565b93509150507fffffffffffffffffffffffffffffffffffffffff0000000000000000000000008216158015610fe957508551155b15610ffd576000809450945050505061113e565b855160208701207fffffffffffffffffffffffffffffffffffffffff00000000000000000000000083811691161461103457600080fd5b6000611040878261124d565b90505b805151602082015110156111325761106a8160800151836110649190611e94565b426112ae565b6110f6576040517f08c379a000000000000000000000000000000000000000000000000000000000815260206004820152603c60248201527f444e53207265636f7264206973207374616c653b2072656672657368206f722060448201527f64656c657465206974206265666f72652070726f63656564696e672e00000000606482015260840161092e565b600080611107898460a001516112c7565b9250905081156111225796506001955061113e945050505050565b505061112d8161133a565b611043565b50600080945094505050505b935093915050565b6020811061117e578151835261115d602084611d5f565b925061116a602083611d5f565b9150611177602082611d77565b9050611146565b905182516020929092036101000a7fffffffffffffffffffffffffffffffffffffffffffffffffffffffffffffffff0180199091169116179052565b6040805180820190915260608152600060208201526111da602083611ebc565b15611202576111ea602083611ebc565b6111f5906020611d77565b6111ff9083611d5f565b91505b506020828101829052604080518085526000815290920101905290565b60408051808201909152606081526000602082015261124683846000015151848551611422565b9392505050565b61129b6040518060e001604052806060815260200160008152602001600061ffff168152602001600061ffff168152602001600063ffffffff16815260200160008152602001600081525090565b82815260c081018290526102498161133a565b6000806112bb8385611ef7565b60030b12159392505050565b6000805b835183101561132c5760006112e085856109ef565b60ff1690506112f0600185611d5f565b935060008061130087878561152a565b92509050811561131857935060019250611333915050565b6113228387611d5f565b95505050506112cb565b5060009050805b9250929050565b60c081015160208201819052815151116113515750565b600061136582600001518360200151611586565b82602001516113749190611d5f565b825190915061138390826115e8565b61ffff166040830152611397600282611d5f565b82519091506113a690826115e8565b61ffff1660608301526113ba600282611d5f565b82519091506113c99082611610565b63ffffffff1660808301526113df600482611d5f565b82519091506000906113f190836115e8565b61ffff169050611402600283611d5f565b60a0840181905291506114158183611d5f565b60c0909301929092525050565b604080518082019091526060815260006020820152825182111561144557600080fd5b60208501516114548386611d5f565b11156114875761148785611477876020015187866114729190611d5f565b61163a565b611482906002611f5c565b611651565b6000808651805187602083010193508088870111156114a65787860182525b505050602084015b602084106114e657805182526114c5602083611d5f565b91506114d2602082611d5f565b90506114df602085611d77565b93506114ae565b5181517fffffffffffffffffffffffffffffffffffffffffffffffffffffffffffffffff60208690036101000a019081169019919091161790525083949350505050565b6000806115378585611610565b63ffffffff1663613d3078146115525750600090508061113e565b602c8310156115665750600090508061113e565b61157a85611575866004611d5f565b611668565b91509150935093915050565b6000815b8351811061159a5761159a611f99565b60006115a685836109ef565b60ff1690506115b6816001611d5f565b6115c09083611d5f565b9150806000036115d057506115d6565b5061158a565b6115e08382611d77565b949350505050565b81516000906115f8836002611d5f565b111561160357600080fd5b50016002015161ffff1690565b8151600090611620836004611d5f565b111561162b57600080fd5b50016004015163ffffffff1690565b60008183111561164b575081610249565b50919050565b815161165d83836111ba565b506106f0838261121f565b600080602883855161167a9190611d77565b101561168b57506000905080611333565b6000835b61169a856028611d5f565b8110156117475760049190911b9060006116b487836109ef565b60ff169050603081101580156116ca5750603a81105b156116e3576116da603082611d77565b83179250611734565b604181101580156116f45750604781105b15611704576116da603782611d77565b606181101580156117155750606781105b15611725576116da605782611d77565b60008094509450505050611333565b508061173f81611fc8565b91505061168f565b50946001945092505050565b60006020828403121561176557600080fd5b81357fffffffff000000000000000000000000000000000000000000000000000000008116811461124657600080fd5b73ffffffffffffffffffffffffffffffffffffffff811681146117b757600080fd5b50565b6000602082840312156117cc57600080fd5b813561124681611795565b7f4e487b7100000000000000000000000000000000000000000000000000000000600052604160045260246000fd5b6040805190810167ffffffffffffffff81118282101715611829576118296117d7565b60405290565b604051601f8201601f1916810167ffffffffffffffff81118282101715611858576118586117d7565b604052919050565b600067ffffffffffffffff82111561187a5761187a6117d7565b50601f01601f191660200190565b600082601f83011261189957600080fd5b81356118ac6118a782611860565b61182f565b8181528460208386010111156118c157600080fd5b816020850160208301376000918101602001919091529392505050565b600082601f8301126118ef57600080fd5b8135602067ffffffffffffffff8083111561190c5761190c6117d7565b8260051b61191b83820161182f565b938452858101830193838101908886111561193557600080fd5b84880192505b858310156119cc578235848111156119535760008081fd5b88016040818b03601f190181131561196b5760008081fd5b611973611806565b87830135878111156119855760008081fd5b6119938d8a83870101611888565b8252509082013590868211156119a95760008081fd5b6119b78c8984860101611888565b8189015284525050918401919084019061193b565b98975050505050505050565b600080600080600060a086880312156119f057600080fd5b853567ffffffffffffffff80821115611a0857600080fd5b611a1489838a01611888565b96506020880135915080821115611a2a57600080fd5b611a3689838a016118de565b95506040880135915080821115611a4c57600080fd5b50611a5988828901611888565b9350506060860135611a6a81611795565b91506080860135611a7a81611795565b809150509295509295909350565b600080600060608486031215611a9d57600080fd5b833567ffffffffffffffff80821115611ab557600080fd5b611ac187838801611888565b94506020860135915080821115611ad757600080fd5b611ae3878388016118de565b93506040860135915080821115611af957600080fd5b50611b0686828701611888565b9150509250925092565b60008060408385031215611b2357600080fd5b823567ffffffffffffffff80821115611b3b57600080fd5b611b4786838701611888565b93506020850135915080821115611b5d57600080fd5b50611b6a85828601611888565b9150509250929050565b600060208284031215611b8657600080fd5b815161124681611795565b60005b83811015611bac578181015183820152602001611b94565b838111156106f05750506000910152565b60008151808452611bd5816020860160208601611b91565b601f01601f19169290920160200192915050565b6000604080830181845280865180835260608601915060608160051b8701019250602080890160005b83811015611c80577fffffffffffffffffffffffffffffffffffffffffffffffffffffffffffffffa089870301855281518051888852611c5489890182611bbd565b9185015188830389870152919050611c6c8183611bbd565b975050509382019390820190600101611c12565b505086840381880152505050611c968186611bbd565b9695505050505050565b600060208284031215611cb257600080fd5b815167ffffffffffffffff811115611cc957600080fd5b8201601f81018413611cda57600080fd5b8051611ce86118a782611860565b818152856020838501011115611cfd57600080fd5b611d0e826020830160208601611b91565b95945050505050565b600060208284031215611d2957600080fd5b5051919050565b7f4e487b7100000000000000000000000000000000000000000000000000000000600052601160045260246000fd5b60008219821115611d7257611d72611d30565b500190565b600082821015611d8957611d89611d30565b500390565b6020815260006112466020830184611bbd565b600060208284031215611db357600080fd5b8151801515811461124657600080fd5b7f4e487b7100000000000000000000000000000000000000000000000000000000600052603260045260246000fd5b61ffff831681526040602082015260006115e06040830184611bbd565b805163ffffffff81168114611e2357600080fd5b919050565b600080600060608486031215611e3d57600080fd5b611e4684611e0f565b9250611e5460208501611e0f565b915060408401517fffffffffffffffffffffffffffffffffffffffff00000000000000000000000081168114611e8957600080fd5b809150509250925092565b600063ffffffff808316818516808303821115611eb357611eb3611d30565b01949350505050565b600082611ef2577f4e487b7100000000000000000000000000000000000000000000000000000000600052601260045260246000fd5b500690565b60008160030b8360030b60008112817fffffffffffffffffffffffffffffffffffffffffffffffffffffffff8000000001831281151615611f3a57611f3a611d30565b81637fffffff018313811615611f5257611f52611d30565b5090039392505050565b6000817fffffffffffffffffffffffffffffffffffffffffffffffffffffffffffffffff0483118215151615611f9457611f94611d30565b500290565b7f4e487b7100000000000000000000000000000000000000000000000000000000600052600160045260246000fd5b60007fffffffffffffffffffffffffffffffffffffffffffffffffffffffffffffffff8203611ff957611ff9611d30565b506001019056fea2646970667358221220c284a44b55941a4e7a28f55c43389da602e57aba768fa475e8300d594a66844e64736f6c634300080d0033",
  "linkReferences": {},
  "deployedLinkReferences": {}
}