{
  "_format": "hh-sol-artifact-1",
  "contractName": "DNSRegistrar",
  "sourceName": "contracts/dnsregistrar/DNSRegistrar.sol",
  "abi": [
    {
      "inputs": [
        {
          "internalType": "contract DNSSEC",
          "name": "_dnssec",
          "type": "address"
        },
        {
          "internalType": "contract PublicSuffixList",
          "name": "_suffixes",
          "type": "address"
        },
        {
          "internalType": "contract ENS",
          "name": "_ens",
          "type": "address"
        }
      ],
      "stateMutability": "nonpayable",
      "type": "constructor"
    },
    {
      "anonymous": false,
      "inputs": [
        {
          "indexed": true,
          "internalType": "bytes32",
          "name": "node",
          "type": "bytes32"
        },
        {
          "indexed": true,
          "internalType": "address",
          "name": "owner",
          "type": "address"
        },
        {
          "indexed": false,
          "internalType": "bytes",
          "name": "dnsname",
          "type": "bytes"
        }
      ],
      "name": "Claim",
      "type": "event"
    },
    {
      "anonymous": false,
      "inputs": [
        {
          "indexed": false,
          "internalType": "address",
          "name": "oracle",
          "type": "address"
        }
      ],
      "name": "NewOracle",
      "type": "event"
    },
    {
      "anonymous": false,
      "inputs": [
        {
          "indexed": false,
          "internalType": "address",
          "name": "suffixes",
          "type": "address"
        }
      ],
      "name": "NewPublicSuffixList",
      "type": "event"
    },
    {
      "inputs": [
        {
          "internalType": "bytes",
          "name": "name",
          "type": "bytes"
        },
        {
          "internalType": "bytes",
          "name": "proof",
          "type": "bytes"
        }
      ],
      "name": "claim",
      "outputs": [],
      "stateMutability": "nonpayable",
      "type": "function"
    },
    {
      "inputs": [],
      "name": "ens",
      "outputs": [
        {
          "internalType": "contract ENS",
          "name": "",
          "type": "address"
        }
      ],
      "stateMutability": "view",
      "type": "function"
    },
    {
      "inputs": [],
      "name": "oracle",
      "outputs": [
        {
          "internalType": "contract DNSSEC",
          "name": "",
          "type": "address"
        }
      ],
      "stateMutability": "view",
      "type": "function"
    },
    {
      "inputs": [
        {
          "internalType": "bytes",
          "name": "name",
          "type": "bytes"
        },
        {
          "components": [
            {
              "internalType": "bytes",
              "name": "rrset",
              "type": "bytes"
            },
            {
              "internalType": "bytes",
              "name": "sig",
              "type": "bytes"
            }
          ],
          "internalType": "struct DNSSEC.RRSetWithSignature[]",
          "name": "input",
          "type": "tuple[]"
        },
        {
          "internalType": "bytes",
          "name": "proof",
          "type": "bytes"
        }
      ],
      "name": "proveAndClaim",
      "outputs": [],
      "stateMutability": "nonpayable",
      "type": "function"
    },
    {
      "inputs": [
        {
          "internalType": "bytes",
          "name": "name",
          "type": "bytes"
        },
        {
          "components": [
            {
              "internalType": "bytes",
              "name": "rrset",
              "type": "bytes"
            },
            {
              "internalType": "bytes",
              "name": "sig",
              "type": "bytes"
            }
          ],
          "internalType": "struct DNSSEC.RRSetWithSignature[]",
          "name": "input",
          "type": "tuple[]"
        },
        {
          "internalType": "bytes",
          "name": "proof",
          "type": "bytes"
        },
        {
          "internalType": "address",
          "name": "resolver",
          "type": "address"
        },
        {
          "internalType": "address",
          "name": "addr",
          "type": "address"
        }
      ],
      "name": "proveAndClaimWithResolver",
      "outputs": [],
      "stateMutability": "nonpayable",
      "type": "function"
    },
    {
      "inputs": [
        {
          "internalType": "contract DNSSEC",
          "name": "_dnssec",
          "type": "address"
        }
      ],
      "name": "setOracle",
      "outputs": [],
      "stateMutability": "nonpayable",
      "type": "function"
    },
    {
      "inputs": [
        {
          "internalType": "contract PublicSuffixList",
          "name": "_suffixes",
          "type": "address"
        }
      ],
      "name": "setPublicSuffixList",
      "outputs": [],
      "stateMutability": "nonpayable",
      "type": "function"
    },
    {
      "inputs": [],
      "name": "suffixes",
      "outputs": [
        {
          "internalType": "contract PublicSuffixList",
          "name": "",
          "type": "address"
        }
      ],
      "stateMutability": "view",
      "type": "function"
    },
    {
      "inputs": [
        {
          "internalType": "bytes4",
          "name": "interfaceID",
          "type": "bytes4"
        }
      ],
      "name": "supportsInterface",
      "outputs": [
        {
          "internalType": "bool",
          "name": "",
          "type": "bool"
        }
      ],
      "stateMutability": "pure",
      "type": "function"
    }
  ],
  "bytecode": "0x60806040523480156200001157600080fd5b50604051620025bf380380620025bf833981016040819052620000349162000118565b600080546001600160a01b0319166001600160a01b0385169081179091556040519081527fb3eacd0e351fafdfefdec84e1cd19679b38dbcd63ea7c2c24da17fd2bc3b3c0e9060200160405180910390a1600280546001600160a01b0319166001600160a01b0384169081179091556040519081527f9176b7f47e4504df5e5516c99d90d82ac7cbd49cc77e7f22ba2ac2f2e3a3eba89060200160405180910390a1600180546001600160a01b0319166001600160a01b0392909216919091179055506200016c9050565b6001600160a01b03811681146200011557600080fd5b50565b6000806000606084860312156200012e57600080fd5b83516200013b81620000ff565b60208501519093506200014e81620000ff565b60408501519092506200016181620000ff565b809150509250925092565b612443806200017c6000396000f3fe608060405234801561001057600080fd5b50600436106100a35760003560e01c80633f15457f116100765780637dc0d1d01161005b5780637dc0d1d0146101705780638bbedf7514610190578063be27b22c146101a357600080fd5b80633f15457f1461013d5780637adbf9731461015d57600080fd5b806301ffc9a7146100a85780631ecfc411146100d0578063224199c2146100e557806330349ebe146100f8575b600080fd5b6100bb6100b6366004611b60565b6101b6565b60405190151581526020015b60405180910390f35b6100e36100de366004611bc7565b61024f565b005b6100e36100f3366004611de5565b6103f6565b6002546101189073ffffffffffffffffffffffffffffffffffffffff1681565b60405173ffffffffffffffffffffffffffffffffffffffff90911681526020016100c7565b6001546101189073ffffffffffffffffffffffffffffffffffffffff1681565b6100e361016b366004611bc7565b6108b4565b6000546101189073ffffffffffffffffffffffffffffffffffffffff1681565b6100e361019e366004611e95565b610a52565b6100e36101b1366004611f1d565b610b02565b60007fffffffff0000000000000000000000000000000000000000000000000000000082167f01ffc9a700000000000000000000000000000000000000000000000000000000148061024957507fffffffff0000000000000000000000000000000000000000000000000000000082167f17d8f49b00000000000000000000000000000000000000000000000000000000145b92915050565b6001546040517f02571be30000000000000000000000000000000000000000000000000000000081526000600482018190529173ffffffffffffffffffffffffffffffffffffffff16906302571be390602401602060405180830381865afa1580156102bf573d6000803e3d6000fd5b505050506040513d601f19601f820116820180604052508101906102e39190611f81565b905060008173ffffffffffffffffffffffffffffffffffffffff16638da5cb5b6040518163ffffffff1660e01b8152600401602060405180830381865afa158015610332573d6000803e3d6000fd5b505050506040513d601f19601f820116820180604052508101906103569190611f81565b90503373ffffffffffffffffffffffffffffffffffffffff82161461037a57600080fd5b600280547fffffffffffffffffffffffff00000000000000000000000000000000000000001673ffffffffffffffffffffffffffffffffffffffff85169081179091556040519081527f9176b7f47e4504df5e5516c99d90d82ac7cbd49cc77e7f22ba2ac2f2e3a3eba8906020015b60405180910390a1505050565b6000546040517f435cc16200000000000000000000000000000000000000000000000000000000815273ffffffffffffffffffffffffffffffffffffffff9091169063435cc1629061044e9087908790600401611ff6565b6000604051808303816000875af115801561046d573d6000803e3d6000fd5b505050506040513d6000823e601f3d908101601f1916820160405261049591908101906120ad565b925060008060006104a68887610bc7565b919450925090503373ffffffffffffffffffffffffffffffffffffffff821614610557576040517f08c379a000000000000000000000000000000000000000000000000000000000815260206004820152602d60248201527f4f6e6c79206f776e65722063616e2063616c6c2070726f7665416e64436c616960448201527f6d576974685265736f6c7665720000000000000000000000000000000000000060648201526084015b60405180910390fd5b73ffffffffffffffffffffffffffffffffffffffff8416156108075773ffffffffffffffffffffffffffffffffffffffff8516610616576040517f08c379a000000000000000000000000000000000000000000000000000000000815260206004820152602660248201527f43616e6e6f74207365742061646472206966207265736f6c766572206973206e60448201527f6f74207365740000000000000000000000000000000000000000000000000000606482015260840161054e565b6001546040517f5ef2c7f0000000000000000000000000000000000000000000000000000000008152600481018590526024810184905230604482015273ffffffffffffffffffffffffffffffffffffffff87811660648301526000608483015290911690635ef2c7f09060a401600060405180830381600087803b15801561069e57600080fd5b505af11580156106b2573d6000803e3d6000fd5b50505050600083836040516020016106d4929190918252602082015260400190565b60408051808303601f190181529082905280516020909101207fd5fa2b000000000000000000000000000000000000000000000000000000000082526004820181905273ffffffffffffffffffffffffffffffffffffffff878116602484015290925087169063d5fa2b0090604401600060405180830381600087803b15801561075d57600080fd5b505af1158015610771573d6000803e3d6000fd5b50506001546040517f5b0fc9c30000000000000000000000000000000000000000000000000000000081526004810185905273ffffffffffffffffffffffffffffffffffffffff86811660248301529091169250635b0fc9c39150604401600060405180830381600087803b1580156107e957600080fd5b505af11580156107fd573d6000803e3d6000fd5b50505050506108aa565b6001546040517f5ef2c7f0000000000000000000000000000000000000000000000000000000008152600481018590526024810184905273ffffffffffffffffffffffffffffffffffffffff838116604483015287811660648301526000608483015290911690635ef2c7f09060a401600060405180830381600087803b15801561089157600080fd5b505af11580156108a5573d6000803e3d6000fd5b505050505b5050505050505050565b6001546040517f02571be30000000000000000000000000000000000000000000000000000000081526000600482018190529173ffffffffffffffffffffffffffffffffffffffff16906302571be390602401602060405180830381865afa158015610924573d6000803e3d6000fd5b505050506040513d601f19601f820116820180604052508101906109489190611f81565b905060008173ffffffffffffffffffffffffffffffffffffffff16638da5cb5b6040518163ffffffff1660e01b8152600401602060405180830381865afa158015610997573d6000803e3d6000fd5b505050506040513d601f19601f820116820180604052508101906109bb9190611f81565b90503373ffffffffffffffffffffffffffffffffffffffff8216146109df57600080fd5b600080547fffffffffffffffffffffffff00000000000000000000000000000000000000001673ffffffffffffffffffffffffffffffffffffffff85169081179091556040519081527fb3eacd0e351fafdfefdec84e1cd19679b38dbcd63ea7c2c24da17fd2bc3b3c0e906020016103e9565b6000546040517f435cc16200000000000000000000000000000000000000000000000000000000815273ffffffffffffffffffffffffffffffffffffffff9091169063435cc16290610aaa9085908590600401611ff6565b6000604051808303816000875af1158015610ac9573d6000803e3d6000fd5b505050506040513d6000823e601f3d908101601f19168201604052610af191908101906120ad565b9050610afd8382610b02565b505050565b6000806000610b118585610bc7565b6001546040517f06ab5923000000000000000000000000000000000000000000000000000000008152600481018590526024810184905273ffffffffffffffffffffffffffffffffffffffff808416604483015294975092955090935091909116906306ab5923906064016020604051808303816000875af1158015610b9b573d6000803e3d6000fd5b505050506040513d601f19601f82011682018060405250810190610bbf9190612124565b505050505050565b6000808080610bd68682610df6565b60ff169050610be786600183610e1a565b92506000610c1a610bf983600161216c565b6001848a51610c089190612184565b610c129190612184565b899190610e3e565b6002546040517f4f89059e00000000000000000000000000000000000000000000000000000000815291925073ffffffffffffffffffffffffffffffffffffffff1690634f89059e90610c7190849060040161219b565b602060405180830381865afa158015610c8e573d6000803e3d6000fd5b505050506040513d601f19601f82011682018060405250810190610cb291906121ae565b610d3e576040517f08c379a000000000000000000000000000000000000000000000000000000000815260206004820152602360248201527f506172656e74206e616d65206d7573742062652061207075626c69632073756660448201527f6669780000000000000000000000000000000000000000000000000000000000606482015260840161054e565b610d49816000610ec0565b600054909550610d709073ffffffffffffffffffffffffffffffffffffffff16888861129d565b50604080516020810188905290810186905290935073ffffffffffffffffffffffffffffffffffffffff841690606001604051602081830303815290604052805190602001207fa2e66ce20e6fb2c4f61339c364ad79f15160cf5307230c8bc4d628adbca2ba3989604051610de5919061219b565b60405180910390a350509250925092565b6000828281518110610e0a57610e0a6121d0565b016020015160f81c905092915050565b8251600090610e29838561216c565b1115610e3457600080fd5b5091016020012090565b8251606090610e4d838561216c565b1115610e5857600080fd5b60008267ffffffffffffffff811115610e7357610e73611be4565b6040519080825280601f01601f191660200182016040528015610e9d576020820181803683370190505b50905060208082019086860101610eb582828761154d565b509095945050505050565b600080610ecd8484610df6565b60ff16905080600003610ee4575060009050610249565b6000610f0485610ef4848761216c565b610eff90600161216c565b610ec0565b90506000610f1e610f1686600161216c565b879085610e1a565b604080516020810185905290810182905290915060600160408051808303601f190181529082905280516020909101206001547f02571be30000000000000000000000000000000000000000000000000000000083526004830182905290955060009173ffffffffffffffffffffffffffffffffffffffff909116906302571be390602401602060405180830381865afa158015610fc0573d6000803e3d6000fd5b505050506040513d601f19601f82011682018060405250810190610fe49190611f81565b905073ffffffffffffffffffffffffffffffffffffffff8116158061101e575073ffffffffffffffffffffffffffffffffffffffff811630145b6110aa576040517f08c379a000000000000000000000000000000000000000000000000000000000815260206004820152602a60248201527f43616e6e6f7420656e61626c652061206e616d65206f776e656420627920736f60448201527f6d656f6e6520656c736500000000000000000000000000000000000000000000606482015260840161054e565b73ffffffffffffffffffffffffffffffffffffffff8116301461129357826111ef576001546040517f02571be30000000000000000000000000000000000000000000000000000000081526000600482018190529173ffffffffffffffffffffffffffffffffffffffff16906302571be390602401602060405180830381865afa15801561113c573d6000803e3d6000fd5b505050506040513d601f19601f820116820180604052508101906111609190611f81565b6040517f8cb8ecec0000000000000000000000000000000000000000000000000000000081526004810185905230602482015290915073ffffffffffffffffffffffffffffffffffffffff821690638cb8ecec90604401600060405180830381600087803b1580156111d157600080fd5b505af11580156111e5573d6000803e3d6000fd5b5050505050611293565b6001546040517f06ab5923000000000000000000000000000000000000000000000000000000008152600481018590526024810184905230604482015273ffffffffffffffffffffffffffffffffffffffff909116906306ab5923906064016020604051808303816000875af115801561126d573d6000803e3d6000fd5b505050506040513d601f19601f820116820180604052508101906112919190612124565b505b5050505092915050565b6000806112bd604051806040016040528060608152602001600081525090565b6112d5855160056112ce919061216c565b82906115c1565b5060408051808201909152600581527f045f656e730000000000000000000000000000000000000000000000000000006020820152611315908290611626565b506113208186611626565b5080516040517f087991bc000000000000000000000000000000000000000000000000000000008152600091829173ffffffffffffffffffffffffffffffffffffffff8a169163087991bc9161137b916010916004016121ff565b606060405180830381865afa158015611398573d6000803e3d6000fd5b505050506040513d601f19601f820116820180604052508101906113bc9190612235565b93509150507fffffffffffffffffffffffffffffffffffffffff00000000000000000000000082161580156113f057508551155b156114045760008094509450505050611545565b855160208701207fffffffffffffffffffffffffffffffffffffffff00000000000000000000000083811691161461143b57600080fd5b60006114478782611654565b90505b805151602082015110156115395761147181608001518361146b91906122a1565b426116b5565b6114fd576040517f08c379a000000000000000000000000000000000000000000000000000000000815260206004820152603c60248201527f444e53207265636f7264206973207374616c653b2072656672657368206f722060448201527f64656c657465206974206265666f72652070726f63656564696e672e00000000606482015260840161054e565b60008061150e898460a001516116ce565b92509050811561152957965060019550611545945050505050565b505061153481611741565b61144a565b50600080945094505050505b935093915050565b60208110611585578151835261156460208461216c565b925061157160208361216c565b915061157e602082612184565b905061154d565b905182516020929092036101000a7fffffffffffffffffffffffffffffffffffffffffffffffffffffffffffffffff0180199091169116179052565b6040805180820190915260608152600060208201526115e16020836122c9565b15611609576115f16020836122c9565b6115fc906020612184565b611606908361216c565b91505b506020828101829052604080518085526000815290920101905290565b60408051808201909152606081526000602082015261164d83846000015151848551611829565b9392505050565b6116a26040518060e001604052806060815260200160008152602001600061ffff168152602001600061ffff168152602001600063ffffffff16815260200160008152602001600081525090565b82815260c0810182905261024981611741565b6000806116c28385612304565b60030b12159392505050565b6000805b83518310156117335760006116e78585610df6565b60ff1690506116f760018561216c565b9350600080611707878785611931565b92509050811561171f5793506001925061173a915050565b611729838761216c565b95505050506116d2565b5060009050805b9250929050565b60c081015160208201819052815151116117585750565b600061176c8260000151836020015161198d565b826020015161177b919061216c565b825190915061178a90826119ef565b61ffff16604083015261179e60028261216c565b82519091506117ad90826119ef565b61ffff1660608301526117c160028261216c565b82519091506117d09082611a17565b63ffffffff1660808301526117e660048261216c565b82519091506000906117f890836119ef565b61ffff16905061180960028361216c565b60a08401819052915061181c818361216c565b60c0909301929092525050565b604080518082019091526060815260006020820152825182111561184c57600080fd5b602085015161185b838661216c565b111561188e5761188e8561187e87602001518786611879919061216c565b611a41565b611889906002612369565b611a58565b6000808651805187602083010193508088870111156118ad5787860182525b505050602084015b602084106118ed57805182526118cc60208361216c565b91506118d960208261216c565b90506118e6602085612184565b93506118b5565b5181517fffffffffffffffffffffffffffffffffffffffffffffffffffffffffffffffff60208690036101000a019081169019919091161790525083949350505050565b60008061193e8585611a17565b63ffffffff1663613d30781461195957506000905080611545565b602c83101561196d57506000905080611545565b6119818561197c86600461216c565b611a75565b91509150935093915050565b6000815b835181106119a1576119a16123a6565b60006119ad8583610df6565b60ff1690506119bd81600161216c565b6119c7908361216c565b9150806000036119d757506119dd565b50611991565b6119e78382612184565b949350505050565b81516000906119ff83600261216c565b1115611a0a57600080fd5b50016002015161ffff1690565b8151600090611a2783600461216c565b1115611a3257600080fd5b50016004015163ffffffff1690565b600081831115611a52575081610249565b50919050565b8151611a6483836115c1565b50611a6f8382611626565b50505050565b6000806028838551611a879190612184565b1015611a985750600090508061173a565b6000835b611aa785602861216c565b811015611b545760049190911b906000611ac18783610df6565b60ff16905060308110158015611ad75750603a81105b15611af057611ae7603082612184565b83179250611b41565b60418110158015611b015750604781105b15611b1157611ae7603782612184565b60618110158015611b225750606781105b15611b3257611ae7605782612184565b6000809450945050505061173a565b5080611b4c816123d5565b915050611a9c565b50946001945092505050565b600060208284031215611b7257600080fd5b81357fffffffff000000000000000000000000000000000000000000000000000000008116811461164d57600080fd5b73ffffffffffffffffffffffffffffffffffffffff81168114611bc457600080fd5b50565b600060208284031215611bd957600080fd5b813561164d81611ba2565b7f4e487b7100000000000000000000000000000000000000000000000000000000600052604160045260246000fd5b6040805190810167ffffffffffffffff81118282101715611c3657611c36611be4565b60405290565b604051601f8201601f1916810167ffffffffffffffff81118282101715611c6557611c65611be4565b604052919050565b600067ffffffffffffffff821115611c8757611c87611be4565b50601f01601f191660200190565b600082601f830112611ca657600080fd5b8135611cb9611cb482611c6d565b611c3c565b818152846020838601011115611cce57600080fd5b816020850160208301376000918101602001919091529392505050565b600082601f830112611cfc57600080fd5b8135602067ffffffffffffffff80831115611d1957611d19611be4565b8260051b611d28838201611c3c565b9384528581018301938381019088861115611d4257600080fd5b84880192505b85831015611dd957823584811115611d605760008081fd5b88016040818b03601f1901811315611d785760008081fd5b611d80611c13565b8783013587811115611d925760008081fd5b611da08d8a83870101611c95565b825250908201359086821115611db65760008081fd5b611dc48c8984860101611c95565b81890152845250509184019190840190611d48565b98975050505050505050565b600080600080600060a08688031215611dfd57600080fd5b853567ffffffffffffffff80821115611e1557600080fd5b611e2189838a01611c95565b96506020880135915080821115611e3757600080fd5b611e4389838a01611ceb565b95506040880135915080821115611e5957600080fd5b50611e6688828901611c95565b9350506060860135611e7781611ba2565b91506080860135611e8781611ba2565b809150509295509295909350565b600080600060608486031215611eaa57600080fd5b833567ffffffffffffffff80821115611ec257600080fd5b611ece87838801611c95565b94506020860135915080821115611ee457600080fd5b611ef087838801611ceb565b93506040860135915080821115611f0657600080fd5b50611f1386828701611c95565b9150509250925092565b60008060408385031215611f3057600080fd5b823567ffffffffffffffff80821115611f4857600080fd5b611f5486838701611c95565b93506020850135915080821115611f6a57600080fd5b50611f7785828601611c95565b9150509250929050565b600060208284031215611f9357600080fd5b815161164d81611ba2565b60005b83811015611fb9578181015183820152602001611fa1565b83811115611a6f5750506000910152565b60008151808452611fe2816020860160208601611f9e565b601f01601f19169290920160200192915050565b6000604080830181845280865180835260608601915060608160051b8701019250602080890160005b8381101561208d577fffffffffffffffffffffffffffffffffffffffffffffffffffffffffffffffa08987030185528151805188885261206189890182611fca565b91850151888303898701529190506120798183611fca565b97505050938201939082019060010161201f565b5050868403818801525050506120a38186611fca565b9695505050505050565b6000602082840312156120bf57600080fd5b815167ffffffffffffffff8111156120d657600080fd5b8201601f810184136120e757600080fd5b80516120f5611cb482611c6d565b81815285602083850101111561210a57600080fd5b61211b826020830160208601611f9e565b95945050505050565b60006020828403121561213657600080fd5b5051919050565b7f4e487b7100000000000000000000000000000000000000000000000000000000600052601160045260246000fd5b6000821982111561217f5761217f61213d565b500190565b6000828210156121965761219661213d565b500390565b60208152600061164d6020830184611fca565b6000602082840312156121c057600080fd5b8151801515811461164d57600080fd5b7f4e487b7100000000000000000000000000000000000000000000000000000000600052603260045260246000fd5b61ffff831681526040602082015260006119e76040830184611fca565b805163ffffffff8116811461223057600080fd5b919050565b60008060006060848603121561224a57600080fd5b6122538461221c565b92506122616020850161221c565b915060408401517fffffffffffffffffffffffffffffffffffffffff0000000000000000000000008116811461229657600080fd5b809150509250925092565b600063ffffffff8083168185168083038211156122c0576122c061213d565b01949350505050565b6000826122ff577f4e487b7100000000000000000000000000000000000000000000000000000000600052601260045260246000fd5b500690565b60008160030b8360030b60008112817fffffffffffffffffffffffffffffffffffffffffffffffffffffffff80000000018312811516156123475761234761213d565b81637fffffff01831381161561235f5761235f61213d565b5090039392505050565b6000817fffffffffffffffffffffffffffffffffffffffffffffffffffffffffffffffff04831182151516156123a1576123a161213d565b500290565b7f4e487b7100000000000000000000000000000000000000000000000000000000600052600160045260246000fd5b60007fffffffffffffffffffffffffffffffffffffffffffffffffffffffffffffffff82036124065761240661213d565b506001019056fea2646970667358221220bfc319c1588763507670474080f28597550fafbb8b51b1caeec0c1d878701dd364736f6c634300080d0033",
  "linkReferences": {},
  "deployedLinkReferences": {}
}