{
  "_format": "hh-sol-artifact-1",
  "contractName": "DummyDnsRegistrarDNSSEC",
  "sourceName": "contracts/ethregistrar/mocks/DummyDNSSEC.sol",
  "abi": [
    {
      "inputs": [
        {
          "internalType": "uint16",
          "name": "dnstype",
          "type": "uint16"
        },
        {
          "internalType": "bytes",
          "name": "name",
          "type": "bytes"
        }
      ],
      "name": "rrdata",
      "outputs": [
        {
          "internalType": "uint32",
          "name": "",
          "type": "uint32"
        },
        {
          "internalType": "uint64",
          "name": "",
          "type": "uint64"
        },
        {
          "internalType": "bytes20",
          "name": "",
          "type": "bytes20"
        }
      ],
      "stateMutability": "view",
      "type": "function"
    },
    {
      "inputs": [
        {
          "internalType": "uint16",
          "name": "_expectedType",
          "type": "uint16"
        },
        {
          "internalType": "bytes",
          "name": "_expectedName",
          "type": "bytes"
        },
        {
          "internalType": "uint32",
          "name": "_inception",
          "type": "uint32"
        },
        {
          "internalType": "uint64",
          "name": "_inserted",
          "type": "uint64"
        },
        {
          "internalType": "bytes",
          "name": "_proof",
          "type": "bytes"
        }
      ],
      "name": "setData",
      "outputs": [],
      "stateMutability": "nonpayable",
      "type": "function"
    },
    {
      "inputs": [
        {
          "components": [
            {
              "internalType": "bytes",
              "name": "rrset",
              "type": "bytes"
            },
            {
              "internalType": "bytes",
              "name": "sig",
              "type": "bytes"
            }
          ],
          "internalType": "struct DNSSEC.RRSetWithSignature[]",
          "name": "input",
          "type": "tuple[]"
        },
        {
          "internalType": "bytes",
          "name": "",
          "type": "bytes"
        }
      ],
      "name": "submitRRSets",
      "outputs": [
        {
          "internalType": "bytes",
          "name": "",
          "type": "bytes"
        }
      ],
      "stateMutability": "nonpayable",
      "type": "function"
    }
  ],
  "bytecode": "0x608060405234801561001057600080fd5b50610755806100206000396000f3fe608060405234801561001057600080fd5b50600436106100415760003560e01c8063087991bc14610046578063435cc162146100ab5780638581a99c146100cb575b600080fd5b61005961005436600461037c565b6100e0565b6040805163ffffffff909416845267ffffffffffffffff90921660208401527fffffffffffffffffffffffffffffffffffffffff00000000000000000000000016908201526060015b60405180910390f35b6100be6100b9366004610413565b61015b565b6040516100a29190610588565b6100de6100d93660046105bb565b610191565b005b60008060008060008087876040516020016100fc929190610667565b60408051808303601f190181529181528151602092830120835290820192909252016000205463ffffffff811697640100000000820467ffffffffffffffff1697506c0100000000000000000000000090910460601b95509350505050565b6060836001855161016c91906106b2565b8151811061017c5761017c6106f0565b60200260200101516000015190509392505050565b600080600087876040516020016101a9929190610667565b60408051601f19818403018152918152815160209283012083529082019290925201600020805467ffffffffffffffff8516640100000000027fffffffffffffffffffffffffffffffffffffffff00000000000000000000000090911663ffffffff8716171781558251909150156102515781516020830120815460609190911c6c01000000000000000000000000026bffffffffffffffffffffffff909116178155610264565b80546bffffffffffffffffffffffff1681555b505050505050565b803561ffff8116811461027e57600080fd5b919050565b7f4e487b7100000000000000000000000000000000000000000000000000000000600052604160045260246000fd5b6040805190810167ffffffffffffffff811182821017156102d5576102d5610283565b60405290565b604051601f8201601f1916810167ffffffffffffffff8111828210171561030457610304610283565b604052919050565b600082601f83011261031d57600080fd5b813567ffffffffffffffff81111561033757610337610283565b61034a6020601f19601f840116016102db565b81815284602083860101111561035f57600080fd5b816020850160208301376000918101602001919091529392505050565b6000806040838503121561038f57600080fd5b6103988361026c565b9150602083013567ffffffffffffffff8111156103b457600080fd5b6103c08582860161030c565b9150509250929050565b60008083601f8401126103dc57600080fd5b50813567ffffffffffffffff8111156103f457600080fd5b60208301915083602082850101111561040c57600080fd5b9250929050565b60008060006040848603121561042857600080fd5b833567ffffffffffffffff8082111561044057600080fd5b818601915086601f83011261045457600080fd5b813560208282111561046857610468610283565b8160051b6104778282016102db565b928352848101820192828101908b85111561049157600080fd5b83870192505b84831015610527578235868111156104af5760008081fd5b87016040818e03601f190112156104c65760008081fd5b6104ce6102b2565b85820135888111156104e05760008081fd5b6104ee8f888386010161030c565b8252506040820135888111156105045760008081fd5b6105128f888386010161030c565b82880152508352509183019190830190610497565b985050508701359250508082111561053e57600080fd5b5061054b868287016103ca565b9497909650939450505050565b60005b8381101561057357818101518382015260200161055b565b83811115610582576000848401525b50505050565b60208152600082518060208401526105a7816040850160208701610558565b601f01601f19169190910160400192915050565b600080600080600060a086880312156105d357600080fd5b6105dc8661026c565b9450602086013567ffffffffffffffff808211156105f957600080fd5b61060589838a0161030c565b95506040880135915063ffffffff8216821461062057600080fd5b909350606087013590808216821461063757600080fd5b9092506080870135908082111561064d57600080fd5b5061065a8882890161030c565b9150509295509295909350565b7fffff0000000000000000000000000000000000000000000000000000000000008360f01b168152600082516106a4816002850160208701610558565b919091016002019392505050565b6000828210156106eb577f4e487b7100000000000000000000000000000000000000000000000000000000600052601160045260246000fd5b500390565b7f4e487b7100000000000000000000000000000000000000000000000000000000600052603260045260246000fdfea26469706673582212208f6a41eb91b2f101920fa5d2e588673cbe9fed0e11998f9c1f0d7b2ed099990e64736f6c634300080d0033",
  "linkReferences": {},
  "deployedLinkReferences": {}
}