{
  "_format": "hh-sol-artifact-1",
  "contractName": "SHA256Digest",
  "sourceName": "contracts/dnssec-oracle/digests/SHA256Digest.sol",
  "abi": [
    {
      "inputs": [
        {
          "internalType": "bytes",
          "name": "data",
          "type": "bytes"
        },
        {
          "internalType": "bytes",
          "name": "hash",
          "type": "bytes"
        }
      ],
      "name": "verify",
      "outputs": [
        {
          "internalType": "bool",
          "name": "",
          "type": "bool"
        }
      ],
      "stateMutability": "pure",
      "type": "function"
    }
  ],
  "bytecode": "0x608060405234801561001057600080fd5b506102de806100206000396000f3fe608060405234801561001057600080fd5b506004361061002b5760003560e01c8063f7e83aee14610030575b600080fd5b61004361003e3660046101d4565b610057565b604051901515815260200160405180910390f35b6000602082146100c7576040517f08c379a000000000000000000000000000000000000000000000000000000000815260206004820152601a60248201527f496e76616c6964207368613235362068617368206c656e677468000000000000604482015260640160405180910390fd5b61010b600084848080601f01602080910402602001604051908101604052809392919081815260200183838082843760009201919091525092939250506101679050565b6002868660405161011d929190610240565b602060405180830381855afa15801561013a573d6000803e3d6000fd5b5050506040513d601f19601f8201168201806040525081019061015d9190610250565b1495945050505050565b8151600090610177836020610269565b111561018257600080fd5b50016020015190565b60008083601f84011261019d57600080fd5b50813567ffffffffffffffff8111156101b557600080fd5b6020830191508360208285010111156101cd57600080fd5b9250929050565b600080600080604085870312156101ea57600080fd5b843567ffffffffffffffff8082111561020257600080fd5b61020e8883890161018b565b9096509450602087013591508082111561022757600080fd5b506102348782880161018b565b95989497509550505050565b8183823760009101908152919050565b60006020828403121561026257600080fd5b5051919050565b600082198211156102a3577f4e487b7100000000000000000000000000000000000000000000000000000000600052601160045260246000fd5b50019056fea26469706673582212202053cb4a911d8f1cc53d34d8dc48fc082b239bfd7a5dd3cb67105a572a67036f64736f6c634300080d0033",
  "linkReferences": {},
  "deployedLinkReferences": {}
}