{
  "contracts/ethregistrar/TestResolver.sol": {
    "TestResolver": {
      "abi": [
        {
          "inputs": [],
          "stateMutability": "nonpayable",
          "type": "constructor"
        },
        {
          "inputs": [
            {
              "internalType": "bytes32",
              "name": "node",
              "type": "bytes32"
            }
          ],
          "name": "addr",
          "outputs": [
            {
              "internalType": "address",
              "name": "",
              "type": "address"
            }
          ],
          "stateMutability": "view",
          "type": "function"
        },
        {
          "inputs": [
            {
              "internalType": "bytes32",
              "name": "node",
              "type": "bytes32"
            },
            {
              "internalType": "address",
              "name": "addr",
              "type": "address"
            }
          ],
          "name": "setAddr",
          "outputs": [],
          "stateMutability": "nonpayable",
          "type": "function"
        },
        {
          "inputs": [
            {
              "internalType": "bytes4",
              "name": "interfaceID",
              "type": "bytes4"
            }
          ],
          "name": "supportsInterface",
          "outputs": [
            {
              "internalType": "bool",
              "name": "",
              "type": "bool"
            }
          ],
          "stateMutability": "pure",
          "type": "function"
        }
      ],
      "devdoc": {
        "details": "A test resolver implementation",
        "kind": "dev",
        "methods": {},
        "version": 1
      },
      "evm": {
        "bytecode": {
          "linkReferences": {},
          "object": "608060405234801561001057600080fd5b506102a6806100206000396000f3fe608060405234801561001057600080fd5b50600436106100415760003560e01c806301ffc9a7146100465780633b3b57de1461006e578063d5fa2b00146100c9575b600080fd5b6100596100543660046101c5565b61012c565b60405190151581526020015b60405180910390f35b6100a461007c36600461020e565b60009081526020819052604090205473ffffffffffffffffffffffffffffffffffffffff1690565b60405173ffffffffffffffffffffffffffffffffffffffff9091168152602001610065565b61012a6100d7366004610227565b60009182526020829052604090912080547fffffffffffffffffffffffff00000000000000000000000000000000000000001673ffffffffffffffffffffffffffffffffffffffff909216919091179055565b005b60007f01ffc9a7000000000000000000000000000000000000000000000000000000007fffffffff00000000000000000000000000000000000000000000000000000000831614806101bf57507f3b3b57de000000000000000000000000000000000000000000000000000000007fffffffff000000000000000000000000000000000000000000000000000000008316145b92915050565b6000602082840312156101d757600080fd5b81357fffffffff000000000000000000000000000000000000000000000000000000008116811461020757600080fd5b9392505050565b60006020828403121561022057600080fd5b5035919050565b6000806040838503121561023a57600080fd5b82359150602083013573ffffffffffffffffffffffffffffffffffffffff8116811461026557600080fd5b80915050925092905056fea2646970667358221220545c25a9a58d30f72a0065733144704a72ec5de262499f04e204f64d1b29f4f464736f6c63430008110033",
          "opcodes": "PUSH1 0x80 PUSH1 0x40 MSTORE CALLVALUE DUP1 ISZERO PUSH2 0x10 JUMPI PUSH1 0x0 DUP1 REVERT JUMPDEST POP PUSH2 0x2A6 DUP1 PUSH2 0x20 PUSH1 0x0 CODECOPY PUSH1 0x0 RETURN INVALID PUSH1 0x80 PUSH1 0x40 MSTORE CALLVALUE DUP1 ISZERO PUSH2 0x10 JUMPI PUSH1 0x0 DUP1 REVERT JUMPDEST POP PUSH1 0x4 CALLDATASIZE LT PUSH2 0x41 JUMPI PUSH1 0x0 CALLDATALOAD PUSH1 0xE0 SHR DUP1 PUSH4 0x1FFC9A7 EQ PUSH2 0x46 JUMPI DUP1 PUSH4 0x3B3B57DE EQ PUSH2 0x6E JUMPI DUP1 PUSH4 0xD5FA2B00 EQ PUSH2 0xC9 JUMPI JUMPDEST PUSH1 0x0 DUP1 REVERT JUMPDEST PUSH2 0x59 PUSH2 0x54 CALLDATASIZE PUSH1 0x4 PUSH2 0x1C5 JUMP JUMPDEST PUSH2 0x12C JUMP JUMPDEST PUSH1 0x40 MLOAD SWAP1 ISZERO ISZERO DUP2 MSTORE PUSH1 0x20 ADD JUMPDEST PUSH1 0x40 MLOAD DUP1 SWAP2 SUB SWAP1 RETURN JUMPDEST PUSH2 0xA4 PUSH2 0x7C CALLDATASIZE PUSH1 0x4 PUSH2 0x20E JUMP JUMPDEST PUSH1 0x0 SWAP1 DUP2 MSTORE PUSH1 0x20 DUP2 SWAP1 MSTORE PUSH1 0x40 SWAP1 KECCAK256 SLOAD PUSH20 0xFFFFFFFFFFFFFFFFFFFFFFFFFFFFFFFFFFFFFFFF AND SWAP1 JUMP JUMPDEST PUSH1 0x40 MLOAD PUSH20 0xFFFFFFFFFFFFFFFFFFFFFFFFFFFFFFFFFFFFFFFF SWAP1 SWAP2 AND DUP2 MSTORE PUSH1 0x20 ADD PUSH2 0x65 JUMP JUMPDEST PUSH2 0x12A PUSH2 0xD7 CALLDATASIZE PUSH1 0x4 PUSH2 0x227 JUMP JUMPDEST PUSH1 0x0 SWAP2 DUP3 MSTORE PUSH1 0x20 DUP3 SWAP1 MSTORE PUSH1 0x40 SWAP1 SWAP2 KECCAK256 DUP1 SLOAD PUSH32 0xFFFFFFFFFFFFFFFFFFFFFFFF0000000000000000000000000000000000000000 AND PUSH20 0xFFFFFFFFFFFFFFFFFFFFFFFFFFFFFFFFFFFFFFFF SWAP1 SWAP3 AND SWAP2 SWAP1 SWAP2 OR SWAP1 SSTORE JUMP JUMPDEST STOP JUMPDEST PUSH1 0x0 PUSH32 0x1FFC9A700000000000000000000000000000000000000000000000000000000 PUSH32 0xFFFFFFFF00000000000000000000000000000000000000000000000000000000 DUP4 AND EQ DUP1 PUSH2 0x1BF JUMPI POP PUSH32 0x3B3B57DE00000000000000000000000000000000000000000000000000000000 PUSH32 0xFFFFFFFF00000000000000000000000000000000000000000000000000000000 DUP4 AND EQ JUMPDEST SWAP3 SWAP2 POP POP JUMP JUMPDEST PUSH1 0x0 PUSH1 0x20 DUP3 DUP5 SUB SLT ISZERO PUSH2 0x1D7 JUMPI PUSH1 0x0 DUP1 REVERT JUMPDEST DUP2 CALLDATALOAD PUSH32 0xFFFFFFFF00000000000000000000000000000000000000000000000000000000 DUP2 AND DUP2 EQ PUSH2 0x207 JUMPI PUSH1 0x0 DUP1 REVERT JUMPDEST SWAP4 SWAP3 POP POP POP JUMP JUMPDEST PUSH1 0x0 PUSH1 0x20 DUP3 DUP5 SUB SLT ISZERO PUSH2 0x220 JUMPI PUSH1 0x0 DUP1 REVERT JUMPDEST POP CALLDATALOAD SWAP2 SWAP1 POP JUMP JUMPDEST PUSH1 0x0 DUP1 PUSH1 0x40 DUP4 DUP6 SUB SLT ISZERO PUSH2 0x23A JUMPI PUSH1 0x0 DUP1 REVERT JUMPDEST DUP3 CALLDATALOAD SWAP2 POP PUSH1 0x20 DUP4 ADD CALLDATALOAD PUSH20 0xFFFFFFFFFFFFFFFFFFFFFFFFFFFFFFFFFFFFFFFF DUP2 AND DUP2 EQ PUSH2 0x265 JUMPI PUSH1 0x0 DUP1 REVERT JUMPDEST DUP1 SWAP2 POP POP SWAP3 POP SWAP3 SWAP1 POP JUMP INVALID LOG2 PUSH5 0x6970667358 0x22 SLT KECCAK256 SLOAD 0x5C 0x25 0xA9 0xA5 DUP14 ADDRESS 0xF7 0x2A STOP PUSH6 0x733144704A72 0xEC 0x5D 0xE2 PUSH3 0x499F04 0xE2 DIV 0xF6 0x4D SHL 0x29 DELEGATECALL DELEGATECALL PUSH5 0x736F6C6343 STOP ADDMOD GT STOP CALLER "
        },
        "gasEstimates": {
          "creation": {
            "codeDepositCost": "135600",
            "executionCost": "183",
            "totalCost": "135783"
          },
          "external": {
            "addr(bytes32)": "2456",
            "setAddr(bytes32,address)": "24607",
            "supportsInterface(bytes4)": "347"
          }
        },
        "methodIdentifiers": {
          "addr(bytes32)": "3b3b57de",
          "setAddr(bytes32,address)": "d5fa2b00",
          "supportsInterface(bytes4)": "01ffc9a7"
        }
      },
      "storageLayout": {
        "storage": [
          {
            "astId": 6,
            "contract": "contracts/ethregistrar/TestResolver.sol:TestResolver",
            "label": "addresses",
            "offset": 0,
            "slot": "0",
            "type": "t_mapping(t_bytes32,t_address)"
          }
        ],
        "types": {
          "t_address": {
            "encoding": "inplace",
            "label": "address",
            "numberOfBytes": "20"
          },
          "t_bytes32": {
            "encoding": "inplace",
            "label": "bytes32",
            "numberOfBytes": "32"
          },
          "t_mapping(t_bytes32,t_address)": {
            "encoding": "mapping",
            "key": "t_bytes32",
            "label": "mapping(bytes32 => address)",
            "numberOfBytes": "32",
            "value": "t_address"
          }
        }
      },
      "userdoc": {
        "kind": "user",
        "methods": {},
        "version": 1
      }
    }
  }
}