{
  "_format": "hh-sol-artifact-1",
  "contractName": "ERC20Recoverable",
  "sourceName": "contracts/utils/ERC20Recoverable.sol",
  "abi": [
    {
      "anonymous": false,
      "inputs": [
        {
          "indexed": true,
          "internalType": "address",
          "name": "previousOwner",
          "type": "address"
        },
        {
          "indexed": true,
          "internalType": "address",
          "name": "newOwner",
          "type": "address"
        }
      ],
      "name": "OwnershipTransferred",
      "type": "event"
    },
    {
      "inputs": [],
      "name": "owner",
      "outputs": [
        {
          "internalType": "address",
          "name": "",
          "type": "address"
        }
      ],
      "stateMutability": "view",
      "type": "function"
    },
    {
      "inputs": [
        {
          "internalType": "address",
          "name": "_token",
          "type": "address"
        },
        {
          "internalType": "address",
          "name": "_to",
          "type": "address"
        },
        {
          "internalType": "uint256",
          "name": "_amount",
          "type": "uint256"
        }
      ],
      "name": "recoverFunds",
      "outputs": [],
      "stateMutability": "nonpayable",
      "type": "function"
    },
    {
      "inputs": [],
      "name": "renounceOwnership",
      "outputs": [],
      "stateMutability": "nonpayable",
      "type": "function"
    },
    {
      "inputs": [
        {
          "internalType": "address",
          "name": "newOwner",
          "type": "address"
        }
      ],
      "name": "transferOwnership",
      "outputs": [],
      "stateMutability": "nonpayable",
      "type": "function"
    }
  ],
  "bytecode": "0x608060405234801561001057600080fd5b5061001a3361001f565b61006f565b600080546001600160a01b038381166001600160a01b0319831681178455604051919092169283917f8be0079c531659141344cd1fd0a4f28419497f9722a3daafe3b4186f6b6457e09190a35050565b6104e38061007e6000396000f3fe608060405234801561001057600080fd5b506004361061004c5760003560e01c80635d3590d514610051578063715018a6146100665780638da5cb5b1461006e578063f2fde38b1461009a575b600080fd5b61006461005f36600461042d565b6100ad565b005b6100646101d2565b6000546040805173ffffffffffffffffffffffffffffffffffffffff9092168252519081900360200190f35b6100646100a8366004610469565b61025f565b60005473ffffffffffffffffffffffffffffffffffffffff163314610133576040517f08c379a000000000000000000000000000000000000000000000000000000000815260206004820181905260248201527f4f776e61626c653a2063616c6c6572206973206e6f7420746865206f776e657260448201526064015b60405180910390fd5b6040517fa9059cbb00000000000000000000000000000000000000000000000000000000815273ffffffffffffffffffffffffffffffffffffffff83811660048301526024820183905284169063a9059cbb906044016020604051808303816000875af11580156101a8573d6000803e3d6000fd5b505050506040513d601f19601f820116820180604052508101906101cc919061048b565b50505050565b60005473ffffffffffffffffffffffffffffffffffffffff163314610253576040517f08c379a000000000000000000000000000000000000000000000000000000000815260206004820181905260248201527f4f776e61626c653a2063616c6c6572206973206e6f7420746865206f776e6572604482015260640161012a565b61025d600061038f565b565b60005473ffffffffffffffffffffffffffffffffffffffff1633146102e0576040517f08c379a000000000000000000000000000000000000000000000000000000000815260206004820181905260248201527f4f776e61626c653a2063616c6c6572206973206e6f7420746865206f776e6572604482015260640161012a565b73ffffffffffffffffffffffffffffffffffffffff8116610383576040517f08c379a000000000000000000000000000000000000000000000000000000000815260206004820152602660248201527f4f776e61626c653a206e6577206f776e657220697320746865207a65726f206160448201527f6464726573730000000000000000000000000000000000000000000000000000606482015260840161012a565b61038c8161038f565b50565b6000805473ffffffffffffffffffffffffffffffffffffffff8381167fffffffffffffffffffffffff0000000000000000000000000000000000000000831681178455604051919092169283917f8be0079c531659141344cd1fd0a4f28419497f9722a3daafe3b4186f6b6457e09190a35050565b803573ffffffffffffffffffffffffffffffffffffffff8116811461042857600080fd5b919050565b60008060006060848603121561044257600080fd5b61044b84610404565b925061045960208501610404565b9150604084013590509250925092565b60006020828403121561047b57600080fd5b61048482610404565b9392505050565b60006020828403121561049d57600080fd5b8151801515811461048457600080fdfea264697066735822122093d4f35441e149693692e6983a54fa4a9e5f7a5e0ab935d376c3074f965dc67764736f6c63430008110033",
  "linkReferences": {},
  "deployedLinkReferences": {}
}