{
  "_format": "hh-sol-artifact-1",
  "contractName": "TestRRUtils",
  "sourceName": "test/dnssec-oracle/TestRRUtils.sol",
  "abi": [
    {
      "inputs": [],
      "name": "testCompareNames",
      "outputs": [],
      "stateMutability": "pure",
      "type": "function"
    },
    {
      "inputs": [],
      "name": "testIterateRRs",
      "outputs": [],
      "stateMutability": "pure",
      "type": "function"
    },
    {
      "inputs": [],
      "name": "testKeyTag",
      "outputs": [],
      "stateMutability": "view",
      "type": "function"
    },
    {
      "inputs": [],
      "name": "testLabelCount",
      "outputs": [],
      "stateMutability": "pure",
      "type": "function"
    },
    {
      "inputs": [],
      "name": "testNameLength",
      "outputs": [],
      "stateMutability": "pure",
      "type": "function"
    },
    {
      "inputs": [],
      "name": "testSerialNumberGt",
      "outputs": [],
      "stateMutability": "pure",
      "type": "function"
    }
  ],
  "bytecode": "0x608060405234801561001057600080fd5b506123b6806100206000396000f3fe608060405234801561001057600080fd5b50600436106100725760003560e01c80639e4a090d116100505780639e4a090d14610091578063bb73daed14610099578063cc60617b146100a157600080fd5b80630250cf9a14610077578063706fc4de14610081578063976e62ac14610089575b600080fd5b61007f6100a9565b005b61007f610245565b61007f6105e0565b61007f610ef8565b61007f611115565b61007f6112ac565b6100d3600060405180604001604052806001815260200160008152506114cd90919063ffffffff16565b6001146101275760405162461bcd60e51b815260206004820152601460248201527f6e616d654c656e67746828272e2729203d3d203100000000000000000000000060448201526064015b60405180910390fd5b60408051808201909152600581527f036162630000000000000000000000000000000000000000000000000000000060208201526101669060046114cd565b6001146101b55760405162461bcd60e51b815260206004820152601460248201527f6e616d654c656e67746828272e2729203d3d2031000000000000000000000000604482015260640161011e565b60408051808201909152600581527f036162630000000000000000000000000000000000000000000000000000000060208201526101f49060006114cd565b6005146102435760405162461bcd60e51b815260206004820152601760248201527f6e616d654c656e67746828276162632e2729203d3d2035000000000000000000604482015260640161011e565b565b600060405180606001604052806024815260200161224c60249139604080516080808201835260038284019081527f016100000000000000000000000000000000000000000000000000000000000060608085019190915290835283518085018552600581527f0162016100000000000000000000000000000000000000000000000000000000602082810191909152808501919091528451928301855260048386018181527f74000001000000000000000000000000000000000000000000000000000000009385019390935291835284518086019095529084527fc0a80101000000000000000000000000000000000000000000000000000000008482015281019290925291925060008061035c8582611531565b90505b8051516020820151101561058957806040015161ffff166001146103c55760405162461bcd60e51b815260206004820152600c60248201527f54797065206d6174636865730000000000000000000000000000000000000000604482015260640161011e565b806060015161ffff1660011461041d5760405162461bcd60e51b815260206004820152600d60248201527f436c617373206d61746368657300000000000000000000000000000000000000604482015260640161011e565b806080015163ffffffff16610e10146104785760405162461bcd60e51b815260206004820152600b60248201527f54544c206d617463686573000000000000000000000000000000000000000000604482015260640161011e565b83826002811061048a5761048a611db8565b60200201518051906020012061049f82611592565b80519060200120146104f35760405162461bcd60e51b815260206004820152600c60248201527f4e616d65206d6174636865730000000000000000000000000000000000000000604482015260640161011e565b82826002811061050557610505611db8565b60200201518051906020012061051a826115b3565b805190602001201461056e5760405162461bcd60e51b815260206004820152600d60248201527f5264617461206d61746368657300000000000000000000000000000000000000604482015260640161011e565b8161057881611e16565b925050610584816115cf565b61035f565b50806002146105da5760405162461bcd60e51b815260206004820152601260248201527f45787065637465642032207265636f7264730000000000000000000000000000604482015260640161011e565b50505050565b60006040518060400160405280600c81526020017f066274686c61620378797a000000000000000000000000000000000000000000815250905060006040518060400160405280600c81526020017f066574686c61620378797a000000000000000000000000000000000000000000815250905060006040518060400160405280600581526020017f0378797a00000000000000000000000000000000000000000000000000000000815250905060006040518060400160405280600781526020017f0161016201630000000000000000000000000000000000000000000000000000815250905060006040518060400160405280600781526020017f0162016201630000000000000000000000000000000000000000000000000000815250905060006040518060400160405280600381526020017f0163000000000000000000000000000000000000000000000000000000000000815250905060006040518060400160405280600381526020017f0164000000000000000000000000000000000000000000000000000000000000815250905060006040518060400160405280600781526020017f0161016401630000000000000000000000000000000000000000000000000000815250905060006040518060400160405280600781526020017f0162016101630000000000000000000000000000000000000000000000000000815250905060006040518060400160405280600881526020017f0261620163016400000000000000000000000000000000000000000000000000815250905060006040518060400160405280600781526020017f0161016301640000000000000000000000000000000000000000000000000000815250905060006108dd6040518060400160405280600581526020017f03026162000000000000000000000000000000000000000000000000000000008152506040518060400160405280600581526020017f03016161000000000000000000000000000000000000000000000000000000008152506116b790919063ffffffff16565b126109505760405162461bcd60e51b815260206004820152602360248201527f6c6162656c206c656e677468732061726520636f72726563746c79206368656360448201527f6b65640000000000000000000000000000000000000000000000000000000000606482015260840161011e565b600061095c89886116b7565b136109d1576040805162461bcd60e51b81526020600482015260248101919091527f6f6e65206e616d6520686173206120646966666572656e6365206f66203e312060448201527f6c6162656c20746f2077697468207468652073616d6520726f6f74206e616d65606482015260840161011e565b60006109dd89876116b7565b12610a765760405162461bcd60e51b815260206004820152604160248201527f6f6e65206e616d6520686173206120646966666572656e6365206f66203e312060448201527f6c6162656c20746f207769746820646966666572656e7420726f6f74206e616d60648201527f6500000000000000000000000000000000000000000000000000000000000000608482015260a40161011e565b6000610a8289866116b7565b12610af55760405162461bcd60e51b815260206004820152603d60248201527f74776f206e616d6573207374617274207468652073616d65206275742068617660448201527f6520646966666572656e63657320696e206c61746572206c6162656c73000000606482015260840161011e565b6000610b0189856116b7565b13610b745760405162461bcd60e51b815260206004820152603e60248201527f746865206669727374206c6162656c20736f727473206c617465722c2062757460448201527f20746865206669727374206c6162656c20736f727473206561726c6965720000606482015260840161011e565b6000610b8083836116b7565b13610c195760405162461bcd60e51b815260206004820152605260248201527f74776f206e616d657320776865726520746865206669727374206c6162656c2060448201527f6f6e206f6e65206973206120707265666978206f66207468652066697273742060648201527f6c6162656c206f6e20746865206f746865720000000000000000000000000000608482015260a40161011e565b6000610c2589896116b7565b12610cbe5760405162461bcd60e51b815260206004820152605260248201527f74776f206e616d657320776865726520746865206669727374206c6162656c2060448201527f6f6e206f6e65206973206120707265666978206f66207468652066697273742060648201527f6c6162656c206f6e20746865206f746865720000000000000000000000000000608482015260a40161011e565b6000610cca8a8c6116b7565b12610d175760405162461bcd60e51b815260206004820152601b60248201527f78797a20636f6d6573206265666f7265206574684c61622e78797a0000000000604482015260640161011e565b6000610d238c8c6116b7565b12610d965760405162461bcd60e51b815260206004820152602260248201527f6274684c61622e78797a20636f6d6573206265666f7265206574684c61622e7860448201527f797a000000000000000000000000000000000000000000000000000000000000606482015260840161011e565b610da08b806116b7565b15610e135760405162461bcd60e51b815260206004820152602660248201527f6274684c61622e78797a20616e64206274684c61622e78797a2061726520746860448201527f652073616d650000000000000000000000000000000000000000000000000000606482015260840161011e565b6000610e1f8b8d6116b7565b13610e925760405162461bcd60e51b815260206004820152602260248201527f6574684c61622e78797a20636f6d657320616674657220626574684c61622e7860448201527f797a000000000000000000000000000000000000000000000000000000000000606482015260840161011e565b6000610e9e8c8b6116b7565b13610eeb5760405162461bcd60e51b815260206004820152601a60248201527f6274684c61622e78797a20636f6d65732061667465722078797a000000000000604482015260640161011e565b5050505050505050505050565b610f0460016000611810565b610f505760405162461bcd60e51b815260206004820152600660248201527f31203e3d20300000000000000000000000000000000000000000000000000000604482015260640161011e565b610f5c60006001611810565b15610fa95760405162461bcd60e51b815260206004820152600960248201527f212830203c3d2031290000000000000000000000000000000000000000000000604482015260640161011e565b610fb8600063ffffffff611810565b6110045760405162461bcd60e51b815260206004820152600f60248201527f30203e3d20307846464646464646460000000000000000000000000000000000604482015260640161011e565b61101363ffffffff6000611810565b156110605760405162461bcd60e51b815260206004820152601260248201527f212830203c3d2030784646464646464646290000000000000000000000000000604482015260640161011e565b611072631111111163aaaaaaaa611810565b6110be5760405162461bcd60e51b815260206004820152601860248201527f30783131313131313131203e3d20307841414141414141410000000000000000604482015260640161011e565b6110c9600180611810565b6102435760405162461bcd60e51b815260206004820152600660248201527f31203e3d20310000000000000000000000000000000000000000000000000000604482015260640161011e565b611139604051806101400160405280610108815260200161203c6101089139611829565b61ffff16614a5c1461118d5760405162461bcd60e51b815260206004820152600e60248201527f496e76616c6964206b6579746167000000000000000000000000000000000000604482015260640161011e565b6111ae6040518060c00160405280608981526020016122f860899139611829565b61ffff166154bd146112025760405162461bcd60e51b815260206004820152601260248201527f496e76616c6964206b6579746167202832290000000000000000000000000000604482015260640161011e565b6112236040518060c001604052806088815260200161227060889139611829565b61ffff1661835e1461123457600080fd5b61125860405180610140016040528061010881526020016121446101089139611829565b61ffff16614f66146102435760405162461bcd60e51b815260206004820152601260248201527f496e76616c6964206b6579746167202833290000000000000000000000000000604482015260640161011e565b6112d660006040518060400160405280600181526020016000815250611a5390919063ffffffff16565b156113235760405162461bcd60e51b815260206004820152601460248201527f6c6162656c436f756e7428272e2729203d3d2030000000000000000000000000604482015260640161011e565b60408051808201909152600381527f01610000000000000000000000000000000000000000000000000000000000006020820152611362906000611a53565b6001146113b15760405162461bcd60e51b815260206004820152601560248201527f6c6162656c436f756e742827612e2729203d3d20310000000000000000000000604482015260640161011e565b60408051808201909152600681527f016201610000000000000000000000000000000000000000000000000000000060208201526113f0906000611a53565b60021461143f5760405162461bcd60e51b815260206004820152601760248201527f6c6162656c436f756e742827622e612e2729203d3d2032000000000000000000604482015260640161011e565b60408051808201909152600c81527f066574686c61620378797a000000000000000000000000000000000000000000602082015261147e906007611a53565b6001146102435760405162461bcd60e51b815260206004820181905260248201527f6e616d654c656e6774682827286274686c6162292e78797a2e2729203d3d2036604482015260640161011e565b6000815b835181106114e1576114e1611e30565b60006114ed8583611ab7565b60ff1690506114fd816001611e5f565b6115079083611e5f565b915080600003611517575061151d565b506114d1565b6115278382611e72565b9150505b92915050565b61157f6040518060e001604052806060815260200160008152602001600061ffff168152602001600061ffff168152602001600063ffffffff16815260200160008152602001600081525090565b82815260c0810182905261152b816115cf565b6020810151815160609161152b916115aa90826114cd565b84519190611adb565b60a081015160c082015160609161152b916115aa908290611e72565b60c081015160208201819052815151116115e65750565b60006115fa826000015183602001516114cd565b82602001516116099190611e5f565b82519091506116189082611b5d565b61ffff16604083015261162c600282611e5f565b825190915061163b9082611b5d565b61ffff16606083015261164f600282611e5f565b825190915061165e9082611b85565b63ffffffff166080830152611674600482611e5f565b82519091506000906116869083611b5d565b61ffff169050611697600283611e5f565b60a0840181905291506116aa8183611e5f565b60c0909301929092525050565b60006116c38383611baf565b156116d05750600061152b565b60008060008060006116e3886000611a53565b905060006116f2886000611a53565b90505b8082111561171e5785935061170a8987611bcd565b95508161171681611e85565b9250506116f5565b81811115611747578492506117338886611bcd565b94508061173f81611e85565b91505061171e565b600082118015611760575061175e89878a88611bf1565b155b15611795578593506117728987611bcd565b95508492506117818886611bcd565b945061178e600183611e72565b9150611747565b856000036117ad57600019965050505050505061152b565b846000036117c4576001965050505050505061152b565b6118036117d2856001611e5f565b6117dc8b87611ab7565b60ff168a6117eb876001611e5f565b6117f58d89611ab7565b8e949392919060ff16611c26565b9998505050505050505050565b60008061181d8385611e9c565b60030b12159392505050565b60006120008251111561187e5760405162461bcd60e51b815260206004820152601760248201527f4c6f6e67206b657973206e6f74207065726d6974746564000000000000000000604482015260640161011e565b60008060005b8451601f018110156118f357600081602087010151905085518260200111156118b95785518290036008026101000390811c901b5b7eff00ff00ff00ff00ff00ff00ff00ff00ff00ff00ff00ff00ff00ff00ff00ff600882901c81169490940193169190910190602001611884565b506010827fffff0000ffff0000ffff0000ffff0000ffff0000ffff0000ffff0000ffff000016901c827dffff0000ffff0000ffff0000ffff0000ffff0000ffff0000ffff0000ffff160191506010817fffff0000ffff0000ffff0000ffff0000ffff0000ffff0000ffff0000ffff000016901c817dffff0000ffff0000ffff0000ffff0000ffff0000ffff0000ffff0000ffff1601905080600883901b0191506020827fffffffff00000000ffffffff00000000ffffffff00000000ffffffff0000000016901c827bffffffff00000000ffffffff00000000ffffffff00000000ffffffff160191506040827fffffffffffffffff0000000000000000ffffffffffffffff000000000000000016901c8277ffffffffffffffff0000000000000000ffffffffffffffff16019150608082901c826fffffffffffffffffffffffffffffffff16019150601082901c61ffff16820191508192505050919050565b6000805b83518310611a6757611a67611e30565b6000611a738585611ab7565b60ff169050611a83816001611e5f565b611a8d9085611e5f565b935080600003611a9d5750611ab0565b611aa8600183611e5f565b915050611a57565b9392505050565b6000828281518110611acb57611acb611db8565b016020015160f81c905092915050565b8251606090611aea8385611e5f565b1115611af557600080fd5b60008267ffffffffffffffff811115611b1057611b10611ede565b6040519080825280601f01601f191660200182016040528015611b3a576020820181803683370190505b50905060208082019086860101611b52828287611d1b565b509095945050505050565b8151600090611b6d836002611e5f565b1115611b7857600080fd5b50016002015161ffff1690565b8151600090611b95836004611e5f565b1115611ba057600080fd5b50016004015163ffffffff1690565b600081518351148015611ab05750611ab08360008460008751611d71565b6000611bd98383611ab7565b60ff16611be7836001611e5f565b611ab09190611e5f565b6000611c0a8383848651611c059190611e72565b611d94565b611c1c8686878951611c059190611e72565b1495945050505050565b60008480831015611c345750815b60208789018101908587010160005b83811015611d005782518251808214611cd05760006020871115611c6a5750600019611ca6565b600184611c78896020611e72565b611c829190611e5f565b611c8d906008611f0d565b611c98906002612008565b611ca29190611e72565b1990505b6000611cb6838316858416612014565b90508015611ccd579750611d119650505050505050565b50505b611cdb602086611e5f565b9450611ce8602085611e5f565b93505050602081611cf99190611e5f565b9050611c43565b50611d0b8589612014565b93505050505b9695505050505050565b60208110611d535781518352611d32602084611e5f565b9250611d3f602083611e5f565b9150611d4c602082611e72565b9050611d1b565b905182516020929092036101000a6000190180199091169116179052565b6000611d7e848484611d94565b611d89878785611d94565b149695505050505050565b8251600090611da38385611e5f565b1115611dae57600080fd5b5091016020012090565b7f4e487b7100000000000000000000000000000000000000000000000000000000600052603260045260246000fd5b7f4e487b7100000000000000000000000000000000000000000000000000000000600052601160045260246000fd5b60006000198203611e2957611e29611de7565b5060010190565b7f4e487b7100000000000000000000000000000000000000000000000000000000600052600160045260246000fd5b8082018082111561152b5761152b611de7565b8181038181111561152b5761152b611de7565b600081611e9457611e94611de7565b506000190190565b600382810b9082900b037fffffffffffffffffffffffffffffffffffffffffffffffffffffffff800000008112637fffffff8213171561152b5761152b611de7565b7f4e487b7100000000000000000000000000000000000000000000000000000000600052604160045260246000fd5b808202811582820484141761152b5761152b611de7565b600181815b80851115611f5f578160001904821115611f4557611f45611de7565b80851615611f5257918102915b93841c9390800290611f29565b509250929050565b600082611f765750600161152b565b81611f835750600061152b565b8160018114611f995760028114611fa357611fbf565b600191505061152b565b60ff841115611fb457611fb4611de7565b50506001821b61152b565b5060208310610133831016604e8410600b8410161715611fe2575081810a61152b565b611fec8383611f24565b806000190482111561200057612000611de7565b029392505050565b6000611ab08383611f67565b818103600083128015838313168383128216171561203457612034611de7565b509291505056fe0101030803010001a80020a95566ba42e886bb804cda84e47ef56dbd7aec612615552cec906d2116d0ef207028c51554144dfeafe7c7cb8f005dd18234133ac0710a81182ce1fd14ad2283bc83435f9df2f6313251931a176df0da51e54f42e604860dfb359580250f559cc543c4ffd51cbe3de8cfd06719237f9fc47ee729da06835fa452e825e9a18ebc2ecbcf563474652c33cf56a9033bcdf5d973121797ec8089041b6e03a1b72d0a735b984e03687309332324f27c2dba85e9db15e83a0143382e974b0621c18e625ecec907577d9e7bade95241a81ebbe8a901d4d3276e40b114c0a2e6fc38d19c2e6aab02644b2813f575fc21601e0dee49cd9ee96a43103e524d62873d0101030803010001acffb409bcc939f831f7a1e5ec88f7a59255ec53040be432027390a4ce896d6f9086f3c5e177fbfe118163aaec7af1462c47945944c4e2c026be5e98bbcded25978272e1e3e079c5094d573f0e83c92f02b32d3513b1550b826929c80dd0f92cac966d17769fd5867b647c3f38029abdc48152eb8f207159ecc5d232c7c1537c79f4b7ac28ff11682f21681bf6d6aba555032bf6f9f036beb2aaa5b3778d6eebfba6bf9ea191be4ab0caea759e2f773a1f9029c73ecb8d5735b9321db085f1b8e2d8038fe2941992548cee0d67dd4547e11dd63af9c9fc1c5466fb684cf009d7197c2cf79e792ab501e6a8a1ca519af2cb9b5f6367e94c0d47502451357be1b50161000001000100000e1000047400000101620161000001000100000e100004c0a801010100030503010001bfa54c38d909fabb0f937d70d775ba0df4c0badb09707d995249406950407a621c794c68b186b15dbf8f9f9ea231e9f96414ccda4eceb50b17a9ac6c4bd4b95da04849e96ee791578b703bc9ae184fb1794bac792a0787f693a40f19f523ee6dbd3599dbaaa9a50437926ecf6438845d1d49448962524f2a1a7a36b3a0a1eca3010003050440000003ba2fa05a75e173bede89eb71831ab14035f2408ad09df4d8dc8f8f72e8f13506feaddf7b04cb14958b82966e3420562302c4002bc4fd088432e160519bb14dae82443850c1423e06085710b5caf070d46b7ba7e481414f6a5fe225fdca984c959091645d0cf1c9a1a313d7e7fb7ba60b967b71a65f8cef2c3768e11b081c8fcfa2646970667358221220b12667d30e85bbbaef2762e2764bae47d4d8a6ab77e04404355106d6be5940b864736f6c63430008110033",
  "linkReferences": {},
  "deployedLinkReferences": {}
}