{
  "_format": "hh-sol-artifact-1",
  "contractName": "TestRRUtils",
  "sourceName": "test/dnssec-oracle/TestRRUtils.sol",
  "abi": [
    {
      "inputs": [],
      "name": "testCheckTypeBitmap",
      "outputs": [],
      "stateMutability": "pure",
      "type": "function"
    },
    {
      "inputs": [],
      "name": "testCheckTypeBitmapTextType",
      "outputs": [],
      "stateMutability": "pure",
      "type": "function"
    },
    {
      "inputs": [],
      "name": "testCompareNames",
      "outputs": [],
      "stateMutability": "pure",
      "type": "function"
    },
    {
      "inputs": [],
      "name": "testIterateRRs",
      "outputs": [],
      "stateMutability": "pure",
      "type": "function"
    },
    {
      "inputs": [],
      "name": "testKeyTag",
      "outputs": [],
      "stateMutability": "view",
      "type": "function"
    },
    {
      "inputs": [],
      "name": "testLabelCount",
      "outputs": [],
      "stateMutability": "pure",
      "type": "function"
    },
    {
      "inputs": [],
      "name": "testNameLength",
      "outputs": [],
      "stateMutability": "pure",
      "type": "function"
    },
    {
      "inputs": [],
      "name": "testSerialNumberGt",
      "outputs": [],
      "stateMutability": "pure",
      "type": "function"
    }
  ],
  "bytecode": "0x608060405234801561001057600080fd5b50612a02806100206000396000f3fe608060405234801561001057600080fd5b50600436106100885760003560e01c80639ba247481161005b5780639ba24748146100af5780639e4a090d146100b7578063bb73daed146100bf578063cc60617b146100c757600080fd5b80630250cf9a1461008d5780632275868c14610097578063706fc4de1461009f578063976e62ac146100a7575b600080fd5b6100956100cf565b005b61009561026b565b610095610594565b61009561092f565b610095611247565b6100956112fd565b61009561151a565b6100956116b1565b6100f9600060405180604001604052806001815260200160008152506118d290919063ffffffff16565b60011461014d5760405162461bcd60e51b815260206004820152601460248201527f6e616d654c656e67746828272e2729203d3d203100000000000000000000000060448201526064015b60405180910390fd5b60408051808201909152600581527f0361626300000000000000000000000000000000000000000000000000000000602082015261018c9060046118d2565b6001146101db5760405162461bcd60e51b815260206004820152601460248201527f6e616d654c656e67746828272e2729203d3d20310000000000000000000000006044820152606401610144565b60408051808201909152600581527f0361626300000000000000000000000000000000000000000000000000000000602082015261021a9060006118d2565b6005146102695760405162461bcd60e51b815260206004820152601760248201527f6e616d654c656e67746828276162632e2729203d3d20350000000000000000006044820152606401610144565b565b600060405180606001604052806026815260200161291e60269139905061029481600180611936565b151560011461030a5760405162461bcd60e51b8152602060048201526024808201527f41207265636f72642073686f756c6420657869737420696e207479706520626960448201527f746d6170000000000000000000000000000000000000000000000000000000006064820152608401610144565b6103178160016005611936565b1561038a5760405162461bcd60e51b815260206004820152602c60248201527f434e414d45207265636f72642073686f756c64206e6f7420657869737420696e60448201527f2074797065206269746d617000000000000000000000000000000000000000006064820152608401610144565b6103978160016040611936565b1561040a5760405162461bcd60e51b815260206004820152602760248201527f547970652036342073686f756c64206e6f7420657869737420696e207479706560448201527f206269746d6170000000000000000000000000000000000000000000000000006064820152608401610144565b610418816001610301611936565b1561048b5760405162461bcd60e51b815260206004820152602860248201527f54797065203736392073686f756c64206e6f7420657869737420696e2074797060448201527f65206269746d61700000000000000000000000000000000000000000000000006064820152608401610144565b6104998160016104d2611936565b15156001146105105760405162461bcd60e51b815260206004820152602560248201527f5479706520313233342073686f756c6420657869737420696e2074797065206260448201527f69746d61700000000000000000000000000000000000000000000000000000006064820152608401610144565b61051e816001610501611936565b156105915760405162461bcd60e51b815260206004820152602960248201527f5479706520313238312073686f756c64206e6f7420657869737420696e20747960448201527f7065206269746d617000000000000000000000000000000000000000000000006064820152608401610144565b50565b600060405180606001604052806024815260200161287260249139604080516080808201835260038284019081527f016100000000000000000000000000000000000000000000000000000000000060608085019190915290835283518085018552600581527f0162016100000000000000000000000000000000000000000000000000000000602082810191909152808501919091528451928301855260048386018181527f74000001000000000000000000000000000000000000000000000000000000009385019390935291835284518086019095529084527fc0a8010100000000000000000000000000000000000000000000000000000000848201528101929092529192506000806106ab8582611a4d565b90505b805151602082015110156108d857806040015161ffff166001146107145760405162461bcd60e51b815260206004820152600c60248201527f54797065206d61746368657300000000000000000000000000000000000000006044820152606401610144565b806060015161ffff1660011461076c5760405162461bcd60e51b815260206004820152600d60248201527f436c617373206d617463686573000000000000000000000000000000000000006044820152606401610144565b806080015163ffffffff16610e10146107c75760405162461bcd60e51b815260206004820152600b60248201527f54544c206d6174636865730000000000000000000000000000000000000000006044820152606401610144565b8382600281106107d9576107d96122cd565b6020020151805190602001206107ee82611aae565b80519060200120146108425760405162461bcd60e51b815260206004820152600c60248201527f4e616d65206d61746368657300000000000000000000000000000000000000006044820152606401610144565b828260028110610854576108546122cd565b60200201518051906020012061086982611acf565b80519060200120146108bd5760405162461bcd60e51b815260206004820152600d60248201527f5264617461206d617463686573000000000000000000000000000000000000006044820152606401610144565b816108c78161232b565b9250506108d381611aeb565b6106ae565b50806002146109295760405162461bcd60e51b815260206004820152601260248201527f45787065637465642032207265636f72647300000000000000000000000000006044820152606401610144565b50505050565b60006040518060400160405280600c81526020017f066274686c61620378797a000000000000000000000000000000000000000000815250905060006040518060400160405280600c81526020017f066574686c61620378797a000000000000000000000000000000000000000000815250905060006040518060400160405280600581526020017f0378797a00000000000000000000000000000000000000000000000000000000815250905060006040518060400160405280600781526020017f0161016201630000000000000000000000000000000000000000000000000000815250905060006040518060400160405280600781526020017f0162016201630000000000000000000000000000000000000000000000000000815250905060006040518060400160405280600381526020017f0163000000000000000000000000000000000000000000000000000000000000815250905060006040518060400160405280600381526020017f0164000000000000000000000000000000000000000000000000000000000000815250905060006040518060400160405280600781526020017f0161016401630000000000000000000000000000000000000000000000000000815250905060006040518060400160405280600781526020017f0162016101630000000000000000000000000000000000000000000000000000815250905060006040518060400160405280600881526020017f0261620163016400000000000000000000000000000000000000000000000000815250905060006040518060400160405280600781526020017f016101630164000000000000000000000000000000000000000000000000000081525090506000610c2c6040518060400160405280600581526020017f03026162000000000000000000000000000000000000000000000000000000008152506040518060400160405280600581526020017f0301616100000000000000000000000000000000000000000000000000000000815250611bd390919063ffffffff16565b12610c9f5760405162461bcd60e51b815260206004820152602360248201527f6c6162656c206c656e677468732061726520636f72726563746c79206368656360448201527f6b656400000000000000000000000000000000000000000000000000000000006064820152608401610144565b6000610cab8988611bd3565b13610d20576040805162461bcd60e51b81526020600482015260248101919091527f6f6e65206e616d6520686173206120646966666572656e6365206f66203e312060448201527f6c6162656c20746f2077697468207468652073616d6520726f6f74206e616d656064820152608401610144565b6000610d2c8987611bd3565b12610dc55760405162461bcd60e51b815260206004820152604160248201527f6f6e65206e616d6520686173206120646966666572656e6365206f66203e312060448201527f6c6162656c20746f207769746820646966666572656e7420726f6f74206e616d60648201527f6500000000000000000000000000000000000000000000000000000000000000608482015260a401610144565b6000610dd18986611bd3565b12610e445760405162461bcd60e51b815260206004820152603d60248201527f74776f206e616d6573207374617274207468652073616d65206275742068617660448201527f6520646966666572656e63657320696e206c61746572206c6162656c730000006064820152608401610144565b6000610e508985611bd3565b13610ec35760405162461bcd60e51b815260206004820152603e60248201527f746865206669727374206c6162656c20736f727473206c617465722c2062757460448201527f20746865206669727374206c6162656c20736f727473206561726c69657200006064820152608401610144565b6000610ecf8383611bd3565b13610f685760405162461bcd60e51b815260206004820152605260248201527f74776f206e616d657320776865726520746865206669727374206c6162656c2060448201527f6f6e206f6e65206973206120707265666978206f66207468652066697273742060648201527f6c6162656c206f6e20746865206f746865720000000000000000000000000000608482015260a401610144565b6000610f748989611bd3565b1261100d5760405162461bcd60e51b815260206004820152605260248201527f74776f206e616d657320776865726520746865206669727374206c6162656c2060448201527f6f6e206f6e65206973206120707265666978206f66207468652066697273742060648201527f6c6162656c206f6e20746865206f746865720000000000000000000000000000608482015260a401610144565b60006110198a8c611bd3565b126110665760405162461bcd60e51b815260206004820152601b60248201527f78797a20636f6d6573206265666f7265206574684c61622e78797a00000000006044820152606401610144565b60006110728c8c611bd3565b126110e55760405162461bcd60e51b815260206004820152602260248201527f6274684c61622e78797a20636f6d6573206265666f7265206574684c61622e7860448201527f797a0000000000000000000000000000000000000000000000000000000000006064820152608401610144565b6110ef8b80611bd3565b156111625760405162461bcd60e51b815260206004820152602660248201527f6274684c61622e78797a20616e64206274684c61622e78797a2061726520746860448201527f652073616d6500000000000000000000000000000000000000000000000000006064820152608401610144565b600061116e8b8d611bd3565b136111e15760405162461bcd60e51b815260206004820152602260248201527f6574684c61622e78797a20636f6d657320616674657220626574684c61622e7860448201527f797a0000000000000000000000000000000000000000000000000000000000006064820152608401610144565b60006111ed8c8b611bd3565b1361123a5760405162461bcd60e51b815260206004820152601a60248201527f6274684c61622e78797a20636f6d65732061667465722078797a0000000000006044820152606401610144565b5050505050505050505050565b60408051808201909152600581527e0300008000000000000000000000000000000000000000000000000000000060208201526112878160006010611936565b15156001146105915760405162461bcd60e51b8152602060048201526024808201527f41207265636f72642073686f756c6420657869737420696e207479706520626960448201527f746d6170000000000000000000000000000000000000000000000000000000006064820152608401610144565b61130960016000611d2c565b6113555760405162461bcd60e51b815260206004820152600660248201527f31203e3d203000000000000000000000000000000000000000000000000000006044820152606401610144565b61136160006001611d2c565b156113ae5760405162461bcd60e51b815260206004820152600960248201527f212830203c3d20312900000000000000000000000000000000000000000000006044820152606401610144565b6113bd600063ffffffff611d2c565b6114095760405162461bcd60e51b815260206004820152600f60248201527f30203e3d203078464646464646464600000000000000000000000000000000006044820152606401610144565b61141863ffffffff6000611d2c565b156114655760405162461bcd60e51b815260206004820152601260248201527f212830203c3d20307846464646464646462900000000000000000000000000006044820152606401610144565b611477631111111163aaaaaaaa611d2c565b6114c35760405162461bcd60e51b815260206004820152601860248201527f30783131313131313131203e3d203078414141414141414100000000000000006044820152606401610144565b6114ce600180611d2c565b6102695760405162461bcd60e51b815260206004820152600660248201527f31203e3d203100000000000000000000000000000000000000000000000000006044820152606401610144565b61153e60405180610140016040528061010881526020016126626101089139611d45565b61ffff16614a5c146115925760405162461bcd60e51b815260206004820152600e60248201527f496e76616c6964206b65797461670000000000000000000000000000000000006044820152606401610144565b6115b36040518060c001604052806089815260200161294460899139611d45565b61ffff166154bd146116075760405162461bcd60e51b815260206004820152601260248201527f496e76616c6964206b65797461672028322900000000000000000000000000006044820152606401610144565b6116286040518060c001604052806088815260200161289660889139611d45565b61ffff1661835e1461163957600080fd5b61165d604051806101400160405280610108815260200161276a6101089139611d45565b61ffff16614f66146102695760405162461bcd60e51b815260206004820152601260248201527f496e76616c6964206b65797461672028332900000000000000000000000000006044820152606401610144565b6116db60006040518060400160405280600181526020016000815250611f6f90919063ffffffff16565b156117285760405162461bcd60e51b815260206004820152601460248201527f6c6162656c436f756e7428272e2729203d3d20300000000000000000000000006044820152606401610144565b60408051808201909152600381527f01610000000000000000000000000000000000000000000000000000000000006020820152611767906000611f6f565b6001146117b65760405162461bcd60e51b815260206004820152601560248201527f6c6162656c436f756e742827612e2729203d3d203100000000000000000000006044820152606401610144565b60408051808201909152600681527f016201610000000000000000000000000000000000000000000000000000000060208201526117f5906000611f6f565b6002146118445760405162461bcd60e51b815260206004820152601760248201527f6c6162656c436f756e742827622e612e2729203d3d20320000000000000000006044820152606401610144565b60408051808201909152600c81527f066574686c61620378797a0000000000000000000000000000000000000000006020820152611883906007611f6f565b6001146102695760405162461bcd60e51b815260206004820181905260248201527f6e616d654c656e6774682827286274686c6162292e78797a2e2729203d3d20366044820152606401610144565b6000815b835181106118e6576118e6612345565b60006118f28583611fcc565b60ff169050611902816001612374565b61190c9083612374565b91508060000361191c5750611922565b506118d6565b61192c838261238c565b9150505b92915050565b600060ff600883811c821691839161194f9186166123a3565b905060006119616007808716906123eb565b600160ff919091161b9050855b8751811015611a3d5760006119838983611fcc565b9050600061199c611995846001612374565b8b90611fcc565b90508160ff168660ff1610156119bb5760009650505050505050611a46565b8160ff168660ff1603611a1c578460ff168160ff16116119e45760009650505050505050611a46565b83611a076119f560ff881686612374565b611a00906002612374565b8c90611fcc565b1660ff16600014159650505050505050611a46565b611a2781600261240e565b611a349060ff1684612374565b9250505061196e565b50600093505050505b9392505050565b611a9b6040518060e001604052806060815260200160008152602001600061ffff168152602001600061ffff168152602001600063ffffffff16815260200160008152602001600081525090565b82815260c0810182905261193081611aeb565b6020810151815160609161193091611ac690826118d2565b84519190611ff0565b60a081015160c082015160609161193091611ac690829061238c565b60c08101516020820181905281515111611b025750565b6000611b16826000015183602001516118d2565b8260200151611b259190612374565b8251909150611b349082612072565b61ffff166040830152611b48600282612374565b8251909150611b579082612072565b61ffff166060830152611b6b600282612374565b8251909150611b7a908261209a565b63ffffffff166080830152611b90600482612374565b8251909150600090611ba29083612072565b61ffff169050611bb3600283612374565b60a084018190529150611bc68183612374565b60c0909301929092525050565b6000611bdf83836120c4565b15611bec57506000611930565b6000806000806000611bff886000611f6f565b90506000611c0e886000611f6f565b90505b80821115611c3a57859350611c2689876120e2565b955081611c3281612433565b925050611c11565b81811115611c6357849250611c4f88866120e2565b945080611c5b81612433565b915050611c3a565b600082118015611c7c5750611c7a89878a88612106565b155b15611cb157859350611c8e89876120e2565b9550849250611c9d88866120e2565b9450611caa60018361238c565b9150611c63565b85600003611cc9576000199650505050505050611930565b84600003611ce05760019650505050505050611930565b611d1f611cee856001612374565b611cf88b87611fcc565b60ff168a611d07876001612374565b611d118d89611fcc565b8e949392919060ff1661213b565b9998505050505050505050565b600080611d39838561244a565b60030b12159392505050565b600061200082511115611d9a5760405162461bcd60e51b815260206004820152601760248201527f4c6f6e67206b657973206e6f74207065726d69747465640000000000000000006044820152606401610144565b60008060005b8451601f01811015611e0f5760008160208701015190508551826020011115611dd55785518290036008026101000390811c901b5b7eff00ff00ff00ff00ff00ff00ff00ff00ff00ff00ff00ff00ff00ff00ff00ff600882901c81169490940193169190910190602001611da0565b506010827fffff0000ffff0000ffff0000ffff0000ffff0000ffff0000ffff0000ffff000016901c827dffff0000ffff0000ffff0000ffff0000ffff0000ffff0000ffff0000ffff160191506010817fffff0000ffff0000ffff0000ffff0000ffff0000ffff0000ffff0000ffff000016901c817dffff0000ffff0000ffff0000ffff0000ffff0000ffff0000ffff0000ffff1601905080600883901b0191506020827fffffffff00000000ffffffff00000000ffffffff00000000ffffffff0000000016901c827bffffffff00000000ffffffff00000000ffffffff00000000ffffffff160191506040827fffffffffffffffff0000000000000000ffffffffffffffff000000000000000016901c8277ffffffffffffffff0000000000000000ffffffffffffffff16019150608082901c826fffffffffffffffffffffffffffffffff16019150601082901c61ffff16820191508192505050919050565b6000805b83518310611f8357611f83612345565b6000611f8f8585611fcc565b60ff169050611f9f816001612374565b611fa99085612374565b935080600003611fb95750611a46565b611fc4600183612374565b915050611f73565b6000828281518110611fe057611fe06122cd565b016020015160f81c905092915050565b8251606090611fff8385612374565b111561200a57600080fd5b60008267ffffffffffffffff811115612025576120256124af565b6040519080825280601f01601f19166020018201604052801561204f576020820181803683370190505b50905060208082019086860101612067828287612230565b509095945050505050565b8151600090612082836002612374565b111561208d57600080fd5b50016002015161ffff1690565b81516000906120aa836004612374565b11156120b557600080fd5b50016004015163ffffffff1690565b600081518351148015611a465750611a468360008460008751612286565b60006120ee8383611fcc565b60ff166120fc836001612374565b611a469190612374565b600061211f838384865161211a919061238c565b6122a9565b612131868687895161211a919061238c565b1495945050505050565b600084808310156121495750815b60208789018101908587010160005b8381101561221557825182518082146121e5576000602087111561217f57506000196121bb565b60018461218d89602061238c565b6121979190612374565b6121a29060086124de565b6121ad9060026125e1565b6121b7919061238c565b1990505b60006121cb8383168584166125ed565b905080156121e25797506122269650505050505050565b50505b6121f0602086612374565b94506121fd602085612374565b9350505060208161220e9190612374565b9050612158565b5061222085896125ed565b93505050505b9695505050505050565b602081106122685781518352612247602084612374565b9250612254602083612374565b915061226160208261238c565b9050612230565b905182516020929092036101000a6000190180199091169116179052565b60006122938484846122a9565b61229e8787856122a9565b149695505050505050565b82516000906122b88385612374565b11156122c357600080fd5b5091016020012090565b7f4e487b7100000000000000000000000000000000000000000000000000000000600052603260045260246000fd5b7f4e487b7100000000000000000000000000000000000000000000000000000000600052601160045260246000fd5b6000600019820361233e5761233e6122fc565b5060010190565b7f4e487b7100000000000000000000000000000000000000000000000000000000600052600160045260246000fd5b60008219821115612387576123876122fc565b500190565b60008282101561239e5761239e6122fc565b500390565b600061ffff808416806123df577f4e487b7100000000000000000000000000000000000000000000000000000000600052601260045260246000fd5b92169190910492915050565b600060ff821660ff841680821015612405576124056122fc565b90039392505050565b600060ff821660ff84168060ff0382111561242b5761242b6122fc565b019392505050565b600081612442576124426122fc565b506000190190565b60008160030b8360030b60008112817fffffffffffffffffffffffffffffffffffffffffffffffffffffffff800000000183128115161561248d5761248d6122fc565b81637fffffff0183138116156124a5576124a56122fc565b5090039392505050565b7f4e487b7100000000000000000000000000000000000000000000000000000000600052604160045260246000fd5b60008160001904831182151516156124f8576124f86122fc565b500290565b600181815b8085111561253857816000190482111561251e5761251e6122fc565b8085161561252b57918102915b93841c9390800290612502565b509250929050565b60008261254f57506001611930565b8161255c57506000611930565b8160018114612572576002811461257c57612598565b6001915050611930565b60ff84111561258d5761258d6122fc565b50506001821b611930565b5060208310610133831016604e8410600b84101617156125bb575081810a611930565b6125c583836124fd565b80600019048211156125d9576125d96122fc565b029392505050565b6000611a468383612540565b6000808312837f800000000000000000000000000000000000000000000000000000000000000001831281151615612627576126276122fc565b837f7fffffffffffffffffffffffffffffffffffffffffffffffffffffffffffffff01831381161561265b5761265b6122fc565b5050039056fe0101030803010001a80020a95566ba42e886bb804cda84e47ef56dbd7aec612615552cec906d2116d0ef207028c51554144dfeafe7c7cb8f005dd18234133ac0710a81182ce1fd14ad2283bc83435f9df2f6313251931a176df0da51e54f42e604860dfb359580250f559cc543c4ffd51cbe3de8cfd06719237f9fc47ee729da06835fa452e825e9a18ebc2ecbcf563474652c33cf56a9033bcdf5d973121797ec8089041b6e03a1b72d0a735b984e03687309332324f27c2dba85e9db15e83a0143382e974b0621c18e625ecec907577d9e7bade95241a81ebbe8a901d4d3276e40b114c0a2e6fc38d19c2e6aab02644b2813f575fc21601e0dee49cd9ee96a43103e524d62873d0101030803010001acffb409bcc939f831f7a1e5ec88f7a59255ec53040be432027390a4ce896d6f9086f3c5e177fbfe118163aaec7af1462c47945944c4e2c026be5e98bbcded25978272e1e3e079c5094d573f0e83c92f02b32d3513b1550b826929c80dd0f92cac966d17769fd5867b647c3f38029abdc48152eb8f207159ecc5d232c7c1537c79f4b7ac28ff11682f21681bf6d6aba555032bf6f9f036beb2aaa5b3778d6eebfba6bf9ea191be4ab0caea759e2f773a1f9029c73ecb8d5735b9321db085f1b8e2d8038fe2941992548cee0d67dd4547e11dd63af9c9fc1c5466fb684cf009d7197c2cf79e792ab501e6a8a1ca519af2cb9b5f6367e94c0d47502451357be1b50161000001000100000e1000047400000101620161000001000100000e100004c0a801010100030503010001bfa54c38d909fabb0f937d70d775ba0df4c0badb09707d995249406950407a621c794c68b186b15dbf8f9f9ea231e9f96414ccda4eceb50b17a9ac6c4bd4b95da04849e96ee791578b703bc9ae184fb1794bac792a0787f693a40f19f523ee6dbd3599dbaaa9a50437926ecf6438845d1d49448962524f2a1a7a36b3a0a1eca3ff0006400100000003041b000000000000000000000000000000000000000000000000000020010003050440000003ba2fa05a75e173bede89eb71831ab14035f2408ad09df4d8dc8f8f72e8f13506feaddf7b04cb14958b82966e3420562302c4002bc4fd088432e160519bb14dae82443850c1423e06085710b5caf070d46b7ba7e481414f6a5fe225fdca984c959091645d0cf1c9a1a313d7e7fb7ba60b967b71a65f8cef2c3768e11b081c8fcfa2646970667358221220d8a2fa69fcfae069e3e3104c33f9cbffa53c755386ff3c2a488bd948140ec26464736f6c634300080d0033",
  "linkReferences": {},
  "deployedLinkReferences": {}
}