{
  "_format": "hh-sol-artifact-1",
  "contractName": "TestBytesUtils",
  "sourceName": "test/dnssec-oracle/TestBytesUtils.sol",
  "abi": [
    {
      "inputs": [],
      "name": "testBase32HexDecodeWord",
      "outputs": [],
      "stateMutability": "pure",
      "type": "function"
    },
    {
      "inputs": [],
      "name": "testCompare",
      "outputs": [],
      "stateMutability": "pure",
      "type": "function"
    },
    {
      "inputs": [],
      "name": "testComparePartial",
      "outputs": [],
      "stateMutability": "pure",
      "type": "function"
    },
    {
      "inputs": [],
      "name": "testEquals",
      "outputs": [],
      "stateMutability": "pure",
      "type": "function"
    },
    {
      "inputs": [],
      "name": "testKeccak",
      "outputs": [],
      "stateMutability": "pure",
      "type": "function"
    },
    {
      "inputs": [],
      "name": "testReadBytes20",
      "outputs": [],
      "stateMutability": "pure",
      "type": "function"
    },
    {
      "inputs": [],
      "name": "testReadBytes32",
      "outputs": [],
      "stateMutability": "pure",
      "type": "function"
    },
    {
      "inputs": [],
      "name": "testReadUint16",
      "outputs": [],
      "stateMutability": "pure",
      "type": "function"
    },
    {
      "inputs": [],
      "name": "testReadUint32",
      "outputs": [],
      "stateMutability": "pure",
      "type": "function"
    },
    {
      "inputs": [],
      "name": "testReadUint8",
      "outputs": [],
      "stateMutability": "pure",
      "type": "function"
    },
    {
      "inputs": [],
      "name": "testSubstring",
      "outputs": [],
      "stateMutability": "pure",
      "type": "function"
    }
  ],
  "bytecode": "0x608060405234801561001057600080fd5b5061287b806100206000396000f3fe608060405234801561001057600080fd5b50600436106100c85760003560e01c8063809a617311610081578063c80094b31161005b578063c80094b31461010f578063e77975cf14610117578063f3cbda461461011f57600080fd5b8063809a6173146100f757806383d31df6146100ff578063878ab4ae1461010757600080fd5b80631b8e1b81116100b25780631b8e1b81146100df5780632e72f9a9146100e7578063673dcc73146100ef57600080fd5b80625aa6f9146100cd578063098e6232146100d7575b600080fd5b6100d5610127565b005b6100d56101fe565b6100d5610561565b6100d56105f8565b6100d561071a565b6100d5610902565b6100d5610fb8565b6100d561163e565b6100d56118c8565b6100d5611d02565b6100d5611d91565b60408051808201909152601681527f6162636465666768696a6b6c6d6e6f707172737475760000000000000000000060208201527f62636465666768696a6b6c6d6e6f70717273747500000000000000000000000090610188906001611e24565b7fffffffffffffffffffffffffffffffffffffffff00000000000000000000000016146101fc5760405162461bcd60e51b815260206004820152600b60248201527f726561644279746573323000000000000000000000000000000000000000000060448201526064015b60405180910390fd5b565b60408051602080820183526000918290528251808401909352600583527f68656c6c6f000000000000000000000000000000000000000000000000000000908301527fc5d2460186f7233c927e7db2dcc703c0e500b653ca82273b7bfad8045d85a4709161026c9180611e6a565b80519060200120146102c05760405162461bcd60e51b815260206004820152600c60248201527f436f70792030206279746573000000000000000000000000000000000000000060448201526064016101f3565b60408051808201825260048082527f68656c6c000000000000000000000000000000000000000000000000000000006020928301528251808401909352600583527f68656c6c6f000000000000000000000000000000000000000000000000000000918301919091527f647b0bf5e82b669964766915971e5985cb6559f0f22af1002f75d81d4f3349429161035791600090611e6a565b80519060200120146103ab5760405162461bcd60e51b815260206004820152600e60248201527f436f707920737562737472696e6700000000000000000000000000000000000060448201526064016101f3565b60408051808201825260048082527f656c6c6f000000000000000000000000000000000000000000000000000000006020928301528251808401909352600583527f68656c6c6f000000000000000000000000000000000000000000000000000000918301919091527f729b67e29bd543b60a81f35aba2c80ac4d8ea4caba9a72ed978093c22148af509161044291600190611e6a565b80519060200120146104965760405162461bcd60e51b815260206004820152600e60248201527f436f707920737562737472696e6700000000000000000000000000000000000060448201526064016101f3565b60408051808201825260058082527f68656c6c6f00000000000000000000000000000000000000000000000000000060209283018190528351808501909452818452918301919091527f1c8aff950685c2ed4bc3174f3472287b56d9517b9c948127319a09a7a36deac89161050d91600090611e6a565b80519060200120146101fc5760405162461bcd60e51b815260206004820152601160248201527f436f70792077686f6c6520737472696e6700000000000000000000000000000060448201526064016101f3565b60408051808201909152600581527f616263646500000000000000000000000000000000000000000000000000000060208201526105a0906001611eec565b63ffffffff166362636465146101fc5760405162461bcd60e51b815260206004820152600c60248201527f526561642075696e74203332000000000000000000000000000000000000000060448201526064016101f3565b60408051808201909152600181527f61000000000000000000000000000000000000000000000000000000000000006020820152610637906000611f16565b60ff166061146106895760405162461bcd60e51b815260206004820152600960248201527f61203d3d2030783631000000000000000000000000000000000000000000000060448201526064016101f3565b60408051808201909152600281527f626100000000000000000000000000000000000000000000000000000000000060208201526106c8906001611f16565b60ff166061146101fc5760405162461bcd60e51b815260206004820152600960248201527f61203d3d2030783631000000000000000000000000000000000000000000000060448201526064016101f3565b604080516020810190915260008082527fc5d2460186f7233c927e7db2dcc703c0e500b653ca82273b7bfad8045d85a470916107569180611f3b565b146107a35760405162461bcd60e51b815260206004820152601e60248201527f496e636f72726563742068617368206f6620656d70747920737472696e67000060448201526064016101f3565b6040805180820190915260038082527f666f6f000000000000000000000000000000000000000000000000000000000060208301527f41b1a0649752af1b28b3dc29a1556eee781e4a4c3a1f7f53f90fa834de098c4d9161080691600090611f3b565b146108535760405162461bcd60e51b815260206004820152601760248201527f496e636f72726563742068617368206f662027666f6f2700000000000000000060448201526064016101f3565b60408051808201909152600381527f666f6f000000000000000000000000000000000000000000000000000000000060208201527fc5d2460186f7233c927e7db2dcc703c0e500b653ca82273b7bfad8045d85a470906108b590600080611f3b565b146101fc5760405162461bcd60e51b815260206004820152601e60248201527f496e636f72726563742068617368206f6620656d70747920737472696e67000060448201526064016101f3565b61097f6040518060400160405280600181526020017f61000000000000000000000000000000000000000000000000000000000000008152506040518060400160405280600181526020017f6100000000000000000000000000000000000000000000000000000000000000815250611f5f90919063ffffffff16565b156001146109cf5760405162461bcd60e51b815260206004820152600d60248201527f436f6d7061726520657175616c0000000000000000000000000000000000000060448201526064016101f3565b6000610a4e6040518060400160405280600181526020017f62000000000000000000000000000000000000000000000000000000000000008152506040518060400160405280600181526020017f6100000000000000000000000000000000000000000000000000000000000000815250611f5f90919063ffffffff16565b6001911314610ac55760405162461bcd60e51b815260206004820152602860248201527f436f6d7061726520646966666572656e742076616c756520776974682073616d60448201527f65206c656e67746800000000000000000000000000000000000000000000000060648201526084016101f3565b6000610b446040518060400160405280600181526020017f61000000000000000000000000000000000000000000000000000000000000008152506040518060400160405280600181526020017f6200000000000000000000000000000000000000000000000000000000000000815250611f5f90919063ffffffff16565b6001911214610bbb5760405162461bcd60e51b815260206004820152602860248201527f436f6d7061726520646966666572656e742076616c756520776974682073616d60448201527f65206c656e67746800000000000000000000000000000000000000000000000060648201526084016101f3565b6000610c3a6040518060400160405280600281526020017f61620000000000000000000000000000000000000000000000000000000000008152506040518060400160405280600281526020017f6161000000000000000000000000000000000000000000000000000000000000815250611f5f90919063ffffffff16565b6001911314610cb15760405162461bcd60e51b815260206004820152602c60248201527f436f6d7061726520646966666572656e742076616c75652077697468206d756c60448201527f7469706c65206c656e677468000000000000000000000000000000000000000060648201526084016101f3565b6000610d306040518060400160405280600281526020017f61610000000000000000000000000000000000000000000000000000000000008152506040518060400160405280600181526020017f6100000000000000000000000000000000000000000000000000000000000000815250611f5f90919063ffffffff16565b6001911314610da75760405162461bcd60e51b815260206004820152602d60248201527f436f6d7061726520646966666572656e742076616c756520776974682064696660448201527f666572656e74206c656e6774680000000000000000000000000000000000000060648201526084016101f3565b6000610e266040518060400160405280600181526020017f61000000000000000000000000000000000000000000000000000000000000008152506040518060400160405280600281526020017f6161000000000000000000000000000000000000000000000000000000000000815250611f5f90919063ffffffff16565b6001911214610e9d5760405162461bcd60e51b815260206004820152602d60248201527f436f6d7061726520646966666572656e742076616c756520776974682064696660448201527f666572656e74206c656e6774680000000000000000000000000000000000000060648201526084016101f3565b60006040518060600160405280602281526020016127b3602291399050610ec48180611f5f565b15600114610f145760405162461bcd60e51b815260206004820181905260248201527f436f6d7061726573206d6f7265207468616e203332206279746573206368617260448201526064016101f3565b60006040518060600160405280602281526020016127916022913990506000610f3d8383611f5f565b6001911314610fb45760405162461bcd60e51b815260206004820152602a60248201527f436f6d70617265206c6f6e672063686172207769746820646966666572656e6360448201527f652061742073746172740000000000000000000000000000000000000000000060648201526084016101f3565b5050565b6040805180820190915260028082527f433400000000000000000000000000000000000000000000000000000000000060208301527f61000000000000000000000000000000000000000000000000000000000000009161101b91600090611f7a565b146110685760405162461bcd60e51b815260206004820152600a60248201527f4465636f6465202761270000000000000000000000000000000000000000000060448201526064016101f3565b6040805180820190915260048082527f433547470000000000000000000000000000000000000000000000000000000060208301527f6161000000000000000000000000000000000000000000000000000000000000916110cb91600090611f7a565b146111185760405162461bcd60e51b815260206004820152600b60248201527f4465636f6465202761612700000000000000000000000000000000000000000060448201526064016101f3565b6040805180820190915260058082527f4335474d3200000000000000000000000000000000000000000000000000000060208301527f61616100000000000000000000000000000000000000000000000000000000009161117b91600090611f7a565b146111c85760405162461bcd60e51b815260206004820152600c60248201527f4465636f6465202761616127000000000000000000000000000000000000000060448201526064016101f3565b6040805180820190915260078082527f4335474d324f380000000000000000000000000000000000000000000000000060208301527f61616161000000000000000000000000000000000000000000000000000000009161122b91600090611f7a565b146112785760405162461bcd60e51b815260206004820152600d60248201527f4465636f6465202761616161270000000000000000000000000000000000000060448201526064016101f3565b6040805180820190915260088082527f4335474d324f423100000000000000000000000000000000000000000000000060208301527f6161616161000000000000000000000000000000000000000000000000000000916112db91600090611f7a565b146113285760405162461bcd60e51b815260206004820152600e60248201527f4465636f6465202761616161612700000000000000000000000000000000000060448201526064016101f3565b6040805180820190915260088082527f6335676d324f623100000000000000000000000000000000000000000000000060208301527f61616161610000000000000000000000000000000000000000000000000000009161138b91600090611f7a565b146113d85760405162461bcd60e51b815260206004820152601860248201527f4465636f64652027616161616127206c6f77657263617365000000000000000060448201526064016101f3565b7f6162636465666768696a6b6c6d6e6f707172737475767778797a00000000000065ffffffffffff19166114296000602a6040518060600160405280602a815260200161281c602a91399190611f7a565b146114765760405162461bcd60e51b815260206004820152600f60248201527f4465636f646520616c706861626574000000000000000000000000000000000060448201526064016101f3565b7f6162636465666768696a6b6c6d6e6f707172737475767778797a00000000000065ffffffffffff19166114c76000602a6040518060600160405280602a8152602001612705602a91399190611f7a565b146115145760405162461bcd60e51b815260206004820152601960248201527f4465636f646520616c706861626574206c6f776572636173650000000000000060448201526064016101f3565b7f616161616161616161616161616161616161616161616161616161616161616161155c6000603460405180606001604052806034815260200161272f603491399190611f7a565b146115a95760405162461bcd60e51b815260206004820152600d60248201527f4465636f64652033322a2761270000000000000000000000000000000000000060448201526064016101f3565b7f5f3a48d66e3ec18431192611a2a055b01d3b4b5d0000000000000000000000006115f1600160206040518060600160405280602e8152602001612763602e91399190611f7a565b146101fc5760405162461bcd60e51b815260206004820152601660248201527f4465636f6465207265616c20627974657333326865780000000000000000000060448201526064016101f3565b604080518082018252600581527f78786278780000000000000000000000000000000000000000000000000000006020808301919091528251808401909352600383527f7861780000000000000000000000000000000000000000000000000000000000908301526000916116ba9160019081906002826121fa565b600191131461170b5760405162461bcd60e51b815260206004820152601360248201527f436f6d706172652073616d65206c656e6774680000000000000000000000000060448201526064016101f3565b604080518082018252600681527f78786162787800000000000000000000000000000000000000000000000000006020808301919091528251808401909352600383527f7861780000000000000000000000000000000000000000000000000000000000908301526000916117879160019081906002806121fa565b60019113146117d85760405162461bcd60e51b815260206004820152601860248201527f436f6d7061726520646966666572656e74206c656e677468000000000000000060448201526064016101f3565b604080518082018252600581527f78786178780000000000000000000000000000000000000000000000000000006020808301919091528251808401909352600383527f786178000000000000000000000000000000000000000000000000000000000090830152611852919060019081906002826121fa565b156001146101fc5760405162461bcd60e51b815260206004820152602260248201527f436f6d706172652073616d65207769746820646966666572656e74206f66667360448201527f657400000000000000000000000000000000000000000000000000000000000060648201526084016101f3565b6119456040518060400160405280600581526020017f68656c6c6f0000000000000000000000000000000000000000000000000000008152506040518060400160405280600581526020017f68656c6c6f00000000000000000000000000000000000000000000000000000081525061230d90919063ffffffff16565b15156001146119965760405162461bcd60e51b815260206004820152600f60248201527f537472696e6720657175616c697479000000000000000000000000000000000060448201526064016101f3565b611a136040518060400160405280600781526020017f676f6f64627965000000000000000000000000000000000000000000000000008152506040518060400160405280600581526020017f68656c6c6f00000000000000000000000000000000000000000000000000000081525061230d90919063ffffffff16565b15611a605760405162461bcd60e51b815260206004820152601160248201527f537472696e6720696e657175616c69747900000000000000000000000000000060448201526064016101f3565b611ae060016040518060400160405280600481526020017f656c6c6f000000000000000000000000000000000000000000000000000000008152506040518060400160405280600581526020017f68656c6c6f00000000000000000000000000000000000000000000000000000081525061232b9092919063ffffffff16565b1515600114611b315760405162461bcd60e51b815260206004820152601c60248201527f537562737472696e6720746f20737472696e6720657175616c6974790000000060448201526064016101f3565b611bb760016040518060400160405280600581526020017f6a656c6c6f000000000000000000000000000000000000000000000000000000815250600160046040518060400160405280600581526020017f68656c6c6f00000000000000000000000000000000000000000000000000000081525061235c90949392919063ffffffff16565b1515600114611c085760405162461bcd60e51b815260206004820152601f60248201527f537562737472696e6720746f20737562737472696e6720657175616c6974790060448201526064016101f3565b611c8b60016040518060400160405280600881526020017f61626368656c6c6f00000000000000000000000000000000000000000000000081525060036040518060400160405280600681526020017f7a68656c6c6f000000000000000000000000000000000000000000000000000081525061237f909392919063ffffffff16565b15156001146101fc5760405162461bcd60e51b815260206004820152602c60248201527f436f6d7061726520646966666572656e742076616c75652077697468206d756c60448201527f7469706c65206c656e677468000000000000000000000000000000000000000060648201526084016101f3565b6040805180820190915260208082527f303132333435363738396162636465663031323334353637383961626364656690820181905290611d449060006123b4565b146101fc5760405162461bcd60e51b815260206004820152600b60248201527f726561644279746573333200000000000000000000000000000000000000000060448201526064016101f3565b60408051808201909152600381527f61626300000000000000000000000000000000000000000000000000000000006020820152611dd09060016123d8565b61ffff16616263146101fc5760405162461bcd60e51b815260206004820152600c60248201527f526561642075696e74203136000000000000000000000000000000000000000060448201526064016101f3565b8151600090611e348360146124a3565b1115611e3f57600080fd5b5001602001517fffffffffffffffffffffffffffffffffffffffff0000000000000000000000001690565b8251606090611e7983856124a3565b1115611e8457600080fd5b60008267ffffffffffffffff811115611e9f57611e9f6124b6565b6040519080825280601f01601f191660200182016040528015611ec9576020820181803683370190505b50905060208082019086860101611ee1828287612400565b509095945050505050565b8151600090611efc8360046124a3565b1115611f0757600080fd5b50016004015163ffffffff1690565b6000828281518110611f2a57611f2a6124e5565b016020015160f81c90505b92915050565b8251600090611f4a83856124a3565b1115611f5557600080fd5b5091016020012090565b6000611f73836000855185600087516121fa565b9392505050565b60006034821115611f8a57600080fd5b600080805b848110156120de57600087611fa483896124a3565b81518110611fb457611fb46124e5565b01602001517fff000000000000000000000000000000000000000000000000000000000000001690507f3000000000000000000000000000000000000000000000000000000000000000811080159061204f57507f7a000000000000000000000000000000000000000000000000000000000000007fff00000000000000000000000000000000000000000000000000000000000000821611155b61205857600080fd5b6040518060800160405280604781526020016127d560479139612080603060f884901c612514565b81518110612090576120906124e5565b0160209081015160f81c93508311156120a857600080fd5b6120b3600187612514565b82036120bf57506120de565b5060059290921b60ff82161791806120d681612527565b915050611f8f565b5060006120ec85600561255f565b90506120f9600886612576565b600003612111578160ff16600584901b1792506121e0565b61211c600886612576565b60020361214a5760028260ff16901c60ff16600384901b1792506002816121439190612514565b90506121e0565b612155600886612576565b60040361217c5760048260ff16901c60ff16600184901b1792506004816121439190612514565b612187600886612576565b6005036121ae5760018260ff16901c60ff16600484901b1792506001816121439190612514565b6121b9600886612576565b6007036100c85760038260ff16901c60ff16600284901b1792506003816121439190612514565b6121ec81610100612514565b9290921b9695505050505050565b600084808310156122085750815b60208789018101908587010160005b838110156122f257825182518082146122c2576000602087111561225c57507fffffffffffffffffffffffffffffffffffffffffffffffffffffffffffffffff612298565b60018461226a896020612514565b61227491906124a3565b61227f90600861255f565b61228a9060026126d1565b6122949190612514565b1990505b60006122a88383168584166126dd565b905080156122bf5797506123039650505050505050565b50505b6122cd6020866124a3565b94506122da6020856124a3565b935050506020816122eb91906124a3565b9050612217565b506122fd85896126dd565b93505050505b9695505050505050565b600081518351148015611f735750611f73836000846000875161235c565b600081518361233a91906124a3565b84511015801561235457506123548484846000865161235c565b949350505050565b6000612369848484611f3b565b612374878785611f3b565b149695505050505050565b600061239883838486516123939190612514565b611f3b565b6123aa86868789516123939190612514565b1495945050505050565b81516000906123c48360206124a3565b11156123cf57600080fd5b50016020015190565b81516000906123e88360026124a3565b11156123f357600080fd5b50016002015161ffff1690565b6020811061243857815183526124176020846124a3565b92506124246020836124a3565b9150612431602082612514565b9050612400565b905182516020929092036101000a7fffffffffffffffffffffffffffffffffffffffffffffffffffffffffffffffff0180199091169116179052565b7f4e487b7100000000000000000000000000000000000000000000000000000000600052601160045260246000fd5b80820180821115611f3557611f35612474565b7f4e487b7100000000000000000000000000000000000000000000000000000000600052604160045260246000fd5b7f4e487b7100000000000000000000000000000000000000000000000000000000600052603260045260246000fd5b81810381811115611f3557611f35612474565b60007fffffffffffffffffffffffffffffffffffffffffffffffffffffffffffffffff820361255857612558612474565b5060010190565b8082028115828204841417611f3557611f35612474565b6000826125ac577f4e487b7100000000000000000000000000000000000000000000000000000000600052601260045260246000fd5b500690565b600181815b8085111561260a57817fffffffffffffffffffffffffffffffffffffffffffffffffffffffffffffffff048211156125f0576125f0612474565b808516156125fd57918102915b93841c93908002906125b6565b509250929050565b60008261262157506001611f35565b8161262e57506000611f35565b8160018114612644576002811461264e5761266a565b6001915050611f35565b60ff84111561265f5761265f612474565b50506001821b611f35565b5060208310610133831016604e8410600b841016171561268d575081810a611f35565b61269783836125b1565b807fffffffffffffffffffffffffffffffffffffffffffffffffffffffffffffffff048211156126c9576126c9612474565b029392505050565b6000611f738383612612565b81810360008312801583831316838312821617156126fd576126fd612474565b509291505056fe633568363670333563706a6d6771626164646d3671726a6665316f6e3473726b656c72376575337066384335474d324f42314335474d324f42314335474d324f42314335474d324f42314335474d324f42314335474d324f4231433547472062737434686c6a653772306f38633870346f38713538326c6d30656a6d697174076d61746f6b656e0378797a00323233343536373839303132333435363738393031323334353637383930313233343132333435363738393031323334353637383930313233343536373839303132333400010203040506070809ffffffffffffff0a0b0c0d0e0f101112131415161718191a1b1c1d1e1fffffffffffffffffffff0a0b0c0d0e0f101112131415161718191a1b1c1d1e1f433548363650333543504a4d4751424144444d3651524a4645314f4e3453524b454c5237455533504638a2646970667358221220b6bbcc284f3624e75e7e0ce9a5ad810c1252bbe8bbc941bfb28fd48e20192c9264736f6c63430008110033",
  "linkReferences": {},
  "deployedLinkReferences": {}
}