{
  "_format": "hh-sol-artifact-1",
  "contractName": "BaseRegistrarImplementation",
  "sourceName": "contracts/ethregistrar/BaseRegistrarImplementation.sol",
  "abi": [
    {
      "inputs": [
        {
          "internalType": "contract ENS",
          "name": "_ens",
          "type": "address"
        },
        {
          "internalType": "bytes32",
          "name": "_baseNode",
          "type": "bytes32"
        }
      ],
      "stateMutability": "nonpayable",
      "type": "constructor"
    },
    {
      "anonymous": false,
      "inputs": [
        {
          "indexed": true,
          "internalType": "address",
          "name": "owner",
          "type": "address"
        },
        {
          "indexed": true,
          "internalType": "address",
          "name": "approved",
          "type": "address"
        },
        {
          "indexed": true,
          "internalType": "uint256",
          "name": "tokenId",
          "type": "uint256"
        }
      ],
      "name": "Approval",
      "type": "event"
    },
    {
      "anonymous": false,
      "inputs": [
        {
          "indexed": true,
          "internalType": "address",
          "name": "owner",
          "type": "address"
        },
        {
          "indexed": true,
          "internalType": "address",
          "name": "operator",
          "type": "address"
        },
        {
          "indexed": false,
          "internalType": "bool",
          "name": "approved",
          "type": "bool"
        }
      ],
      "name": "ApprovalForAll",
      "type": "event"
    },
    {
      "anonymous": false,
      "inputs": [
        {
          "indexed": true,
          "internalType": "address",
          "name": "controller",
          "type": "address"
        }
      ],
      "name": "ControllerAdded",
      "type": "event"
    },
    {
      "anonymous": false,
      "inputs": [
        {
          "indexed": true,
          "internalType": "address",
          "name": "controller",
          "type": "address"
        }
      ],
      "name": "ControllerRemoved",
      "type": "event"
    },
    {
      "anonymous": false,
      "inputs": [
        {
          "indexed": true,
          "internalType": "uint256",
          "name": "id",
          "type": "uint256"
        },
        {
          "indexed": true,
          "internalType": "address",
          "name": "owner",
          "type": "address"
        },
        {
          "indexed": false,
          "internalType": "uint256",
          "name": "expires",
          "type": "uint256"
        }
      ],
      "name": "NameMigrated",
      "type": "event"
    },
    {
      "anonymous": false,
      "inputs": [
        {
          "indexed": true,
          "internalType": "uint256",
          "name": "id",
          "type": "uint256"
        },
        {
          "indexed": true,
          "internalType": "address",
          "name": "owner",
          "type": "address"
        },
        {
          "indexed": false,
          "internalType": "uint256",
          "name": "expires",
          "type": "uint256"
        }
      ],
      "name": "NameRegistered",
      "type": "event"
    },
    {
      "anonymous": false,
      "inputs": [
        {
          "indexed": true,
          "internalType": "uint256",
          "name": "id",
          "type": "uint256"
        },
        {
          "indexed": false,
          "internalType": "uint256",
          "name": "expires",
          "type": "uint256"
        }
      ],
      "name": "NameRenewed",
      "type": "event"
    },
    {
      "anonymous": false,
      "inputs": [
        {
          "indexed": true,
          "internalType": "address",
          "name": "previousOwner",
          "type": "address"
        },
        {
          "indexed": true,
          "internalType": "address",
          "name": "newOwner",
          "type": "address"
        }
      ],
      "name": "OwnershipTransferred",
      "type": "event"
    },
    {
      "anonymous": false,
      "inputs": [
        {
          "indexed": true,
          "internalType": "address",
          "name": "from",
          "type": "address"
        },
        {
          "indexed": true,
          "internalType": "address",
          "name": "to",
          "type": "address"
        },
        {
          "indexed": true,
          "internalType": "uint256",
          "name": "tokenId",
          "type": "uint256"
        }
      ],
      "name": "Transfer",
      "type": "event"
    },
    {
      "inputs": [],
      "name": "GRACE_PERIOD",
      "outputs": [
        {
          "internalType": "uint256",
          "name": "",
          "type": "uint256"
        }
      ],
      "stateMutability": "view",
      "type": "function"
    },
    {
      "inputs": [
        {
          "internalType": "address",
          "name": "controller",
          "type": "address"
        }
      ],
      "name": "addController",
      "outputs": [],
      "stateMutability": "nonpayable",
      "type": "function"
    },
    {
      "inputs": [
        {
          "internalType": "address",
          "name": "to",
          "type": "address"
        },
        {
          "internalType": "uint256",
          "name": "tokenId",
          "type": "uint256"
        }
      ],
      "name": "approve",
      "outputs": [],
      "stateMutability": "nonpayable",
      "type": "function"
    },
    {
      "inputs": [
        {
          "internalType": "uint256",
          "name": "id",
          "type": "uint256"
        }
      ],
      "name": "available",
      "outputs": [
        {
          "internalType": "bool",
          "name": "",
          "type": "bool"
        }
      ],
      "stateMutability": "view",
      "type": "function"
    },
    {
      "inputs": [
        {
          "internalType": "address",
          "name": "owner",
          "type": "address"
        }
      ],
      "name": "balanceOf",
      "outputs": [
        {
          "internalType": "uint256",
          "name": "",
          "type": "uint256"
        }
      ],
      "stateMutability": "view",
      "type": "function"
    },
    {
      "inputs": [],
      "name": "baseNode",
      "outputs": [
        {
          "internalType": "bytes32",
          "name": "",
          "type": "bytes32"
        }
      ],
      "stateMutability": "view",
      "type": "function"
    },
    {
      "inputs": [
        {
          "internalType": "address",
          "name": "",
          "type": "address"
        }
      ],
      "name": "controllers",
      "outputs": [
        {
          "internalType": "bool",
          "name": "",
          "type": "bool"
        }
      ],
      "stateMutability": "view",
      "type": "function"
    },
    {
      "inputs": [],
      "name": "ens",
      "outputs": [
        {
          "internalType": "contract ENS",
          "name": "",
          "type": "address"
        }
      ],
      "stateMutability": "view",
      "type": "function"
    },
    {
      "inputs": [
        {
          "internalType": "uint256",
          "name": "tokenId",
          "type": "uint256"
        }
      ],
      "name": "getApproved",
      "outputs": [
        {
          "internalType": "address",
          "name": "",
          "type": "address"
        }
      ],
      "stateMutability": "view",
      "type": "function"
    },
    {
      "inputs": [
        {
          "internalType": "address",
          "name": "owner",
          "type": "address"
        },
        {
          "internalType": "address",
          "name": "operator",
          "type": "address"
        }
      ],
      "name": "isApprovedForAll",
      "outputs": [
        {
          "internalType": "bool",
          "name": "",
          "type": "bool"
        }
      ],
      "stateMutability": "view",
      "type": "function"
    },
    {
      "inputs": [],
      "name": "name",
      "outputs": [
        {
          "internalType": "string",
          "name": "",
          "type": "string"
        }
      ],
      "stateMutability": "view",
      "type": "function"
    },
    {
      "inputs": [
        {
          "internalType": "uint256",
          "name": "id",
          "type": "uint256"
        }
      ],
      "name": "nameExpires",
      "outputs": [
        {
          "internalType": "uint256",
          "name": "",
          "type": "uint256"
        }
      ],
      "stateMutability": "view",
      "type": "function"
    },
    {
      "inputs": [],
      "name": "owner",
      "outputs": [
        {
          "internalType": "address",
          "name": "",
          "type": "address"
        }
      ],
      "stateMutability": "view",
      "type": "function"
    },
    {
      "inputs": [
        {
          "internalType": "uint256",
          "name": "tokenId",
          "type": "uint256"
        }
      ],
      "name": "ownerOf",
      "outputs": [
        {
          "internalType": "address",
          "name": "",
          "type": "address"
        }
      ],
      "stateMutability": "view",
      "type": "function"
    },
    {
      "inputs": [
        {
          "internalType": "uint256",
          "name": "id",
          "type": "uint256"
        },
        {
          "internalType": "address",
          "name": "owner",
          "type": "address"
        }
      ],
      "name": "reclaim",
      "outputs": [],
      "stateMutability": "nonpayable",
      "type": "function"
    },
    {
      "inputs": [
        {
          "internalType": "uint256",
          "name": "id",
          "type": "uint256"
        },
        {
          "internalType": "address",
          "name": "owner",
          "type": "address"
        },
        {
          "internalType": "uint256",
          "name": "duration",
          "type": "uint256"
        }
      ],
      "name": "register",
      "outputs": [
        {
          "internalType": "uint256",
          "name": "",
          "type": "uint256"
        }
      ],
      "stateMutability": "nonpayable",
      "type": "function"
    },
    {
      "inputs": [
        {
          "internalType": "uint256",
          "name": "id",
          "type": "uint256"
        },
        {
          "internalType": "address",
          "name": "owner",
          "type": "address"
        },
        {
          "internalType": "uint256",
          "name": "duration",
          "type": "uint256"
        }
      ],
      "name": "registerOnly",
      "outputs": [
        {
          "internalType": "uint256",
          "name": "",
          "type": "uint256"
        }
      ],
      "stateMutability": "nonpayable",
      "type": "function"
    },
    {
      "inputs": [
        {
          "internalType": "address",
          "name": "controller",
          "type": "address"
        }
      ],
      "name": "removeController",
      "outputs": [],
      "stateMutability": "nonpayable",
      "type": "function"
    },
    {
      "inputs": [
        {
          "internalType": "uint256",
          "name": "id",
          "type": "uint256"
        },
        {
          "internalType": "uint256",
          "name": "duration",
          "type": "uint256"
        }
      ],
      "name": "renew",
      "outputs": [
        {
          "internalType": "uint256",
          "name": "",
          "type": "uint256"
        }
      ],
      "stateMutability": "nonpayable",
      "type": "function"
    },
    {
      "inputs": [],
      "name": "renounceOwnership",
      "outputs": [],
      "stateMutability": "nonpayable",
      "type": "function"
    },
    {
      "inputs": [
        {
          "internalType": "address",
          "name": "from",
          "type": "address"
        },
        {
          "internalType": "address",
          "name": "to",
          "type": "address"
        },
        {
          "internalType": "uint256",
          "name": "tokenId",
          "type": "uint256"
        }
      ],
      "name": "safeTransferFrom",
      "outputs": [],
      "stateMutability": "nonpayable",
      "type": "function"
    },
    {
      "inputs": [
        {
          "internalType": "address",
          "name": "from",
          "type": "address"
        },
        {
          "internalType": "address",
          "name": "to",
          "type": "address"
        },
        {
          "internalType": "uint256",
          "name": "tokenId",
          "type": "uint256"
        },
        {
          "internalType": "bytes",
          "name": "_data",
          "type": "bytes"
        }
      ],
      "name": "safeTransferFrom",
      "outputs": [],
      "stateMutability": "nonpayable",
      "type": "function"
    },
    {
      "inputs": [
        {
          "internalType": "address",
          "name": "operator",
          "type": "address"
        },
        {
          "internalType": "bool",
          "name": "approved",
          "type": "bool"
        }
      ],
      "name": "setApprovalForAll",
      "outputs": [],
      "stateMutability": "nonpayable",
      "type": "function"
    },
    {
      "inputs": [
        {
          "internalType": "address",
          "name": "resolver",
          "type": "address"
        }
      ],
      "name": "setResolver",
      "outputs": [],
      "stateMutability": "nonpayable",
      "type": "function"
    },
    {
      "inputs": [
        {
          "internalType": "bytes4",
          "name": "interfaceID",
          "type": "bytes4"
        }
      ],
      "name": "supportsInterface",
      "outputs": [
        {
          "internalType": "bool",
          "name": "",
          "type": "bool"
        }
      ],
      "stateMutability": "view",
      "type": "function"
    },
    {
      "inputs": [],
      "name": "symbol",
      "outputs": [
        {
          "internalType": "string",
          "name": "",
          "type": "string"
        }
      ],
      "stateMutability": "view",
      "type": "function"
    },
    {
      "inputs": [
        {
          "internalType": "uint256",
          "name": "tokenId",
          "type": "uint256"
        }
      ],
      "name": "tokenURI",
      "outputs": [
        {
          "internalType": "string",
          "name": "",
          "type": "string"
        }
      ],
      "stateMutability": "view",
      "type": "function"
    },
    {
      "inputs": [
        {
          "internalType": "address",
          "name": "from",
          "type": "address"
        },
        {
          "internalType": "address",
          "name": "to",
          "type": "address"
        },
        {
          "internalType": "uint256",
          "name": "tokenId",
          "type": "uint256"
        }
      ],
      "name": "transferFrom",
      "outputs": [],
      "stateMutability": "nonpayable",
      "type": "function"
    },
    {
      "inputs": [
        {
          "internalType": "address",
          "name": "newOwner",
          "type": "address"
        }
      ],
      "name": "transferOwnership",
      "outputs": [],
      "stateMutability": "nonpayable",
      "type": "function"
    }
  ],
  "bytecode": "0x60806040523480156200001157600080fd5b5060405162002661380380620026618339810160408190526200003491620001bc565b604080516020808201808452600080845284519283019094528382528251929391926200006392919062000116565b5080516200007990600190602084019062000116565b5050506200009662000090620000c060201b60201c565b620000c4565b600880546001600160a01b0319166001600160a01b03939093169290921790915560095562000234565b3390565b600680546001600160a01b038381166001600160a01b0319831681179093556040519116919082907f8be0079c531659141344cd1fd0a4f28419497f9722a3daafe3b4186f6b6457e090600090a35050565b8280546200012490620001f8565b90600052602060002090601f01602090048101928262000148576000855562000193565b82601f106200016357805160ff191683800117855562000193565b8280016001018555821562000193579182015b828111156200019357825182559160200191906001019062000176565b50620001a1929150620001a5565b5090565b5b80821115620001a15760008155600101620001a6565b60008060408385031215620001d057600080fd5b82516001600160a01b0381168114620001e857600080fd5b6020939093015192949293505050565b600181811c908216806200020d57607f821691505b6020821081036200022e57634e487b7160e01b600052602260045260246000fd5b50919050565b61241d80620002446000396000f3fe608060405234801561001057600080fd5b50600436106101cf5760003560e01c806395d89b4111610104578063c87b56dd116100a2578063e985e9c511610071578063e985e9c5146103e0578063f2fde38b1461041c578063f6a74ed71461042f578063fca247ac1461044257600080fd5b8063c87b56dd14610381578063d6e4fa8614610394578063da8c229e146103b4578063ddf7fcb0146103d757600080fd5b8063a7fc7a07116100de578063a7fc7a071461033e578063b88d4fde14610351578063c1a287e214610364578063c475abff1461036e57600080fd5b806395d89b411461031057806396e494e814610318578063a22cb4651461032b57600080fd5b80633f15457f116101715780636352211e1161014b5780636352211e146102d157806370a08231146102e4578063715018a6146102f75780638da5cb5b146102ff57600080fd5b80633f15457f1461029857806342842e0e146102ab5780634e543b26146102be57600080fd5b8063095ea7b3116101ad578063095ea7b31461023c5780630e297b451461025157806323b872dd1461027257806328ed4f6c1461028557600080fd5b806301ffc9a7146101d457806306fdde03146101fc578063081812fc14610211575b600080fd5b6101e76101e2366004611e55565b610455565b60405190151581526020015b60405180910390f35b61020461053a565b6040516101f39190611ee8565b61022461021f366004611efb565b6105cc565b6040516001600160a01b0390911681526020016101f3565b61024f61024a366004611f29565b610677565b005b61026461025f366004611f55565b6107a8565b6040519081526020016101f3565b61024f610280366004611f8d565b6107bf565b61024f610293366004611fbd565b610846565b600854610224906001600160a01b031681565b61024f6102b9366004611f8d565b610991565b61024f6102cc366004611fed565b6109ac565b6102246102df366004611efb565b610a8c565b6102646102f2366004611fed565b610aaf565b61024f610b49565b6006546001600160a01b0316610224565b610204610baf565b6101e7610326366004611efb565b610bbe565b61024f61033936600461200a565b610be4565b61024f61034c366004611fed565b610bf3565b61024f61035f36600461206c565b610cb7565b6102646276a70081565b61026461037c36600461216a565b610d45565b61020461038f366004611efb565b610eef565b6102646103a2366004611efb565b60009081526007602052604090205490565b6101e76103c2366004611fed565b600a6020526000908152604090205460ff1681565b61026460095481565b6101e76103ee36600461218c565b6001600160a01b03918216600090815260056020908152604080832093909416825291909152205460ff1690565b61024f61042a366004611fed565b610fe5565b61024f61043d366004611fed565b6110c7565b610264610450366004611f55565b611188565b60007fffffffff0000000000000000000000000000000000000000000000000000000082167f01ffc9a70000000000000000000000000000000000000000000000000000000014806104e857507fffffffff0000000000000000000000000000000000000000000000000000000082167f80ac58cd00000000000000000000000000000000000000000000000000000000145b8061053457507fffffffff0000000000000000000000000000000000000000000000000000000082167f28ed4f6c00000000000000000000000000000000000000000000000000000000145b92915050565b606060008054610549906121ba565b80601f0160208091040260200160405190810160405280929190818152602001828054610575906121ba565b80156105c25780601f10610597576101008083540402835291602001916105c2565b820191906000526020600020905b8154815290600101906020018083116105a557829003601f168201915b5050505050905090565b6000818152600260205260408120546001600160a01b031661065b5760405162461bcd60e51b815260206004820152602c60248201527f4552433732313a20617070726f76656420717565727920666f72206e6f6e657860448201527f697374656e7420746f6b656e000000000000000000000000000000000000000060648201526084015b60405180910390fd5b506000908152600460205260409020546001600160a01b031690565b600061068282611197565b9050806001600160a01b0316836001600160a01b03160361070b5760405162461bcd60e51b815260206004820152602160248201527f4552433732313a20617070726f76616c20746f2063757272656e74206f776e6560448201527f72000000000000000000000000000000000000000000000000000000000000006064820152608401610652565b336001600160a01b0382161480610727575061072781336103ee565b6107995760405162461bcd60e51b815260206004820152603860248201527f4552433732313a20617070726f76652063616c6c6572206973206e6f74206f7760448201527f6e6572206e6f7220617070726f76656420666f7220616c6c00000000000000006064820152608401610652565b6107a38383611222565b505050565b60006107b784848460006112a8565b949350505050565b6107c933826114ea565b61083b5760405162461bcd60e51b815260206004820152603160248201527f4552433732313a207472616e736665722063616c6c6572206973206e6f74206f60448201527f776e6572206e6f7220617070726f7665640000000000000000000000000000006064820152608401610652565b6107a3838383611565565b6008546009546040517f02571be3000000000000000000000000000000000000000000000000000000008152600481019190915230916001600160a01b0316906302571be390602401602060405180830381865afa1580156108ac573d6000803e3d6000fd5b505050506040513d601f19601f820116820180604052508101906108d0919061220d565b6001600160a01b0316146108e357600080fd5b6108ed33836114ea565b6108f657600080fd5b6008546009546040517f06ab59230000000000000000000000000000000000000000000000000000000081526004810191909152602481018490526001600160a01b038381166044830152909116906306ab5923906064016020604051808303816000875af115801561096d573d6000803e3d6000fd5b505050506040513d601f19601f820116820180604052508101906107a3919061222a565b6107a383838360405180602001604052806000815250610cb7565b6006546001600160a01b03163314610a065760405162461bcd60e51b815260206004820181905260248201527f4f776e61626c653a2063616c6c6572206973206e6f7420746865206f776e65726044820152606401610652565b6008546009546040517f1896f70a00000000000000000000000000000000000000000000000000000000815260048101919091526001600160a01b03838116602483015290911690631896f70a90604401600060405180830381600087803b158015610a7157600080fd5b505af1158015610a85573d6000803e3d6000fd5b5050505050565b6000818152600760205260408120544210610aa657600080fd5b61053482611197565b60006001600160a01b038216610b2d5760405162461bcd60e51b815260206004820152602a60248201527f4552433732313a2062616c616e636520717565727920666f7220746865207a6560448201527f726f2061646472657373000000000000000000000000000000000000000000006064820152608401610652565b506001600160a01b031660009081526003602052604090205490565b6006546001600160a01b03163314610ba35760405162461bcd60e51b815260206004820181905260248201527f4f776e61626c653a2063616c6c6572206973206e6f7420746865206f776e65726044820152606401610652565b610bad600061174a565b565b606060018054610549906121ba565b6000818152600760205260408120544290610bdd906276a70090612272565b1092915050565b610bef3383836117b4565b5050565b6006546001600160a01b03163314610c4d5760405162461bcd60e51b815260206004820181905260248201527f4f776e61626c653a2063616c6c6572206973206e6f7420746865206f776e65726044820152606401610652565b6001600160a01b0381166000818152600a602052604080822080547fffffffffffffffffffffffffffffffffffffffffffffffffffffffffffffff00166001179055517f0a8bb31534c0ed46f380cb867bd5c803a189ced9a764e30b3a4991a9901d74749190a250565b610cc133836114ea565b610d335760405162461bcd60e51b815260206004820152603160248201527f4552433732313a207472616e736665722063616c6c6572206973206e6f74206f60448201527f776e6572206e6f7220617070726f7665640000000000000000000000000000006064820152608401610652565b610d3f848484846118a0565b50505050565b6008546009546040517f02571be3000000000000000000000000000000000000000000000000000000008152600481019190915260009130916001600160a01b03909116906302571be390602401602060405180830381865afa158015610db0573d6000803e3d6000fd5b505050506040513d601f19601f82011682018060405250810190610dd4919061220d565b6001600160a01b031614610de757600080fd5b336000908152600a602052604090205460ff16610e0357600080fd5b6000838152600760205260409020544290610e22906276a70090612272565b1015610e2d57600080fd5b610e3a6276a70083612272565b6000848152600760205260409020546276a70090610e59908590612272565b610e639190612272565b11610e6d57600080fd5b60008381526007602052604081208054849290610e8b908490612272565b90915550506000838152600760205260409081902054905184917f9b87a00e30f1ac65d898f070f8a3488fe60517182d0a2098e1b4b93a54aa9bd691610ed391815260200190565b60405180910390a2505060009081526007602052604090205490565b6000818152600260205260409020546060906001600160a01b0316610f7c5760405162461bcd60e51b815260206004820152602f60248201527f4552433732314d657461646174613a2055524920717565727920666f72206e6f60448201527f6e6578697374656e7420746f6b656e00000000000000000000000000000000006064820152608401610652565b6000610f9360408051602081019091526000815290565b90506000815111610fb35760405180602001604052806000815250610fde565b80610fbd84611929565b604051602001610fce92919061228a565b6040516020818303038152906040525b9392505050565b6006546001600160a01b0316331461103f5760405162461bcd60e51b815260206004820181905260248201527f4f776e61626c653a2063616c6c6572206973206e6f7420746865206f776e65726044820152606401610652565b6001600160a01b0381166110bb5760405162461bcd60e51b815260206004820152602660248201527f4f776e61626c653a206e6577206f776e657220697320746865207a65726f206160448201527f64647265737300000000000000000000000000000000000000000000000000006064820152608401610652565b6110c48161174a565b50565b6006546001600160a01b031633146111215760405162461bcd60e51b815260206004820181905260248201527f4f776e61626c653a2063616c6c6572206973206e6f7420746865206f776e65726044820152606401610652565b6001600160a01b0381166000818152600a602052604080822080547fffffffffffffffffffffffffffffffffffffffffffffffffffffffffffffff00169055517f33d83959be2573f5453b12eb9d43b3499bc57d96bd2f067ba44803c859e811139190a250565b60006107b784848460016112a8565b6000818152600260205260408120546001600160a01b0316806105345760405162461bcd60e51b815260206004820152602960248201527f4552433732313a206f776e657220717565727920666f72206e6f6e657869737460448201527f656e7420746f6b656e00000000000000000000000000000000000000000000006064820152608401610652565b600081815260046020526040902080547fffffffffffffffffffffffff0000000000000000000000000000000000000000166001600160a01b038416908117909155819061126f82611197565b6001600160a01b03167f8c5be1e5ebec7d5bd14f71427d1e84f3dd0314c0f7b2291e5b200ac8c7c3b92560405160405180910390a45050565b6008546009546040517f02571be3000000000000000000000000000000000000000000000000000000008152600481019190915260009130916001600160a01b03909116906302571be390602401602060405180830381865afa158015611313573d6000803e3d6000fd5b505050506040513d601f19601f82011682018060405250810190611337919061220d565b6001600160a01b03161461134a57600080fd5b336000908152600a602052604090205460ff1661136657600080fd5b61136f85610bbe565b61137857600080fd5b6113856276a70042612272565b6276a7006113938542612272565b61139d9190612272565b116113a757600080fd5b6113b18342612272565b6000868152600760209081526040808320939093556002905220546001600160a01b0316156113e3576113e385611a5e565b6113ed8486611b11565b8115611490576008546009546040517f06ab59230000000000000000000000000000000000000000000000000000000081526004810191909152602481018790526001600160a01b038681166044830152909116906306ab5923906064016020604051808303816000875af115801561146a573d6000803e3d6000fd5b505050506040513d601f19601f8201168201806040525081019061148e919061222a565b505b6001600160a01b038416857fb3d987963d01b2f68493b4bdb130988f157ea43070d4ad840fee0466ed9370d96114c68642612272565b60405190815260200160405180910390a36114e18342612272565b95945050505050565b6000806114f683610a8c565b9050806001600160a01b0316846001600160a01b031614806115315750836001600160a01b0316611526846105cc565b6001600160a01b0316145b806107b757506001600160a01b0380821660009081526005602090815260408083209388168352929052205460ff166107b7565b826001600160a01b031661157882611197565b6001600160a01b0316146115f45760405162461bcd60e51b815260206004820152602560248201527f4552433732313a207472616e736665722066726f6d20696e636f72726563742060448201527f6f776e65720000000000000000000000000000000000000000000000000000006064820152608401610652565b6001600160a01b03821661166f5760405162461bcd60e51b8152602060048201526024808201527f4552433732313a207472616e7366657220746f20746865207a65726f2061646460448201527f72657373000000000000000000000000000000000000000000000000000000006064820152608401610652565b61167a600082611222565b6001600160a01b03831660009081526003602052604081208054600192906116a39084906122b9565b90915550506001600160a01b03821660009081526003602052604081208054600192906116d1908490612272565b909155505060008181526002602052604080822080547fffffffffffffffffffffffff0000000000000000000000000000000000000000166001600160a01b0386811691821790925591518493918716917fddf252ad1be2c89b69c2b068fc378daa952ba7f163c4a11628f55a4df523b3ef91a4505050565b600680546001600160a01b038381167fffffffffffffffffffffffff0000000000000000000000000000000000000000831681179093556040519116919082907f8be0079c531659141344cd1fd0a4f28419497f9722a3daafe3b4186f6b6457e090600090a35050565b816001600160a01b0316836001600160a01b0316036118155760405162461bcd60e51b815260206004820152601960248201527f4552433732313a20617070726f766520746f2063616c6c6572000000000000006044820152606401610652565b6001600160a01b0383811660008181526005602090815260408083209487168084529482529182902080547fffffffffffffffffffffffffffffffffffffffffffffffffffffffffffffff001686151590811790915591519182527f17307eab39ab6107e8899845ad3d59bd9653f200f220920489ca2b5937696c31910160405180910390a3505050565b6118ab848484611565565b6118b784848484611c6b565b610d3f5760405162461bcd60e51b815260206004820152603260248201527f4552433732313a207472616e7366657220746f206e6f6e20455243373231526560448201527f63656976657220696d706c656d656e74657200000000000000000000000000006064820152608401610652565b60608160000361196c57505060408051808201909152600181527f3000000000000000000000000000000000000000000000000000000000000000602082015290565b8160005b81156119965780611980816122d0565b915061198f9050600a83612337565b9150611970565b60008167ffffffffffffffff8111156119b1576119b161203d565b6040519080825280601f01601f1916602001820160405280156119db576020820181803683370190505b5090505b84156107b7576119f06001836122b9565b91506119fd600a8661234b565b611a08906030612272565b60f81b818381518110611a1d57611a1d61235f565b60200101907effffffffffffffffffffffffffffffffffffffffffffffffffffffffffffff1916908160001a905350611a57600a86612337565b94506119df565b6000611a6982611197565b9050611a76600083611222565b6001600160a01b0381166000908152600360205260408120805460019290611a9f9084906122b9565b909155505060008281526002602052604080822080547fffffffffffffffffffffffff0000000000000000000000000000000000000000169055518391906001600160a01b038416907fddf252ad1be2c89b69c2b068fc378daa952ba7f163c4a11628f55a4df523b3ef908390a45050565b6001600160a01b038216611b675760405162461bcd60e51b815260206004820181905260248201527f4552433732313a206d696e7420746f20746865207a65726f20616464726573736044820152606401610652565b6000818152600260205260409020546001600160a01b031615611bcc5760405162461bcd60e51b815260206004820152601c60248201527f4552433732313a20746f6b656e20616c7265616479206d696e746564000000006044820152606401610652565b6001600160a01b0382166000908152600360205260408120805460019290611bf5908490612272565b909155505060008181526002602052604080822080547fffffffffffffffffffffffff0000000000000000000000000000000000000000166001600160a01b03861690811790915590518392907fddf252ad1be2c89b69c2b068fc378daa952ba7f163c4a11628f55a4df523b3ef908290a45050565b60006001600160a01b0384163b15611e1f576040517f150b7a020000000000000000000000000000000000000000000000000000000081526001600160a01b0385169063150b7a0290611cc890339089908890889060040161238e565b6020604051808303816000875af1925050508015611d21575060408051601f3d9081017fffffffffffffffffffffffffffffffffffffffffffffffffffffffffffffffe0168201909252611d1e918101906123ca565b60015b611dd4573d808015611d4f576040519150601f19603f3d011682016040523d82523d6000602084013e611d54565b606091505b508051600003611dcc5760405162461bcd60e51b815260206004820152603260248201527f4552433732313a207472616e7366657220746f206e6f6e20455243373231526560448201527f63656976657220696d706c656d656e74657200000000000000000000000000006064820152608401610652565b805181602001fd5b7fffffffff00000000000000000000000000000000000000000000000000000000167f150b7a02000000000000000000000000000000000000000000000000000000001490506107b7565b5060016107b7565b7fffffffff00000000000000000000000000000000000000000000000000000000811681146110c457600080fd5b600060208284031215611e6757600080fd5b8135610fde81611e27565b60005b83811015611e8d578181015183820152602001611e75565b83811115610d3f5750506000910152565b60008151808452611eb6816020860160208601611e72565b601f017fffffffffffffffffffffffffffffffffffffffffffffffffffffffffffffffe0169290920160200192915050565b602081526000610fde6020830184611e9e565b600060208284031215611f0d57600080fd5b5035919050565b6001600160a01b03811681146110c457600080fd5b60008060408385031215611f3c57600080fd5b8235611f4781611f14565b946020939093013593505050565b600080600060608486031215611f6a57600080fd5b833592506020840135611f7c81611f14565b929592945050506040919091013590565b600080600060608486031215611fa257600080fd5b8335611fad81611f14565b92506020840135611f7c81611f14565b60008060408385031215611fd057600080fd5b823591506020830135611fe281611f14565b809150509250929050565b600060208284031215611fff57600080fd5b8135610fde81611f14565b6000806040838503121561201d57600080fd5b823561202881611f14565b915060208301358015158114611fe257600080fd5b7f4e487b7100000000000000000000000000000000000000000000000000000000600052604160045260246000fd5b6000806000806080858703121561208257600080fd5b843561208d81611f14565b9350602085013561209d81611f14565b925060408501359150606085013567ffffffffffffffff808211156120c157600080fd5b818701915087601f8301126120d557600080fd5b8135818111156120e7576120e761203d565b604051601f82017fffffffffffffffffffffffffffffffffffffffffffffffffffffffffffffffe0908116603f0116810190838211818310171561212d5761212d61203d565b816040528281528a602084870101111561214657600080fd5b82602086016020830137600060208483010152809550505050505092959194509250565b6000806040838503121561217d57600080fd5b50508035926020909101359150565b6000806040838503121561219f57600080fd5b82356121aa81611f14565b91506020830135611fe281611f14565b600181811c908216806121ce57607f821691505b602082108103612207577f4e487b7100000000000000000000000000000000000000000000000000000000600052602260045260246000fd5b50919050565b60006020828403121561221f57600080fd5b8151610fde81611f14565b60006020828403121561223c57600080fd5b5051919050565b7f4e487b7100000000000000000000000000000000000000000000000000000000600052601160045260246000fd5b6000821982111561228557612285612243565b500190565b6000835161229c818460208801611e72565b8351908301906122b0818360208801611e72565b01949350505050565b6000828210156122cb576122cb612243565b500390565b60007fffffffffffffffffffffffffffffffffffffffffffffffffffffffffffffffff820361230157612301612243565b5060010190565b7f4e487b7100000000000000000000000000000000000000000000000000000000600052601260045260246000fd5b60008261234657612346612308565b500490565b60008261235a5761235a612308565b500690565b7f4e487b7100000000000000000000000000000000000000000000000000000000600052603260045260246000fd5b60006001600160a01b038087168352808616602084015250836040830152608060608301526123c06080830184611e9e565b9695505050505050565b6000602082840312156123dc57600080fd5b8151610fde81611e2756fea2646970667358221220d34495f7fe15102b03f6bb7e4220ff5d1c3c67290f3468507163e0f11bcc23d464736f6c634300080d0033",
  "linkReferences": {},
  "deployedLinkReferences": {}
}