{
  "_format": "hh-sol-artifact-1",
  "contractName": "ETHRegistrarController",
  "sourceName": "contracts/ethregistrar/ETHRegistrarController.sol",
  "abi": [
    {
      "inputs": [
        {
          "internalType": "contract BaseRegistrarImplementation",
          "name": "_base",
          "type": "address"
        },
        {
          "internalType": "contract IPriceOracle",
          "name": "_prices",
          "type": "address"
        },
        {
          "internalType": "uint256",
          "name": "_minCommitmentAge",
          "type": "uint256"
        },
        {
          "internalType": "uint256",
          "name": "_maxCommitmentAge",
          "type": "uint256"
        },
        {
          "internalType": "contract ReverseRegistrar",
          "name": "_reverseRegistrar",
          "type": "address"
        },
        {
          "internalType": "contract INameWrapper",
          "name": "_nameWrapper",
          "type": "address"
        }
      ],
      "stateMutability": "nonpayable",
      "type": "constructor"
    },
    {
      "anonymous": false,
      "inputs": [
        {
          "indexed": false,
          "internalType": "string",
          "name": "name",
          "type": "string"
        },
        {
          "indexed": true,
          "internalType": "bytes32",
          "name": "label",
          "type": "bytes32"
        },
        {
          "indexed": true,
          "internalType": "address",
          "name": "owner",
          "type": "address"
        },
        {
          "indexed": false,
          "internalType": "uint256",
          "name": "baseCost",
          "type": "uint256"
        },
        {
          "indexed": false,
          "internalType": "uint256",
          "name": "premium",
          "type": "uint256"
        },
        {
          "indexed": false,
          "internalType": "uint256",
          "name": "expires",
          "type": "uint256"
        }
      ],
      "name": "NameRegistered",
      "type": "event"
    },
    {
      "anonymous": false,
      "inputs": [
        {
          "indexed": false,
          "internalType": "string",
          "name": "name",
          "type": "string"
        },
        {
          "indexed": true,
          "internalType": "bytes32",
          "name": "label",
          "type": "bytes32"
        },
        {
          "indexed": false,
          "internalType": "uint256",
          "name": "cost",
          "type": "uint256"
        },
        {
          "indexed": false,
          "internalType": "uint256",
          "name": "expires",
          "type": "uint256"
        }
      ],
      "name": "NameRenewed",
      "type": "event"
    },
    {
      "anonymous": false,
      "inputs": [
        {
          "indexed": true,
          "internalType": "address",
          "name": "previousOwner",
          "type": "address"
        },
        {
          "indexed": true,
          "internalType": "address",
          "name": "newOwner",
          "type": "address"
        }
      ],
      "name": "OwnershipTransferred",
      "type": "event"
    },
    {
      "inputs": [],
      "name": "MIN_REGISTRATION_DURATION",
      "outputs": [
        {
          "internalType": "uint256",
          "name": "",
          "type": "uint256"
        }
      ],
      "stateMutability": "view",
      "type": "function"
    },
    {
      "inputs": [
        {
          "internalType": "string",
          "name": "name",
          "type": "string"
        }
      ],
      "name": "available",
      "outputs": [
        {
          "internalType": "bool",
          "name": "",
          "type": "bool"
        }
      ],
      "stateMutability": "view",
      "type": "function"
    },
    {
      "inputs": [
        {
          "internalType": "bytes32",
          "name": "commitment",
          "type": "bytes32"
        }
      ],
      "name": "commit",
      "outputs": [],
      "stateMutability": "nonpayable",
      "type": "function"
    },
    {
      "inputs": [
        {
          "internalType": "bytes32",
          "name": "",
          "type": "bytes32"
        }
      ],
      "name": "commitments",
      "outputs": [
        {
          "internalType": "uint256",
          "name": "",
          "type": "uint256"
        }
      ],
      "stateMutability": "view",
      "type": "function"
    },
    {
      "inputs": [
        {
          "internalType": "string",
          "name": "name",
          "type": "string"
        },
        {
          "internalType": "address",
          "name": "owner",
          "type": "address"
        },
        {
          "internalType": "uint256",
          "name": "duration",
          "type": "uint256"
        },
        {
          "internalType": "bytes32",
          "name": "secret",
          "type": "bytes32"
        },
        {
          "internalType": "address",
          "name": "resolver",
          "type": "address"
        },
        {
          "internalType": "bytes[]",
          "name": "data",
          "type": "bytes[]"
        },
        {
          "internalType": "bool",
          "name": "reverseRecord",
          "type": "bool"
        },
        {
          "internalType": "uint96",
          "name": "fuses",
          "type": "uint96"
        }
      ],
      "name": "makeCommitment",
      "outputs": [
        {
          "internalType": "bytes32",
          "name": "",
          "type": "bytes32"
        }
      ],
      "stateMutability": "pure",
      "type": "function"
    },
    {
      "inputs": [],
      "name": "maxCommitmentAge",
      "outputs": [
        {
          "internalType": "uint256",
          "name": "",
          "type": "uint256"
        }
      ],
      "stateMutability": "view",
      "type": "function"
    },
    {
      "inputs": [],
      "name": "minCommitmentAge",
      "outputs": [
        {
          "internalType": "uint256",
          "name": "",
          "type": "uint256"
        }
      ],
      "stateMutability": "view",
      "type": "function"
    },
    {
      "inputs": [],
      "name": "nameWrapper",
      "outputs": [
        {
          "internalType": "contract INameWrapper",
          "name": "",
          "type": "address"
        }
      ],
      "stateMutability": "view",
      "type": "function"
    },
    {
      "inputs": [],
      "name": "owner",
      "outputs": [
        {
          "internalType": "address",
          "name": "",
          "type": "address"
        }
      ],
      "stateMutability": "view",
      "type": "function"
    },
    {
      "inputs": [],
      "name": "prices",
      "outputs": [
        {
          "internalType": "contract IPriceOracle",
          "name": "",
          "type": "address"
        }
      ],
      "stateMutability": "view",
      "type": "function"
    },
    {
      "inputs": [
        {
          "internalType": "string",
          "name": "name",
          "type": "string"
        },
        {
          "internalType": "address",
          "name": "owner",
          "type": "address"
        },
        {
          "internalType": "uint256",
          "name": "duration",
          "type": "uint256"
        },
        {
          "internalType": "bytes32",
          "name": "secret",
          "type": "bytes32"
        },
        {
          "internalType": "address",
          "name": "resolver",
          "type": "address"
        },
        {
          "internalType": "bytes[]",
          "name": "data",
          "type": "bytes[]"
        },
        {
          "internalType": "bool",
          "name": "reverseRecord",
          "type": "bool"
        },
        {
          "internalType": "uint96",
          "name": "fuses",
          "type": "uint96"
        }
      ],
      "name": "register",
      "outputs": [],
      "stateMutability": "payable",
      "type": "function"
    },
    {
      "inputs": [
        {
          "internalType": "string",
          "name": "name",
          "type": "string"
        },
        {
          "internalType": "uint256",
          "name": "duration",
          "type": "uint256"
        }
      ],
      "name": "renew",
      "outputs": [],
      "stateMutability": "payable",
      "type": "function"
    },
    {
      "inputs": [],
      "name": "renounceOwnership",
      "outputs": [],
      "stateMutability": "nonpayable",
      "type": "function"
    },
    {
      "inputs": [
        {
          "internalType": "string",
          "name": "name",
          "type": "string"
        },
        {
          "internalType": "uint256",
          "name": "duration",
          "type": "uint256"
        }
      ],
      "name": "rentPrice",
      "outputs": [
        {
          "components": [
            {
              "internalType": "uint256",
              "name": "base",
              "type": "uint256"
            },
            {
              "internalType": "uint256",
              "name": "premium",
              "type": "uint256"
            }
          ],
          "internalType": "struct IPriceOracle.Price",
          "name": "price",
          "type": "tuple"
        }
      ],
      "stateMutability": "view",
      "type": "function"
    },
    {
      "inputs": [],
      "name": "reverseRegistrar",
      "outputs": [
        {
          "internalType": "contract ReverseRegistrar",
          "name": "",
          "type": "address"
        }
      ],
      "stateMutability": "view",
      "type": "function"
    },
    {
      "inputs": [
        {
          "internalType": "bytes4",
          "name": "interfaceID",
          "type": "bytes4"
        }
      ],
      "name": "supportsInterface",
      "outputs": [
        {
          "internalType": "bool",
          "name": "",
          "type": "bool"
        }
      ],
      "stateMutability": "pure",
      "type": "function"
    },
    {
      "inputs": [
        {
          "internalType": "address",
          "name": "newOwner",
          "type": "address"
        }
      ],
      "name": "transferOwnership",
      "outputs": [],
      "stateMutability": "nonpayable",
      "type": "function"
    },
    {
      "inputs": [
        {
          "internalType": "string",
          "name": "name",
          "type": "string"
        }
      ],
      "name": "valid",
      "outputs": [
        {
          "internalType": "bool",
          "name": "",
          "type": "bool"
        }
      ],
      "stateMutability": "pure",
      "type": "function"
    },
    {
      "inputs": [],
      "name": "withdraw",
      "outputs": [],
      "stateMutability": "nonpayable",
      "type": "function"
    }
  ],
  "bytecode": "0x6101406040523480156200001257600080fd5b5060405162002465380380620024658339810160408190526200003591620000e4565b62000040336200007b565b8383116200004d57600080fd5b6001600160a01b0395861660805293851660a05260c09290925260e052821661010052166101205262000161565b600080546001600160a01b038381166001600160a01b0319831681178455604051919092169283917f8be0079c531659141344cd1fd0a4f28419497f9722a3daafe3b4186f6b6457e09190a35050565b6001600160a01b0381168114620000e157600080fd5b50565b60008060008060008060c08789031215620000fe57600080fd5b86516200010b81620000cb565b60208801519096506200011e81620000cb565b80955050604087015193506060870151925060808701516200014081620000cb565b60a08801519092506200015381620000cb565b809150509295509295509295565b60805160a05160c05160e051610100516101205161227c620001e96000396000818161035401526106c70152600081816101fd01526113730152600081816103bb01528181610e5301526110550152600081816102d50152610fa50152600081816103ef0152610a1f015260008181610a6101528181610c5c0152610db5015261227c6000f3fe6080604052600436106101445760003560e01c80638d839ffe116100c0578063aeb8ce9b11610074578063d3419bf311610059578063d3419bf3146103dd578063f14fcbc814610411578063f2fde38b1461043157600080fd5b8063aeb8ce9b14610389578063ce1e09c0146103a957600080fd5b80639791c097116100a55780639791c09714610322578063a8e5fbc014610342578063acf1a8411461037657600080fd5b80638d839ffe146102c35780638da5cb5b146102f757600080fd5b8063715018a611610117578063839df945116100fc578063839df9451461024457806383e7f6ff146102715780638a95b09f146102ac57600080fd5b8063715018a6146101d657806380869853146101eb57600080fd5b806301ffc9a7146101495780633ccfd60b1461017e5780634523b5841461019557806357bfa26c146101a8575b600080fd5b34801561015557600080fd5b506101696101643660046117e5565b610451565b60405190151581526020015b60405180910390f35b34801561018a57600080fd5b506101936104ea565b005b6101936101a3366004611908565b610534565b3480156101b457600080fd5b506101c86101c3366004611aac565b61085c565b604051908152602001610175565b3480156101e257600080fd5b50610193610962565b3480156101f757600080fd5b5061021f7f000000000000000000000000000000000000000000000000000000000000000081565b60405173ffffffffffffffffffffffffffffffffffffffff9091168152602001610175565b34801561025057600080fd5b506101c861025f366004611b6d565b60016020526000908152604090205481565b34801561027d57600080fd5b5061029161028c366004611b86565b6109d5565b60408051825181526020928301519281019290925201610175565b3480156102b857600080fd5b506101c86224ea0081565b3480156102cf57600080fd5b506101c87f000000000000000000000000000000000000000000000000000000000000000081565b34801561030357600080fd5b5060005473ffffffffffffffffffffffffffffffffffffffff1661021f565b34801561032e57600080fd5b5061016961033d366004611bcb565b610b35565b34801561034e57600080fd5b5061021f7f000000000000000000000000000000000000000000000000000000000000000081565b610193610384366004611c00565b610b4a565b34801561039557600080fd5b506101696103a4366004611bcb565b610d6c565b3480156103b557600080fd5b506101c87f000000000000000000000000000000000000000000000000000000000000000081565b3480156103e957600080fd5b5061021f7f000000000000000000000000000000000000000000000000000000000000000081565b34801561041d57600080fd5b5061019361042c366004611b6d565b610e3c565b34801561043d57600080fd5b5061019361044c366004611c4c565b610e95565b60007fffffffff0000000000000000000000000000000000000000000000000000000082167f01ffc9a70000000000000000000000000000000000000000000000000000000014806104e457507fffffffff0000000000000000000000000000000000000000000000000000000082167f627d4c0500000000000000000000000000000000000000000000000000000000145b92915050565b6000805460405173ffffffffffffffffffffffffffffffffffffffff909116914780156108fc02929091818181858888f19350505050158015610531573d6000803e3d6000fd5b50565b60008a8a604051610546929190611c67565b6040518091039020905060006105938c8c8080601f0160208091040260200160405190810160405280939291908181526020018383808284376000920191909152508d92506109d5915050565b602081015181519192506105a691611ca6565b3410156106205760405162461bcd60e51b815260206004820152603160248201527f455448526567697374726172436f6e74726f6c6c65723a204e6f7420656e6f7560448201527f67682065746865722070726f766964656400000000000000000000000000000060648201526084015b60405180910390fd5b6106c38c8c8080601f016020809104026020016040519081016040528093929190818152602001838380828437600081840152601f19601f820116905080830192505050505050508a6106be8f8f8080601f016020809104026020016040519081016040528093929190818152602001838380828437600081840152601f19601f820116905080830192505050505050508e8e8e8e8e8e8e8e61085c565b610f8e565b60007f000000000000000000000000000000000000000000000000000000000000000073ffffffffffffffffffffffffffffffffffffffff1663a0a5a7388e8e8e8e8d8a6040518763ffffffff1660e01b815260040161072896959493929190611d07565b6020604051808303816000875af1158015610747573d6000803e3d6000fd5b505050506040513d601f19601f8201168201806040525081019061076b9190611d68565b90506107798884898961118c565b841561078b5761078b8d8d8a33611371565b8a73ffffffffffffffffffffffffffffffffffffffff16837f69e37f151eb98a09618ddaa80c8cfaf1ce5996867c489f45b555b412271ebf278f8f86600001518760200151876040516107e2959493929190611d81565b60405180910390a3602082015182516107fb9190611ca6565b34111561084d576020820151825133916108fc916108199190611ca6565b6108239034611db2565b6040518115909202916000818181858888f1935050505015801561084b573d6000803e3d6000fd5b505b50505050505050505050505050565b885160208a0120600090841561091b5773ffffffffffffffffffffffffffffffffffffffff871661091b5760405162461bcd60e51b815260206004820152604260248201527f455448526567697374726172436f6e74726f6c6c65723a207265736f6c76657260448201527f206973207265717569726564207768656e206461746120697320737570706c6960648201527f6564000000000000000000000000000000000000000000000000000000000000608482015260a401610617565b808a8a8989898d8a8a60405160200161093c99989796959493929190611dc9565b604051602081830303815290604052805190602001209150509998505050505050505050565b60005473ffffffffffffffffffffffffffffffffffffffff1633146109c95760405162461bcd60e51b815260206004820181905260248201527f4f776e61626c653a2063616c6c6572206973206e6f7420746865206f776e65726044820152606401610617565b6109d3600061143b565b565b6040805180820190915260008082526020820152825160208401206040517fd6e4fa86000000000000000000000000000000000000000000000000000000008152600481018290527f000000000000000000000000000000000000000000000000000000000000000073ffffffffffffffffffffffffffffffffffffffff908116916350e9a7159187917f00000000000000000000000000000000000000000000000000000000000000009091169063d6e4fa8690602401602060405180830381865afa158015610aaa573d6000803e3d6000fd5b505050506040513d601f19601f82011682018060405250810190610ace9190611d68565b866040518463ffffffff1660e01b8152600401610aed93929190611f84565b6040805180830381865afa158015610b09573d6000803e3d6000fd5b505050506040513d601f19601f82011682018060405250810190610b2d9190611fa9565b949350505050565b60006003610b42836114b0565b101592915050565b60008383604051610b5c929190611c67565b604051809103902090506000610ba985858080601f0160208091040260200160405190810160405280939291908181526020018383808284376000920191909152508792506109d5915050565b8051909150341015610c235760405162461bcd60e51b815260206004820152603460248201527f455448436f6e74726f6c6c65723a204e6f7420656e6f7567682045746865722060448201527f70726f766964656420666f722072656e6577616c0000000000000000000000006064820152608401610617565b6040517fc475abff00000000000000000000000000000000000000000000000000000000815260048101839052602481018490526000907f000000000000000000000000000000000000000000000000000000000000000073ffffffffffffffffffffffffffffffffffffffff169063c475abff906044016020604051808303816000875af1158015610cba573d6000803e3d6000fd5b505050506040513d601f19601f82011682018060405250810190610cde9190611d68565b8251909150341115610d2657815133906108fc90610cfc9034611db2565b6040518115909202916000818181858888f19350505050158015610d24573d6000803e3d6000fd5b505b827f3da24c024582931cfaf8267d8ed24d13a82a8068d5bd337d30ec45cea4e506ae87873485604051610d5c9493929190611ff8565b60405180910390a2505050505050565b80516020820120600090610d7f83610b35565b8015610e3557506040517f96e494e8000000000000000000000000000000000000000000000000000000008152600481018290527f000000000000000000000000000000000000000000000000000000000000000073ffffffffffffffffffffffffffffffffffffffff16906396e494e890602401602060405180830381865afa158015610e11573d6000803e3d6000fd5b505050506040513d601f19601f82011682018060405250810190610e35919061201f565b9392505050565b6000818152600160205260409020544290610e78907f000000000000000000000000000000000000000000000000000000000000000090611ca6565b10610e8257600080fd5b6000908152600160205260409020429055565b60005473ffffffffffffffffffffffffffffffffffffffff163314610efc5760405162461bcd60e51b815260206004820181905260248201527f4f776e61626c653a2063616c6c6572206973206e6f7420746865206f776e65726044820152606401610617565b73ffffffffffffffffffffffffffffffffffffffff8116610f855760405162461bcd60e51b815260206004820152602660248201527f4f776e61626c653a206e6577206f776e657220697320746865207a65726f206160448201527f64647265737300000000000000000000000000000000000000000000000000006064820152608401610617565b6105318161143b565b6000818152600160205260409020544290610fca907f000000000000000000000000000000000000000000000000000000000000000090611ca6565b111561103e5760405162461bcd60e51b815260206004820152602f60248201527f455448526567697374726172436f6e74726f6c6c65723a20436f6d6d69746d6560448201527f6e74206973206e6f742076616c696400000000000000000000000000000000006064820152608401610617565b600081815260016020526040902054429061107a907f000000000000000000000000000000000000000000000000000000000000000090611ca6565b116110ed5760405162461bcd60e51b815260206004820152602e60248201527f455448526567697374726172436f6e74726f6c6c65723a20436f6d6d69746d6560448201527f6e742068617320657870697265640000000000000000000000000000000000006064820152608401610617565b6110f683610d6c565b6111685760405162461bcd60e51b815260206004820152602b60248201527f455448526567697374726172436f6e74726f6c6c65723a204e616d652069732060448201527f756e617661696c61626c650000000000000000000000000000000000000000006064820152608401610617565b6000818152600160205260408120556224ea0082101561118757600080fd5b505050565b604080517f93cdeb708b7545dc668eb9280176169d1c33cfd8ed6f04690a0bcc88a93fc4ae602082015290810184905260009060600160405160208183030381529060405280519060200120905060005b828110156113695760008484838181106111f9576111f961203c565b905060200281019061120b919061206b565b61121a916024916004916120d0565b611223916120fa565b90508281146112c05760405162461bcd60e51b815260206004820152605160248201527f455448526567697374726172436f6e74726f6c6c65723a204e616d656861736860448201527f206f6e207265636f726420646f206e6f74206d6174636820746865206e616d6560648201527f206265696e672072656769737465726564000000000000000000000000000000608482015260a401610617565b6113548585848181106112d5576112d561203c565b90506020028101906112e7919061206b565b8080601f016020809104026020016040519081016040528093929190818152602001838380828437600092019190915250506040805160608101909152602c808252909250905061221b602083013973ffffffffffffffffffffffffffffffffffffffff8a1691906116b7565b5050808061136190612136565b9150506111dd565b505050505050565b7f000000000000000000000000000000000000000000000000000000000000000073ffffffffffffffffffffffffffffffffffffffff16637a806d6b33838588886040516020016113c392919061216e565b6040516020818303038152906040526040518563ffffffff1660e01b81526004016113f194939291906121a0565b6020604051808303816000875af1158015611410573d6000803e3d6000fd5b505050506040513d601f19601f820116820180604052508101906114349190611d68565b5050505050565b6000805473ffffffffffffffffffffffffffffffffffffffff8381167fffffffffffffffffffffffff0000000000000000000000000000000000000000831681178455604051919092169283917f8be0079c531659141344cd1fd0a4f28419497f9722a3daafe3b4186f6b6457e09190a35050565b8051600090819081905b808210156116ae5760008583815181106114d6576114d661203c565b01602001517fff000000000000000000000000000000000000000000000000000000000000001690507f800000000000000000000000000000000000000000000000000000000000000081101561153957611532600184611ca6565b925061169b565b7fe0000000000000000000000000000000000000000000000000000000000000007fff000000000000000000000000000000000000000000000000000000000000008216101561158e57611532600284611ca6565b7ff0000000000000000000000000000000000000000000000000000000000000007fff00000000000000000000000000000000000000000000000000000000000000821610156115e357611532600384611ca6565b7ff8000000000000000000000000000000000000000000000000000000000000007fff000000000000000000000000000000000000000000000000000000000000008216101561163857611532600484611ca6565b7ffc000000000000000000000000000000000000000000000000000000000000007fff000000000000000000000000000000000000000000000000000000000000008216101561168d57611532600584611ca6565b611698600684611ca6565b92505b50826116a681612136565b9350506114ba565b50909392505050565b6060610b2d84846000858573ffffffffffffffffffffffffffffffffffffffff85163b6117265760405162461bcd60e51b815260206004820152601d60248201527f416464726573733a2063616c6c20746f206e6f6e2d636f6e74726163740000006044820152606401610617565b6000808673ffffffffffffffffffffffffffffffffffffffff16858760405161174f91906121eb565b60006040518083038185875af1925050503d806000811461178c576040519150601f19603f3d011682016040523d82523d6000602084013e611791565b606091505b50915091506117a18282866117ac565b979650505050505050565b606083156117bb575081610e35565b8251156117cb5782518084602001fd5b8160405162461bcd60e51b81526004016106179190612207565b6000602082840312156117f757600080fd5b81357fffffffff0000000000000000000000000000000000000000000000000000000081168114610e3557600080fd5b60008083601f84011261183957600080fd5b50813567ffffffffffffffff81111561185157600080fd5b60208301915083602082850101111561186957600080fd5b9250929050565b803573ffffffffffffffffffffffffffffffffffffffff8116811461189457600080fd5b919050565b60008083601f8401126118ab57600080fd5b50813567ffffffffffffffff8111156118c357600080fd5b6020830191508360208260051b850101111561186957600080fd5b801515811461053157600080fd5b80356bffffffffffffffffffffffff8116811461189457600080fd5b6000806000806000806000806000806101008b8d03121561192857600080fd5b8a3567ffffffffffffffff8082111561194057600080fd5b61194c8e838f01611827565b909c509a508a915061196060208e01611870565b995060408d0135985060608d0135975061197c60808e01611870565b965060a08d013591508082111561199257600080fd5b5061199f8d828e01611899565b90955093505060c08b01356119b3816118de565b91506119c160e08c016118ec565b90509295989b9194979a5092959850565b7f4e487b7100000000000000000000000000000000000000000000000000000000600052604160045260246000fd5b600082601f830112611a1257600080fd5b813567ffffffffffffffff80821115611a2d57611a2d6119d2565b604051601f83017fffffffffffffffffffffffffffffffffffffffffffffffffffffffffffffffe0908116603f01168101908282118183101715611a7357611a736119d2565b81604052838152866020858801011115611a8c57600080fd5b836020870160208301376000602085830101528094505050505092915050565b60008060008060008060008060006101008a8c031215611acb57600080fd5b893567ffffffffffffffff80821115611ae357600080fd5b611aef8d838e01611a01565b9a50611afd60208d01611870565b995060408c0135985060608c01359750611b1960808d01611870565b965060a08c0135915080821115611b2f57600080fd5b50611b3c8c828d01611899565b90955093505060c08a0135611b50816118de565b9150611b5e60e08b016118ec565b90509295985092959850929598565b600060208284031215611b7f57600080fd5b5035919050565b60008060408385031215611b9957600080fd5b823567ffffffffffffffff811115611bb057600080fd5b611bbc85828601611a01565b95602094909401359450505050565b600060208284031215611bdd57600080fd5b813567ffffffffffffffff811115611bf457600080fd5b610b2d84828501611a01565b600080600060408486031215611c1557600080fd5b833567ffffffffffffffff811115611c2c57600080fd5b611c3886828701611827565b909790965060209590950135949350505050565b600060208284031215611c5e57600080fd5b610e3582611870565b8183823760009101908152919050565b7f4e487b7100000000000000000000000000000000000000000000000000000000600052601160045260246000fd5b60008219821115611cb957611cb9611c77565b500190565b8183528181602085013750600060208284010152600060207fffffffffffffffffffffffffffffffffffffffffffffffffffffffffffffffe0601f840116840101905092915050565b60a081526000611d1b60a08301888a611cbe565b905073ffffffffffffffffffffffffffffffffffffffff80871660208401528560408401528085166060840152506bffffffffffffffffffffffff83166080830152979650505050505050565b600060208284031215611d7a57600080fd5b5051919050565b608081526000611d95608083018789611cbe565b602083019590955250604081019290925260609091015292915050565b600082821015611dc457611dc4611c77565b500390565b89815273ffffffffffffffffffffffffffffffffffffffff898116602080840191909152604083018a9052908816606083015261010060808301819052820186905260009061012080840191600589901b85019091019089845b8a811015611ecd577ffffffffffffffffffffffffffffffffffffffffffffffffffffffffffffffee087850301855281357fffffffffffffffffffffffffffffffffffffffffffffffffffffffffffffffe18d3603018112611e8457600080fd5b8c01803567ffffffffffffffff811115611e9d57600080fd5b8036038e1315611eac57600080fd5b611eb98682878501611cbe565b968501969550505090820190600101611e23565b50505060a0840187905285151560c08501529150611ee89050565b6bffffffffffffffffffffffff831660e08301529a9950505050505050505050565b60005b83811015611f25578181015183820152602001611f0d565b83811115611f34576000848401525b50505050565b60008151808452611f52816020860160208601611f0a565b601f017fffffffffffffffffffffffffffffffffffffffffffffffffffffffffffffffe0169290920160200192915050565b606081526000611f976060830186611f3a565b60208301949094525060400152919050565b600060408284031215611fbb57600080fd5b6040516040810181811067ffffffffffffffff82111715611fde57611fde6119d2565b604052825181526020928301519281019290925250919050565b60608152600061200c606083018688611cbe565b6020830194909452506040015292915050565b60006020828403121561203157600080fd5b8151610e35816118de565b7f4e487b7100000000000000000000000000000000000000000000000000000000600052603260045260246000fd5b60008083357fffffffffffffffffffffffffffffffffffffffffffffffffffffffffffffffe18436030181126120a057600080fd5b83018035915067ffffffffffffffff8211156120bb57600080fd5b60200191503681900382131561186957600080fd5b600080858511156120e057600080fd5b838611156120ed57600080fd5b5050820193919092039150565b803560208310156104e4577fffffffffffffffffffffffffffffffffffffffffffffffffffffffffffffffff602084900360031b1b1692915050565b60007fffffffffffffffffffffffffffffffffffffffffffffffffffffffffffffffff820361216757612167611c77565b5060010190565b818382377f2e657468000000000000000000000000000000000000000000000000000000009101908152600401919050565b600073ffffffffffffffffffffffffffffffffffffffff80871683528086166020840152808516604084015250608060608301526121e16080830184611f3a565b9695505050505050565b600082516121fd818460208701611f0a565b9190910192915050565b602081526000610e356020830184611f3a56fe455448526567697374726172436f6e74726f6c6c65723a204661696c656420746f20736574205265636f7264a2646970667358221220a70f391e0a118ec35887b1b6856aa7085f6fba575e1fb581cc9948c0bd5c574764736f6c634300080d0033",
  "linkReferences": {},
  "deployedLinkReferences": {}
}