{
  "_format": "hh-sol-artifact-1",
  "contractName": "DNSSECImpl",
  "sourceName": "contracts/dnssec-oracle/DNSSECImpl.sol",
  "abi": [
    {
      "inputs": [
        {
          "internalType": "bytes",
          "name": "_anchors",
          "type": "bytes"
        }
      ],
      "stateMutability": "nonpayable",
      "type": "constructor"
    },
    {
      "anonymous": false,
      "inputs": [
        {
          "indexed": false,
          "internalType": "uint8",
          "name": "id",
          "type": "uint8"
        },
        {
          "indexed": false,
          "internalType": "address",
          "name": "addr",
          "type": "address"
        }
      ],
      "name": "AlgorithmUpdated",
      "type": "event"
    },
    {
      "anonymous": false,
      "inputs": [
        {
          "indexed": false,
          "internalType": "uint8",
          "name": "id",
          "type": "uint8"
        },
        {
          "indexed": false,
          "internalType": "address",
          "name": "addr",
          "type": "address"
        }
      ],
      "name": "DigestUpdated",
      "type": "event"
    },
    {
      "anonymous": false,
      "inputs": [],
      "name": "Marker",
      "type": "event"
    },
    {
      "anonymous": false,
      "inputs": [
        {
          "indexed": false,
          "internalType": "uint8",
          "name": "id",
          "type": "uint8"
        },
        {
          "indexed": false,
          "internalType": "address",
          "name": "addr",
          "type": "address"
        }
      ],
      "name": "NSEC3DigestUpdated",
      "type": "event"
    },
    {
      "anonymous": false,
      "inputs": [
        {
          "indexed": false,
          "internalType": "bytes",
          "name": "name",
          "type": "bytes"
        },
        {
          "indexed": false,
          "internalType": "bytes",
          "name": "rrset",
          "type": "bytes"
        }
      ],
      "name": "RRSetUpdated",
      "type": "event"
    },
    {
      "anonymous": false,
      "inputs": [
        {
          "indexed": false,
          "internalType": "uint256",
          "name": "t",
          "type": "uint256"
        }
      ],
      "name": "Test",
      "type": "event"
    },
    {
      "inputs": [
        {
          "internalType": "uint8",
          "name": "",
          "type": "uint8"
        }
      ],
      "name": "algorithms",
      "outputs": [
        {
          "internalType": "contract Algorithm",
          "name": "",
          "type": "address"
        }
      ],
      "stateMutability": "view",
      "type": "function"
    },
    {
      "inputs": [],
      "name": "anchors",
      "outputs": [
        {
          "internalType": "bytes",
          "name": "",
          "type": "bytes"
        }
      ],
      "stateMutability": "view",
      "type": "function"
    },
    {
      "inputs": [
        {
          "internalType": "uint16",
          "name": "deleteType",
          "type": "uint16"
        },
        {
          "internalType": "bytes",
          "name": "deleteName",
          "type": "bytes"
        },
        {
          "components": [
            {
              "internalType": "bytes",
              "name": "rrset",
              "type": "bytes"
            },
            {
              "internalType": "bytes",
              "name": "sig",
              "type": "bytes"
            }
          ],
          "internalType": "struct DNSSEC.RRSetWithSignature",
          "name": "nsec",
          "type": "tuple"
        },
        {
          "internalType": "bytes",
          "name": "proof",
          "type": "bytes"
        }
      ],
      "name": "deleteRRSet",
      "outputs": [],
      "stateMutability": "nonpayable",
      "type": "function"
    },
    {
      "inputs": [
        {
          "internalType": "uint16",
          "name": "deleteType",
          "type": "uint16"
        },
        {
          "internalType": "bytes",
          "name": "deleteName",
          "type": "bytes"
        },
        {
          "components": [
            {
              "internalType": "bytes",
              "name": "rrset",
              "type": "bytes"
            },
            {
              "internalType": "bytes",
              "name": "sig",
              "type": "bytes"
            }
          ],
          "internalType": "struct DNSSEC.RRSetWithSignature",
          "name": "closestEncloser",
          "type": "tuple"
        },
        {
          "components": [
            {
              "internalType": "bytes",
              "name": "rrset",
              "type": "bytes"
            },
            {
              "internalType": "bytes",
              "name": "sig",
              "type": "bytes"
            }
          ],
          "internalType": "struct DNSSEC.RRSetWithSignature",
          "name": "nextClosest",
          "type": "tuple"
        },
        {
          "internalType": "bytes",
          "name": "dnskey",
          "type": "bytes"
        }
      ],
      "name": "deleteRRSetNSEC3",
      "outputs": [],
      "stateMutability": "nonpayable",
      "type": "function"
    },
    {
      "inputs": [
        {
          "internalType": "uint8",
          "name": "",
          "type": "uint8"
        }
      ],
      "name": "digests",
      "outputs": [
        {
          "internalType": "contract Digest",
          "name": "",
          "type": "address"
        }
      ],
      "stateMutability": "view",
      "type": "function"
    },
    {
      "inputs": [
        {
          "internalType": "uint8",
          "name": "",
          "type": "uint8"
        }
      ],
      "name": "nsec3Digests",
      "outputs": [
        {
          "internalType": "contract NSEC3Digest",
          "name": "",
          "type": "address"
        }
      ],
      "stateMutability": "view",
      "type": "function"
    },
    {
      "inputs": [],
      "name": "owner",
      "outputs": [
        {
          "internalType": "address",
          "name": "",
          "type": "address"
        }
      ],
      "stateMutability": "view",
      "type": "function"
    },
    {
      "inputs": [
        {
          "internalType": "uint16",
          "name": "dnstype",
          "type": "uint16"
        },
        {
          "internalType": "bytes",
          "name": "name",
          "type": "bytes"
        }
      ],
      "name": "rrdata",
      "outputs": [
        {
          "internalType": "uint32",
          "name": "",
          "type": "uint32"
        },
        {
          "internalType": "uint32",
          "name": "",
          "type": "uint32"
        },
        {
          "internalType": "bytes20",
          "name": "",
          "type": "bytes20"
        }
      ],
      "stateMutability": "view",
      "type": "function"
    },
    {
      "inputs": [
        {
          "internalType": "uint8",
          "name": "id",
          "type": "uint8"
        },
        {
          "internalType": "contract Algorithm",
          "name": "algo",
          "type": "address"
        }
      ],
      "name": "setAlgorithm",
      "outputs": [],
      "stateMutability": "nonpayable",
      "type": "function"
    },
    {
      "inputs": [
        {
          "internalType": "uint8",
          "name": "id",
          "type": "uint8"
        },
        {
          "internalType": "contract Digest",
          "name": "digest",
          "type": "address"
        }
      ],
      "name": "setDigest",
      "outputs": [],
      "stateMutability": "nonpayable",
      "type": "function"
    },
    {
      "inputs": [
        {
          "internalType": "uint8",
          "name": "id",
          "type": "uint8"
        },
        {
          "internalType": "contract NSEC3Digest",
          "name": "digest",
          "type": "address"
        }
      ],
      "name": "setNSEC3Digest",
      "outputs": [],
      "stateMutability": "nonpayable",
      "type": "function"
    },
    {
      "inputs": [
        {
          "internalType": "address",
          "name": "newOwner",
          "type": "address"
        }
      ],
      "name": "setOwner",
      "outputs": [],
      "stateMutability": "nonpayable",
      "type": "function"
    },
    {
      "inputs": [
        {
          "components": [
            {
              "internalType": "bytes",
              "name": "rrset",
              "type": "bytes"
            },
            {
              "internalType": "bytes",
              "name": "sig",
              "type": "bytes"
            }
          ],
          "internalType": "struct DNSSEC.RRSetWithSignature",
          "name": "input",
          "type": "tuple"
        },
        {
          "internalType": "bytes",
          "name": "proof",
          "type": "bytes"
        }
      ],
      "name": "submitRRSet",
      "outputs": [
        {
          "internalType": "bytes",
          "name": "",
          "type": "bytes"
        }
      ],
      "stateMutability": "nonpayable",
      "type": "function"
    },
    {
      "inputs": [
        {
          "components": [
            {
              "internalType": "bytes",
              "name": "rrset",
              "type": "bytes"
            },
            {
              "internalType": "bytes",
              "name": "sig",
              "type": "bytes"
            }
          ],
          "internalType": "struct DNSSEC.RRSetWithSignature[]",
          "name": "input",
          "type": "tuple[]"
        },
        {
          "internalType": "bytes",
          "name": "proof",
          "type": "bytes"
        }
      ],
      "name": "submitRRSets",
      "outputs": [
        {
          "internalType": "bytes",
          "name": "",
          "type": "bytes"
        }
      ],
      "stateMutability": "nonpayable",
      "type": "function"
    }
  ],
  "bytecode": "0x60806040523480156200001157600080fd5b5060405162002e1238038062002e1283398101604081905262000034916200023c565b600180546001600160a01b0319163317905580516200005b90600090602084019062000180565b5060408051606081018252600080825263e090bba060208301528251919283019162000088919062000354565b60408051918290039091206001600160601b031916909152602b60009081527fc92a43746f20f69898978a3075767b860ba247ac0639d1831bf8c942c5db2389602090815283517f95c6356c1b7a542b884d2484ef785c9c7224e77e1016c20007bddc15c23b452f8054928601519585015160601c6801000000000000000002600160401b600160e01b031963ffffffff978816640100000000026001600160401b03199095169790931696909617929092171693909317909255517f55ced933cdd5a34dd03eb5d4bef19ec6ebb251dcd7a988eee0c1b9a13baaa88b916200017191620003ce565b60405180910390a15062000470565b8280546200018e9062000318565b90600052602060002090601f016020900481019282620001b25760008555620001fd565b82601f10620001cd57805160ff1916838001178555620001fd565b82800160010185558215620001fd579182015b82811115620001fd578251825591602001919060010190620001e0565b506200020b9291506200020f565b5090565b5b808211156200020b576000815560010162000210565b634e487b7160e01b600052604160045260246000fd5b600060208083850312156200025057600080fd5b82516001600160401b03808211156200026857600080fd5b818501915085601f8301126200027d57600080fd5b81518181111562000292576200029262000226565b604051601f8201601f19908116603f01168101908382118183101715620002bd57620002bd62000226565b816040528281528886848701011115620002d657600080fd5b600093505b82841015620002fa5784840186015181850187015292850192620002db565b828411156200030c5760008684830101525b98975050505050505050565b600181811c908216806200032d57607f821691505b6020821081036200034e57634e487b7160e01b600052602260045260246000fd5b50919050565b6000808354620003648162000318565b600182811680156200037f57600181146200039157620003c2565b60ff19841687528287019450620003c2565b8760005260208060002060005b85811015620003b95781548a8201529084019082016200039e565b50505082870194505b50929695505050505050565b604081526000600180604084015260006060840152602060808185015260008554620003fa8162000318565b80608088015260a0858316600081146200041d5760018114620004325762000462565b60ff1984168983015260c08901945062000462565b896000528560002060005b848110156200045a5781548b82018501529088019087016200043d565b8a0183019550505b509298975050505050505050565b61299280620004806000396000f3fe608060405234801561001057600080fd5b50600436106100ea5760003560e01c806373cc48a61161008c57806398d35f201161006657806398d35f201461025b578063bd7ed31a14610263578063c327deef14610299578063d7b82ebe146102cf57600080fd5b806373cc48a6146101cd5780638438dc04146102285780638da5cb5b1461023b57600080fd5b806313af4035116100c857806313af40351461017457806328e7677d146101875780632c095cbb1461019a578063435cc162146101ad57600080fd5b8063020ed8d3146100ef578063087991bc146101045780630b1a249514610161575b600080fd5b6101026100fd366004611f3c565b6102e2565b005b610117610112366004611f85565b610396565b6040805163ffffffff94851681529390921660208401527fffffffffffffffffffffffffffffffffffffffff00000000000000000000000016908201526060015b60405180910390f35b61010261016f36600461219e565b61040b565b61010261018236600461225c565b6105fa565b610102610195366004611f3c565b610665565b6101026101a8366004612279565b610711565b6101c06101bb366004612312565b61084f565b6040516101589190612463565b6102036101db366004612476565b60046020526000908152604090205473ffffffffffffffffffffffffffffffffffffffff1681565b60405173ffffffffffffffffffffffffffffffffffffffff9091168152602001610158565b610102610236366004611f3c565b61089f565b6001546102039073ffffffffffffffffffffffffffffffffffffffff1681565b6101c061094b565b610203610271366004612476565b60056020526000908152604090205473ffffffffffffffffffffffffffffffffffffffff1681565b6102036102a7366004612476565b60036020526000908152604090205473ffffffffffffffffffffffffffffffffffffffff1681565b6101c06102dd366004612491565b6109d9565b60015473ffffffffffffffffffffffffffffffffffffffff16331461030657600080fd5b60ff821660008181526003602090815260409182902080547fffffffffffffffffffffffff00000000000000000000000000000000000000001673ffffffffffffffffffffffffffffffffffffffff86169081179091558251938452908301527ff73c3c226af96b7f1ba666a21b3ceaf2be3ee6a365e3178fd9cd1eaae0075aa891015b60405180910390a15050565b6000806000806002600087876040516103b09291906124de565b60408051918290039091208252602080830193909352908101600090812061ffff8b16825290925290205463ffffffff8082169550640100000000820416935068010000000000000000900460601b91505093509350939050565b8351602080860191909120600090815260028252604080822061ffff891683529092529081205463ffffffff169061044385846109ec565b9050610450818784610ac4565b604080516101408101825260008082526020820181905291810182905260608082018390526080820183905260a0820183905260c082019290925260e081018290526101008101829052610120810191909152845151156104c2576104b585856109ec565b90506104c2818885610ac4565b60006104cd83610b0a565b602081015190915060fe16156104e257600080fd5b6104ed816027610b69565b1580156105125750610500816002610b69565b15806105125750610512816006610b69565b61051b57600080fd5b61052c898985610120015184610b7b565b156105805787516020808a0191909120600090815260028252604080822061ffff8d1683529092522080547fffffffff000000000000000000000000000000000000000000000000000000001690556105ef565b61059f888461012001518385610120015161059a87610b0a565b610bab565b156100ea5787516020808a0191909120600090815260028252604080822061ffff8d1683529092522080547fffffffff000000000000000000000000000000000000000000000000000000001690555b505050505050505050565b60015473ffffffffffffffffffffffffffffffffffffffff16331461061e57600080fd5b600180547fffffffffffffffffffffffff00000000000000000000000000000000000000001673ffffffffffffffffffffffffffffffffffffffff92909216919091179055565b60015473ffffffffffffffffffffffffffffffffffffffff16331461068957600080fd5b60ff821660008181526004602090815260409182902080547fffffffffffffffffffffffff00000000000000000000000000000000000000001673ffffffffffffffffffffffffffffffffffffffff86169081179091558251938452908301527f2fcc274c3b72dd483ab201bfa87295e3817e8b9b10693219873b722ca1af00c7910161038a565b604080516101408101825260008082526020820181905291810182905260608082018390526080820183905260a0820183905260c082019290925260e08101829052610100810182905261012081019190915261076e83836109ec565b805190915061ffff16602f1461078357600080fd5b60a08101518451602080870191909120600090815260028252604080822061ffff8a16835290925220546107bd919063ffffffff16610cc6565b6107c657600080fd5b60006107d182610cdf565b905080515160208201511015610843576107f2818361012001518789610d3d565b50508251602080850191909120600090815260028252604080822061ffff881683529092522080547fffffffff00000000000000000000000000000000000000000000000000000000169055610849565b50600080fd5b50505050565b606060005b835181101561089457610880848281518110610872576108726124ee565b602002602001015184610eeb565b92508061088c8161254c565b915050610854565b508190505b92915050565b60015473ffffffffffffffffffffffffffffffffffffffff1633146108c357600080fd5b60ff821660008181526005602090815260409182902080547fffffffffffffffffffffffff00000000000000000000000000000000000000001673ffffffffffffffffffffffffffffffffffffffff86169081179091558251938452908301527fc7eec866a7a1386188cc3ca20ffea75b71bd3e90a60b6791b1d3f0971145118d910161038a565b6000805461095890612566565b80601f016020809104026020016040519081016040528092919081815260200182805461098490612566565b80156109d15780601f106109a6576101008083540402835291602001916109d1565b820191906000526020600020905b8154815290600101906020018083116109b457829003601f168201915b505050505081565b60606109e58383610eeb565b9392505050565b604080516101408101825260008082526020820181905291810182905260608082018390526080820183905260a0820183905260c082019290925260e0810182905261010081018290526101208101919091528251610a4a90610f5f565b9050610a5a8160e00151836110a1565b610899576040517f08c379a000000000000000000000000000000000000000000000000000000000815260206004820152600d60248201527f496e76616c69642070726f6f6600000000000000000000000000000000000000604482015260640160405180910390fd5b610ad28360a0015182610cc6565b610adb57600080fd5b825161ffff16603214610aed57600080fd5b610afc836101200151836111b5565b610b0557600080fd5b505050565b6040805160c08101825260008082526020820181905291810182905260608082018190526080820183905260a082015290610b4483610cdf565b60a081015160c08201519192506109e591610b609082906125b9565b83519190611223565b60006109e58360a0015160008461136a565b6000610b8882848661147f565b15610b9f57610b978286610b69565b159050610ba3565b5060005b949350505050565b602081015160009060fe1615610bc057600080fd5b6000610bcb866114a6565b90506000610bd8856114a6565b9050600080610be78a826114c2565b610bf29060016125d0565b60ff1690505b8951811015610cb45783610c2489610c1f84858f51610c1791906125b9565b8f91906114e6565b611568565b03610c88576000610c4087610c1f85868f51610c1791906125b9565b90508660800151841015610c6c578381118015610c605750866080015181105b95505050505050610cbd565b83811180610c6057508660800151811095505050505050610cbd565b905080610c958a826114c2565b610ca09060016125d0565b610cad9060ff16826125f5565b9050610bf8565b50600093505050505b95945050505050565b600080610cd3838561260d565b60030b12159392505050565b610d2d6040518060e001604052806060815260200160008152602001600061ffff168152602001600061ffff168152602001600063ffffffff16815260200160008152602001600081525090565b610899826101000151600061161a565b60a08401518451600090610d51908361167b565b905060008660a001518760c00151610d6991906125b9565b9050818111610d7757600080fd5b6000610d8386886116d5565b905080600003610db257610da3610d9a84866125f5565b8951908761136a565b15610dad57600080fd5b610df9565b8751600090610dc29086866114e6565b905060008213610dd157600080fd5b6000610ddd89836116d5565b12156105ef576000610def88836116d5565b126105ef57600080fd5b5050505050505050565b60c08101516020820181905281515111610e1a5750565b6000610e2e8260000151836020015161167b565b8260200151610e3d91906125f5565b8251909150610e4c908261182e565b61ffff166040830152610e606002826125f5565b8251909150610e6f908261182e565b61ffff166060830152610e836002826125f5565b8251909150610e929082611856565b63ffffffff166080830152610ea86004826125f5565b8251909150600090610eba908361182e565b61ffff169050610ecb6002836125f5565b60a084018190529150610ede81836125f5565b60c0909301929092525050565b604080516101408101825260008082526020820181905291810182905260608181018390526080820183905260a0820183905260c082019290925260e0810182905261010081018290526101208101829052610f4784846109ec565b50506040805160208101909152600081529392505050565b604080516101408101825260008082526020820181905291810182905260608082018390526080820183905260a0820183905260c0820183905260e08201819052610100820181905261012082015290610fba90839061182e565b61ffff168152610fcb8260026114c2565b60ff166020820152610fde8260036114c2565b60ff166040820152610ff1826004611856565b63ffffffff908116606083015261100d90839060089061185616565b63ffffffff9081166080830152611029908390600c9061185616565b63ffffffff90811660a083015261104590839060109061182e16565b61ffff1660c0820152611059826012611880565b60e0820181905251611096906110709060126125f5565b8260e00151516012855161108491906125b9565b61108e91906125b9565b8491906114e6565b610100820152919050565b60006110e16040518060400160405280600a81526020017f76616c696450726f6f660000000000000000000000000000000000000000000081525061189b565b6110ea8361192d565b6110f38261192d565b6111316040518060400160405280600a81526020017f76616c696450726f6f660000000000000000000000000000000000000000000081525061189b565b6000611147611140848361167b565b849061182e565b8351602080860191909120865187830120600090815260028352604080822061ffff9095168252939092529190205468010000000000000000900460601b7fffffffffffffffffffffffffffffffffffffffff00000000000000000000000090811691161491505092915050565b6000806111c284826114c2565b6111cd9060016125d0565b60ff16905060005b8351811015610b9f576111ea848287856119bc565b156111fa57600192505050610899565b61120484826114c2565b61120f9060016125d0565b61121c9060ff16826125f5565b90506111d5565b6040805160c08101825260008082526020820181905291810182905260608082018190526080820183905260a08201529061125e83856125f5565b905061127561126e6000866125f5565b86906114c2565b60ff16825261128861126e6001866125f5565b60ff1660208301526112a561129e6002866125f5565b869061182e565b61ffff16604083015260006112c56112be6004876125f5565b87906114c2565b90506112d26005866125f5565b94506112e2868660ff84166114e6565b60608401526112f460ff8216866125f5565b9450600061130287876114c2565b905060208160ff16111561131557600080fd5b6113206001876125f5565b9550611330878760ff84166119f1565b608085015261134260ff8216876125f5565b955061135a8661135281866125b9565b8991906114e6565b60a0850152509195945050505050565b600060ff600883811c82169183916113839186166126a1565b905060006113956007808716906126c2565b600160ff919091161b9050855b87518110156114715760006113b789836114c2565b905060006113d06113c98460016125f5565b8b906114c2565b90508160ff168660ff1610156113ef57600096505050505050506109e5565b8160ff168660ff1603611450578460ff168160ff161161141857600096505050505050506109e5565b8361143b61142960ff8816866125f5565b6114349060026125f5565b8c906114c2565b1660ff166000141596505050505050506109e5565b61145b8160026125d0565b6114689060ff16846125f5565b925050506113a2565b506000979650505050505050565b60008061148c8584611568565b90506000611499856114a6565b9190911495945050505050565b600061089960016114b784846114c2565b84919060ff16611a32565b60008282815181106114d6576114d66124ee565b016020015160f81c905092915050565b82516060906114f583856125f5565b111561150057600080fd5b60008267ffffffffffffffff81111561151b5761151b612008565b6040519080825280601f01601f191660200182016040528015611545576020820181803683370190505b5090506020808201908686010161155d828287611cb2565b509095945050505050565b815160ff166000908152600560205260408082205460608501518286015192517f68f9dab200000000000000000000000000000000000000000000000000000000815273ffffffffffffffffffffffffffffffffffffffff909216926368f9dab2926115d9929187916004016126e5565b602060405180830381865afa1580156115f6573d6000803e3d6000fd5b505050506040513d601f19601f820116820180604052508101906109e5919061271f565b6116686040518060e001604052806060815260200160008152602001600061ffff168152602001600061ffff168152602001600063ffffffff16815260200160008152602001600081525090565b82815260c0810182905261089981610e03565b6000815b8351811061168f5761168f612738565b600061169b85836114c2565b60ff1690506116ab8160016125f5565b6116b590836125f5565b9150806000036116c557506116cb565b5061167f565b610ba383826125b9565b60006116e18383611d08565b156116ee57506000610899565b6000806000806000611701886000611d26565b90506000611710886000611d26565b90505b8082111561173c578593506117288987611d83565b95508161173481612767565b925050611713565b81811115611765578492506117518886611d83565b94508061175d81612767565b91505061173c565b60008211801561177e575061177c89878a886119bc565b155b156117b3578593506117908987611d83565b955084925061179f8886611d83565b94506117ac6001836125b9565b9150611765565b856000036117cb576000199650505050505050610899565b846000036117e25760019650505050505050610899565b6118216117f08560016125f5565b6117fa8b876114c2565b60ff168a6118098760016125f5565b6118138d896114c2565b8e949392919060ff16611da7565b9998505050505050505050565b815160009061183e8360026125f5565b111561184957600080fd5b50016002015161ffff1690565b81516000906118668360046125f5565b111561187157600080fd5b50016004015163ffffffff1690565b6060600061188e848461167b565b9050610ba38484836114e6565b61192a816040516024016118af9190612463565b604080517fffffffffffffffffffffffffffffffffffffffffffffffffffffffffffffffe08184030181529190526020810180517bffffffffffffffffffffffffffffffffffffffffffffffffffffffff167f41304fac00000000000000000000000000000000000000000000000000000000179052611e9c565b50565b61192a816040516024016119419190612463565b604080517fffffffffffffffffffffffffffffffffffffffffffffffffffffffffffffffe08184030181529190526020810180517bffffffffffffffffffffffffffffffffffffffffffffffffffffffff167f0be77f5600000000000000000000000000000000000000000000000000000000179052611e9c565b60006119d583838486516119d091906125b9565b611ebd565b6119e786868789516119d091906125b9565b1495945050505050565b60006020821115611a0157600080fd5b8351611a0d83856125f5565b1115611a1857600080fd5b506020919092018101519190036101000a60001901191690565b60006034821115611a4257600080fd5b600080805b84811015611b9657600087611a5c83896125f5565b81518110611a6c57611a6c6124ee565b01602001517fff000000000000000000000000000000000000000000000000000000000000001690507f30000000000000000000000000000000000000000000000000000000000000008110801590611b0757507f7a000000000000000000000000000000000000000000000000000000000000007fff00000000000000000000000000000000000000000000000000000000000000821611155b611b1057600080fd5b60405180608001604052806047815260200161291660479139611b38603060f884901c6125b9565b81518110611b4857611b486124ee565b0160209081015160f81c9350831115611b6057600080fd5b611b6b6001876125b9565b8203611b775750611b96565b5060059290921b60ff8216179180611b8e8161254c565b915050611a47565b506000611ba485600561277e565b9050611bb160088661279d565b600003611bc9578160ff16600584901b179250611c98565b611bd460088661279d565b600203611c025760028260ff16901c60ff16600384901b179250600281611bfb91906125b9565b9050611c98565b611c0d60088661279d565b600403611c345760048260ff16901c60ff16600184901b179250600481611bfb91906125b9565b611c3f60088661279d565b600503611c665760018260ff16901c60ff16600484901b179250600181611bfb91906125b9565b611c7160088661279d565b6007036100ea5760038260ff16901c60ff16600284901b179250600381611bfb91906125b9565b611ca4816101006125b9565b9290921b9695505050505050565b60208110611cea5781518352611cc96020846125f5565b9250611cd66020836125f5565b9150611ce36020826125b9565b9050611cb2565b905182516020929092036101000a6000190180199091169116179052565b6000815183511480156109e557506109e58360008460008751611ee1565b6000805b83518310611d3a57611d3a612738565b6000611d4685856114c2565b60ff169050611d568160016125f5565b611d6090856125f5565b935080600003611d7057506109e5565b611d7b6001836125f5565b915050611d2a565b6000611d8f83836114c2565b60ff16611d9d8360016125f5565b6109e591906125f5565b60008480831015611db55750815b60208789018101908587010160005b83811015611e815782518251808214611e515760006020871115611deb5750600019611e27565b600184611df98960206125b9565b611e0391906125f5565b611e0e90600861277e565b611e19906002612895565b611e2391906125b9565b1990505b6000611e378383168584166128a1565b90508015611e4e579750611e929650505050505050565b50505b611e5c6020866125f5565b9450611e696020856125f5565b93505050602081611e7a91906125f5565b9050611dc4565b50611e8c85896128a1565b93505050505b9695505050505050565b80516a636f6e736f6c652e6c6f67602083016000808483855afa5050505050565b8251600090611ecc83856125f5565b1115611ed757600080fd5b5091016020012090565b6000611eee848484611ebd565b611ef9878785611ebd565b149695505050505050565b803560ff81168114611f1557600080fd5b919050565b73ffffffffffffffffffffffffffffffffffffffff8116811461192a57600080fd5b60008060408385031215611f4f57600080fd5b611f5883611f04565b91506020830135611f6881611f1a565b809150509250929050565b803561ffff81168114611f1557600080fd5b600080600060408486031215611f9a57600080fd5b611fa384611f73565b9250602084013567ffffffffffffffff80821115611fc057600080fd5b818601915086601f830112611fd457600080fd5b813581811115611fe357600080fd5b876020828501011115611ff557600080fd5b6020830194508093505050509250925092565b7f4e487b7100000000000000000000000000000000000000000000000000000000600052604160045260246000fd5b604051601f82017fffffffffffffffffffffffffffffffffffffffffffffffffffffffffffffffe016810167ffffffffffffffff8111828210171561207e5761207e612008565b604052919050565b600082601f83011261209757600080fd5b813567ffffffffffffffff8111156120b1576120b1612008565b6120e260207fffffffffffffffffffffffffffffffffffffffffffffffffffffffffffffffe0601f84011601612037565b8181528460208386010111156120f757600080fd5b816020850160208301376000918101602001919091529392505050565b60006040828403121561212657600080fd5b6040516040810167ffffffffffffffff828210818311171561214a5761214a612008565b81604052829350843591508082111561216257600080fd5b61216e86838701612086565b8352602085013591508082111561218457600080fd5b5061219185828601612086565b6020830152505092915050565b600080600080600060a086880312156121b657600080fd5b6121bf86611f73565b9450602086013567ffffffffffffffff808211156121dc57600080fd5b6121e889838a01612086565b955060408801359150808211156121fe57600080fd5b61220a89838a01612114565b9450606088013591508082111561222057600080fd5b61222c89838a01612114565b9350608088013591508082111561224257600080fd5b5061224f88828901612086565b9150509295509295909350565b60006020828403121561226e57600080fd5b81356109e581611f1a565b6000806000806080858703121561228f57600080fd5b61229885611f73565b9350602085013567ffffffffffffffff808211156122b557600080fd5b6122c188838901612086565b945060408701359150808211156122d757600080fd5b6122e388838901612114565b935060608701359150808211156122f957600080fd5b5061230687828801612086565b91505092959194509250565b6000806040838503121561232557600080fd5b823567ffffffffffffffff8082111561233d57600080fd5b818501915085601f83011261235157600080fd5b813560208282111561236557612365612008565b8160051b612374828201612037565b928352848101820192828101908a85111561238e57600080fd5b83870192505b848310156123ca578235868111156123ac5760008081fd5b6123ba8c86838b0101612114565b8352509183019190830190612394565b97505050860135925050808211156123e157600080fd5b506123ee85828601612086565b9150509250929050565b6000815180845260005b8181101561241e57602081850181015186830182015201612402565b81811115612430576000602083870101525b50601f017fffffffffffffffffffffffffffffffffffffffffffffffffffffffffffffffe0169290920160200192915050565b6020815260006109e560208301846123f8565b60006020828403121561248857600080fd5b6109e582611f04565b600080604083850312156124a457600080fd5b823567ffffffffffffffff808211156124bc57600080fd5b6124c886838701612114565b935060208501359150808211156123e157600080fd5b8183823760009101908152919050565b7f4e487b7100000000000000000000000000000000000000000000000000000000600052603260045260246000fd5b7f4e487b7100000000000000000000000000000000000000000000000000000000600052601160045260246000fd5b6000600019820361255f5761255f61251d565b5060010190565b600181811c9082168061257a57607f821691505b6020821081036125b3577f4e487b7100000000000000000000000000000000000000000000000000000000600052602260045260246000fd5b50919050565b6000828210156125cb576125cb61251d565b500390565b600060ff821660ff84168060ff038211156125ed576125ed61251d565b019392505050565b600082198211156126085761260861251d565b500190565b60008160030b8360030b60008112817fffffffffffffffffffffffffffffffffffffffffffffffffffffffff80000000018312811516156126505761265061251d565b81637fffffff0183138116156126685761266861251d565b5090039392505050565b7f4e487b7100000000000000000000000000000000000000000000000000000000600052601260045260246000fd5b600061ffff808416806126b6576126b6612672565b92169190910492915050565b600060ff821660ff8416808210156126dc576126dc61251d565b90039392505050565b6060815260006126f860608301866123f8565b828103602084015261270a81866123f8565b91505061ffff83166040830152949350505050565b60006020828403121561273157600080fd5b5051919050565b7f4e487b7100000000000000000000000000000000000000000000000000000000600052600160045260246000fd5b6000816127765761277661251d565b506000190190565b60008160001904831182151516156127985761279861251d565b500290565b6000826127ac576127ac612672565b500690565b600181815b808511156127ec5781600019048211156127d2576127d261251d565b808516156127df57918102915b93841c93908002906127b6565b509250929050565b60008261280357506001610899565b8161281057506000610899565b816001811461282657600281146128305761284c565b6001915050610899565b60ff8411156128415761284161251d565b50506001821b610899565b5060208310610133831016604e8410600b841016171561286f575081810a610899565b61287983836127b1565b806000190482111561288d5761288d61251d565b029392505050565b60006109e583836127f4565b6000808312837f8000000000000000000000000000000000000000000000000000000000000000018312811516156128db576128db61251d565b837f7fffffffffffffffffffffffffffffffffffffffffffffffffffffffffffffff01831381161561290f5761290f61251d565b5050039056fe00010203040506070809ffffffffffffff0a0b0c0d0e0f101112131415161718191a1b1c1d1e1fffffffffffffffffffff0a0b0c0d0e0f101112131415161718191a1b1c1d1e1fa264697066735822122095e77d075ca85dd61f92e7fe5e9f5d89a989a02b1fb36b8dc900b9b99c4555d364736f6c634300080d0033",
  "linkReferences": {},
  "deployedLinkReferences": {}
}