{
  "_format": "hh-sol-artifact-1",
  "contractName": "DummyResolver",
  "sourceName": "test/registry/mocks/DummyResolver.sol",
  "abi": [
    {
      "inputs": [
        {
          "internalType": "bytes32",
          "name": "",
          "type": "bytes32"
        }
      ],
      "name": "name",
      "outputs": [
        {
          "internalType": "string",
          "name": "",
          "type": "string"
        }
      ],
      "stateMutability": "view",
      "type": "function"
    },
    {
      "inputs": [
        {
          "internalType": "bytes32",
          "name": "node",
          "type": "bytes32"
        },
        {
          "internalType": "string",
          "name": "_name",
          "type": "string"
        }
      ],
      "name": "setName",
      "outputs": [],
      "stateMutability": "nonpayable",
      "type": "function"
    }
  ],
  "bytecode": "0x608060405234801561001057600080fd5b506104ae806100206000396000f3fe608060405234801561001057600080fd5b50600436106100365760003560e01c8063691f34311461003b5780637737221314610064575b600080fd5b61004e610049366004610130565b610079565b60405161005b9190610149565b60405180910390f35b6100776100723660046101e4565b610113565b005b60006020819052908152604090208054610092906102bd565b80601f01602080910402602001604051908101604052809291908181526020018280546100be906102bd565b801561010b5780601f106100e05761010080835404028352916020019161010b565b820191906000526020600020905b8154815290600101906020018083116100ee57829003601f168201915b505050505081565b600082815260208190526040902061012b828261035e565b505050565b60006020828403121561014257600080fd5b5035919050565b600060208083528351808285015260005b818110156101765785810183015185820160400152820161015a565b5060006040828601015260407fffffffffffffffffffffffffffffffffffffffffffffffffffffffffffffffe0601f8301168501019250505092915050565b7f4e487b7100000000000000000000000000000000000000000000000000000000600052604160045260246000fd5b600080604083850312156101f757600080fd5b82359150602083013567ffffffffffffffff8082111561021657600080fd5b818501915085601f83011261022a57600080fd5b81358181111561023c5761023c6101b5565b604051601f82017fffffffffffffffffffffffffffffffffffffffffffffffffffffffffffffffe0908116603f01168101908382118183101715610282576102826101b5565b8160405282815288602084870101111561029b57600080fd5b8260208601602083013760006020848301015280955050505050509250929050565b600181811c908216806102d157607f821691505b60208210810361030a577f4e487b7100000000000000000000000000000000000000000000000000000000600052602260045260246000fd5b50919050565b601f82111561012b57600081815260208120601f850160051c810160208610156103375750805b601f850160051c820191505b8181101561035657828155600101610343565b505050505050565b815167ffffffffffffffff811115610378576103786101b5565b61038c8161038684546102bd565b84610310565b602080601f8311600181146103df57600084156103a95750858301515b7fffffffffffffffffffffffffffffffffffffffffffffffffffffffffffffffff600386901b1c1916600185901b178555610356565b6000858152602081207fffffffffffffffffffffffffffffffffffffffffffffffffffffffffffffffe08616915b8281101561042c5788860151825594840194600190910190840161040d565b508582101561046857878501517fffffffffffffffffffffffffffffffffffffffffffffffffffffffffffffffff600388901b60f8161c191681555b5050505050600190811b0190555056fea26469706673582212201558a234c57fb3b30890fe71aa4dcb47a613d6b57f6429d816e30d1fb303218564736f6c63430008110033",
  "linkReferences": {},
  "deployedLinkReferences": {}
}