{
  "_format": "hh-sol-artifact-1",
  "contractName": "TestNameEncoder",
  "sourceName": "contracts/utils/TestNameEncoder.sol",
  "abi": [
    {
      "inputs": [
        {
          "internalType": "string",
          "name": "name",
          "type": "string"
        }
      ],
      "name": "encodeName",
      "outputs": [
        {
          "internalType": "bytes",
          "name": "",
          "type": "bytes"
        },
        {
          "internalType": "bytes32",
          "name": "",
          "type": "bytes32"
        }
      ],
      "stateMutability": "pure",
      "type": "function"
    }
  ],
  "bytecode": "0x608060405234801561001057600080fd5b5061055e806100206000396000f3fe608060405234801561001057600080fd5b506004361061002b5760003560e01c806318d321ca14610030575b600080fd5b61004361003e366004610370565b61005a565b60405161005192919061043f565b60405180910390f35b6060600061006783610070565b91509150915091565b8051606090600090819084906100878160026104ba565b67ffffffffffffffff81111561009f5761009f610341565b6040519080825280601f01601f1916602001820160405280156100c9576020820181803683370190505b5094506000935080840361012657600060f81b856000815181106100ef576100ef6104f9565b60200101907effffffffffffffffffffffffffffffffffffffffffffffffffffffffffffff1916908160001a905350505050915091565b7fffffffffffffffffffffffffffffffffffffffffffffffffffffffffffffffff81015b82818151811061015c5761015c6104f9565b01602001517fff00000000000000000000000000000000000000000000000000000000000000167f2e0000000000000000000000000000000000000000000000000000000000000003610236578360f81b8682600101815181106101c2576101c26104f9565b60200101907effffffffffffffffffffffffffffffffffffffffffffffffffffffffffffff1916908160001a90535084610203846001840160ff881661031d565b6040805160208101939093528201526060016040516020818303038152906040528051906020012094506000935061029e565b60018401935082818151811061024e5761024e6104f9565b602001015160f81c60f81b86826001018151811061026e5761026e6104f9565b60200101907effffffffffffffffffffffffffffffffffffffffffffffffffffffffffffff1916908160001a9053505b80156102cb577fffffffffffffffffffffffffffffffffffffffffffffffffffffffffffffffff0161014a565b50836102dc83600060ff871661031d565b6040805160208101939093528201526060016040516020818303038152906040528051906020012093508260f81b856000815181106100ef576100ef6104f9565b825160009061032c83856104ba565b111561033757600080fd5b5091016020012090565b7f4e487b7100000000000000000000000000000000000000000000000000000000600052604160045260246000fd5b60006020828403121561038257600080fd5b813567ffffffffffffffff8082111561039a57600080fd5b818401915084601f8301126103ae57600080fd5b8135818111156103c0576103c0610341565b604051601f82017fffffffffffffffffffffffffffffffffffffffffffffffffffffffffffffffe0908116603f0116810190838211818310171561040657610406610341565b8160405282815287602084870101111561041f57600080fd5b826020860160208301376000928101602001929092525095945050505050565b604081526000835180604084015260005b8181101561046d5760208187018101516060868401015201610450565b8181111561047f576000606083860101525b50602083019390935250601f919091017fffffffffffffffffffffffffffffffffffffffffffffffffffffffffffffffe01601606001919050565b600082198211156104f4577f4e487b7100000000000000000000000000000000000000000000000000000000600052601160045260246000fd5b500190565b7f4e487b7100000000000000000000000000000000000000000000000000000000600052603260045260246000fdfea26469706673582212207b1ab63c2a77883ce3556988886ab77b23080fc6c812c77bb05fc6f048ce629c64736f6c634300080d0033",
  "linkReferences": {},
  "deployedLinkReferences": {}
}