{
  "_format": "hh-sol-artifact-1",
  "contractName": "StaticMetadataService",
  "sourceName": "contracts/wrapper/StaticMetadataService.sol",
  "abi": [
    {
      "inputs": [
        {
          "internalType": "string",
          "name": "_metaDataUri",
          "type": "string"
        }
      ],
      "stateMutability": "nonpayable",
      "type": "constructor"
    },
    {
      "inputs": [
        {
          "internalType": "uint256",
          "name": "",
          "type": "uint256"
        }
      ],
      "name": "uri",
      "outputs": [
        {
          "internalType": "string",
          "name": "",
          "type": "string"
        }
      ],
      "stateMutability": "view",
      "type": "function"
    }
  ],
  "bytecode": "0x608060405234801561001057600080fd5b5060405161041238038061041283398101604081905261002f916100f8565b8051610042906000906020840190610049565b5050610201565b828054610055906101c7565b90600052602060002090601f01602090048101928261007757600085556100bd565b82601f1061009057805160ff19168380011785556100bd565b828001600101855582156100bd579182015b828111156100bd5782518255916020019190600101906100a2565b506100c99291506100cd565b5090565b5b808211156100c957600081556001016100ce565b634e487b7160e01b600052604160045260246000fd5b6000602080838503121561010b57600080fd5b82516001600160401b038082111561012257600080fd5b818501915085601f83011261013657600080fd5b815181811115610148576101486100e2565b604051601f8201601f19908116603f01168101908382118183101715610170576101706100e2565b81604052828152888684870101111561018857600080fd5b600093505b828410156101aa578484018601518185018701529285019261018d565b828411156101bb5760008684830101525b98975050505050505050565b600181811c908216806101db57607f821691505b6020821081036101fb57634e487b7160e01b600052602260045260246000fd5b50919050565b610202806102106000396000f3fe608060405234801561001057600080fd5b506004361061002b5760003560e01c80630e89341c14610030575b600080fd5b61004361003e3660046100ed565b610059565b6040516100509190610106565b60405180910390f35b60606000805461006890610179565b80601f016020809104026020016040519081016040528092919081815260200182805461009490610179565b80156100e15780601f106100b6576101008083540402835291602001916100e1565b820191906000526020600020905b8154815290600101906020018083116100c457829003601f168201915b50505050509050919050565b6000602082840312156100ff57600080fd5b5035919050565b600060208083528351808285015260005b8181101561013357858101830151858201604001528201610117565b81811115610145576000604083870101525b50601f017fffffffffffffffffffffffffffffffffffffffffffffffffffffffffffffffe016929092016040019392505050565b600181811c9082168061018d57607f821691505b6020821081036101c6577f4e487b7100000000000000000000000000000000000000000000000000000000600052602260045260246000fd5b5091905056fea2646970667358221220d856b2bb3451b7d3343803c5eea4c6f58108530487d84a0a1c8177c8f7ae04c164736f6c634300080d0033",
  "linkReferences": {},
  "deployedLinkReferences": {}
}