{
  "_format": "hh-sol-artifact-1",
  "contractName": "OwnedResolver",
  "sourceName": "contracts/resolvers/OwnedResolver.sol",
  "abi": [
    {
      "anonymous": false,
      "inputs": [
        {
          "indexed": true,
          "internalType": "bytes32",
          "name": "node",
          "type": "bytes32"
        },
        {
          "indexed": true,
          "internalType": "uint256",
          "name": "contentType",
          "type": "uint256"
        }
      ],
      "name": "ABIChanged",
      "type": "event"
    },
    {
      "anonymous": false,
      "inputs": [
        {
          "indexed": true,
          "internalType": "bytes32",
          "name": "node",
          "type": "bytes32"
        },
        {
          "indexed": false,
          "internalType": "address",
          "name": "a",
          "type": "address"
        }
      ],
      "name": "AddrChanged",
      "type": "event"
    },
    {
      "anonymous": false,
      "inputs": [
        {
          "indexed": true,
          "internalType": "bytes32",
          "name": "node",
          "type": "bytes32"
        },
        {
          "indexed": false,
          "internalType": "uint256",
          "name": "coinType",
          "type": "uint256"
        },
        {
          "indexed": false,
          "internalType": "bytes",
          "name": "newAddress",
          "type": "bytes"
        }
      ],
      "name": "AddressChanged",
      "type": "event"
    },
    {
      "anonymous": false,
      "inputs": [
        {
          "indexed": true,
          "internalType": "bytes32",
          "name": "node",
          "type": "bytes32"
        },
        {
          "indexed": false,
          "internalType": "bytes",
          "name": "hash",
          "type": "bytes"
        }
      ],
      "name": "ContenthashChanged",
      "type": "event"
    },
    {
      "anonymous": false,
      "inputs": [
        {
          "indexed": true,
          "internalType": "bytes32",
          "name": "node",
          "type": "bytes32"
        },
        {
          "indexed": false,
          "internalType": "bytes",
          "name": "name",
          "type": "bytes"
        },
        {
          "indexed": false,
          "internalType": "uint16",
          "name": "resource",
          "type": "uint16"
        },
        {
          "indexed": false,
          "internalType": "bytes",
          "name": "record",
          "type": "bytes"
        }
      ],
      "name": "DNSRecordChanged",
      "type": "event"
    },
    {
      "anonymous": false,
      "inputs": [
        {
          "indexed": true,
          "internalType": "bytes32",
          "name": "node",
          "type": "bytes32"
        },
        {
          "indexed": false,
          "internalType": "bytes",
          "name": "name",
          "type": "bytes"
        },
        {
          "indexed": false,
          "internalType": "uint16",
          "name": "resource",
          "type": "uint16"
        }
      ],
      "name": "DNSRecordDeleted",
      "type": "event"
    },
    {
      "anonymous": false,
      "inputs": [
        {
          "indexed": true,
          "internalType": "bytes32",
          "name": "node",
          "type": "bytes32"
        }
      ],
      "name": "DNSZoneCleared",
      "type": "event"
    },
    {
      "anonymous": false,
      "inputs": [
        {
          "indexed": true,
          "internalType": "bytes32",
          "name": "node",
          "type": "bytes32"
        },
        {
          "indexed": false,
          "internalType": "bytes",
          "name": "lastzonehash",
          "type": "bytes"
        },
        {
          "indexed": false,
          "internalType": "bytes",
          "name": "zonehash",
          "type": "bytes"
        }
      ],
      "name": "DNSZonehashChanged",
      "type": "event"
    },
    {
      "anonymous": false,
      "inputs": [
        {
          "indexed": true,
          "internalType": "bytes32",
          "name": "node",
          "type": "bytes32"
        },
        {
          "indexed": true,
          "internalType": "bytes4",
          "name": "interfaceID",
          "type": "bytes4"
        },
        {
          "indexed": false,
          "internalType": "address",
          "name": "implementer",
          "type": "address"
        }
      ],
      "name": "InterfaceChanged",
      "type": "event"
    },
    {
      "anonymous": false,
      "inputs": [
        {
          "indexed": true,
          "internalType": "bytes32",
          "name": "node",
          "type": "bytes32"
        },
        {
          "indexed": false,
          "internalType": "string",
          "name": "name",
          "type": "string"
        }
      ],
      "name": "NameChanged",
      "type": "event"
    },
    {
      "anonymous": false,
      "inputs": [
        {
          "indexed": true,
          "internalType": "address",
          "name": "previousOwner",
          "type": "address"
        },
        {
          "indexed": true,
          "internalType": "address",
          "name": "newOwner",
          "type": "address"
        }
      ],
      "name": "OwnershipTransferred",
      "type": "event"
    },
    {
      "anonymous": false,
      "inputs": [
        {
          "indexed": true,
          "internalType": "bytes32",
          "name": "node",
          "type": "bytes32"
        },
        {
          "indexed": false,
          "internalType": "bytes32",
          "name": "x",
          "type": "bytes32"
        },
        {
          "indexed": false,
          "internalType": "bytes32",
          "name": "y",
          "type": "bytes32"
        }
      ],
      "name": "PubkeyChanged",
      "type": "event"
    },
    {
      "anonymous": false,
      "inputs": [
        {
          "indexed": true,
          "internalType": "bytes32",
          "name": "node",
          "type": "bytes32"
        },
        {
          "indexed": true,
          "internalType": "string",
          "name": "indexedKey",
          "type": "string"
        },
        {
          "indexed": false,
          "internalType": "string",
          "name": "key",
          "type": "string"
        }
      ],
      "name": "TextChanged",
      "type": "event"
    },
    {
      "inputs": [
        {
          "internalType": "bytes32",
          "name": "node",
          "type": "bytes32"
        },
        {
          "internalType": "uint256",
          "name": "contentTypes",
          "type": "uint256"
        }
      ],
      "name": "ABI",
      "outputs": [
        {
          "internalType": "uint256",
          "name": "",
          "type": "uint256"
        },
        {
          "internalType": "bytes",
          "name": "",
          "type": "bytes"
        }
      ],
      "stateMutability": "view",
      "type": "function"
    },
    {
      "inputs": [
        {
          "internalType": "bytes32",
          "name": "node",
          "type": "bytes32"
        }
      ],
      "name": "addr",
      "outputs": [
        {
          "internalType": "address payable",
          "name": "",
          "type": "address"
        }
      ],
      "stateMutability": "view",
      "type": "function"
    },
    {
      "inputs": [
        {
          "internalType": "bytes32",
          "name": "node",
          "type": "bytes32"
        },
        {
          "internalType": "uint256",
          "name": "coinType",
          "type": "uint256"
        }
      ],
      "name": "addr",
      "outputs": [
        {
          "internalType": "bytes",
          "name": "",
          "type": "bytes"
        }
      ],
      "stateMutability": "view",
      "type": "function"
    },
    {
      "inputs": [
        {
          "internalType": "bytes32",
          "name": "node",
          "type": "bytes32"
        }
      ],
      "name": "clearDNSZone",
      "outputs": [],
      "stateMutability": "nonpayable",
      "type": "function"
    },
    {
      "inputs": [
        {
          "internalType": "bytes32",
          "name": "node",
          "type": "bytes32"
        }
      ],
      "name": "contenthash",
      "outputs": [
        {
          "internalType": "bytes",
          "name": "",
          "type": "bytes"
        }
      ],
      "stateMutability": "view",
      "type": "function"
    },
    {
      "inputs": [
        {
          "internalType": "bytes32",
          "name": "node",
          "type": "bytes32"
        },
        {
          "internalType": "bytes32",
          "name": "name",
          "type": "bytes32"
        },
        {
          "internalType": "uint16",
          "name": "resource",
          "type": "uint16"
        }
      ],
      "name": "dnsRecord",
      "outputs": [
        {
          "internalType": "bytes",
          "name": "",
          "type": "bytes"
        }
      ],
      "stateMutability": "view",
      "type": "function"
    },
    {
      "inputs": [
        {
          "internalType": "bytes32",
          "name": "node",
          "type": "bytes32"
        },
        {
          "internalType": "bytes32",
          "name": "name",
          "type": "bytes32"
        }
      ],
      "name": "hasDNSRecords",
      "outputs": [
        {
          "internalType": "bool",
          "name": "",
          "type": "bool"
        }
      ],
      "stateMutability": "view",
      "type": "function"
    },
    {
      "inputs": [
        {
          "internalType": "bytes32",
          "name": "node",
          "type": "bytes32"
        },
        {
          "internalType": "bytes4",
          "name": "interfaceID",
          "type": "bytes4"
        }
      ],
      "name": "interfaceImplementer",
      "outputs": [
        {
          "internalType": "address",
          "name": "",
          "type": "address"
        }
      ],
      "stateMutability": "view",
      "type": "function"
    },
    {
      "inputs": [
        {
          "internalType": "bytes32",
          "name": "node",
          "type": "bytes32"
        }
      ],
      "name": "name",
      "outputs": [
        {
          "internalType": "string",
          "name": "",
          "type": "string"
        }
      ],
      "stateMutability": "view",
      "type": "function"
    },
    {
      "inputs": [],
      "name": "owner",
      "outputs": [
        {
          "internalType": "address",
          "name": "",
          "type": "address"
        }
      ],
      "stateMutability": "view",
      "type": "function"
    },
    {
      "inputs": [
        {
          "internalType": "bytes32",
          "name": "node",
          "type": "bytes32"
        }
      ],
      "name": "pubkey",
      "outputs": [
        {
          "internalType": "bytes32",
          "name": "x",
          "type": "bytes32"
        },
        {
          "internalType": "bytes32",
          "name": "y",
          "type": "bytes32"
        }
      ],
      "stateMutability": "view",
      "type": "function"
    },
    {
      "inputs": [],
      "name": "renounceOwnership",
      "outputs": [],
      "stateMutability": "nonpayable",
      "type": "function"
    },
    {
      "inputs": [
        {
          "internalType": "bytes32",
          "name": "node",
          "type": "bytes32"
        },
        {
          "internalType": "uint256",
          "name": "contentType",
          "type": "uint256"
        },
        {
          "internalType": "bytes",
          "name": "data",
          "type": "bytes"
        }
      ],
      "name": "setABI",
      "outputs": [],
      "stateMutability": "nonpayable",
      "type": "function"
    },
    {
      "inputs": [
        {
          "internalType": "bytes32",
          "name": "node",
          "type": "bytes32"
        },
        {
          "internalType": "uint256",
          "name": "coinType",
          "type": "uint256"
        },
        {
          "internalType": "bytes",
          "name": "a",
          "type": "bytes"
        }
      ],
      "name": "setAddr",
      "outputs": [],
      "stateMutability": "nonpayable",
      "type": "function"
    },
    {
      "inputs": [
        {
          "internalType": "bytes32",
          "name": "node",
          "type": "bytes32"
        },
        {
          "internalType": "address",
          "name": "a",
          "type": "address"
        }
      ],
      "name": "setAddr",
      "outputs": [],
      "stateMutability": "nonpayable",
      "type": "function"
    },
    {
      "inputs": [
        {
          "internalType": "bytes32",
          "name": "node",
          "type": "bytes32"
        },
        {
          "internalType": "bytes",
          "name": "hash",
          "type": "bytes"
        }
      ],
      "name": "setContenthash",
      "outputs": [],
      "stateMutability": "nonpayable",
      "type": "function"
    },
    {
      "inputs": [
        {
          "internalType": "bytes32",
          "name": "node",
          "type": "bytes32"
        },
        {
          "internalType": "bytes",
          "name": "data",
          "type": "bytes"
        }
      ],
      "name": "setDNSRecords",
      "outputs": [],
      "stateMutability": "nonpayable",
      "type": "function"
    },
    {
      "inputs": [
        {
          "internalType": "bytes32",
          "name": "node",
          "type": "bytes32"
        },
        {
          "internalType": "bytes4",
          "name": "interfaceID",
          "type": "bytes4"
        },
        {
          "internalType": "address",
          "name": "implementer",
          "type": "address"
        }
      ],
      "name": "setInterface",
      "outputs": [],
      "stateMutability": "nonpayable",
      "type": "function"
    },
    {
      "inputs": [
        {
          "internalType": "bytes32",
          "name": "node",
          "type": "bytes32"
        },
        {
          "internalType": "string",
          "name": "newName",
          "type": "string"
        }
      ],
      "name": "setName",
      "outputs": [],
      "stateMutability": "nonpayable",
      "type": "function"
    },
    {
      "inputs": [
        {
          "internalType": "bytes32",
          "name": "node",
          "type": "bytes32"
        },
        {
          "internalType": "bytes32",
          "name": "x",
          "type": "bytes32"
        },
        {
          "internalType": "bytes32",
          "name": "y",
          "type": "bytes32"
        }
      ],
      "name": "setPubkey",
      "outputs": [],
      "stateMutability": "nonpayable",
      "type": "function"
    },
    {
      "inputs": [
        {
          "internalType": "bytes32",
          "name": "node",
          "type": "bytes32"
        },
        {
          "internalType": "string",
          "name": "key",
          "type": "string"
        },
        {
          "internalType": "string",
          "name": "value",
          "type": "string"
        }
      ],
      "name": "setText",
      "outputs": [],
      "stateMutability": "nonpayable",
      "type": "function"
    },
    {
      "inputs": [
        {
          "internalType": "bytes32",
          "name": "node",
          "type": "bytes32"
        },
        {
          "internalType": "bytes",
          "name": "hash",
          "type": "bytes"
        }
      ],
      "name": "setZonehash",
      "outputs": [],
      "stateMutability": "nonpayable",
      "type": "function"
    },
    {
      "inputs": [
        {
          "internalType": "bytes4",
          "name": "interfaceID",
          "type": "bytes4"
        }
      ],
      "name": "supportsInterface",
      "outputs": [
        {
          "internalType": "bool",
          "name": "",
          "type": "bool"
        }
      ],
      "stateMutability": "view",
      "type": "function"
    },
    {
      "inputs": [
        {
          "internalType": "bytes32",
          "name": "node",
          "type": "bytes32"
        },
        {
          "internalType": "string",
          "name": "key",
          "type": "string"
        }
      ],
      "name": "text",
      "outputs": [
        {
          "internalType": "string",
          "name": "",
          "type": "string"
        }
      ],
      "stateMutability": "view",
      "type": "function"
    },
    {
      "inputs": [
        {
          "internalType": "address",
          "name": "newOwner",
          "type": "address"
        }
      ],
      "name": "transferOwnership",
      "outputs": [],
      "stateMutability": "nonpayable",
      "type": "function"
    },
    {
      "inputs": [
        {
          "internalType": "bytes32",
          "name": "node",
          "type": "bytes32"
        }
      ],
      "name": "zonehash",
      "outputs": [
        {
          "internalType": "bytes",
          "name": "",
          "type": "bytes"
        }
      ],
      "stateMutability": "view",
      "type": "function"
    }
  ],
  "bytecode": "0x608060405234801561001057600080fd5b5061001a3361001f565b61006f565b600080546001600160a01b038381166001600160a01b0319831681178455604051919092169283917f8be0079c531659141344cd1fd0a4f28419497f9722a3daafe3b4186f6b6457e09190a35050565b6129388061007e6000396000f3fe608060405234801561001057600080fd5b50600436106101ae5760003560e01c8063715018a6116100ee578063bc1c58d111610097578063d5fa2b0011610071578063d5fa2b0014610403578063e59d895d14610416578063f1cb7e0614610429578063f2fde38b1461043c57600080fd5b8063bc1c58d1146103a0578063c8690233146103b3578063ce3decdc146103f057600080fd5b80638da5cb5b116100c85780638da5cb5b1461035c578063a8fa56821461037a578063ad5780af1461038d57600080fd5b8063715018a61461032e57806377372213146103365780638b95dd711461034957600080fd5b8063304e6ade1161015b57806359d1d43c1161013557806359d1d43c146102d55780635c98042b146102f5578063623195b014610308578063691f34311461031b57600080fd5b8063304e6ade1461026f5780633b3b57de146102825780634cbf6ba41461029557600080fd5b8063124a319c1161018c578063124a319c146102035780632203ab561461023b57806329cd62ea1461025c57600080fd5b806301ffc9a7146101b35780630af179d7146101db57806310f13a8c146101f0575b600080fd5b6101c66101c13660046121b2565b61044f565b60405190151581526020015b60405180910390f35b6101ee6101e936600461220f565b610460565b005b6101ee6101fe36600461225b565b610661565b6102166102113660046122d5565b610721565b60405173ffffffffffffffffffffffffffffffffffffffff90911681526020016101d2565b61024e610249366004612301565b610a9e565b6040516101d292919061239d565b6101ee61026a3660046123b6565b610bb9565b6101ee61027d36600461220f565b610c4c565b6102166102903660046123e2565b610cbe565b6101c66102a3366004612301565b600091825260076020908152604080842060058352818520548552825280842092845291905290205461ffff16151590565b6102e86102e336600461220f565b610cf0565b6040516101d291906123fb565b6102e86103033660046123e2565b610db5565b6101ee61031636600461240e565b610e57565b6102e86103293660046123e2565b610eed565b6101ee610f0a565b6101ee61034436600461220f565b610f9c565b6101ee610357366004612490565b61100e565b60005473ffffffffffffffffffffffffffffffffffffffff16610216565b6102e8610388366004612572565b6110f8565b6101ee61039b3660046123e2565b61113b565b6102e86103ae3660046123e2565b6111af565b6103db6103c13660046123e2565b6000908152600a6020526040902080546001909101549091565b604080519283526020830191909152016101d2565b6101ee6103fe36600461220f565b6111cc565b6101ee6104113660046125d6565b6112eb565b6101ee6104243660046125f9565b611325565b6102e8610437366004612301565b611402565b6101ee61044a366004612635565b6114b0565b600061045a826115e0565b92915050565b600054839073ffffffffffffffffffffffffffffffffffffffff16331461048657600080fd5b6000806060806000806104d360008a8a8080601f01602080910402602001604051908101604052809392919081815260200183838082843760009201919091525092939250506116369050565b90505b805151602082015110156105fc578561ffff1660000361053b578060400151955061050081611697565b9350836040516020016105139190612650565b604051602081830303815290604052805190602001209150610534816116b8565b92506105ee565b600061054682611697565b9050816040015161ffff168761ffff1614158061056a575061056885826116d4565b155b156105ec576105c58b86898d8d8080601f016020809104026020016040519081016040528093929190818152602001838380828437600092019190915250505060208801518c91506105bd90829061269b565b8a51156116f2565b8160400151965081602001519550809450848051906020012092506105e9826116b8565b93505b505b6105f781611935565b6104d6565b50825115610656576106568984878b8b8080601f0160208091040260200160405190810160405280939291908181526020018383808284376000920191909152508b925061064e91508290508e61269b565b8851156116f2565b505050505050505050565b600054859073ffffffffffffffffffffffffffffffffffffffff16331461068757600080fd5b8282600b600089815260200190815260200160002087876040516106ac9291906126b2565b9081526040519081900360200190206106c692909161201c565b5084846040516106d79291906126b2565b6040518091039020867fd8c9334b1a9c2f9da342a0a2b32629c1a229b6445dad78947f674b44444a7550878760405161071192919061270b565b60405180910390a3505050505050565b60008281526008602090815260408083207fffffffff000000000000000000000000000000000000000000000000000000008516845290915281205473ffffffffffffffffffffffffffffffffffffffff16801561078057905061045a565b600061078b85610cbe565b905073ffffffffffffffffffffffffffffffffffffffff81166107b35760009250505061045a565b6040517f01ffc9a7000000000000000000000000000000000000000000000000000000006024820152600090819073ffffffffffffffffffffffffffffffffffffffff841690604401604080517fffffffffffffffffffffffffffffffffffffffffffffffffffffffffffffffe08184030181529181526020820180517bffffffffffffffffffffffffffffffffffffffffffffffffffffffff167f01ffc9a7000000000000000000000000000000000000000000000000000000001790525161087d9190612650565b600060405180830381855afa9150503d80600081146108b8576040519150601f19603f3d011682016040523d82523d6000602084013e6108bd565b606091505b50915091508115806108d0575060208151105b80610912575080601f815181106108e9576108e961271f565b01602001517fff0000000000000000000000000000000000000000000000000000000000000016155b1561092457600094505050505061045a565b6040517fffffffff000000000000000000000000000000000000000000000000000000008716602482015273ffffffffffffffffffffffffffffffffffffffff841690604401604080517fffffffffffffffffffffffffffffffffffffffffffffffffffffffffffffffe08184030181529181526020820180517bffffffffffffffffffffffffffffffffffffffffffffffffffffffff167f01ffc9a700000000000000000000000000000000000000000000000000000000179052516109eb9190612650565b600060405180830381855afa9150503d8060008114610a26576040519150601f19603f3d011682016040523d82523d6000602084013e610a2b565b606091505b509092509050811580610a3f575060208151105b80610a81575080601f81518110610a5857610a5861271f565b01602001517fff0000000000000000000000000000000000000000000000000000000000000016155b15610a9357600094505050505061045a565b509095945050505050565b600082815260016020819052604082206060915b848111610b995780851615801590610ae2575060008181526020839052604081208054610ade9061274e565b9050115b15610b915780826000838152602001908152602001600020808054610b069061274e565b80601f0160208091040260200160405190810160405280929190818152602001828054610b329061274e565b8015610b7f5780601f10610b5457610100808354040283529160200191610b7f565b820191906000526020600020905b815481529060010190602001808311610b6257829003601f168201915b50505050509050935093505050610bb2565b60011b610ab2565b5060006040518060200160405280600081525092509250505b9250929050565b600054839073ffffffffffffffffffffffffffffffffffffffff163314610bdf57600080fd5b60408051808201825284815260208082018581526000888152600a83528490209251835551600190920191909155815185815290810184905285917f1d6f5e03d3f63eb58751986629a5439baee5079ff04f345becb66e23eb154e4691015b60405180910390a250505050565b600054839073ffffffffffffffffffffffffffffffffffffffff163314610c7257600080fd5b6000848152600360205260409020610c8b90848461201c565b50837fe379c1624ed7e714cc0937528a32359d69d5281337765313dba4e081b72d75788484604051610c3e92919061270b565b600080610ccc83603c611402565b90508051600003610ce05750600092915050565b610ce981611a1d565b9392505050565b6060600b60008581526020019081526020016000208383604051610d159291906126b2565b90815260200160405180910390208054610d2e9061274e565b80601f0160208091040260200160405190810160405280929190818152602001828054610d5a9061274e565b8015610da75780601f10610d7c57610100808354040283529160200191610da7565b820191906000526020600020905b815481529060010190602001808311610d8a57829003601f168201915b505050505090509392505050565b6000818152600460205260409020805460609190610dd29061274e565b80601f0160208091040260200160405190810160405280929190818152602001828054610dfe9061274e565b8015610e4b5780601f10610e2057610100808354040283529160200191610e4b565b820191906000526020600020905b815481529060010190602001808311610e2e57829003601f168201915b50505050509050919050565b600054849073ffffffffffffffffffffffffffffffffffffffff163314610e7d57600080fd5b83610e8960018261269b565b1615610e9457600080fd5b60008581526001602090815260408083208784529091529020610eb890848461201c565b50604051849086907faa121bbeef5f32f5961a2a28966e769023910fc9479059ee3495d4c1a696efe390600090a35050505050565b6000818152600960205260409020805460609190610dd29061274e565b60005473ffffffffffffffffffffffffffffffffffffffff163314610f90576040517f08c379a000000000000000000000000000000000000000000000000000000000815260206004820181905260248201527f4f776e61626c653a2063616c6c6572206973206e6f7420746865206f776e657260448201526064015b60405180910390fd5b610f9a6000611a45565b565b600054839073ffffffffffffffffffffffffffffffffffffffff163314610fc257600080fd5b6000848152600960205260409020610fdb90848461201c565b50837fb7d29e911041e8d9b843369e890bcb72c9388692ba48b65ac54e7214c4c348f78484604051610c3e92919061270b565b600054839073ffffffffffffffffffffffffffffffffffffffff16331461103457600080fd5b837f65412581168e88a1e60c6459d7f44ae83ad0832e670826c05a4e2476b57af752848460405161106692919061239d565b60405180910390a2603c83036110ca57837f52d7d861f09ab3d26239d492e8968629f95e9e318cf0b73bfddc441522a15fd26110a184611a1d565b60405173ffffffffffffffffffffffffffffffffffffffff909116815260200160405180910390a25b6000848152600260209081526040808320868452825290912083516110f1928501906120be565b5050505050565b6000838152600660209081526040808320600583528184205484528252808320858452825280832061ffff851684529091529020805460609190610d2e9061274e565b600054819073ffffffffffffffffffffffffffffffffffffffff16331461116157600080fd5b600082815260056020526040812080549161117b836127a1565b909155505060405182907fb757169b8492ca2f1c6619d9d76ce22803035c3b1d5f6930dffe7b127c1a198390600090a25050565b6000818152600360205260409020805460609190610dd29061274e565b600054839073ffffffffffffffffffffffffffffffffffffffff1633146111f257600080fd5b6000848152600460205260408120805461120b9061274e565b80601f01602080910402602001604051908101604052809291908181526020018280546112379061274e565b80156112845780601f1061125957610100808354040283529160200191611284565b820191906000526020600020905b81548152906001019060200180831161126757829003601f168201915b50505060008881526004602052604090209293506112a79291508690508561201c565b50847f8f15ed4b723ef428f250961da8315675b507046737e19319fc1a4d81bfe87f858286866040516112dc939291906127d9565b60405180910390a25050505050565b600054829073ffffffffffffffffffffffffffffffffffffffff16331461131157600080fd5b61132083603c61035785611aba565b505050565b600054839073ffffffffffffffffffffffffffffffffffffffff16331461134b57600080fd5b60008481526008602090815260408083207fffffffff0000000000000000000000000000000000000000000000000000000087168085529083529281902080547fffffffffffffffffffffffff00000000000000000000000000000000000000001673ffffffffffffffffffffffffffffffffffffffff8716908117909155905190815286917f7c69f06bea0bdef565b709e93a147836b0063ba2dd89f02d0b7e8d931e6a6daa910160405180910390a350505050565b6000828152600260209081526040808320848452909152902080546060919061142a9061274e565b80601f01602080910402602001604051908101604052809291908181526020018280546114569061274e565b80156114a35780601f10611478576101008083540402835291602001916114a3565b820191906000526020600020905b81548152906001019060200180831161148657829003601f168201915b5050505050905092915050565b60005473ffffffffffffffffffffffffffffffffffffffff163314611531576040517f08c379a000000000000000000000000000000000000000000000000000000000815260206004820181905260248201527f4f776e61626c653a2063616c6c6572206973206e6f7420746865206f776e65726044820152606401610f87565b73ffffffffffffffffffffffffffffffffffffffff81166115d4576040517f08c379a000000000000000000000000000000000000000000000000000000000815260206004820152602660248201527f4f776e61626c653a206e6577206f776e657220697320746865207a65726f206160448201527f64647265737300000000000000000000000000000000000000000000000000006064820152608401610f87565b6115dd81611a45565b50565b60007fffffffff0000000000000000000000000000000000000000000000000000000082167f59d1d43c00000000000000000000000000000000000000000000000000000000148061045a575061045a82611af3565b6116846040518060e001604052806060815260200160008152602001600061ffff168152602001600061ffff168152602001600063ffffffff16815260200160008152602001600081525090565b82815260c0810182905261045a81611935565b6020810151815160609161045a916116af9082611b49565b84519190611bab565b60a081015160c082015160609161045a916116af90829061269b565b600081518351148015610ce95750610ce98360008460008751611c22565b60008781526005602090815260408220548851918901919091209091611719878787611bab565b905083156118225760008a81526006602090815260408083208684528252808320858452825280832061ffff8c168452909152902080546117599061274e565b1590506117ad5760008a815260076020908152604080832086845282528083208584529091528120805461ffff169161179183612809565b91906101000a81548161ffff021916908361ffff160217905550505b60008a81526006602090815260408083208684528252808320858452825280832061ffff8c16845290915281206117e391612132565b897f03528ed0c2a3ebc993b12ce3c16bb382f9c7d88ef7d8a1bf290eaf35955a12078a8a604051611815929190612845565b60405180910390a2611929565b60008a81526006602090815260408083208684528252808320858452825280832061ffff8c1684529091529020805461185a9061274e565b90506000036118b05760008a815260076020908152604080832086845282528083208584529091528120805461ffff16916118948361286b565b91906101000a81548161ffff021916908361ffff160217905550505b60008a81526006602090815260408083208684528252808320858452825280832061ffff8c168452825290912082516118eb928401906120be565b50897f52a608b3303a48862d07a73d82fa221318c0027fbbcfb1b2329bface3f19ff2b8a8a846040516119209392919061288c565b60405180910390a25b50505050505050505050565b60c0810151602082018190528151511161194c5750565b600061196082600001518360200151611b49565b826020015161196f91906128bb565b825190915061197e9082611c45565b61ffff1660408301526119926002826128bb565b82519091506119a19082611c45565b61ffff1660608301526119b56002826128bb565b82519091506119c49082611c6d565b63ffffffff1660808301526119da6004826128bb565b82519091506000906119ec9083611c45565b61ffff1690506119fd6002836128bb565b60a084018190529150611a1081836128bb565b60c0909301929092525050565b60008151601414611a2d57600080fd5b50602001516c01000000000000000000000000900490565b6000805473ffffffffffffffffffffffffffffffffffffffff8381167fffffffffffffffffffffffff0000000000000000000000000000000000000000831681178455604051919092169283917f8be0079c531659141344cd1fd0a4f28419497f9722a3daafe3b4186f6b6457e09190a35050565b6040805160148082528183019092526060916020820181803683375050506c010000000000000000000000009290920260208301525090565b60007fffffffff0000000000000000000000000000000000000000000000000000000082167fc869023300000000000000000000000000000000000000000000000000000000148061045a575061045a82611c97565b6000815b83518110611b5d57611b5d6128d3565b6000611b698583611ced565b60ff169050611b798160016128bb565b611b8390836128bb565b915080600003611b935750611b99565b50611b4d565b611ba3838261269b565b949350505050565b8251606090611bba83856128bb565b1115611bc557600080fd5b60008267ffffffffffffffff811115611be057611be0612461565b6040519080825280601f01601f191660200182016040528015611c0a576020820181803683370190505b50905060208082019086860101610a93828287611d11565b6000611c2f848484611d85565b611c3a878785611d85565b149695505050505050565b8151600090611c558360026128bb565b1115611c6057600080fd5b50016002015161ffff1690565b8151600090611c7d8360046128bb565b1115611c8857600080fd5b50016004015163ffffffff1690565b60007fffffffff0000000000000000000000000000000000000000000000000000000082167f691f343100000000000000000000000000000000000000000000000000000000148061045a575061045a82611da9565b6000828281518110611d0157611d0161271f565b016020015160f81c905092915050565b60208110611d495781518352611d286020846128bb565b9250611d356020836128bb565b9150611d4260208261269b565b9050611d11565b905182516020929092036101000a7fffffffffffffffffffffffffffffffffffffffffffffffffffffffffffffffff0180199091169116179052565b8251600090611d9483856128bb565b1115611d9f57600080fd5b5091016020012090565b60007fffffffff0000000000000000000000000000000000000000000000000000000082167f124a319c00000000000000000000000000000000000000000000000000000000148061045a575061045a8260007fffffffff0000000000000000000000000000000000000000000000000000000082167fa8fa5682000000000000000000000000000000000000000000000000000000001480611e8d57507fffffffff0000000000000000000000000000000000000000000000000000000082167f5c98042b00000000000000000000000000000000000000000000000000000000145b8061045a575061045a8260007fffffffff0000000000000000000000000000000000000000000000000000000082167fbc1c58d100000000000000000000000000000000000000000000000000000000148061045a575061045a8260007fffffffff0000000000000000000000000000000000000000000000000000000082167f3b3b57de000000000000000000000000000000000000000000000000000000001480611f7b57507fffffffff0000000000000000000000000000000000000000000000000000000082167ff1cb7e0600000000000000000000000000000000000000000000000000000000145b8061045a575061045a8260007fffffffff0000000000000000000000000000000000000000000000000000000082167f2203ab5600000000000000000000000000000000000000000000000000000000148061045a57507f01ffc9a7000000000000000000000000000000000000000000000000000000007fffffffff0000000000000000000000000000000000000000000000000000000083161461045a565b8280546120289061274e565b90600052602060002090601f01602090048101928261204a57600085556120ae565b82601f10612081578280017fffffffffffffffffffffffffffffffffffffffffffffffffffffffffffffff008235161785556120ae565b828001600101855582156120ae579182015b828111156120ae578235825591602001919060010190612093565b506120ba929150612168565b5090565b8280546120ca9061274e565b90600052602060002090601f0160209004810192826120ec57600085556120ae565b82601f1061210557805160ff19168380011785556120ae565b828001600101855582156120ae579182015b828111156120ae578251825591602001919060010190612117565b50805461213e9061274e565b6000825580601f1061214e575050565b601f0160209004906000526020600020908101906115dd91905b5b808211156120ba5760008155600101612169565b80357fffffffff00000000000000000000000000000000000000000000000000000000811681146121ad57600080fd5b919050565b6000602082840312156121c457600080fd5b610ce98261217d565b60008083601f8401126121df57600080fd5b50813567ffffffffffffffff8111156121f757600080fd5b602083019150836020828501011115610bb257600080fd5b60008060006040848603121561222457600080fd5b83359250602084013567ffffffffffffffff81111561224257600080fd5b61224e868287016121cd565b9497909650939450505050565b60008060008060006060868803121561227357600080fd5b85359450602086013567ffffffffffffffff8082111561229257600080fd5b61229e89838a016121cd565b909650945060408801359150808211156122b757600080fd5b506122c4888289016121cd565b969995985093965092949392505050565b600080604083850312156122e857600080fd5b823591506122f86020840161217d565b90509250929050565b6000806040838503121561231457600080fd5b50508035926020909101359150565b60005b8381101561233e578181015183820152602001612326565b8381111561234d576000848401525b50505050565b6000815180845261236b816020860160208601612323565b601f017fffffffffffffffffffffffffffffffffffffffffffffffffffffffffffffffe0169290920160200192915050565b828152604060208201526000611ba36040830184612353565b6000806000606084860312156123cb57600080fd5b505081359360208301359350604090920135919050565b6000602082840312156123f457600080fd5b5035919050565b602081526000610ce96020830184612353565b6000806000806060858703121561242457600080fd5b8435935060208501359250604085013567ffffffffffffffff81111561244957600080fd5b612455878288016121cd565b95989497509550505050565b7f4e487b7100000000000000000000000000000000000000000000000000000000600052604160045260246000fd5b6000806000606084860312156124a557600080fd5b8335925060208401359150604084013567ffffffffffffffff808211156124cb57600080fd5b818601915086601f8301126124df57600080fd5b8135818111156124f1576124f1612461565b604051601f82017fffffffffffffffffffffffffffffffffffffffffffffffffffffffffffffffe0908116603f0116810190838211818310171561253757612537612461565b8160405282815289602084870101111561255057600080fd5b8260208601602083013760006020848301015280955050505050509250925092565b60008060006060848603121561258757600080fd5b8335925060208401359150604084013561ffff811681146125a757600080fd5b809150509250925092565b803573ffffffffffffffffffffffffffffffffffffffff811681146121ad57600080fd5b600080604083850312156125e957600080fd5b823591506122f8602084016125b2565b60008060006060848603121561260e57600080fd5b8335925061261e6020850161217d565b915061262c604085016125b2565b90509250925092565b60006020828403121561264757600080fd5b610ce9826125b2565b60008251612662818460208701612323565b9190910192915050565b7f4e487b7100000000000000000000000000000000000000000000000000000000600052601160045260246000fd5b6000828210156126ad576126ad61266c565b500390565b8183823760009101908152919050565b8183528181602085013750600060208284010152600060207fffffffffffffffffffffffffffffffffffffffffffffffffffffffffffffffe0601f840116840101905092915050565b602081526000611ba36020830184866126c2565b7f4e487b7100000000000000000000000000000000000000000000000000000000600052603260045260246000fd5b600181811c9082168061276257607f821691505b60208210810361279b577f4e487b7100000000000000000000000000000000000000000000000000000000600052602260045260246000fd5b50919050565b60007fffffffffffffffffffffffffffffffffffffffffffffffffffffffffffffffff82036127d2576127d261266c565b5060010190565b6040815260006127ec6040830186612353565b82810360208401526127ff8185876126c2565b9695505050505050565b600061ffff82168061281d5761281d61266c565b7fffffffffffffffffffffffffffffffffffffffffffffffffffffffffffffffff0192915050565b6040815260006128586040830185612353565b905061ffff831660208301529392505050565b600061ffff8083168181036128825761288261266c565b6001019392505050565b60608152600061289f6060830186612353565b61ffff8516602084015282810360408401526127ff8185612353565b600082198211156128ce576128ce61266c565b500190565b7f4e487b7100000000000000000000000000000000000000000000000000000000600052600160045260246000fdfea26469706673582212206063222e88fbdedde42a1d5641d6dfe891b61e22d77831b32d2aed0a8618f06864736f6c634300080d0033",
  "linkReferences": {},
  "deployedLinkReferences": {}
}