{
  "_format": "hh-sol-artifact-1",
  "contractName": "OwnedResolver",
  "sourceName": "contracts/resolvers/OwnedResolver.sol",
  "abi": [
    {
      "anonymous": false,
      "inputs": [
        {
          "indexed": true,
          "internalType": "bytes32",
          "name": "node",
          "type": "bytes32"
        },
        {
          "indexed": true,
          "internalType": "uint256",
          "name": "contentType",
          "type": "uint256"
        }
      ],
      "name": "ABIChanged",
      "type": "event"
    },
    {
      "anonymous": false,
      "inputs": [
        {
          "indexed": true,
          "internalType": "bytes32",
          "name": "node",
          "type": "bytes32"
        },
        {
          "indexed": false,
          "internalType": "address",
          "name": "a",
          "type": "address"
        }
      ],
      "name": "AddrChanged",
      "type": "event"
    },
    {
      "anonymous": false,
      "inputs": [
        {
          "indexed": true,
          "internalType": "bytes32",
          "name": "node",
          "type": "bytes32"
        },
        {
          "indexed": false,
          "internalType": "uint256",
          "name": "coinType",
          "type": "uint256"
        },
        {
          "indexed": false,
          "internalType": "bytes",
          "name": "newAddress",
          "type": "bytes"
        }
      ],
      "name": "AddressChanged",
      "type": "event"
    },
    {
      "anonymous": false,
      "inputs": [
        {
          "indexed": true,
          "internalType": "bytes32",
          "name": "node",
          "type": "bytes32"
        },
        {
          "indexed": false,
          "internalType": "bytes",
          "name": "hash",
          "type": "bytes"
        }
      ],
      "name": "ContenthashChanged",
      "type": "event"
    },
    {
      "anonymous": false,
      "inputs": [
        {
          "indexed": true,
          "internalType": "bytes32",
          "name": "node",
          "type": "bytes32"
        },
        {
          "indexed": false,
          "internalType": "bytes",
          "name": "name",
          "type": "bytes"
        },
        {
          "indexed": false,
          "internalType": "uint16",
          "name": "resource",
          "type": "uint16"
        },
        {
          "indexed": false,
          "internalType": "bytes",
          "name": "record",
          "type": "bytes"
        }
      ],
      "name": "DNSRecordChanged",
      "type": "event"
    },
    {
      "anonymous": false,
      "inputs": [
        {
          "indexed": true,
          "internalType": "bytes32",
          "name": "node",
          "type": "bytes32"
        },
        {
          "indexed": false,
          "internalType": "bytes",
          "name": "name",
          "type": "bytes"
        },
        {
          "indexed": false,
          "internalType": "uint16",
          "name": "resource",
          "type": "uint16"
        }
      ],
      "name": "DNSRecordDeleted",
      "type": "event"
    },
    {
      "anonymous": false,
      "inputs": [
        {
          "indexed": true,
          "internalType": "bytes32",
          "name": "node",
          "type": "bytes32"
        }
      ],
      "name": "DNSZoneCleared",
      "type": "event"
    },
    {
      "anonymous": false,
      "inputs": [
        {
          "indexed": true,
          "internalType": "bytes32",
          "name": "node",
          "type": "bytes32"
        },
        {
          "indexed": false,
          "internalType": "bytes",
          "name": "lastzonehash",
          "type": "bytes"
        },
        {
          "indexed": false,
          "internalType": "bytes",
          "name": "zonehash",
          "type": "bytes"
        }
      ],
      "name": "DNSZonehashChanged",
      "type": "event"
    },
    {
      "anonymous": false,
      "inputs": [
        {
          "indexed": true,
          "internalType": "bytes32",
          "name": "node",
          "type": "bytes32"
        },
        {
          "indexed": true,
          "internalType": "bytes4",
          "name": "interfaceID",
          "type": "bytes4"
        },
        {
          "indexed": false,
          "internalType": "address",
          "name": "implementer",
          "type": "address"
        }
      ],
      "name": "InterfaceChanged",
      "type": "event"
    },
    {
      "anonymous": false,
      "inputs": [
        {
          "indexed": true,
          "internalType": "bytes32",
          "name": "node",
          "type": "bytes32"
        },
        {
          "indexed": false,
          "internalType": "string",
          "name": "name",
          "type": "string"
        }
      ],
      "name": "NameChanged",
      "type": "event"
    },
    {
      "anonymous": false,
      "inputs": [
        {
          "indexed": true,
          "internalType": "address",
          "name": "previousOwner",
          "type": "address"
        },
        {
          "indexed": true,
          "internalType": "address",
          "name": "newOwner",
          "type": "address"
        }
      ],
      "name": "OwnershipTransferred",
      "type": "event"
    },
    {
      "anonymous": false,
      "inputs": [
        {
          "indexed": true,
          "internalType": "bytes32",
          "name": "node",
          "type": "bytes32"
        },
        {
          "indexed": false,
          "internalType": "bytes32",
          "name": "x",
          "type": "bytes32"
        },
        {
          "indexed": false,
          "internalType": "bytes32",
          "name": "y",
          "type": "bytes32"
        }
      ],
      "name": "PubkeyChanged",
      "type": "event"
    },
    {
      "anonymous": false,
      "inputs": [
        {
          "indexed": true,
          "internalType": "bytes32",
          "name": "node",
          "type": "bytes32"
        },
        {
          "indexed": true,
          "internalType": "string",
          "name": "indexedKey",
          "type": "string"
        },
        {
          "indexed": false,
          "internalType": "string",
          "name": "key",
          "type": "string"
        },
        {
          "indexed": false,
          "internalType": "string",
          "name": "value",
          "type": "string"
        }
      ],
      "name": "TextChanged",
      "type": "event"
    },
    {
      "inputs": [
        {
          "internalType": "bytes32",
          "name": "node",
          "type": "bytes32"
        },
        {
          "internalType": "uint256",
          "name": "contentTypes",
          "type": "uint256"
        }
      ],
      "name": "ABI",
      "outputs": [
        {
          "internalType": "uint256",
          "name": "",
          "type": "uint256"
        },
        {
          "internalType": "bytes",
          "name": "",
          "type": "bytes"
        }
      ],
      "stateMutability": "view",
      "type": "function"
    },
    {
      "inputs": [
        {
          "internalType": "bytes32",
          "name": "node",
          "type": "bytes32"
        }
      ],
      "name": "addr",
      "outputs": [
        {
          "internalType": "address payable",
          "name": "",
          "type": "address"
        }
      ],
      "stateMutability": "view",
      "type": "function"
    },
    {
      "inputs": [
        {
          "internalType": "bytes32",
          "name": "node",
          "type": "bytes32"
        },
        {
          "internalType": "uint256",
          "name": "coinType",
          "type": "uint256"
        }
      ],
      "name": "addr",
      "outputs": [
        {
          "internalType": "bytes",
          "name": "",
          "type": "bytes"
        }
      ],
      "stateMutability": "view",
      "type": "function"
    },
    {
      "inputs": [
        {
          "internalType": "bytes32",
          "name": "node",
          "type": "bytes32"
        }
      ],
      "name": "clearDNSZone",
      "outputs": [],
      "stateMutability": "nonpayable",
      "type": "function"
    },
    {
      "inputs": [
        {
          "internalType": "bytes32",
          "name": "node",
          "type": "bytes32"
        }
      ],
      "name": "contenthash",
      "outputs": [
        {
          "internalType": "bytes",
          "name": "",
          "type": "bytes"
        }
      ],
      "stateMutability": "view",
      "type": "function"
    },
    {
      "inputs": [
        {
          "internalType": "bytes32",
          "name": "node",
          "type": "bytes32"
        },
        {
          "internalType": "bytes32",
          "name": "name",
          "type": "bytes32"
        },
        {
          "internalType": "uint16",
          "name": "resource",
          "type": "uint16"
        }
      ],
      "name": "dnsRecord",
      "outputs": [
        {
          "internalType": "bytes",
          "name": "",
          "type": "bytes"
        }
      ],
      "stateMutability": "view",
      "type": "function"
    },
    {
      "inputs": [
        {
          "internalType": "bytes32",
          "name": "node",
          "type": "bytes32"
        },
        {
          "internalType": "bytes32",
          "name": "name",
          "type": "bytes32"
        }
      ],
      "name": "hasDNSRecords",
      "outputs": [
        {
          "internalType": "bool",
          "name": "",
          "type": "bool"
        }
      ],
      "stateMutability": "view",
      "type": "function"
    },
    {
      "inputs": [
        {
          "internalType": "bytes32",
          "name": "node",
          "type": "bytes32"
        },
        {
          "internalType": "bytes4",
          "name": "interfaceID",
          "type": "bytes4"
        }
      ],
      "name": "interfaceImplementer",
      "outputs": [
        {
          "internalType": "address",
          "name": "",
          "type": "address"
        }
      ],
      "stateMutability": "view",
      "type": "function"
    },
    {
      "inputs": [
        {
          "internalType": "bytes32",
          "name": "node",
          "type": "bytes32"
        }
      ],
      "name": "name",
      "outputs": [
        {
          "internalType": "string",
          "name": "",
          "type": "string"
        }
      ],
      "stateMutability": "view",
      "type": "function"
    },
    {
      "inputs": [],
      "name": "owner",
      "outputs": [
        {
          "internalType": "address",
          "name": "",
          "type": "address"
        }
      ],
      "stateMutability": "view",
      "type": "function"
    },
    {
      "inputs": [
        {
          "internalType": "bytes32",
          "name": "node",
          "type": "bytes32"
        }
      ],
      "name": "pubkey",
      "outputs": [
        {
          "internalType": "bytes32",
          "name": "x",
          "type": "bytes32"
        },
        {
          "internalType": "bytes32",
          "name": "y",
          "type": "bytes32"
        }
      ],
      "stateMutability": "view",
      "type": "function"
    },
    {
      "inputs": [],
      "name": "renounceOwnership",
      "outputs": [],
      "stateMutability": "nonpayable",
      "type": "function"
    },
    {
      "inputs": [
        {
          "internalType": "bytes32",
          "name": "node",
          "type": "bytes32"
        },
        {
          "internalType": "uint256",
          "name": "contentType",
          "type": "uint256"
        },
        {
          "internalType": "bytes",
          "name": "data",
          "type": "bytes"
        }
      ],
      "name": "setABI",
      "outputs": [],
      "stateMutability": "nonpayable",
      "type": "function"
    },
    {
      "inputs": [
        {
          "internalType": "bytes32",
          "name": "node",
          "type": "bytes32"
        },
        {
          "internalType": "uint256",
          "name": "coinType",
          "type": "uint256"
        },
        {
          "internalType": "bytes",
          "name": "a",
          "type": "bytes"
        }
      ],
      "name": "setAddr",
      "outputs": [],
      "stateMutability": "nonpayable",
      "type": "function"
    },
    {
      "inputs": [
        {
          "internalType": "bytes32",
          "name": "node",
          "type": "bytes32"
        },
        {
          "internalType": "address",
          "name": "a",
          "type": "address"
        }
      ],
      "name": "setAddr",
      "outputs": [],
      "stateMutability": "nonpayable",
      "type": "function"
    },
    {
      "inputs": [
        {
          "internalType": "bytes32",
          "name": "node",
          "type": "bytes32"
        },
        {
          "internalType": "bytes",
          "name": "hash",
          "type": "bytes"
        }
      ],
      "name": "setContenthash",
      "outputs": [],
      "stateMutability": "nonpayable",
      "type": "function"
    },
    {
      "inputs": [
        {
          "internalType": "bytes32",
          "name": "node",
          "type": "bytes32"
        },
        {
          "internalType": "bytes",
          "name": "data",
          "type": "bytes"
        }
      ],
      "name": "setDNSRecords",
      "outputs": [],
      "stateMutability": "nonpayable",
      "type": "function"
    },
    {
      "inputs": [
        {
          "internalType": "bytes32",
          "name": "node",
          "type": "bytes32"
        },
        {
          "internalType": "bytes4",
          "name": "interfaceID",
          "type": "bytes4"
        },
        {
          "internalType": "address",
          "name": "implementer",
          "type": "address"
        }
      ],
      "name": "setInterface",
      "outputs": [],
      "stateMutability": "nonpayable",
      "type": "function"
    },
    {
      "inputs": [
        {
          "internalType": "bytes32",
          "name": "node",
          "type": "bytes32"
        },
        {
          "internalType": "string",
          "name": "newName",
          "type": "string"
        }
      ],
      "name": "setName",
      "outputs": [],
      "stateMutability": "nonpayable",
      "type": "function"
    },
    {
      "inputs": [
        {
          "internalType": "bytes32",
          "name": "node",
          "type": "bytes32"
        },
        {
          "internalType": "bytes32",
          "name": "x",
          "type": "bytes32"
        },
        {
          "internalType": "bytes32",
          "name": "y",
          "type": "bytes32"
        }
      ],
      "name": "setPubkey",
      "outputs": [],
      "stateMutability": "nonpayable",
      "type": "function"
    },
    {
      "inputs": [
        {
          "internalType": "bytes32",
          "name": "node",
          "type": "bytes32"
        },
        {
          "internalType": "string",
          "name": "key",
          "type": "string"
        },
        {
          "internalType": "string",
          "name": "value",
          "type": "string"
        }
      ],
      "name": "setText",
      "outputs": [],
      "stateMutability": "nonpayable",
      "type": "function"
    },
    {
      "inputs": [
        {
          "internalType": "bytes32",
          "name": "node",
          "type": "bytes32"
        },
        {
          "internalType": "bytes",
          "name": "hash",
          "type": "bytes"
        }
      ],
      "name": "setZonehash",
      "outputs": [],
      "stateMutability": "nonpayable",
      "type": "function"
    },
    {
      "inputs": [
        {
          "internalType": "bytes4",
          "name": "interfaceID",
          "type": "bytes4"
        }
      ],
      "name": "supportsInterface",
      "outputs": [
        {
          "internalType": "bool",
          "name": "",
          "type": "bool"
        }
      ],
      "stateMutability": "view",
      "type": "function"
    },
    {
      "inputs": [
        {
          "internalType": "bytes32",
          "name": "node",
          "type": "bytes32"
        },
        {
          "internalType": "string",
          "name": "key",
          "type": "string"
        }
      ],
      "name": "text",
      "outputs": [
        {
          "internalType": "string",
          "name": "",
          "type": "string"
        }
      ],
      "stateMutability": "view",
      "type": "function"
    },
    {
      "inputs": [
        {
          "internalType": "address",
          "name": "newOwner",
          "type": "address"
        }
      ],
      "name": "transferOwnership",
      "outputs": [],
      "stateMutability": "nonpayable",
      "type": "function"
    },
    {
      "inputs": [
        {
          "internalType": "bytes32",
          "name": "node",
          "type": "bytes32"
        }
      ],
      "name": "zonehash",
      "outputs": [
        {
          "internalType": "bytes",
          "name": "",
          "type": "bytes"
        }
      ],
      "stateMutability": "view",
      "type": "function"
    }
  ],
  "bytecode": "0x608060405234801561001057600080fd5b5061001a3361001f565b61006f565b600080546001600160a01b038381166001600160a01b0319831681178455604051919092169283917f8be0079c531659141344cd1fd0a4f28419497f9722a3daafe3b4186f6b6457e09190a35050565b61296e8061007e6000396000f3fe608060405234801561001057600080fd5b50600436106101ae5760003560e01c8063715018a6116100ee578063bc1c58d111610097578063d5fa2b0011610071578063d5fa2b0014610403578063e59d895d14610416578063f1cb7e0614610429578063f2fde38b1461043c57600080fd5b8063bc1c58d1146103a0578063c8690233146103b3578063ce3decdc146103f057600080fd5b80638da5cb5b116100c85780638da5cb5b1461035c578063a8fa56821461037a578063ad5780af1461038d57600080fd5b8063715018a61461032e57806377372213146103365780638b95dd711461034957600080fd5b8063304e6ade1161015b57806359d1d43c1161013557806359d1d43c146102d55780635c98042b146102f5578063623195b014610308578063691f34311461031b57600080fd5b8063304e6ade1461026f5780633b3b57de146102825780634cbf6ba41461029557600080fd5b8063124a319c1161018c578063124a319c146102035780632203ab561461023b57806329cd62ea1461025c57600080fd5b806301ffc9a7146101b35780630af179d7146101db57806310f13a8c146101f0575b600080fd5b6101c66101c13660046121b6565b61044f565b60405190151581526020015b60405180910390f35b6101ee6101e9366004612213565b610460565b005b6101ee6101fe36600461225f565b610661565b6102166102113660046122d9565b610725565b60405173ffffffffffffffffffffffffffffffffffffffff90911681526020016101d2565b61024e610249366004612305565b610aa2565b6040516101d29291906123a1565b6101ee61026a3660046123ba565b610bbd565b6101ee61027d366004612213565b610c50565b6102166102903660046123e6565b610cc2565b6101c66102a3366004612305565b600091825260076020908152604080842060058352818520548552825280842092845291905290205461ffff16151590565b6102e86102e3366004612213565b610cf4565b6040516101d291906123ff565b6102e86103033660046123e6565b610db9565b6101ee610316366004612412565b610e5b565b6102e86103293660046123e6565b610ef1565b6101ee610f0e565b6101ee610344366004612213565b610fa0565b6101ee610357366004612494565b611012565b60005473ffffffffffffffffffffffffffffffffffffffff16610216565b6102e8610388366004612576565b6110fc565b6101ee61039b3660046123e6565b61113f565b6102e86103ae3660046123e6565b6111b3565b6103db6103c13660046123e6565b6000908152600a6020526040902080546001909101549091565b604080519283526020830191909152016101d2565b6101ee6103fe366004612213565b6111d0565b6101ee6104113660046125da565b6112ef565b6101ee6104243660046125fd565b611329565b6102e8610437366004612305565b611406565b6101ee61044a366004612639565b6114b4565b600061045a826115e4565b92915050565b600054839073ffffffffffffffffffffffffffffffffffffffff16331461048657600080fd5b6000806060806000806104d360008a8a8080601f016020809104026020016040519081016040528093929190818152602001838380828437600092019190915250929392505061163a9050565b90505b805151602082015110156105fc578561ffff1660000361053b57806040015195506105008161169b565b9350836040516020016105139190612654565b604051602081830303815290604052805190602001209150610534816116bc565b92506105ee565b60006105468261169b565b9050816040015161ffff168761ffff1614158061056a575061056885826116d8565b155b156105ec576105c58b86898d8d8080601f016020809104026020016040519081016040528093929190818152602001838380828437600092019190915250505060208801518c91506105bd90829061269f565b8a51156116f6565b8160400151965081602001519550809450848051906020012092506105e9826116bc565b93505b505b6105f781611939565b6104d6565b50825115610656576106568984878b8b8080601f0160208091040260200160405190810160405280939291908181526020018383808284376000920191909152508b925061064e91508290508e61269f565b8851156116f6565b505050505050505050565b600054859073ffffffffffffffffffffffffffffffffffffffff16331461068757600080fd5b8282600b600089815260200190815260200160002087876040516106ac9291906126b6565b9081526040519081900360200190206106c6929091612020565b5084846040516106d79291906126b6565b6040518091039020867f448bc014f1536726cf8d54ff3d6481ed3cbc683c2591ca204274009afa09b1a187878787604051610715949392919061270f565b60405180910390a3505050505050565b60008281526008602090815260408083207fffffffff000000000000000000000000000000000000000000000000000000008516845290915281205473ffffffffffffffffffffffffffffffffffffffff16801561078457905061045a565b600061078f85610cc2565b905073ffffffffffffffffffffffffffffffffffffffff81166107b75760009250505061045a565b6040517f01ffc9a7000000000000000000000000000000000000000000000000000000006024820152600090819073ffffffffffffffffffffffffffffffffffffffff841690604401604080517fffffffffffffffffffffffffffffffffffffffffffffffffffffffffffffffe08184030181529181526020820180517bffffffffffffffffffffffffffffffffffffffffffffffffffffffff167f01ffc9a700000000000000000000000000000000000000000000000000000000179052516108819190612654565b600060405180830381855afa9150503d80600081146108bc576040519150601f19603f3d011682016040523d82523d6000602084013e6108c1565b606091505b50915091508115806108d4575060208151105b80610916575080601f815181106108ed576108ed612741565b01602001517fff0000000000000000000000000000000000000000000000000000000000000016155b1561092857600094505050505061045a565b6040517fffffffff000000000000000000000000000000000000000000000000000000008716602482015273ffffffffffffffffffffffffffffffffffffffff841690604401604080517fffffffffffffffffffffffffffffffffffffffffffffffffffffffffffffffe08184030181529181526020820180517bffffffffffffffffffffffffffffffffffffffffffffffffffffffff167f01ffc9a700000000000000000000000000000000000000000000000000000000179052516109ef9190612654565b600060405180830381855afa9150503d8060008114610a2a576040519150601f19603f3d011682016040523d82523d6000602084013e610a2f565b606091505b509092509050811580610a43575060208151105b80610a85575080601f81518110610a5c57610a5c612741565b01602001517fff0000000000000000000000000000000000000000000000000000000000000016155b15610a9757600094505050505061045a565b509095945050505050565b600082815260016020819052604082206060915b848111610b9d5780851615801590610ae6575060008181526020839052604081208054610ae290612770565b9050115b15610b955780826000838152602001908152602001600020808054610b0a90612770565b80601f0160208091040260200160405190810160405280929190818152602001828054610b3690612770565b8015610b835780601f10610b5857610100808354040283529160200191610b83565b820191906000526020600020905b815481529060010190602001808311610b6657829003601f168201915b50505050509050935093505050610bb6565b60011b610ab6565b5060006040518060200160405280600081525092509250505b9250929050565b600054839073ffffffffffffffffffffffffffffffffffffffff163314610be357600080fd5b60408051808201825284815260208082018581526000888152600a83528490209251835551600190920191909155815185815290810184905285917f1d6f5e03d3f63eb58751986629a5439baee5079ff04f345becb66e23eb154e4691015b60405180910390a250505050565b600054839073ffffffffffffffffffffffffffffffffffffffff163314610c7657600080fd5b6000848152600360205260409020610c8f908484612020565b50837fe379c1624ed7e714cc0937528a32359d69d5281337765313dba4e081b72d75788484604051610c429291906127c3565b600080610cd083603c611406565b90508051600003610ce45750600092915050565b610ced81611a21565b9392505050565b6060600b60008581526020019081526020016000208383604051610d199291906126b6565b90815260200160405180910390208054610d3290612770565b80601f0160208091040260200160405190810160405280929190818152602001828054610d5e90612770565b8015610dab5780601f10610d8057610100808354040283529160200191610dab565b820191906000526020600020905b815481529060010190602001808311610d8e57829003601f168201915b505050505090509392505050565b6000818152600460205260409020805460609190610dd690612770565b80601f0160208091040260200160405190810160405280929190818152602001828054610e0290612770565b8015610e4f5780601f10610e2457610100808354040283529160200191610e4f565b820191906000526020600020905b815481529060010190602001808311610e3257829003601f168201915b50505050509050919050565b600054849073ffffffffffffffffffffffffffffffffffffffff163314610e8157600080fd5b83610e8d60018261269f565b1615610e9857600080fd5b60008581526001602090815260408083208784529091529020610ebc908484612020565b50604051849086907faa121bbeef5f32f5961a2a28966e769023910fc9479059ee3495d4c1a696efe390600090a35050505050565b6000818152600960205260409020805460609190610dd690612770565b60005473ffffffffffffffffffffffffffffffffffffffff163314610f94576040517f08c379a000000000000000000000000000000000000000000000000000000000815260206004820181905260248201527f4f776e61626c653a2063616c6c6572206973206e6f7420746865206f776e657260448201526064015b60405180910390fd5b610f9e6000611a49565b565b600054839073ffffffffffffffffffffffffffffffffffffffff163314610fc657600080fd5b6000848152600960205260409020610fdf908484612020565b50837fb7d29e911041e8d9b843369e890bcb72c9388692ba48b65ac54e7214c4c348f78484604051610c429291906127c3565b600054839073ffffffffffffffffffffffffffffffffffffffff16331461103857600080fd5b837f65412581168e88a1e60c6459d7f44ae83ad0832e670826c05a4e2476b57af752848460405161106a9291906123a1565b60405180910390a2603c83036110ce57837f52d7d861f09ab3d26239d492e8968629f95e9e318cf0b73bfddc441522a15fd26110a584611a21565b60405173ffffffffffffffffffffffffffffffffffffffff909116815260200160405180910390a25b6000848152600260209081526040808320868452825290912083516110f5928501906120c2565b5050505050565b6000838152600660209081526040808320600583528184205484528252808320858452825280832061ffff851684529091529020805460609190610d3290612770565b600054819073ffffffffffffffffffffffffffffffffffffffff16331461116557600080fd5b600082815260056020526040812080549161117f836127d7565b909155505060405182907fb757169b8492ca2f1c6619d9d76ce22803035c3b1d5f6930dffe7b127c1a198390600090a25050565b6000818152600360205260409020805460609190610dd690612770565b600054839073ffffffffffffffffffffffffffffffffffffffff1633146111f657600080fd5b6000848152600460205260408120805461120f90612770565b80601f016020809104026020016040519081016040528092919081815260200182805461123b90612770565b80156112885780601f1061125d57610100808354040283529160200191611288565b820191906000526020600020905b81548152906001019060200180831161126b57829003601f168201915b50505060008881526004602052604090209293506112ab92915086905085612020565b50847f8f15ed4b723ef428f250961da8315675b507046737e19319fc1a4d81bfe87f858286866040516112e09392919061280f565b60405180910390a25050505050565b600054829073ffffffffffffffffffffffffffffffffffffffff16331461131557600080fd5b61132483603c61035785611abe565b505050565b600054839073ffffffffffffffffffffffffffffffffffffffff16331461134f57600080fd5b60008481526008602090815260408083207fffffffff0000000000000000000000000000000000000000000000000000000087168085529083529281902080547fffffffffffffffffffffffff00000000000000000000000000000000000000001673ffffffffffffffffffffffffffffffffffffffff8716908117909155905190815286917f7c69f06bea0bdef565b709e93a147836b0063ba2dd89f02d0b7e8d931e6a6daa910160405180910390a350505050565b6000828152600260209081526040808320848452909152902080546060919061142e90612770565b80601f016020809104026020016040519081016040528092919081815260200182805461145a90612770565b80156114a75780601f1061147c576101008083540402835291602001916114a7565b820191906000526020600020905b81548152906001019060200180831161148a57829003601f168201915b5050505050905092915050565b60005473ffffffffffffffffffffffffffffffffffffffff163314611535576040517f08c379a000000000000000000000000000000000000000000000000000000000815260206004820181905260248201527f4f776e61626c653a2063616c6c6572206973206e6f7420746865206f776e65726044820152606401610f8b565b73ffffffffffffffffffffffffffffffffffffffff81166115d8576040517f08c379a000000000000000000000000000000000000000000000000000000000815260206004820152602660248201527f4f776e61626c653a206e6577206f776e657220697320746865207a65726f206160448201527f64647265737300000000000000000000000000000000000000000000000000006064820152608401610f8b565b6115e181611a49565b50565b60007fffffffff0000000000000000000000000000000000000000000000000000000082167f59d1d43c00000000000000000000000000000000000000000000000000000000148061045a575061045a82611af7565b6116886040518060e001604052806060815260200160008152602001600061ffff168152602001600061ffff168152602001600063ffffffff16815260200160008152602001600081525090565b82815260c0810182905261045a81611939565b6020810151815160609161045a916116b39082611b4d565b84519190611baf565b60a081015160c082015160609161045a916116b390829061269f565b600081518351148015610ced5750610ced8360008460008751611c26565b6000878152600560209081526040822054885191890191909120909161171d878787611baf565b905083156118265760008a81526006602090815260408083208684528252808320858452825280832061ffff8c1684529091529020805461175d90612770565b1590506117b15760008a815260076020908152604080832086845282528083208584529091528120805461ffff16916117958361283f565b91906101000a81548161ffff021916908361ffff160217905550505b60008a81526006602090815260408083208684528252808320858452825280832061ffff8c16845290915281206117e791612136565b897f03528ed0c2a3ebc993b12ce3c16bb382f9c7d88ef7d8a1bf290eaf35955a12078a8a60405161181992919061287b565b60405180910390a261192d565b60008a81526006602090815260408083208684528252808320858452825280832061ffff8c1684529091529020805461185e90612770565b90506000036118b45760008a815260076020908152604080832086845282528083208584529091528120805461ffff1691611898836128a1565b91906101000a81548161ffff021916908361ffff160217905550505b60008a81526006602090815260408083208684528252808320858452825280832061ffff8c168452825290912082516118ef928401906120c2565b50897f52a608b3303a48862d07a73d82fa221318c0027fbbcfb1b2329bface3f19ff2b8a8a84604051611924939291906128c2565b60405180910390a25b50505050505050505050565b60c081015160208201819052815151116119505750565b600061196482600001518360200151611b4d565b826020015161197391906128f1565b82519091506119829082611c49565b61ffff1660408301526119966002826128f1565b82519091506119a59082611c49565b61ffff1660608301526119b96002826128f1565b82519091506119c89082611c71565b63ffffffff1660808301526119de6004826128f1565b82519091506000906119f09083611c49565b61ffff169050611a016002836128f1565b60a084018190529150611a1481836128f1565b60c0909301929092525050565b60008151601414611a3157600080fd5b50602001516c01000000000000000000000000900490565b6000805473ffffffffffffffffffffffffffffffffffffffff8381167fffffffffffffffffffffffff0000000000000000000000000000000000000000831681178455604051919092169283917f8be0079c531659141344cd1fd0a4f28419497f9722a3daafe3b4186f6b6457e09190a35050565b6040805160148082528183019092526060916020820181803683375050506c010000000000000000000000009290920260208301525090565b60007fffffffff0000000000000000000000000000000000000000000000000000000082167fc869023300000000000000000000000000000000000000000000000000000000148061045a575061045a82611c9b565b6000815b83518110611b6157611b61612909565b6000611b6d8583611cf1565b60ff169050611b7d8160016128f1565b611b8790836128f1565b915080600003611b975750611b9d565b50611b51565b611ba7838261269f565b949350505050565b8251606090611bbe83856128f1565b1115611bc957600080fd5b60008267ffffffffffffffff811115611be457611be4612465565b6040519080825280601f01601f191660200182016040528015611c0e576020820181803683370190505b50905060208082019086860101610a97828287611d15565b6000611c33848484611d89565b611c3e878785611d89565b149695505050505050565b8151600090611c598360026128f1565b1115611c6457600080fd5b50016002015161ffff1690565b8151600090611c818360046128f1565b1115611c8c57600080fd5b50016004015163ffffffff1690565b60007fffffffff0000000000000000000000000000000000000000000000000000000082167f691f343100000000000000000000000000000000000000000000000000000000148061045a575061045a82611dad565b6000828281518110611d0557611d05612741565b016020015160f81c905092915050565b60208110611d4d5781518352611d2c6020846128f1565b9250611d396020836128f1565b9150611d4660208261269f565b9050611d15565b905182516020929092036101000a7fffffffffffffffffffffffffffffffffffffffffffffffffffffffffffffffff0180199091169116179052565b8251600090611d9883856128f1565b1115611da357600080fd5b5091016020012090565b60007fffffffff0000000000000000000000000000000000000000000000000000000082167f124a319c00000000000000000000000000000000000000000000000000000000148061045a575061045a8260007fffffffff0000000000000000000000000000000000000000000000000000000082167fa8fa5682000000000000000000000000000000000000000000000000000000001480611e9157507fffffffff0000000000000000000000000000000000000000000000000000000082167f5c98042b00000000000000000000000000000000000000000000000000000000145b8061045a575061045a8260007fffffffff0000000000000000000000000000000000000000000000000000000082167fbc1c58d100000000000000000000000000000000000000000000000000000000148061045a575061045a8260007fffffffff0000000000000000000000000000000000000000000000000000000082167f3b3b57de000000000000000000000000000000000000000000000000000000001480611f7f57507fffffffff0000000000000000000000000000000000000000000000000000000082167ff1cb7e0600000000000000000000000000000000000000000000000000000000145b8061045a575061045a8260007fffffffff0000000000000000000000000000000000000000000000000000000082167f2203ab5600000000000000000000000000000000000000000000000000000000148061045a57507f01ffc9a7000000000000000000000000000000000000000000000000000000007fffffffff0000000000000000000000000000000000000000000000000000000083161461045a565b82805461202c90612770565b90600052602060002090601f01602090048101928261204e57600085556120b2565b82601f10612085578280017fffffffffffffffffffffffffffffffffffffffffffffffffffffffffffffff008235161785556120b2565b828001600101855582156120b2579182015b828111156120b2578235825591602001919060010190612097565b506120be92915061216c565b5090565b8280546120ce90612770565b90600052602060002090601f0160209004810192826120f057600085556120b2565b82601f1061210957805160ff19168380011785556120b2565b828001600101855582156120b2579182015b828111156120b257825182559160200191906001019061211b565b50805461214290612770565b6000825580601f10612152575050565b601f0160209004906000526020600020908101906115e191905b5b808211156120be576000815560010161216d565b80357fffffffff00000000000000000000000000000000000000000000000000000000811681146121b157600080fd5b919050565b6000602082840312156121c857600080fd5b610ced82612181565b60008083601f8401126121e357600080fd5b50813567ffffffffffffffff8111156121fb57600080fd5b602083019150836020828501011115610bb657600080fd5b60008060006040848603121561222857600080fd5b83359250602084013567ffffffffffffffff81111561224657600080fd5b612252868287016121d1565b9497909650939450505050565b60008060008060006060868803121561227757600080fd5b85359450602086013567ffffffffffffffff8082111561229657600080fd5b6122a289838a016121d1565b909650945060408801359150808211156122bb57600080fd5b506122c8888289016121d1565b969995985093965092949392505050565b600080604083850312156122ec57600080fd5b823591506122fc60208401612181565b90509250929050565b6000806040838503121561231857600080fd5b50508035926020909101359150565b60005b8381101561234257818101518382015260200161232a565b83811115612351576000848401525b50505050565b6000815180845261236f816020860160208601612327565b601f017fffffffffffffffffffffffffffffffffffffffffffffffffffffffffffffffe0169290920160200192915050565b828152604060208201526000611ba76040830184612357565b6000806000606084860312156123cf57600080fd5b505081359360208301359350604090920135919050565b6000602082840312156123f857600080fd5b5035919050565b602081526000610ced6020830184612357565b6000806000806060858703121561242857600080fd5b8435935060208501359250604085013567ffffffffffffffff81111561244d57600080fd5b612459878288016121d1565b95989497509550505050565b7f4e487b7100000000000000000000000000000000000000000000000000000000600052604160045260246000fd5b6000806000606084860312156124a957600080fd5b8335925060208401359150604084013567ffffffffffffffff808211156124cf57600080fd5b818601915086601f8301126124e357600080fd5b8135818111156124f5576124f5612465565b604051601f82017fffffffffffffffffffffffffffffffffffffffffffffffffffffffffffffffe0908116603f0116810190838211818310171561253b5761253b612465565b8160405282815289602084870101111561255457600080fd5b8260208601602083013760006020848301015280955050505050509250925092565b60008060006060848603121561258b57600080fd5b8335925060208401359150604084013561ffff811681146125ab57600080fd5b809150509250925092565b803573ffffffffffffffffffffffffffffffffffffffff811681146121b157600080fd5b600080604083850312156125ed57600080fd5b823591506122fc602084016125b6565b60008060006060848603121561261257600080fd5b8335925061262260208501612181565b9150612630604085016125b6565b90509250925092565b60006020828403121561264b57600080fd5b610ced826125b6565b60008251612666818460208701612327565b9190910192915050565b7f4e487b7100000000000000000000000000000000000000000000000000000000600052601160045260246000fd5b6000828210156126b1576126b1612670565b500390565b8183823760009101908152919050565b8183528181602085013750600060208284010152600060207fffffffffffffffffffffffffffffffffffffffffffffffffffffffffffffffe0601f840116840101905092915050565b6040815260006127236040830186886126c6565b82810360208401526127368185876126c6565b979650505050505050565b7f4e487b7100000000000000000000000000000000000000000000000000000000600052603260045260246000fd5b600181811c9082168061278457607f821691505b6020821081036127bd577f4e487b7100000000000000000000000000000000000000000000000000000000600052602260045260246000fd5b50919050565b602081526000611ba76020830184866126c6565b60007fffffffffffffffffffffffffffffffffffffffffffffffffffffffffffffffff820361280857612808612670565b5060010190565b6040815260006128226040830186612357565b82810360208401526128358185876126c6565b9695505050505050565b600061ffff82168061285357612853612670565b7fffffffffffffffffffffffffffffffffffffffffffffffffffffffffffffffff0192915050565b60408152600061288e6040830185612357565b905061ffff831660208301529392505050565b600061ffff8083168181036128b8576128b8612670565b6001019392505050565b6060815260006128d56060830186612357565b61ffff8516602084015282810360408401526128358185612357565b6000821982111561290457612904612670565b500190565b7f4e487b7100000000000000000000000000000000000000000000000000000000600052600160045260246000fdfea2646970667358221220c07d1e2fbaebf4d8f9f6e1f07beb07e7085f8b579b8d803cbd5508f6392134b564736f6c634300080d0033",
  "linkReferences": {},
  "deployedLinkReferences": {}
}