{
  "_format": "hh-sol-artifact-1",
  "contractName": "UniversalRegistrarRenewalWithReferrer",
  "sourceName": "contracts/UniversalRegistrarRenewalWithReferrer.sol",
  "abi": [
    {
      "inputs": [
        {
          "internalType": "contract ENS",
          "name": "ens",
          "type": "address"
        },
        {
          "internalType": "contract IWrappedEthRegistrarController",
          "name": "_wrappedEthRegistrarController",
          "type": "address"
        }
      ],
      "stateMutability": "nonpayable",
      "type": "constructor"
    },
    {
      "anonymous": false,
      "inputs": [
        {
          "indexed": false,
          "internalType": "string",
          "name": "label",
          "type": "string"
        },
        {
          "indexed": true,
          "internalType": "bytes32",
          "name": "labelHash",
          "type": "bytes32"
        },
        {
          "indexed": false,
          "internalType": "uint256",
          "name": "cost",
          "type": "uint256"
        },
        {
          "indexed": false,
          "internalType": "uint256",
          "name": "duration",
          "type": "uint256"
        },
        {
          "indexed": false,
          "internalType": "bytes32",
          "name": "referrer",
          "type": "bytes32"
        }
      ],
      "name": "RenewalReferred",
      "type": "event"
    },
    {
      "inputs": [
        {
          "internalType": "string",
          "name": "label",
          "type": "string"
        },
        {
          "internalType": "uint256",
          "name": "duration",
          "type": "uint256"
        },
        {
          "internalType": "bytes32",
          "name": "referrer",
          "type": "bytes32"
        }
      ],
      "name": "renew",
      "outputs": [],
      "stateMutability": "payable",
      "type": "function"
    },
    {
      "stateMutability": "payable",
      "type": "receive"
    }
  ],
  "bytecode": "0x60a060405234801561000f575f5ffd5b5060405161093638038061093683398181016040528101906100319190610232565b81335f8273ffffffffffffffffffffffffffffffffffffffff166302571be37f91d1777781884d03a6757a803996e38de2a42967fb37eeaca72729271025a9e25f1b6040518263ffffffff1660e01b815260040161008f9190610288565b602060405180830381865afa1580156100aa573d5f5f3e3d5ffd5b505050506040513d601f19601f820116820180604052508101906100ce91906102cb565b90508073ffffffffffffffffffffffffffffffffffffffff16631e83409a836040518263ffffffff1660e01b81526004016101099190610305565b6020604051808303815f875af1158015610125573d5f5f3e3d5ffd5b505050506040513d601f19601f820116820180604052508101906101499190610348565b505050508073ffffffffffffffffffffffffffffffffffffffff1660808173ffffffffffffffffffffffffffffffffffffffff16815250505050610373565b5f5ffd5b5f73ffffffffffffffffffffffffffffffffffffffff82169050919050565b5f6101b58261018c565b9050919050565b5f6101c6826101ab565b9050919050565b6101d6816101bc565b81146101e0575f5ffd5b50565b5f815190506101f1816101cd565b92915050565b5f610201826101ab565b9050919050565b610211816101f7565b811461021b575f5ffd5b50565b5f8151905061022c81610208565b92915050565b5f5f6040838503121561024857610247610188565b5b5f610255858286016101e3565b92505060206102668582860161021e565b9150509250929050565b5f819050919050565b61028281610270565b82525050565b5f60208201905061029b5f830184610279565b92915050565b6102aa816101ab565b81146102b4575f5ffd5b50565b5f815190506102c5816102a1565b92915050565b5f602082840312156102e0576102df610188565b5b5f6102ed848285016102b7565b91505092915050565b6102ff816101ab565b82525050565b5f6020820190506103185f8301846102f6565b92915050565b61032781610270565b8114610331575f5ffd5b50565b5f815190506103428161031e565b92915050565b5f6020828403121561035d5761035c610188565b5b5f61036a84828501610334565b91505092915050565b6080516105ac61038a5f395f604e01526105ac5ff3fe608060405260043610610021575f3560e01c806318026ad11461002c57610028565b3661002857005b5f5ffd5b610046600480360381019061004191906102cc565b610048565b005b5f4790507f000000000000000000000000fed6a969aaa60e4961fcd3ebf1a2e8913ac65b7273ffffffffffffffffffffffffffffffffffffffff1663acf1a841348787876040518563ffffffff1660e01b81526004016100aa939291906103a6565b5f604051808303818588803b1580156100c1575f5ffd5b505af11580156100d3573d5f5f3e3d5ffd5b50505050505f4790505f81836100e99190610403565b905086866040516100fb929190610464565b60405180910390207fbdc63144ed642739de589db600d0c625e01c4994358ad6591b3f6e424ea59945888884898960405161013a95949392919061048b565b60405180910390a25f8211156101f4575f3373ffffffffffffffffffffffffffffffffffffffff168360405161016f906104fa565b5f6040518083038185875af1925050503d805f81146101a9576040519150601f19603f3d011682016040523d82523d5f602084013e6101ae565b606091505b50509050806101f2576040517f08c379a00000000000000000000000000000000000000000000000000000000081526004016101e990610558565b60405180910390fd5b505b50505050505050565b5f5ffd5b5f5ffd5b5f5ffd5b5f5ffd5b5f5ffd5b5f5f83601f84011261022657610225610205565b5b8235905067ffffffffffffffff81111561024357610242610209565b5b60208301915083600182028301111561025f5761025e61020d565b5b9250929050565b5f819050919050565b61027881610266565b8114610282575f5ffd5b50565b5f813590506102938161026f565b92915050565b5f819050919050565b6102ab81610299565b81146102b5575f5ffd5b50565b5f813590506102c6816102a2565b92915050565b5f5f5f5f606085870312156102e4576102e36101fd565b5b5f85013567ffffffffffffffff81111561030157610300610201565b5b61030d87828801610211565b9450945050602061032087828801610285565b9250506040610331878288016102b8565b91505092959194509250565b5f82825260208201905092915050565b828183375f83830152505050565b5f601f19601f8301169050919050565b5f610376838561033d565b935061038383858461034d565b61038c8361035b565b840190509392505050565b6103a081610266565b82525050565b5f6040820190508181035f8301526103bf81858761036b565b90506103ce6020830184610397565b949350505050565b7f4e487b71000000000000000000000000000000000000000000000000000000005f52601160045260245ffd5b5f61040d82610266565b915061041883610266565b92508282039050818111156104305761042f6103d6565b5b92915050565b5f81905092915050565b5f61044b8385610436565b935061045883858461034d565b82840190509392505050565b5f610470828486610440565b91508190509392505050565b61048581610299565b82525050565b5f6080820190508181035f8301526104a481878961036b565b90506104b36020830186610397565b6104c06040830185610397565b6104cd606083018461047c565b9695505050505050565b50565b5f6104e55f83610436565b91506104f0826104d7565b5f82019050919050565b5f610504826104da565b9150819050919050565b7f455448207472616e73666572206661696c6564000000000000000000000000005f82015250565b5f61054260138361033d565b915061054d8261050e565b602082019050919050565b5f6020820190508181035f83015261056f81610536565b905091905056fea26469706673582212201a7e29062c5bb211c5b70b80d225832999e8a08becb1c58f90464b16b5480a0e64736f6c634300081d0033",
  "linkReferences": {},
  "deployedLinkReferences": {}
}