{
  "_format": "hh-sol-artifact-1",
  "contractName": "TLDPublicSuffixList",
  "sourceName": "contracts/dnsregistrar/TLDPublicSuffixList.sol",
  "abi": [
    {
      "inputs": [
        {
          "internalType": "bytes",
          "name": "name",
          "type": "bytes"
        }
      ],
      "name": "isPublicSuffix",
      "outputs": [
        {
          "internalType": "bool",
          "name": "",
          "type": "bool"
        }
      ],
      "stateMutability": "view",
      "type": "function"
    }
  ],
  "bytecode": "0x608060405234801561001057600080fd5b50610242806100206000396000f3fe608060405234801561001057600080fd5b506004361061002b5760003560e01c80634f89059e14610030575b600080fd5b61004361003e36600461012c565b610057565b604051901515815260200160405180910390f35b60008061009e600085858080601f01602080910402602001604051908101604052809392919081815260200183838082843760009201919091525092939250506101089050565b60ff16905060008111801561010057506100fb6100bc82600161019e565b85858080601f01602080910402602001604051908101604052809392919081815260200183838082843760009201919091525092939250506101089050565b60ff16155b949350505050565b600082828151811061011c5761011c6101dd565b016020015160f81c905092915050565b6000806020838503121561013f57600080fd5b823567ffffffffffffffff8082111561015757600080fd5b818501915085601f83011261016b57600080fd5b81358181111561017a57600080fd5b86602082850101111561018c57600080fd5b60209290920196919550909350505050565b600082198211156101d8577f4e487b7100000000000000000000000000000000000000000000000000000000600052601160045260246000fd5b500190565b7f4e487b7100000000000000000000000000000000000000000000000000000000600052603260045260246000fdfea2646970667358221220b11f411565a3eb2e0a9549c094d8c95938d498a082b34bc9bb4bbaf9c742d2e364736f6c634300080d0033",
  "linkReferences": {},
  "deployedLinkReferences": {}
}