{
  "_format": "hh-sol-artifact-1",
  "contractName": "PublicResolver",
  "sourceName": "contracts/resolvers/PublicResolver.sol",
  "abi": [
    {
      "inputs": [
        {
          "internalType": "contract ENS",
          "name": "_ens",
          "type": "address"
        },
        {
          "internalType": "contract INameWrapper",
          "name": "wrapperAddress",
          "type": "address"
        },
        {
          "internalType": "address",
          "name": "_trustedETHController",
          "type": "address"
        },
        {
          "internalType": "address",
          "name": "_trustedReverseRegistrar",
          "type": "address"
        }
      ],
      "stateMutability": "nonpayable",
      "type": "constructor"
    },
    {
      "anonymous": false,
      "inputs": [
        {
          "indexed": true,
          "internalType": "bytes32",
          "name": "node",
          "type": "bytes32"
        },
        {
          "indexed": true,
          "internalType": "uint256",
          "name": "contentType",
          "type": "uint256"
        }
      ],
      "name": "ABIChanged",
      "type": "event"
    },
    {
      "anonymous": false,
      "inputs": [
        {
          "indexed": true,
          "internalType": "bytes32",
          "name": "node",
          "type": "bytes32"
        },
        {
          "indexed": false,
          "internalType": "address",
          "name": "a",
          "type": "address"
        }
      ],
      "name": "AddrChanged",
      "type": "event"
    },
    {
      "anonymous": false,
      "inputs": [
        {
          "indexed": true,
          "internalType": "bytes32",
          "name": "node",
          "type": "bytes32"
        },
        {
          "indexed": false,
          "internalType": "uint256",
          "name": "coinType",
          "type": "uint256"
        },
        {
          "indexed": false,
          "internalType": "bytes",
          "name": "newAddress",
          "type": "bytes"
        }
      ],
      "name": "AddressChanged",
      "type": "event"
    },
    {
      "anonymous": false,
      "inputs": [
        {
          "indexed": true,
          "internalType": "address",
          "name": "owner",
          "type": "address"
        },
        {
          "indexed": true,
          "internalType": "address",
          "name": "operator",
          "type": "address"
        },
        {
          "indexed": false,
          "internalType": "bool",
          "name": "approved",
          "type": "bool"
        }
      ],
      "name": "ApprovalForAll",
      "type": "event"
    },
    {
      "anonymous": false,
      "inputs": [
        {
          "indexed": true,
          "internalType": "bytes32",
          "name": "node",
          "type": "bytes32"
        },
        {
          "indexed": false,
          "internalType": "bytes",
          "name": "hash",
          "type": "bytes"
        }
      ],
      "name": "ContenthashChanged",
      "type": "event"
    },
    {
      "anonymous": false,
      "inputs": [
        {
          "indexed": true,
          "internalType": "bytes32",
          "name": "node",
          "type": "bytes32"
        },
        {
          "indexed": false,
          "internalType": "bytes",
          "name": "name",
          "type": "bytes"
        },
        {
          "indexed": false,
          "internalType": "uint16",
          "name": "resource",
          "type": "uint16"
        },
        {
          "indexed": false,
          "internalType": "bytes",
          "name": "record",
          "type": "bytes"
        }
      ],
      "name": "DNSRecordChanged",
      "type": "event"
    },
    {
      "anonymous": false,
      "inputs": [
        {
          "indexed": true,
          "internalType": "bytes32",
          "name": "node",
          "type": "bytes32"
        },
        {
          "indexed": false,
          "internalType": "bytes",
          "name": "name",
          "type": "bytes"
        },
        {
          "indexed": false,
          "internalType": "uint16",
          "name": "resource",
          "type": "uint16"
        }
      ],
      "name": "DNSRecordDeleted",
      "type": "event"
    },
    {
      "anonymous": false,
      "inputs": [
        {
          "indexed": true,
          "internalType": "bytes32",
          "name": "node",
          "type": "bytes32"
        }
      ],
      "name": "DNSZoneCleared",
      "type": "event"
    },
    {
      "anonymous": false,
      "inputs": [
        {
          "indexed": true,
          "internalType": "bytes32",
          "name": "node",
          "type": "bytes32"
        },
        {
          "indexed": false,
          "internalType": "bytes",
          "name": "lastzonehash",
          "type": "bytes"
        },
        {
          "indexed": false,
          "internalType": "bytes",
          "name": "zonehash",
          "type": "bytes"
        }
      ],
      "name": "DNSZonehashChanged",
      "type": "event"
    },
    {
      "anonymous": false,
      "inputs": [
        {
          "indexed": true,
          "internalType": "bytes32",
          "name": "node",
          "type": "bytes32"
        },
        {
          "indexed": true,
          "internalType": "bytes4",
          "name": "interfaceID",
          "type": "bytes4"
        },
        {
          "indexed": false,
          "internalType": "address",
          "name": "implementer",
          "type": "address"
        }
      ],
      "name": "InterfaceChanged",
      "type": "event"
    },
    {
      "anonymous": false,
      "inputs": [
        {
          "indexed": true,
          "internalType": "bytes32",
          "name": "node",
          "type": "bytes32"
        },
        {
          "indexed": false,
          "internalType": "string",
          "name": "name",
          "type": "string"
        }
      ],
      "name": "NameChanged",
      "type": "event"
    },
    {
      "anonymous": false,
      "inputs": [
        {
          "indexed": true,
          "internalType": "bytes32",
          "name": "node",
          "type": "bytes32"
        },
        {
          "indexed": false,
          "internalType": "bytes32",
          "name": "x",
          "type": "bytes32"
        },
        {
          "indexed": false,
          "internalType": "bytes32",
          "name": "y",
          "type": "bytes32"
        }
      ],
      "name": "PubkeyChanged",
      "type": "event"
    },
    {
      "anonymous": false,
      "inputs": [
        {
          "indexed": true,
          "internalType": "bytes32",
          "name": "node",
          "type": "bytes32"
        },
        {
          "indexed": true,
          "internalType": "string",
          "name": "indexedKey",
          "type": "string"
        },
        {
          "indexed": false,
          "internalType": "string",
          "name": "key",
          "type": "string"
        },
        {
          "indexed": false,
          "internalType": "string",
          "name": "value",
          "type": "string"
        }
      ],
      "name": "TextChanged",
      "type": "event"
    },
    {
      "inputs": [
        {
          "internalType": "bytes32",
          "name": "node",
          "type": "bytes32"
        },
        {
          "internalType": "uint256",
          "name": "contentTypes",
          "type": "uint256"
        }
      ],
      "name": "ABI",
      "outputs": [
        {
          "internalType": "uint256",
          "name": "",
          "type": "uint256"
        },
        {
          "internalType": "bytes",
          "name": "",
          "type": "bytes"
        }
      ],
      "stateMutability": "view",
      "type": "function"
    },
    {
      "inputs": [
        {
          "internalType": "bytes32",
          "name": "node",
          "type": "bytes32"
        }
      ],
      "name": "addr",
      "outputs": [
        {
          "internalType": "address payable",
          "name": "",
          "type": "address"
        }
      ],
      "stateMutability": "view",
      "type": "function"
    },
    {
      "inputs": [
        {
          "internalType": "bytes32",
          "name": "node",
          "type": "bytes32"
        },
        {
          "internalType": "uint256",
          "name": "coinType",
          "type": "uint256"
        }
      ],
      "name": "addr",
      "outputs": [
        {
          "internalType": "bytes",
          "name": "",
          "type": "bytes"
        }
      ],
      "stateMutability": "view",
      "type": "function"
    },
    {
      "inputs": [
        {
          "internalType": "bytes32",
          "name": "node",
          "type": "bytes32"
        }
      ],
      "name": "clearDNSZone",
      "outputs": [],
      "stateMutability": "nonpayable",
      "type": "function"
    },
    {
      "inputs": [
        {
          "internalType": "bytes32",
          "name": "node",
          "type": "bytes32"
        }
      ],
      "name": "contenthash",
      "outputs": [
        {
          "internalType": "bytes",
          "name": "",
          "type": "bytes"
        }
      ],
      "stateMutability": "view",
      "type": "function"
    },
    {
      "inputs": [
        {
          "internalType": "bytes32",
          "name": "node",
          "type": "bytes32"
        },
        {
          "internalType": "bytes32",
          "name": "name",
          "type": "bytes32"
        },
        {
          "internalType": "uint16",
          "name": "resource",
          "type": "uint16"
        }
      ],
      "name": "dnsRecord",
      "outputs": [
        {
          "internalType": "bytes",
          "name": "",
          "type": "bytes"
        }
      ],
      "stateMutability": "view",
      "type": "function"
    },
    {
      "inputs": [
        {
          "internalType": "bytes32",
          "name": "node",
          "type": "bytes32"
        },
        {
          "internalType": "bytes32",
          "name": "name",
          "type": "bytes32"
        }
      ],
      "name": "hasDNSRecords",
      "outputs": [
        {
          "internalType": "bool",
          "name": "",
          "type": "bool"
        }
      ],
      "stateMutability": "view",
      "type": "function"
    },
    {
      "inputs": [
        {
          "internalType": "bytes32",
          "name": "node",
          "type": "bytes32"
        },
        {
          "internalType": "bytes4",
          "name": "interfaceID",
          "type": "bytes4"
        }
      ],
      "name": "interfaceImplementer",
      "outputs": [
        {
          "internalType": "address",
          "name": "",
          "type": "address"
        }
      ],
      "stateMutability": "view",
      "type": "function"
    },
    {
      "inputs": [
        {
          "internalType": "address",
          "name": "account",
          "type": "address"
        },
        {
          "internalType": "address",
          "name": "operator",
          "type": "address"
        }
      ],
      "name": "isApprovedForAll",
      "outputs": [
        {
          "internalType": "bool",
          "name": "",
          "type": "bool"
        }
      ],
      "stateMutability": "view",
      "type": "function"
    },
    {
      "inputs": [
        {
          "internalType": "bytes[]",
          "name": "data",
          "type": "bytes[]"
        }
      ],
      "name": "multicall",
      "outputs": [
        {
          "internalType": "bytes[]",
          "name": "results",
          "type": "bytes[]"
        }
      ],
      "stateMutability": "nonpayable",
      "type": "function"
    },
    {
      "inputs": [
        {
          "internalType": "bytes32",
          "name": "node",
          "type": "bytes32"
        }
      ],
      "name": "name",
      "outputs": [
        {
          "internalType": "string",
          "name": "",
          "type": "string"
        }
      ],
      "stateMutability": "view",
      "type": "function"
    },
    {
      "inputs": [
        {
          "internalType": "bytes32",
          "name": "node",
          "type": "bytes32"
        }
      ],
      "name": "pubkey",
      "outputs": [
        {
          "internalType": "bytes32",
          "name": "x",
          "type": "bytes32"
        },
        {
          "internalType": "bytes32",
          "name": "y",
          "type": "bytes32"
        }
      ],
      "stateMutability": "view",
      "type": "function"
    },
    {
      "inputs": [
        {
          "internalType": "bytes32",
          "name": "node",
          "type": "bytes32"
        },
        {
          "internalType": "uint256",
          "name": "contentType",
          "type": "uint256"
        },
        {
          "internalType": "bytes",
          "name": "data",
          "type": "bytes"
        }
      ],
      "name": "setABI",
      "outputs": [],
      "stateMutability": "nonpayable",
      "type": "function"
    },
    {
      "inputs": [
        {
          "internalType": "bytes32",
          "name": "node",
          "type": "bytes32"
        },
        {
          "internalType": "uint256",
          "name": "coinType",
          "type": "uint256"
        },
        {
          "internalType": "bytes",
          "name": "a",
          "type": "bytes"
        }
      ],
      "name": "setAddr",
      "outputs": [],
      "stateMutability": "nonpayable",
      "type": "function"
    },
    {
      "inputs": [
        {
          "internalType": "bytes32",
          "name": "node",
          "type": "bytes32"
        },
        {
          "internalType": "address",
          "name": "a",
          "type": "address"
        }
      ],
      "name": "setAddr",
      "outputs": [],
      "stateMutability": "nonpayable",
      "type": "function"
    },
    {
      "inputs": [
        {
          "internalType": "address",
          "name": "operator",
          "type": "address"
        },
        {
          "internalType": "bool",
          "name": "approved",
          "type": "bool"
        }
      ],
      "name": "setApprovalForAll",
      "outputs": [],
      "stateMutability": "nonpayable",
      "type": "function"
    },
    {
      "inputs": [
        {
          "internalType": "bytes32",
          "name": "node",
          "type": "bytes32"
        },
        {
          "internalType": "bytes",
          "name": "hash",
          "type": "bytes"
        }
      ],
      "name": "setContenthash",
      "outputs": [],
      "stateMutability": "nonpayable",
      "type": "function"
    },
    {
      "inputs": [
        {
          "internalType": "bytes32",
          "name": "node",
          "type": "bytes32"
        },
        {
          "internalType": "bytes",
          "name": "data",
          "type": "bytes"
        }
      ],
      "name": "setDNSRecords",
      "outputs": [],
      "stateMutability": "nonpayable",
      "type": "function"
    },
    {
      "inputs": [
        {
          "internalType": "bytes32",
          "name": "node",
          "type": "bytes32"
        },
        {
          "internalType": "bytes4",
          "name": "interfaceID",
          "type": "bytes4"
        },
        {
          "internalType": "address",
          "name": "implementer",
          "type": "address"
        }
      ],
      "name": "setInterface",
      "outputs": [],
      "stateMutability": "nonpayable",
      "type": "function"
    },
    {
      "inputs": [
        {
          "internalType": "bytes32",
          "name": "node",
          "type": "bytes32"
        },
        {
          "internalType": "string",
          "name": "newName",
          "type": "string"
        }
      ],
      "name": "setName",
      "outputs": [],
      "stateMutability": "nonpayable",
      "type": "function"
    },
    {
      "inputs": [
        {
          "internalType": "bytes32",
          "name": "node",
          "type": "bytes32"
        },
        {
          "internalType": "bytes32",
          "name": "x",
          "type": "bytes32"
        },
        {
          "internalType": "bytes32",
          "name": "y",
          "type": "bytes32"
        }
      ],
      "name": "setPubkey",
      "outputs": [],
      "stateMutability": "nonpayable",
      "type": "function"
    },
    {
      "inputs": [
        {
          "internalType": "bytes32",
          "name": "node",
          "type": "bytes32"
        },
        {
          "internalType": "string",
          "name": "key",
          "type": "string"
        },
        {
          "internalType": "string",
          "name": "value",
          "type": "string"
        }
      ],
      "name": "setText",
      "outputs": [],
      "stateMutability": "nonpayable",
      "type": "function"
    },
    {
      "inputs": [
        {
          "internalType": "bytes32",
          "name": "node",
          "type": "bytes32"
        },
        {
          "internalType": "bytes",
          "name": "hash",
          "type": "bytes"
        }
      ],
      "name": "setZonehash",
      "outputs": [],
      "stateMutability": "nonpayable",
      "type": "function"
    },
    {
      "inputs": [
        {
          "internalType": "bytes4",
          "name": "interfaceID",
          "type": "bytes4"
        }
      ],
      "name": "supportsInterface",
      "outputs": [
        {
          "internalType": "bool",
          "name": "",
          "type": "bool"
        }
      ],
      "stateMutability": "view",
      "type": "function"
    },
    {
      "inputs": [
        {
          "internalType": "bytes32",
          "name": "node",
          "type": "bytes32"
        },
        {
          "internalType": "string",
          "name": "key",
          "type": "string"
        }
      ],
      "name": "text",
      "outputs": [
        {
          "internalType": "string",
          "name": "",
          "type": "string"
        }
      ],
      "stateMutability": "view",
      "type": "function"
    },
    {
      "inputs": [
        {
          "internalType": "bytes32",
          "name": "node",
          "type": "bytes32"
        }
      ],
      "name": "zonehash",
      "outputs": [
        {
          "internalType": "bytes",
          "name": "",
          "type": "bytes"
        }
      ],
      "stateMutability": "view",
      "type": "function"
    }
  ],
  "bytecode": "0x6101006040523480156200001257600080fd5b5060405162002ece38038062002ece833981016040819052620000359162000071565b6001600160a01b0393841660805291831660a052821660c0521660e052620000d9565b6001600160a01b03811681146200006e57600080fd5b50565b600080600080608085870312156200008857600080fd5b8451620000958162000058565b6020860151909450620000a88162000058565b6040860151909350620000bb8162000058565b6060860151909250620000ce8162000058565b939692955090935050565b60805160a05160c05160e051612db46200011a600039600061169c0152600061165d0152600081816117810152611801015260006116fd0152612db46000f3fe608060405234801561001057600080fd5b50600436106101ae5760003560e01c806377372213116100ee578063bc1c58d111610097578063d5fa2b0011610071578063d5fa2b0014610410578063e59d895d14610423578063e985e9c514610436578063f1cb7e061461047f57600080fd5b8063bc1c58d1146103ad578063c8690233146103c0578063ce3decdc146103fd57600080fd5b8063a8fa5682116100c8578063a8fa568214610367578063ac9650d81461037a578063ad5780af1461039a57600080fd5b8063773722131461032e5780638b95dd7114610341578063a22cb4651461035457600080fd5b8063304e6ade1161015b57806359d1d43c1161013557806359d1d43c146102d55780635c98042b146102f5578063623195b014610308578063691f34311461031b57600080fd5b8063304e6ade1461026f5780633b3b57de146102825780634cbf6ba41461029557600080fd5b8063124a319c1161018c578063124a319c146102035780632203ab561461023b57806329cd62ea1461025c57600080fd5b806301ffc9a7146101b35780630af179d7146101db57806310f13a8c146101f0575b600080fd5b6101c66101c136600461243b565b610492565b60405190151581526020015b60405180910390f35b6101ee6101e9366004612498565b6104a3565b005b6101ee6101fe3660046124e4565b610691565b61021661021136600461255e565b610742565b60405173ffffffffffffffffffffffffffffffffffffffff90911681526020016101d2565b61024e61024936600461258a565b610abf565b6040516101d2929190612626565b6101ee61026a36600461263f565b610bda565b6101ee61027d366004612498565b610c5a565b61021661029036600461266b565b610cb9565b6101c66102a336600461258a565b600091825260066020908152604080842060048352818520548552825280842092845291905290205461ffff16151590565b6102e86102e3366004612498565b610ceb565b6040516101d29190612684565b6102e861030336600461266b565b610db0565b6101ee610316366004612697565b610e52565b6102e861032936600461266b565b610ed3565b6101ee61033c366004612498565b610ef0565b6101ee61034f366004612719565b610f4f565b6101ee61036236600461281d565b611026565b6102e861037536600461285b565b611166565b61038d61038836600461289b565b6111a9565b6040516101d29190612910565b6101ee6103a836600461266b565b6112c4565b6102e86103bb36600461266b565b611325565b6103e86103ce36600461266b565b600090815260096020526040902080546001909101549091565b604080519283526020830191909152016101d2565b6101ee61040b366004612498565b611342565b6101ee61041e366004612990565b61144e565b6101ee6104313660046129b5565b611475565b6101c66104443660046129ea565b73ffffffffffffffffffffffffffffffffffffffff9182166000908152600b6020908152604080832093909416825291909152205460ff1690565b6102e861048d36600461258a565b61153f565b600061049d826115ed565b92915050565b826104ad81611643565b6104b657600080fd5b60008060608060008061050360008a8a8080601f01602080910402602001604051908101604052809392919081815260200183838082843760009201919091525092939250506118dc9050565b90505b8051516020820151101561062c578561ffff1660000361056b57806040015195506105308161193d565b9350836040516020016105439190612a18565b6040516020818303038152906040528051906020012091506105648161195e565b925061061e565b60006105768261193d565b9050816040015161ffff168761ffff1614158061059a5750610598858261197a565b155b1561061c576105f58b86898d8d8080601f016020809104026020016040519081016040528093929190818152602001838380828437600092019190915250505060208801518c91506105ed908290612a63565b8a5115611998565b8160400151965081602001519550809450848051906020012092506106198261195e565b93505b505b61062781611bdb565b610506565b50825115610686576106868984878b8b8080601f0160208091040260200160405190810160405280939291908181526020018383808284376000920191909152508b925061067e91508290508e612a63565b885115611998565b505050505050505050565b8461069b81611643565b6106a457600080fd5b8282600a600089815260200190815260200160002087876040516106c9929190612a7a565b9081526040519081900360200190206106e392909161229e565b5084846040516106f4929190612a7a565b6040518091039020867f448bc014f1536726cf8d54ff3d6481ed3cbc683c2591ca204274009afa09b1a1878787876040516107329493929190612ad3565b60405180910390a3505050505050565b60008281526007602090815260408083207fffffffff000000000000000000000000000000000000000000000000000000008516845290915281205473ffffffffffffffffffffffffffffffffffffffff1680156107a157905061049d565b60006107ac85610cb9565b905073ffffffffffffffffffffffffffffffffffffffff81166107d45760009250505061049d565b6040517f01ffc9a7000000000000000000000000000000000000000000000000000000006024820152600090819073ffffffffffffffffffffffffffffffffffffffff841690604401604080517fffffffffffffffffffffffffffffffffffffffffffffffffffffffffffffffe08184030181529181526020820180517bffffffffffffffffffffffffffffffffffffffffffffffffffffffff167f01ffc9a7000000000000000000000000000000000000000000000000000000001790525161089e9190612a18565b600060405180830381855afa9150503d80600081146108d9576040519150601f19603f3d011682016040523d82523d6000602084013e6108de565b606091505b50915091508115806108f1575060208151105b80610933575080601f8151811061090a5761090a612b05565b01602001517fff0000000000000000000000000000000000000000000000000000000000000016155b1561094557600094505050505061049d565b6040517fffffffff000000000000000000000000000000000000000000000000000000008716602482015273ffffffffffffffffffffffffffffffffffffffff841690604401604080517fffffffffffffffffffffffffffffffffffffffffffffffffffffffffffffffe08184030181529181526020820180517bffffffffffffffffffffffffffffffffffffffffffffffffffffffff167f01ffc9a70000000000000000000000000000000000000000000000000000000017905251610a0c9190612a18565b600060405180830381855afa9150503d8060008114610a47576040519150601f19603f3d011682016040523d82523d6000602084013e610a4c565b606091505b509092509050811580610a60575060208151105b80610aa2575080601f81518110610a7957610a79612b05565b01602001517fff0000000000000000000000000000000000000000000000000000000000000016155b15610ab457600094505050505061049d565b509095945050505050565b600082815260208190526040812060609060015b848111610bba5780851615801590610b03575060008181526020839052604081208054610aff90612b34565b9050115b15610bb25780826000838152602001908152602001600020808054610b2790612b34565b80601f0160208091040260200160405190810160405280929190818152602001828054610b5390612b34565b8015610ba05780601f10610b7557610100808354040283529160200191610ba0565b820191906000526020600020905b815481529060010190602001808311610b8357829003601f168201915b50505050509050935093505050610bd3565b60011b610ad3565b5060006040518060200160405280600081525092509250505b9250929050565b82610be481611643565b610bed57600080fd5b60408051808201825284815260208082018581526000888152600983528490209251835551600190920191909155815185815290810184905285917f1d6f5e03d3f63eb58751986629a5439baee5079ff04f345becb66e23eb154e4691015b60405180910390a250505050565b82610c6481611643565b610c6d57600080fd5b6000848152600260205260409020610c8690848461229e565b50837fe379c1624ed7e714cc0937528a32359d69d5281337765313dba4e081b72d75788484604051610c4c929190612b87565b600080610cc783603c61153f565b90508051600003610cdb5750600092915050565b610ce481611cc3565b9392505050565b6060600a60008581526020019081526020016000208383604051610d10929190612a7a565b90815260200160405180910390208054610d2990612b34565b80601f0160208091040260200160405190810160405280929190818152602001828054610d5590612b34565b8015610da25780601f10610d7757610100808354040283529160200191610da2565b820191906000526020600020905b815481529060010190602001808311610d8557829003601f168201915b505050505090509392505050565b6000818152600360205260409020805460609190610dcd90612b34565b80601f0160208091040260200160405190810160405280929190818152602001828054610df990612b34565b8015610e465780601f10610e1b57610100808354040283529160200191610e46565b820191906000526020600020905b815481529060010190602001808311610e2957829003601f168201915b50505050509050919050565b83610e5c81611643565b610e6557600080fd5b83610e71600182612a63565b1615610e7c57600080fd5b6000858152602081815260408083208784529091529020610e9e90848461229e565b50604051849086907faa121bbeef5f32f5961a2a28966e769023910fc9479059ee3495d4c1a696efe390600090a35050505050565b6000818152600860205260409020805460609190610dcd90612b34565b82610efa81611643565b610f0357600080fd5b6000848152600860205260409020610f1c90848461229e565b50837fb7d29e911041e8d9b843369e890bcb72c9388692ba48b65ac54e7214c4c348f78484604051610c4c929190612b87565b82610f5981611643565b610f6257600080fd5b837f65412581168e88a1e60c6459d7f44ae83ad0832e670826c05a4e2476b57af7528484604051610f94929190612626565b60405180910390a2603c8303610ff857837f52d7d861f09ab3d26239d492e8968629f95e9e318cf0b73bfddc441522a15fd2610fcf84611cc3565b60405173ffffffffffffffffffffffffffffffffffffffff909116815260200160405180910390a25b60008481526001602090815260408083208684528252909120835161101f92850190612340565b5050505050565b73ffffffffffffffffffffffffffffffffffffffff821633036110cf576040517f08c379a000000000000000000000000000000000000000000000000000000000815260206004820152602960248201527f455243313135353a2073657474696e6720617070726f76616c2073746174757360448201527f20666f722073656c660000000000000000000000000000000000000000000000606482015260840160405180910390fd5b336000818152600b6020908152604080832073ffffffffffffffffffffffffffffffffffffffff87168085529083529281902080547fffffffffffffffffffffffffffffffffffffffffffffffffffffffffffffff001686151590811790915590519081529192917f17307eab39ab6107e8899845ad3d59bd9653f200f220920489ca2b5937696c31910160405180910390a35050565b6000838152600560209081526040808320600483528184205484528252808320858452825280832061ffff851684529091529020805460609190610d2990612b34565b60608167ffffffffffffffff8111156111c4576111c46126ea565b6040519080825280602002602001820160405280156111f757816020015b60608152602001906001900390816111e25790505b50905060005b828110156112bd576000803086868581811061121b5761121b612b05565b905060200281019061122d9190612b9b565b60405161123b929190612a7a565b600060405180830381855af49150503d8060008114611276576040519150601f19603f3d011682016040523d82523d6000602084013e61127b565b606091505b50915091508161128a57600080fd5b8084848151811061129d5761129d612b05565b6020026020010181905250505080806112b590612c00565b9150506111fd565b5092915050565b806112ce81611643565b6112d757600080fd5b60008281526004602052604081208054916112f183612c00565b909155505060405182907fb757169b8492ca2f1c6619d9d76ce22803035c3b1d5f6930dffe7b127c1a198390600090a25050565b6000818152600260205260409020805460609190610dcd90612b34565b8261134c81611643565b61135557600080fd5b6000848152600360205260408120805461136e90612b34565b80601f016020809104026020016040519081016040528092919081815260200182805461139a90612b34565b80156113e75780601f106113bc576101008083540402835291602001916113e7565b820191906000526020600020905b8154815290600101906020018083116113ca57829003601f168201915b505050600088815260036020526040902092935061140a9291508690508561229e565b50847f8f15ed4b723ef428f250961da8315675b507046737e19319fc1a4d81bfe87f8582868660405161143f93929190612c38565b60405180910390a25050505050565b8161145881611643565b61146157600080fd5b61147083603c61034f85611ceb565b505050565b8261147f81611643565b61148857600080fd5b60008481526007602090815260408083207fffffffff0000000000000000000000000000000000000000000000000000000087168085529083529281902080547fffffffffffffffffffffffff00000000000000000000000000000000000000001673ffffffffffffffffffffffffffffffffffffffff8716908117909155905190815286917f7c69f06bea0bdef565b709e93a147836b0063ba2dd89f02d0b7e8d931e6a6daa910160405180910390a350505050565b6000828152600160209081526040808320848452909152902080546060919061156790612b34565b80601f016020809104026020016040519081016040528092919081815260200182805461159390612b34565b80156115e05780601f106115b5576101008083540402835291602001916115e0565b820191906000526020600020905b8154815290600101906020018083116115c357829003601f168201915b5050505050905092915050565b60007fffffffff0000000000000000000000000000000000000000000000000000000082167f59d1d43c00000000000000000000000000000000000000000000000000000000148061049d575061049d82611d24565b60003373ffffffffffffffffffffffffffffffffffffffff7f00000000000000000000000000000000000000000000000000000000000000001614806116be57503373ffffffffffffffffffffffffffffffffffffffff7f000000000000000000000000000000000000000000000000000000000000000016145b156116cb57506001919050565b6040517f02571be3000000000000000000000000000000000000000000000000000000008152600481018390526000907f000000000000000000000000000000000000000000000000000000000000000073ffffffffffffffffffffffffffffffffffffffff16906302571be390602401602060405180830381865afa158015611759573d6000803e3d6000fd5b505050506040513d601f19601f8201168201806040525081019061177d9190612c68565b90507f000000000000000000000000000000000000000000000000000000000000000073ffffffffffffffffffffffffffffffffffffffff168173ffffffffffffffffffffffffffffffffffffffff1603611884576040517f6352211e000000000000000000000000000000000000000000000000000000008152600481018490527f000000000000000000000000000000000000000000000000000000000000000073ffffffffffffffffffffffffffffffffffffffff1690636352211e90602401602060405180830381865afa15801561185d573d6000803e3d6000fd5b505050506040513d601f19601f820116820180604052508101906118819190612c68565b90505b73ffffffffffffffffffffffffffffffffffffffff8116331480610ce4575073ffffffffffffffffffffffffffffffffffffffff81166000908152600b6020908152604080832033845290915290205460ff16610ce4565b61192a6040518060e001604052806060815260200160008152602001600061ffff168152602001600061ffff168152602001600063ffffffff16815260200160008152602001600081525090565b82815260c0810182905261049d81611bdb565b6020810151815160609161049d916119559082611d7a565b84519190611ddc565b60a081015160c082015160609161049d91611955908290612a63565b600081518351148015610ce45750610ce48360008460008751611e53565b600087815260046020908152604082205488519189019190912090916119bf878787611ddc565b90508315611ac85760008a81526005602090815260408083208684528252808320858452825280832061ffff8c168452909152902080546119ff90612b34565b159050611a535760008a815260066020908152604080832086845282528083208584529091528120805461ffff1691611a3783612c85565b91906101000a81548161ffff021916908361ffff160217905550505b60008a81526005602090815260408083208684528252808320858452825280832061ffff8c1684529091528120611a89916123b4565b897f03528ed0c2a3ebc993b12ce3c16bb382f9c7d88ef7d8a1bf290eaf35955a12078a8a604051611abb929190612cc1565b60405180910390a2611bcf565b60008a81526005602090815260408083208684528252808320858452825280832061ffff8c16845290915290208054611b0090612b34565b9050600003611b565760008a815260066020908152604080832086845282528083208584529091528120805461ffff1691611b3a83612ce7565b91906101000a81548161ffff021916908361ffff160217905550505b60008a81526005602090815260408083208684528252808320858452825280832061ffff8c16845282529091208251611b9192840190612340565b50897f52a608b3303a48862d07a73d82fa221318c0027fbbcfb1b2329bface3f19ff2b8a8a84604051611bc693929190612d08565b60405180910390a25b50505050505050505050565b60c08101516020820181905281515111611bf25750565b6000611c0682600001518360200151611d7a565b8260200151611c159190612d37565b8251909150611c249082611e76565b61ffff166040830152611c38600282612d37565b8251909150611c479082611e76565b61ffff166060830152611c5b600282612d37565b8251909150611c6a9082611e9e565b63ffffffff166080830152611c80600482612d37565b8251909150600090611c929083611e76565b61ffff169050611ca3600283612d37565b60a084018190529150611cb68183612d37565b60c0909301929092525050565b60008151601414611cd357600080fd5b50602001516c01000000000000000000000000900490565b6040805160148082528183019092526060916020820181803683375050506c010000000000000000000000009290920260208301525090565b60007fffffffff0000000000000000000000000000000000000000000000000000000082167fc869023300000000000000000000000000000000000000000000000000000000148061049d575061049d82611ec8565b6000815b83518110611d8e57611d8e612d4f565b6000611d9a8583611f1e565b60ff169050611daa816001612d37565b611db49083612d37565b915080600003611dc45750611dca565b50611d7e565b611dd48382612a63565b949350505050565b8251606090611deb8385612d37565b1115611df657600080fd5b60008267ffffffffffffffff811115611e1157611e116126ea565b6040519080825280601f01601f191660200182016040528015611e3b576020820181803683370190505b50905060208082019086860101610ab4828287611f42565b6000611e60848484611fb6565b611e6b878785611fb6565b149695505050505050565b8151600090611e86836002612d37565b1115611e9157600080fd5b50016002015161ffff1690565b8151600090611eae836004612d37565b1115611eb957600080fd5b50016004015163ffffffff1690565b60007fffffffff0000000000000000000000000000000000000000000000000000000082167f691f343100000000000000000000000000000000000000000000000000000000148061049d575061049d82611fda565b6000828281518110611f3257611f32612b05565b016020015160f81c905092915050565b60208110611f7a5781518352611f59602084612d37565b9250611f66602083612d37565b9150611f73602082612a63565b9050611f42565b905182516020929092036101000a7fffffffffffffffffffffffffffffffffffffffffffffffffffffffffffffffff0180199091169116179052565b8251600090611fc58385612d37565b1115611fd057600080fd5b5091016020012090565b60007fffffffff0000000000000000000000000000000000000000000000000000000082167f124a319c00000000000000000000000000000000000000000000000000000000148061049d575061049d8260007fffffffff0000000000000000000000000000000000000000000000000000000082167fa8fa56820000000000000000000000000000000000000000000000000000000014806120be57507fffffffff0000000000000000000000000000000000000000000000000000000082167f5c98042b00000000000000000000000000000000000000000000000000000000145b8061049d575061049d8260007fffffffff0000000000000000000000000000000000000000000000000000000082167fbc1c58d100000000000000000000000000000000000000000000000000000000148061049d575061049d8260007fffffffff0000000000000000000000000000000000000000000000000000000082167f3b3b57de0000000000000000000000000000000000000000000000000000000014806121ac57507fffffffff0000000000000000000000000000000000000000000000000000000082167ff1cb7e0600000000000000000000000000000000000000000000000000000000145b8061049d575061049d8260007fffffffff0000000000000000000000000000000000000000000000000000000082167f2203ab5600000000000000000000000000000000000000000000000000000000148061049d575061049d8260007fffffffff0000000000000000000000000000000000000000000000000000000082167fac9650d800000000000000000000000000000000000000000000000000000000148061049d57507f01ffc9a7000000000000000000000000000000000000000000000000000000007fffffffff0000000000000000000000000000000000000000000000000000000083161461049d565b8280546122aa90612b34565b90600052602060002090601f0160209004810192826122cc5760008555612330565b82601f10612303578280017fffffffffffffffffffffffffffffffffffffffffffffffffffffffffffffff00823516178555612330565b82800160010185558215612330579182015b82811115612330578235825591602001919060010190612315565b5061233c9291506123f1565b5090565b82805461234c90612b34565b90600052602060002090601f01602090048101928261236e5760008555612330565b82601f1061238757805160ff1916838001178555612330565b82800160010185558215612330579182015b82811115612330578251825591602001919060010190612399565b5080546123c090612b34565b6000825580601f106123d0575050565b601f0160209004906000526020600020908101906123ee91906123f1565b50565b5b8082111561233c57600081556001016123f2565b80357fffffffff000000000000000000000000000000000000000000000000000000008116811461243657600080fd5b919050565b60006020828403121561244d57600080fd5b610ce482612406565b60008083601f84011261246857600080fd5b50813567ffffffffffffffff81111561248057600080fd5b602083019150836020828501011115610bd357600080fd5b6000806000604084860312156124ad57600080fd5b83359250602084013567ffffffffffffffff8111156124cb57600080fd5b6124d786828701612456565b9497909650939450505050565b6000806000806000606086880312156124fc57600080fd5b85359450602086013567ffffffffffffffff8082111561251b57600080fd5b61252789838a01612456565b9096509450604088013591508082111561254057600080fd5b5061254d88828901612456565b969995985093965092949392505050565b6000806040838503121561257157600080fd5b8235915061258160208401612406565b90509250929050565b6000806040838503121561259d57600080fd5b50508035926020909101359150565b60005b838110156125c75781810151838201526020016125af565b838111156125d6576000848401525b50505050565b600081518084526125f48160208601602086016125ac565b601f017fffffffffffffffffffffffffffffffffffffffffffffffffffffffffffffffe0169290920160200192915050565b828152604060208201526000611dd460408301846125dc565b60008060006060848603121561265457600080fd5b505081359360208301359350604090920135919050565b60006020828403121561267d57600080fd5b5035919050565b602081526000610ce460208301846125dc565b600080600080606085870312156126ad57600080fd5b8435935060208501359250604085013567ffffffffffffffff8111156126d257600080fd5b6126de87828801612456565b95989497509550505050565b7f4e487b7100000000000000000000000000000000000000000000000000000000600052604160045260246000fd5b60008060006060848603121561272e57600080fd5b8335925060208401359150604084013567ffffffffffffffff8082111561275457600080fd5b818601915086601f83011261276857600080fd5b81358181111561277a5761277a6126ea565b604051601f82017fffffffffffffffffffffffffffffffffffffffffffffffffffffffffffffffe0908116603f011681019083821181831017156127c0576127c06126ea565b816040528281528960208487010111156127d957600080fd5b8260208601602083013760006020848301015280955050505050509250925092565b73ffffffffffffffffffffffffffffffffffffffff811681146123ee57600080fd5b6000806040838503121561283057600080fd5b823561283b816127fb565b91506020830135801515811461285057600080fd5b809150509250929050565b60008060006060848603121561287057600080fd5b8335925060208401359150604084013561ffff8116811461289057600080fd5b809150509250925092565b600080602083850312156128ae57600080fd5b823567ffffffffffffffff808211156128c657600080fd5b818501915085601f8301126128da57600080fd5b8135818111156128e957600080fd5b8660208260051b85010111156128fe57600080fd5b60209290920196919550909350505050565b6000602080830181845280855180835260408601915060408160051b870101925083870160005b82811015612983577fffffffffffffffffffffffffffffffffffffffffffffffffffffffffffffffc08886030184526129718583516125dc565b94509285019290850190600101612937565b5092979650505050505050565b600080604083850312156129a357600080fd5b823591506020830135612850816127fb565b6000806000606084860312156129ca57600080fd5b833592506129da60208501612406565b91506040840135612890816127fb565b600080604083850312156129fd57600080fd5b8235612a08816127fb565b91506020830135612850816127fb565b60008251612a2a8184602087016125ac565b9190910192915050565b7f4e487b7100000000000000000000000000000000000000000000000000000000600052601160045260246000fd5b600082821015612a7557612a75612a34565b500390565b8183823760009101908152919050565b8183528181602085013750600060208284010152600060207fffffffffffffffffffffffffffffffffffffffffffffffffffffffffffffffe0601f840116840101905092915050565b604081526000612ae7604083018688612a8a565b8281036020840152612afa818587612a8a565b979650505050505050565b7f4e487b7100000000000000000000000000000000000000000000000000000000600052603260045260246000fd5b600181811c90821680612b4857607f821691505b602082108103612b81577f4e487b7100000000000000000000000000000000000000000000000000000000600052602260045260246000fd5b50919050565b602081526000611dd4602083018486612a8a565b60008083357fffffffffffffffffffffffffffffffffffffffffffffffffffffffffffffffe1843603018112612bd057600080fd5b83018035915067ffffffffffffffff821115612beb57600080fd5b602001915036819003821315610bd357600080fd5b60007fffffffffffffffffffffffffffffffffffffffffffffffffffffffffffffffff8203612c3157612c31612a34565b5060010190565b604081526000612c4b60408301866125dc565b8281036020840152612c5e818587612a8a565b9695505050505050565b600060208284031215612c7a57600080fd5b8151610ce4816127fb565b600061ffff821680612c9957612c99612a34565b7fffffffffffffffffffffffffffffffffffffffffffffffffffffffffffffffff0192915050565b604081526000612cd460408301856125dc565b905061ffff831660208301529392505050565b600061ffff808316818103612cfe57612cfe612a34565b6001019392505050565b606081526000612d1b60608301866125dc565b61ffff851660208401528281036040840152612c5e81856125dc565b60008219821115612d4a57612d4a612a34565b500190565b7f4e487b7100000000000000000000000000000000000000000000000000000000600052600160045260246000fdfea26469706673582212201f42cc6176c8dcc75cd53d8c8bae8f032d7d7b1a41db3cd6855b6c4b9bd5fefb64736f6c634300080d0033",
  "linkReferences": {},
  "deployedLinkReferences": {}
}