{
  "_format": "hh-sol-artifact-1",
  "contractName": "DummyDNSSEC",
  "sourceName": "contracts/dnsregistrar/mocks/DummyDnsRegistrarDNSSEC.sol",
  "abi": [
    {
      "inputs": [
        {
          "internalType": "uint16",
          "name": "dnstype",
          "type": "uint16"
        },
        {
          "internalType": "bytes",
          "name": "name",
          "type": "bytes"
        }
      ],
      "name": "rrdata",
      "outputs": [
        {
          "internalType": "uint32",
          "name": "",
          "type": "uint32"
        },
        {
          "internalType": "uint64",
          "name": "",
          "type": "uint64"
        },
        {
          "internalType": "bytes20",
          "name": "",
          "type": "bytes20"
        }
      ],
      "stateMutability": "view",
      "type": "function"
    },
    {
      "inputs": [
        {
          "internalType": "uint16",
          "name": "_expectedType",
          "type": "uint16"
        },
        {
          "internalType": "bytes",
          "name": "_expectedName",
          "type": "bytes"
        },
        {
          "internalType": "uint32",
          "name": "_inception",
          "type": "uint32"
        },
        {
          "internalType": "uint64",
          "name": "_inserted",
          "type": "uint64"
        },
        {
          "internalType": "bytes",
          "name": "_proof",
          "type": "bytes"
        }
      ],
      "name": "setData",
      "outputs": [],
      "stateMutability": "nonpayable",
      "type": "function"
    }
  ],
  "bytecode": "0x608060405234801561001057600080fd5b506105dd806100206000396000f3fe608060405234801561001057600080fd5b50600436106100365760003560e01c8063087991bc1461003b5780638581a99c1461009f575b600080fd5b61004e610049366004610388565b6100b4565b6040805163ffffffff909416845267ffffffffffffffff90921660208401527fffffffffffffffffffffffffffffffffffffffff000000000000000000000000169082015260600160405180910390f35b6100b26100ad3660046103d6565b610132565b005b600080548190819061ffff8681169116146100ce57600080fd5b60016040516100dd91906104d5565b60405180910390208480519060200120146100f757600080fd5b505060025463ffffffff8116915067ffffffffffffffff640100000000820416906c01000000000000000000000000900460601b9250925092565b600080547fffffffffffffffffffffffffffffffffffffffffffffffffffffffffffff00001661ffff871617905583516101739060019060208701906101fe565b506002805467ffffffffffffffff8416640100000000027fffffffffffffffffffffffffffffffffffffffff00000000000000000000000090911663ffffffff8616171790558051156101f757805160208201206002805460609290921c6c01000000000000000000000000026bffffffffffffffffffffffff9092169190911790555b5050505050565b82805461020a90610482565b90600052602060002090601f01602090048101928261022c5760008555610272565b82601f1061024557805160ff1916838001178555610272565b82800160010185558215610272579182015b82811115610272578251825591602001919060010190610257565b5061027e929150610282565b5090565b5b8082111561027e5760008155600101610283565b803561ffff811681146102a957600080fd5b919050565b7f4e487b7100000000000000000000000000000000000000000000000000000000600052604160045260246000fd5b600082601f8301126102ee57600080fd5b813567ffffffffffffffff80821115610309576103096102ae565b604051601f83017fffffffffffffffffffffffffffffffffffffffffffffffffffffffffffffffe0908116603f0116810190828211818310171561034f5761034f6102ae565b8160405283815286602085880101111561036857600080fd5b836020870160208301376000602085830101528094505050505092915050565b6000806040838503121561039b57600080fd5b6103a483610297565b9150602083013567ffffffffffffffff8111156103c057600080fd5b6103cc858286016102dd565b9150509250929050565b600080600080600060a086880312156103ee57600080fd5b6103f786610297565b9450602086013567ffffffffffffffff8082111561041457600080fd5b61042089838a016102dd565b95506040880135915063ffffffff8216821461043b57600080fd5b909350606087013590808216821461045257600080fd5b9092506080870135908082111561046857600080fd5b50610475888289016102dd565b9150509295509295909350565b600181811c9082168061049657607f821691505b6020821081036104cf577f4e487b7100000000000000000000000000000000000000000000000000000000600052602260045260246000fd5b50919050565b600080835481600182811c9150808316806104f157607f831692505b60208084108203610529577f4e487b710000000000000000000000000000000000000000000000000000000086526022600452602486fd5b81801561053d576001811461056c57610599565b7fffffffffffffffffffffffffffffffffffffffffffffffffffffffffffffff00861689528489019650610599565b60008a81526020902060005b868110156105915781548b820152908501908301610578565b505084890196505b50949897505050505050505056fea2646970667358221220dd9c5184d5a110c2636679af7a935cdbed5fd64bb80383539fb6645d23d3586764736f6c634300080d0033",
  "linkReferences": {},
  "deployedLinkReferences": {}
}