{
  "_format": "hh-sol-artifact-1",
  "contractName": "LegacyResolver",
  "sourceName": "test/utils/mocks/LegacyResolver.sol",
  "abi": [
    {
      "inputs": [
        {
          "internalType": "bytes32",
          "name": "",
          "type": "bytes32"
        }
      ],
      "name": "addr",
      "outputs": [
        {
          "internalType": "address",
          "name": "",
          "type": "address"
        }
      ],
      "stateMutability": "view",
      "type": "function"
    }
  ],
  "bytecode": "0x608060405234801561001057600080fd5b5060b48061001f6000396000f3fe6080604052348015600f57600080fd5b506004361060285760003560e01c80633b3b57de14602d575b600080fd5b603d60383660046066565b503090565b60405173ffffffffffffffffffffffffffffffffffffffff909116815260200160405180910390f35b600060208284031215607757600080fd5b503591905056fea2646970667358221220ae51f11f33b235cf1390a78633bd32d891b63ee5a44296049e0e0223afb1bda764736f6c63430008110033",
  "linkReferences": {},
  "deployedLinkReferences": {}
}